{
  "address": "0x5FbDB2315678afecb367f032d93F642f64180aa3",
  "abi": [
    {
      "inputs": [],
      "stateMutability": "nonpayable",
      "type": "constructor"
    },
    {
      "anonymous": false,
      "inputs": [
        {
          "indexed": true,
          "internalType": "address",
          "name": "account",
          "type": "address"
        },
        {
          "indexed": true,
          "internalType": "address",
          "name": "operator",
          "type": "address"
        },
        {
          "indexed": false,
          "internalType": "bool",
          "name": "approved",
          "type": "bool"
        }
      ],
      "name": "ApprovalForAll",
      "type": "event"
    },
    {
      "anonymous": false,
      "inputs": [
        {
          "indexed": false,
          "internalType": "address",
          "name": "marketplace",
          "type": "address"
        }
      ],
      "name": "MarketplaceSet",
      "type": "event"
    },
    {
      "anonymous": false,
      "inputs": [
        {
          "indexed": true,
          "internalType": "address",
          "name": "previousOwner",
          "type": "address"
        },
        {
          "indexed": true,
          "internalType": "address",
          "name": "newOwner",
          "type": "address"
        }
      ],
      "name": "OwnershipTransferred",
      "type": "event"
    },
    {
      "anonymous": false,
      "inputs": [
        {
          "indexed": true,
          "internalType": "address",
          "name": "operator",
          "type": "address"
        },
        {
          "indexed": true,
          "internalType": "address",
          "name": "from",
          "type": "address"
        },
        {
          "indexed": true,
          "internalType": "address",
          "name": "to",
          "type": "address"
        },
        {
          "indexed": false,
          "internalType": "uint256[]",
          "name": "ids",
          "type": "uint256[]"
        },
        {
          "indexed": false,
          "internalType": "uint256[]",
          "name": "values",
          "type": "uint256[]"
        }
      ],
      "name": "TransferBatch",
      "type": "event"
    },
    {
      "anonymous": false,
      "inputs": [
        {
          "indexed": true,
          "internalType": "address",
          "name": "operator",
          "type": "address"
        },
        {
          "indexed": true,
          "internalType": "address",
          "name": "from",
          "type": "address"
        },
        {
          "indexed": true,
          "internalType": "address",
          "name": "to",
          "type": "address"
        },
        {
          "indexed": false,
          "internalType": "uint256",
          "name": "id",
          "type": "uint256"
        },
        {
          "indexed": false,
          "internalType": "uint256",
          "name": "value",
          "type": "uint256"
        }
      ],
      "name": "TransferSingle",
      "type": "event"
    },
    {
      "anonymous": false,
      "inputs": [
        {
          "indexed": false,
          "internalType": "string",
          "name": "value",
          "type": "string"
        },
        {
          "indexed": true,
          "internalType": "uint256",
          "name": "id",
          "type": "uint256"
        }
      ],
      "name": "URI",
      "type": "event"
    },
    {
      "inputs": [],
      "name": "_marketplace",
      "outputs": [
        {
          "internalType": "address",
          "name": "",
          "type": "address"
        }
      ],
      "stateMutability": "view",
      "type": "function"
    },
    {
      "inputs": [
        {
          "internalType": "address",
          "name": "account",
          "type": "address"
        },
        {
          "internalType": "uint256",
          "name": "id",
          "type": "uint256"
        }
      ],
      "name": "balanceOf",
      "outputs": [
        {
          "internalType": "uint256",
          "name": "",
          "type": "uint256"
        }
      ],
      "stateMutability": "view",
      "type": "function"
    },
    {
      "inputs": [
        {
          "internalType": "address[]",
          "name": "accounts",
          "type": "address[]"
        },
        {
          "internalType": "uint256[]",
          "name": "ids",
          "type": "uint256[]"
        }
      ],
      "name": "balanceOfBatch",
      "outputs": [
        {
          "internalType": "uint256[]",
          "name": "",
          "type": "uint256[]"
        }
      ],
      "stateMutability": "view",
      "type": "function"
    },
    {
      "inputs": [],
      "name": "cat",
      "outputs": [
        {
          "internalType": "uint256",
          "name": "",
          "type": "uint256"
        }
      ],
      "stateMutability": "view",
      "type": "function"
    },
    {
      "inputs": [
        {
          "internalType": "address",
          "name": "account",
          "type": "address"
        },
        {
          "internalType": "address",
          "name": "operator",
          "type": "address"
        }
      ],
      "name": "isApprovedForAll",
      "outputs": [
        {
          "internalType": "bool",
          "name": "",
          "type": "bool"
        }
      ],
      "stateMutability": "view",
      "type": "function"
    },
    {
      "inputs": [
        {
          "internalType": "uint256",
          "name": "_itemId",
          "type": "uint256"
        },
        {
          "internalType": "address",
          "name": "_to",
          "type": "address"
        }
      ],
      "name": "mintItem",
      "outputs": [],
      "stateMutability": "nonpayable",
      "type": "function"
    },
    {
      "inputs": [],
      "name": "owner",
      "outputs": [
        {
          "internalType": "address",
          "name": "",
          "type": "address"
        }
      ],
      "stateMutability": "view",
      "type": "function"
    },
    {
      "inputs": [],
      "name": "renounceOwnership",
      "outputs": [],
      "stateMutability": "nonpayable",
      "type": "function"
    },
    {
      "inputs": [
        {
          "internalType": "address",
          "name": "from",
          "type": "address"
        },
        {
          "internalType": "address",
          "name": "to",
          "type": "address"
        },
        {
          "internalType": "uint256[]",
          "name": "ids",
          "type": "uint256[]"
        },
        {
          "internalType": "uint256[]",
          "name": "amounts",
          "type": "uint256[]"
        },
        {
          "internalType": "bytes",
          "name": "data",
          "type": "bytes"
        }
      ],
      "name": "safeBatchTransferFrom",
      "outputs": [],
      "stateMutability": "nonpayable",
      "type": "function"
    },
    {
      "inputs": [
        {
          "internalType": "address",
          "name": "from",
          "type": "address"
        },
        {
          "internalType": "address",
          "name": "to",
          "type": "address"
        },
        {
          "internalType": "uint256",
          "name": "id",
          "type": "uint256"
        },
        {
          "internalType": "uint256",
          "name": "amount",
          "type": "uint256"
        },
        {
          "internalType": "bytes",
          "name": "data",
          "type": "bytes"
        }
      ],
      "name": "safeTransferFrom",
      "outputs": [],
      "stateMutability": "nonpayable",
      "type": "function"
    },
    {
      "inputs": [
        {
          "internalType": "address",
          "name": "operator",
          "type": "address"
        },
        {
          "internalType": "bool",
          "name": "approved",
          "type": "bool"
        }
      ],
      "name": "setApprovalForAll",
      "outputs": [],
      "stateMutability": "nonpayable",
      "type": "function"
    },
    {
      "inputs": [
        {
          "internalType": "address",
          "name": "marketplace",
          "type": "address"
        }
      ],
      "name": "setMarketplace",
      "outputs": [],
      "stateMutability": "nonpayable",
      "type": "function"
    },
    {
      "inputs": [],
      "name": "soup",
      "outputs": [
        {
          "internalType": "uint256",
          "name": "",
          "type": "uint256"
        }
      ],
      "stateMutability": "view",
      "type": "function"
    },
    {
      "inputs": [
        {
          "internalType": "bytes4",
          "name": "interfaceId",
          "type": "bytes4"
        }
      ],
      "name": "supportsInterface",
      "outputs": [
        {
          "internalType": "bool",
          "name": "",
          "type": "bool"
        }
      ],
      "stateMutability": "view",
      "type": "function"
    },
    {
      "inputs": [
        {
          "internalType": "address",
          "name": "newOwner",
          "type": "address"
        }
      ],
      "name": "transferOwnership",
      "outputs": [],
      "stateMutability": "nonpayable",
      "type": "function"
    },
    {
      "inputs": [
        {
          "internalType": "uint256",
          "name": "",
          "type": "uint256"
        }
      ],
      "name": "uri",
      "outputs": [
        {
          "internalType": "string",
          "name": "",
          "type": "string"
        }
      ],
      "stateMutability": "view",
      "type": "function"
    }
  ],
  "transactionHash": "0x00e0aec96ec5374e36d022046bcdf4266d9f3184922d49c491c77af8aba98954",
  "args": [],
  "numDeployments": 1,
  "solcInputHash": "7313c90bf0cbf57e15d5490162dc4411",
  "bytecode": "0x60806040523480156200001157600080fd5b506040518060200160405280600081525062000033816200005a60201b60201c565b5062000054620000486200007660201b60201c565b6200007e60201b60201c565b62000258565b80600290805190602001906200007292919062000144565b5050565b600033905090565b6000600360009054906101000a900473ffffffffffffffffffffffffffffffffffffffff16905081600360006101000a81548173ffffffffffffffffffffffffffffffffffffffff021916908373ffffffffffffffffffffffffffffffffffffffff1602179055508173ffffffffffffffffffffffffffffffffffffffff168173ffffffffffffffffffffffffffffffffffffffff167f8be0079c531659141344cd1fd0a4f28419497f9722a3daafe3b4186f6b6457e060405160405180910390a35050565b828054620001529062000223565b90600052602060002090601f016020900481019282620001765760008555620001c2565b82601f106200019157805160ff1916838001178555620001c2565b82800160010185558215620001c2579182015b82811115620001c1578251825591602001919060010190620001a4565b5b509050620001d19190620001d5565b5090565b5b80821115620001f0576000816000905550600101620001d6565b5090565b7f4e487b7100000000000000000000000000000000000000000000000000000000600052602260045260246000fd5b600060028204905060018216806200023c57607f821691505b602082108103620002525762000251620001f4565b5b50919050565b612fec80620002686000396000f3fe608060405234801561001057600080fd5b50600436106100ff5760003560e01c80638da5cb5b11610097578063e488181311610066578063e488181314610298578063e985e9c5146102b6578063f242432a146102e6578063f2fde38b14610302576100ff565b80638da5cb5b14610222578063a22cb46514610240578063b4852e7a1461025c578063be5462211461027a576100ff565b80634dc936c0116100d35780634dc936c0146101b05780634e1273f4146101cc578063715018a6146101fc57806373ad6c2d14610206576100ff565b8062fdd58e1461010457806301ffc9a7146101345780630e89341c146101645780632eb2c2d614610194575b600080fd5b61011e60048036038101906101199190611af8565b61031e565b60405161012b9190611b47565b60405180910390f35b61014e60048036038101906101499190611bba565b6103e6565b60405161015b9190611c02565b60405180910390f35b61017e60048036038101906101799190611c1d565b6104c8565b60405161018b9190611ce3565b60405180910390f35b6101ae60048036038101906101a99190611f02565b61055c565b005b6101ca60048036038101906101c59190611fd1565b6105fd565b005b6101e660048036038101906101e191906120d4565b6106fe565b6040516101f3919061220a565b60405180910390f35b610204610817565b005b610220600480360381019061021b919061222c565b61082b565b005b61022a61093f565b6040516102379190612268565b60405180910390f35b61025a600480360381019061025591906122af565b610969565b005b61026461097f565b6040516102719190611b47565b60405180910390f35b610282610984565b60405161028f9190612268565b60405180910390f35b6102a06109aa565b6040516102ad9190611b47565b60405180910390f35b6102d060048036038101906102cb91906122ef565b6109af565b6040516102dd9190611c02565b60405180910390f35b61030060048036038101906102fb919061232f565b610a43565b005b61031c6004803603810190610317919061222c565b610ae4565b005b60008073ffffffffffffffffffffffffffffffffffffffff168373ffffffffffffffffffffffffffffffffffffffff160361038e576040517f08c379a000000000000000000000000000000000000000000000000000000000815260040161038590612438565b60405180910390fd5b60008083815260200190815260200160002060008473ffffffffffffffffffffffffffffffffffffffff1673ffffffffffffffffffffffffffffffffffffffff16815260200190815260200160002054905092915050565b60007fd9b67a26000000000000000000000000000000000000000000000000000000007bffffffffffffffffffffffffffffffffffffffffffffffffffffffff1916827bffffffffffffffffffffffffffffffffffffffffffffffffffffffff191614806104b157507f0e89341c000000000000000000000000000000000000000000000000000000007bffffffffffffffffffffffffffffffffffffffffffffffffffffffff1916827bffffffffffffffffffffffffffffffffffffffffffffffffffffffff1916145b806104c157506104c082610b67565b5b9050919050565b6060600280546104d790612487565b80601f016020809104026020016040519081016040528092919081815260200182805461050390612487565b80156105505780601f1061052557610100808354040283529160200191610550565b820191906000526020600020905b81548152906001019060200180831161053357829003601f168201915b50505050509050919050565b610564610bd1565b73ffffffffffffffffffffffffffffffffffffffff168573ffffffffffffffffffffffffffffffffffffffff1614806105aa57506105a9856105a4610bd1565b6109af565b5b6105e9576040517f08c379a00000000000000000000000000000000000000000000000000000000081526004016105e09061252a565b60405180910390fd5b6105f68585858585610bd9565b5050505050565b600460009054906101000a900473ffffffffffffffffffffffffffffffffffffffff1673ffffffffffffffffffffffffffffffffffffffff163373ffffffffffffffffffffffffffffffffffffffff161461068d576040517f08c379a000000000000000000000000000000000000000000000000000000000815260040161068490612596565b60405180910390fd5b6000821015801561069f575060018211155b6106de576040517f08c379a00000000000000000000000000000000000000000000000000000000081526004016106d590612602565b60405180910390fd5b6106fa8183600160405180602001604052806000815250610efa565b5050565b60608151835114610744576040517f08c379a000000000000000000000000000000000000000000000000000000000815260040161073b90612694565b60405180910390fd5b6000835167ffffffffffffffff81111561076157610760611d0a565b5b60405190808252806020026020018201604052801561078f5781602001602082028036833780820191505090505b50905060005b845181101561080c576107dc8582815181106107b4576107b36126b4565b5b60200260200101518583815181106107cf576107ce6126b4565b5b602002602001015161031e565b8282815181106107ef576107ee6126b4565b5b6020026020010181815250508061080590612712565b9050610795565b508091505092915050565b61081f6110aa565b6108296000611128565b565b6108336110aa565b600073ffffffffffffffffffffffffffffffffffffffff168173ffffffffffffffffffffffffffffffffffffffff16036108a2576040517f08c379a0000000000000000000000000000000000000000000000000000000008152600401610899906127cc565b60405180910390fd5b80600460006101000a81548173ffffffffffffffffffffffffffffffffffffffff021916908373ffffffffffffffffffffffffffffffffffffffff1602179055507f78fd71746fd8724dd16b5a93e765a076614159ebdc73d996a6a8884f358898e5600460009054906101000a900473ffffffffffffffffffffffffffffffffffffffff166040516109349190612268565b60405180910390a150565b6000600360009054906101000a900473ffffffffffffffffffffffffffffffffffffffff16905090565b61097b610974610bd1565b83836111ee565b5050565b600181565b600460009054906101000a900473ffffffffffffffffffffffffffffffffffffffff1681565b600081565b6000600160008473ffffffffffffffffffffffffffffffffffffffff1673ffffffffffffffffffffffffffffffffffffffff16815260200190815260200160002060008373ffffffffffffffffffffffffffffffffffffffff1673ffffffffffffffffffffffffffffffffffffffff16815260200190815260200160002060009054906101000a900460ff16905092915050565b610a4b610bd1565b73ffffffffffffffffffffffffffffffffffffffff168573ffffffffffffffffffffffffffffffffffffffff161480610a915750610a9085610a8b610bd1565b6109af565b5b610ad0576040517f08c379a0000000000000000000000000000000000000000000000000000000008152600401610ac79061252a565b60405180910390fd5b610add858585858561135a565b5050505050565b610aec6110aa565b600073ffffffffffffffffffffffffffffffffffffffff168173ffffffffffffffffffffffffffffffffffffffff1603610b5b576040517f08c379a0000000000000000000000000000000000000000000000000000000008152600401610b529061285e565b60405180910390fd5b610b6481611128565b50565b60007f01ffc9a7000000000000000000000000000000000000000000000000000000007bffffffffffffffffffffffffffffffffffffffffffffffffffffffff1916827bffffffffffffffffffffffffffffffffffffffffffffffffffffffff1916149050919050565b600033905090565b8151835114610c1d576040517f08c379a0000000000000000000000000000000000000000000000000000000008152600401610c14906128f0565b60405180910390fd5b600073ffffffffffffffffffffffffffffffffffffffff168473ffffffffffffffffffffffffffffffffffffffff1603610c8c576040517f08c379a0000000000000000000000000000000000000000000000000000000008152600401610c8390612982565b60405180910390fd5b6000610c96610bd1565b9050610ca68187878787876115f5565b60005b8451811015610e57576000858281518110610cc757610cc66126b4565b5b602002602001015190506000858381518110610ce657610ce56126b4565b5b60200260200101519050600080600084815260200190815260200160002060008b73ffffffffffffffffffffffffffffffffffffffff1673ffffffffffffffffffffffffffffffffffffffff16815260200190815260200160002054905081811015610d87576040517f08c379a0000000000000000000000000000000000000000000000000000000008152600401610d7e90612a14565b60405180910390fd5b81810360008085815260200190815260200160002060008c73ffffffffffffffffffffffffffffffffffffffff1673ffffffffffffffffffffffffffffffffffffffff168152602001908152602001600020819055508160008085815260200190815260200160002060008b73ffffffffffffffffffffffffffffffffffffffff1673ffffffffffffffffffffffffffffffffffffffff1681526020019081526020016000206000828254610e3c9190612a34565b9250508190555050505080610e5090612712565b9050610ca9565b508473ffffffffffffffffffffffffffffffffffffffff168673ffffffffffffffffffffffffffffffffffffffff168273ffffffffffffffffffffffffffffffffffffffff167f4a39dc06d4c0dbc64b70af90fd698a233a518aa5d07e595d983b8c0526c8f7fb8787604051610ece929190612a8a565b60405180910390a4610ee48187878787876115fd565b610ef2818787878787611605565b505050505050565b600073ffffffffffffffffffffffffffffffffffffffff168473ffffffffffffffffffffffffffffffffffffffff1603610f69576040517f08c379a0000000000000000000000000000000000000000000000000000000008152600401610f6090612b33565b60405180910390fd5b6000610f73610bd1565b90506000610f80856117dc565b90506000610f8d856117dc565b9050610f9e836000898585896115f5565b8460008088815260200190815260200160002060008973ffffffffffffffffffffffffffffffffffffffff1673ffffffffffffffffffffffffffffffffffffffff1681526020019081526020016000206000828254610ffd9190612a34565b925050819055508673ffffffffffffffffffffffffffffffffffffffff16600073ffffffffffffffffffffffffffffffffffffffff168473ffffffffffffffffffffffffffffffffffffffff167fc3d58168c5ae7397731d063d5bbf3d657854427343f4c083240f7aacaa2d0f62898960405161107b929190612b53565b60405180910390a4611092836000898585896115fd565b6110a183600089898989611856565b50505050505050565b6110b2610bd1565b73ffffffffffffffffffffffffffffffffffffffff166110d061093f565b73ffffffffffffffffffffffffffffffffffffffff1614611126576040517f08c379a000000000000000000000000000000000000000000000000000000000815260040161111d90612bc8565b60405180910390fd5b565b6000600360009054906101000a900473ffffffffffffffffffffffffffffffffffffffff16905081600360006101000a81548173ffffffffffffffffffffffffffffffffffffffff021916908373ffffffffffffffffffffffffffffffffffffffff1602179055508173ffffffffffffffffffffffffffffffffffffffff168173ffffffffffffffffffffffffffffffffffffffff167f8be0079c531659141344cd1fd0a4f28419497f9722a3daafe3b4186f6b6457e060405160405180910390a35050565b8173ffffffffffffffffffffffffffffffffffffffff168373ffffffffffffffffffffffffffffffffffffffff160361125c576040517f08c379a000000000000000000000000000000000000000000000000000000000815260040161125390612c5a565b60405180910390fd5b80600160008573ffffffffffffffffffffffffffffffffffffffff1673ffffffffffffffffffffffffffffffffffffffff16815260200190815260200160002060008473ffffffffffffffffffffffffffffffffffffffff1673ffffffffffffffffffffffffffffffffffffffff16815260200190815260200160002060006101000a81548160ff0219169083151502179055508173ffffffffffffffffffffffffffffffffffffffff168373ffffffffffffffffffffffffffffffffffffffff167f17307eab39ab6107e8899845ad3d59bd9653f200f220920489ca2b5937696c318360405161134d9190611c02565b60405180910390a3505050565b600073ffffffffffffffffffffffffffffffffffffffff168473ffffffffffffffffffffffffffffffffffffffff16036113c9576040517f08c379a00000000000000000000000000000000000000000000000000000000081526004016113c090612982565b60405180910390fd5b60006113d3610bd1565b905060006113e0856117dc565b905060006113ed856117dc565b90506113fd8389898585896115f5565b600080600088815260200190815260200160002060008a73ffffffffffffffffffffffffffffffffffffffff1673ffffffffffffffffffffffffffffffffffffffff16815260200190815260200160002054905085811015611494576040517f08c379a000000000000000000000000000000000000000000000000000000000815260040161148b90612a14565b60405180910390fd5b85810360008089815260200190815260200160002060008b73ffffffffffffffffffffffffffffffffffffffff1673ffffffffffffffffffffffffffffffffffffffff168152602001908152602001600020819055508560008089815260200190815260200160002060008a73ffffffffffffffffffffffffffffffffffffffff1673ffffffffffffffffffffffffffffffffffffffff16815260200190815260200160002060008282546115499190612a34565b925050819055508773ffffffffffffffffffffffffffffffffffffffff168973ffffffffffffffffffffffffffffffffffffffff168573ffffffffffffffffffffffffffffffffffffffff167fc3d58168c5ae7397731d063d5bbf3d657854427343f4c083240f7aacaa2d0f628a8a6040516115c6929190612b53565b60405180910390a46115dc848a8a86868a6115fd565b6115ea848a8a8a8a8a611856565b505050505050505050565b505050505050565b505050505050565b6116248473ffffffffffffffffffffffffffffffffffffffff16611a2d565b156117d4578373ffffffffffffffffffffffffffffffffffffffff1663bc197c8187878686866040518663ffffffff1660e01b815260040161166a959493929190612ccf565b6020604051808303816000875af19250505080156116a657506040513d601f19601f820116820180604052508101906116a39190612d4c565b60015b61174b576116b2612d86565b806308c379a00361170e57506116c6612da8565b806116d15750611710565b806040517f08c379a00000000000000000000000000000000000000000000000000000000081526004016117059190611ce3565b60405180910390fd5b505b6040517f08c379a000000000000000000000000000000000000000000000000000000000815260040161174290612eaa565b60405180910390fd5b63bc197c8160e01b7bffffffffffffffffffffffffffffffffffffffffffffffffffffffff1916817bffffffffffffffffffffffffffffffffffffffffffffffffffffffff1916146117d2576040517f08c379a00000000000000000000000000000000000000000000000000000000081526004016117c990612f3c565b60405180910390fd5b505b505050505050565b60606000600167ffffffffffffffff8111156117fb576117fa611d0a565b5b6040519080825280602002602001820160405280156118295781602001602082028036833780820191505090505b5090508281600081518110611841576118406126b4565b5b60200260200101818152505080915050919050565b6118758473ffffffffffffffffffffffffffffffffffffffff16611a2d565b15611a25578373ffffffffffffffffffffffffffffffffffffffff1663f23a6e6187878686866040518663ffffffff1660e01b81526004016118bb959493929190612f5c565b6020604051808303816000875af19250505080156118f757506040513d601f19601f820116820180604052508101906118f49190612d4c565b60015b61199c57611903612d86565b806308c379a00361195f5750611917612da8565b806119225750611961565b806040517f08c379a00000000000000000000000000000000000000000000000000000000081526004016119569190611ce3565b60405180910390fd5b505b6040517f08c379a000000000000000000000000000000000000000000000000000000000815260040161199390612eaa565b60405180910390fd5b63f23a6e6160e01b7bffffffffffffffffffffffffffffffffffffffffffffffffffffffff1916817bffffffffffffffffffffffffffffffffffffffffffffffffffffffff191614611a23576040517f08c379a0000000000000000000000000000000000000000000000000000000008152600401611a1a90612f3c565b60405180910390fd5b505b505050505050565b6000808273ffffffffffffffffffffffffffffffffffffffff163b119050919050565b6000604051905090565b600080fd5b600080fd5b600073ffffffffffffffffffffffffffffffffffffffff82169050919050565b6000611a8f82611a64565b9050919050565b611a9f81611a84565b8114611aaa57600080fd5b50565b600081359050611abc81611a96565b92915050565b6000819050919050565b611ad581611ac2565b8114611ae057600080fd5b50565b600081359050611af281611acc565b92915050565b60008060408385031215611b0f57611b0e611a5a565b5b6000611b1d85828601611aad565b9250506020611b2e85828601611ae3565b9150509250929050565b611b4181611ac2565b82525050565b6000602082019050611b5c6000830184611b38565b92915050565b60007fffffffff0000000000000000000000000000000000000000000000000000000082169050919050565b611b9781611b62565b8114611ba257600080fd5b50565b600081359050611bb481611b8e565b92915050565b600060208284031215611bd057611bcf611a5a565b5b6000611bde84828501611ba5565b91505092915050565b60008115159050919050565b611bfc81611be7565b82525050565b6000602082019050611c176000830184611bf3565b92915050565b600060208284031215611c3357611c32611a5a565b5b6000611c4184828501611ae3565b91505092915050565b600081519050919050565b600082825260208201905092915050565b60005b83811015611c84578082015181840152602081019050611c69565b83811115611c93576000848401525b50505050565b6000601f19601f8301169050919050565b6000611cb582611c4a565b611cbf8185611c55565b9350611ccf818560208601611c66565b611cd881611c99565b840191505092915050565b60006020820190508181036000830152611cfd8184611caa565b905092915050565b600080fd5b7f4e487b7100000000000000000000000000000000000000000000000000000000600052604160045260246000fd5b611d4282611c99565b810181811067ffffffffffffffff82111715611d6157611d60611d0a565b5b80604052505050565b6000611d74611a50565b9050611d808282611d39565b919050565b600067ffffffffffffffff821115611da057611d9f611d0a565b5b602082029050602081019050919050565b600080fd5b6000611dc9611dc484611d85565b611d6a565b90508083825260208201905060208402830185811115611dec57611deb611db1565b5b835b81811015611e155780611e018882611ae3565b845260208401935050602081019050611dee565b5050509392505050565b600082601f830112611e3457611e33611d05565b5b8135611e44848260208601611db6565b91505092915050565b600080fd5b600067ffffffffffffffff821115611e6d57611e6c611d0a565b5b611e7682611c99565b9050602081019050919050565b82818337600083830152505050565b6000611ea5611ea084611e52565b611d6a565b905082815260208101848484011115611ec157611ec0611e4d565b5b611ecc848285611e83565b509392505050565b600082601f830112611ee957611ee8611d05565b5b8135611ef9848260208601611e92565b91505092915050565b600080600080600060a08688031215611f1e57611f1d611a5a565b5b6000611f2c88828901611aad565b9550506020611f3d88828901611aad565b945050604086013567ffffffffffffffff811115611f5e57611f5d611a5f565b5b611f6a88828901611e1f565b935050606086013567ffffffffffffffff811115611f8b57611f8a611a5f565b5b611f9788828901611e1f565b925050608086013567ffffffffffffffff811115611fb857611fb7611a5f565b5b611fc488828901611ed4565b9150509295509295909350565b60008060408385031215611fe857611fe7611a5a565b5b6000611ff685828601611ae3565b925050602061200785828601611aad565b9150509250929050565b600067ffffffffffffffff82111561202c5761202b611d0a565b5b602082029050602081019050919050565b600061205061204b84612011565b611d6a565b9050808382526020820190506020840283018581111561207357612072611db1565b5b835b8181101561209c57806120888882611aad565b845260208401935050602081019050612075565b5050509392505050565b600082601f8301126120bb576120ba611d05565b5b81356120cb84826020860161203d565b91505092915050565b600080604083850312156120eb576120ea611a5a565b5b600083013567ffffffffffffffff81111561210957612108611a5f565b5b612115858286016120a6565b925050602083013567ffffffffffffffff81111561213657612135611a5f565b5b61214285828601611e1f565b9150509250929050565b600081519050919050565b600082825260208201905092915050565b6000819050602082019050919050565b61218181611ac2565b82525050565b60006121938383612178565b60208301905092915050565b6000602082019050919050565b60006121b78261214c565b6121c18185612157565b93506121cc83612168565b8060005b838110156121fd5781516121e48882612187565b97506121ef8361219f565b9250506001810190506121d0565b5085935050505092915050565b6000602082019050818103600083015261222481846121ac565b905092915050565b60006020828403121561224257612241611a5a565b5b600061225084828501611aad565b91505092915050565b61226281611a84565b82525050565b600060208201905061227d6000830184612259565b92915050565b61228c81611be7565b811461229757600080fd5b50565b6000813590506122a981612283565b92915050565b600080604083850312156122c6576122c5611a5a565b5b60006122d485828601611aad565b92505060206122e58582860161229a565b9150509250929050565b6000806040838503121561230657612305611a5a565b5b600061231485828601611aad565b925050602061232585828601611aad565b9150509250929050565b600080600080600060a0868803121561234b5761234a611a5a565b5b600061235988828901611aad565b955050602061236a88828901611aad565b945050604061237b88828901611ae3565b935050606061238c88828901611ae3565b925050608086013567ffffffffffffffff8111156123ad576123ac611a5f565b5b6123b988828901611ed4565b9150509295509295909350565b7f455243313135353a2061646472657373207a65726f206973206e6f742061207660008201527f616c6964206f776e657200000000000000000000000000000000000000000000602082015250565b6000612422602a83611c55565b915061242d826123c6565b604082019050919050565b6000602082019050818103600083015261245181612415565b9050919050565b7f4e487b7100000000000000000000000000000000000000000000000000000000600052602260045260246000fd5b6000600282049050600182168061249f57607f821691505b6020821081036124b2576124b1612458565b5b50919050565b7f455243313135353a2063616c6c6572206973206e6f7420746f6b656e206f776e60008201527f6572206e6f7220617070726f7665640000000000000000000000000000000000602082015250565b6000612514602f83611c55565b915061251f826124b8565b604082019050919050565b6000602082019050818103600083015261254381612507565b9050919050565b7f556e617574686f72697a65642e204d61726b6574706c616365206f6e6c792e00600082015250565b6000612580601f83611c55565b915061258b8261254a565b602082019050919050565b600060208201905081810360008301526125af81612573565b9050919050565b7f496e76616c6964206974656d2049440000000000000000000000000000000000600082015250565b60006125ec600f83611c55565b91506125f7826125b6565b602082019050919050565b6000602082019050818103600083015261261b816125df565b9050919050565b7f455243313135353a206163636f756e747320616e6420696473206c656e67746860008201527f206d69736d617463680000000000000000000000000000000000000000000000602082015250565b600061267e602983611c55565b915061268982612622565b604082019050919050565b600060208201905081810360008301526126ad81612671565b9050919050565b7f4e487b7100000000000000000000000000000000000000000000000000000000600052603260045260246000fd5b7f4e487b7100000000000000000000000000000000000000000000000000000000600052601160045260246000fd5b600061271d82611ac2565b91507fffffffffffffffffffffffffffffffffffffffffffffffffffffffffffffffff820361274f5761274e6126e3565b5b600182019050919050565b7f43616e6e6f742061737369676e206d61726b6574706c61636520746f207a657260008201527f6f20616464726573730000000000000000000000000000000000000000000000602082015250565b60006127b6602983611c55565b91506127c18261275a565b604082019050919050565b600060208201905081810360008301526127e5816127a9565b9050919050565b7f4f776e61626c653a206e6577206f776e657220697320746865207a65726f206160008201527f6464726573730000000000000000000000000000000000000000000000000000602082015250565b6000612848602683611c55565b9150612853826127ec565b604082019050919050565b600060208201905081810360008301526128778161283b565b9050919050565b7f455243313135353a2069647320616e6420616d6f756e7473206c656e6774682060008201527f6d69736d61746368000000000000000000000000000000000000000000000000602082015250565b60006128da602883611c55565b91506128e58261287e565b604082019050919050565b60006020820190508181036000830152612909816128cd565b9050919050565b7f455243313135353a207472616e7366657220746f20746865207a65726f20616460008201527f6472657373000000000000000000000000000000000000000000000000000000602082015250565b600061296c602583611c55565b915061297782612910565b604082019050919050565b6000602082019050818103600083015261299b8161295f565b9050919050565b7f455243313135353a20696e73756666696369656e742062616c616e636520666f60008201527f72207472616e7366657200000000000000000000000000000000000000000000602082015250565b60006129fe602a83611c55565b9150612a09826129a2565b604082019050919050565b60006020820190508181036000830152612a2d816129f1565b9050919050565b6000612a3f82611ac2565b9150612a4a83611ac2565b9250827fffffffffffffffffffffffffffffffffffffffffffffffffffffffffffffffff03821115612a7f57612a7e6126e3565b5b828201905092915050565b60006040820190508181036000830152612aa481856121ac565b90508181036020830152612ab881846121ac565b90509392505050565b7f455243313135353a206d696e7420746f20746865207a65726f2061646472657360008201527f7300000000000000000000000000000000000000000000000000000000000000602082015250565b6000612b1d602183611c55565b9150612b2882612ac1565b604082019050919050565b60006020820190508181036000830152612b4c81612b10565b9050919050565b6000604082019050612b686000830185611b38565b612b756020830184611b38565b9392505050565b7f4f776e61626c653a2063616c6c6572206973206e6f7420746865206f776e6572600082015250565b6000612bb2602083611c55565b9150612bbd82612b7c565b602082019050919050565b60006020820190508181036000830152612be181612ba5565b9050919050565b7f455243313135353a2073657474696e6720617070726f76616c2073746174757360008201527f20666f722073656c660000000000000000000000000000000000000000000000602082015250565b6000612c44602983611c55565b9150612c4f82612be8565b604082019050919050565b60006020820190508181036000830152612c7381612c37565b9050919050565b600081519050919050565b600082825260208201905092915050565b6000612ca182612c7a565b612cab8185612c85565b9350612cbb818560208601611c66565b612cc481611c99565b840191505092915050565b600060a082019050612ce46000830188612259565b612cf16020830187612259565b8181036040830152612d0381866121ac565b90508181036060830152612d1781856121ac565b90508181036080830152612d2b8184612c96565b90509695505050505050565b600081519050612d4681611b8e565b92915050565b600060208284031215612d6257612d61611a5a565b5b6000612d7084828501612d37565b91505092915050565b60008160e01c9050919050565b600060033d1115612da55760046000803e612da2600051612d79565b90505b90565b600060443d10612e3557612dba611a50565b60043d036004823e80513d602482011167ffffffffffffffff82111715612de2575050612e35565b808201805167ffffffffffffffff811115612e005750505050612e35565b80602083010160043d038501811115612e1d575050505050612e35565b612e2c82602001850186611d39565b82955050505050505b90565b7f455243313135353a207472616e7366657220746f206e6f6e204552433131353560008201527f526563656976657220696d706c656d656e746572000000000000000000000000602082015250565b6000612e94603483611c55565b9150612e9f82612e38565b604082019050919050565b60006020820190508181036000830152612ec381612e87565b9050919050565b7f455243313135353a204552433131353552656365697665722072656a6563746560008201527f6420746f6b656e73000000000000000000000000000000000000000000000000602082015250565b6000612f26602883611c55565b9150612f3182612eca565b604082019050919050565b60006020820190508181036000830152612f5581612f19565b9050919050565b600060a082019050612f716000830188612259565b612f7e6020830187612259565b612f8b6040830186611b38565b612f986060830185611b38565b8181036080830152612faa8184612c96565b9050969550505050505056fea2646970667358221220692fd99d435fd8572d9466f0382d3a048b1f58a401a6cf070b1f67c5b10b4cb864736f6c634300080d0033",
  "devdoc": {
    "kind": "dev",
    "methods": {
      "balanceOf(address,uint256)": {
        "details": "See {IERC1155-balanceOf}. Requirements: - `account` cannot be the zero address."
      },
      "balanceOfBatch(address[],uint256[])": {
        "details": "See {IERC1155-balanceOfBatch}. Requirements: - `accounts` and `ids` must have the same length."
      },
      "isApprovedForAll(address,address)": {
        "details": "See {IERC1155-isApprovedForAll}."
      },
      "owner()": {
        "details": "Returns the address of the current owner."
      },
      "renounceOwnership()": {
        "details": "Leaves the contract without owner. It will not be possible to call `onlyOwner` functions anymore. Can only be called by the current owner. NOTE: Renouncing ownership will leave the contract without an owner, thereby removing any functionality that is only available to the owner."
      },
      "safeBatchTransferFrom(address,address,uint256[],uint256[],bytes)": {
        "details": "See {IERC1155-safeBatchTransferFrom}."
      },
      "safeTransferFrom(address,address,uint256,uint256,bytes)": {
        "details": "See {IERC1155-safeTransferFrom}."
      },
      "setApprovalForAll(address,bool)": {
        "details": "See {IERC1155-setApprovalForAll}."
      },
      "supportsInterface(bytes4)": {
        "details": "See {IERC165-supportsInterface}."
      },
      "transferOwnership(address)": {
        "details": "Transfers ownership of the contract to a new account (`newOwner`). Can only be called by the current owner."
      },
      "uri(uint256)": {
        "details": "See {IERC1155MetadataURI-uri}. This implementation returns the same URI for *all* token types. It relies on the token type ID substitution mechanism https://eips.ethereum.org/EIPS/eip-1155#metadata[defined in the EIP]. Clients calling this function must replace the `\\{id\\}` substring with the actual token type ID."
      }
    },
    "version": 1
  },
  "userdoc": {
    "kind": "user",
    "methods": {},
    "version": 1
  },
  "storageLayout": {
    "storage": [
      {
        "astId": 138,
        "contract": "contracts/CatsAndSoup.sol:CatsAndSoup",
        "label": "_balances",
        "offset": 0,
        "slot": "0",
        "type": "t_mapping(t_uint256,t_mapping(t_address,t_uint256))"
      },
      {
        "astId": 144,
        "contract": "contracts/CatsAndSoup.sol:CatsAndSoup",
        "label": "_operatorApprovals",
        "offset": 0,
        "slot": "1",
        "type": "t_mapping(t_address,t_mapping(t_address,t_bool))"
      },
      {
        "astId": 146,
        "contract": "contracts/CatsAndSoup.sol:CatsAndSoup",
        "label": "_uri",
        "offset": 0,
        "slot": "2",
        "type": "t_string_storage"
      },
      {
        "astId": 7,
        "contract": "contracts/CatsAndSoup.sol:CatsAndSoup",
        "label": "_owner",
        "offset": 0,
        "slot": "3",
        "type": "t_address"
      },
      {
        "astId": 3901,
        "contract": "contracts/CatsAndSoup.sol:CatsAndSoup",
        "label": "_marketplace",
        "offset": 0,
        "slot": "4",
        "type": "t_address"
      }
    ],
    "types": {
      "t_address": {
        "encoding": "inplace",
        "label": "address",
        "numberOfBytes": "20"
      },
      "t_bool": {
        "encoding": "inplace",
        "label": "bool",
        "numberOfBytes": "1"
      },
      "t_mapping(t_address,t_bool)": {
        "encoding": "mapping",
        "key": "t_address",
        "label": "mapping(address => bool)",
        "numberOfBytes": "32",
        "value": "t_bool"
      },
      "t_mapping(t_address,t_mapping(t_address,t_bool))": {
        "encoding": "mapping",
        "key": "t_address",
        "label": "mapping(address => mapping(address => bool))",
        "numberOfBytes": "32",
        "value": "t_mapping(t_address,t_bool)"
      },
      "t_mapping(t_address,t_uint256)": {
        "encoding": "mapping",
        "key": "t_address",
        "label": "mapping(address => uint256)",
        "numberOfBytes": "32",
        "value": "t_uint256"
      },
      "t_mapping(t_uint256,t_mapping(t_address,t_uint256))": {
        "encoding": "mapping",
        "key": "t_uint256",
        "label": "mapping(uint256 => mapping(address => uint256))",
        "numberOfBytes": "32",
        "value": "t_mapping(t_address,t_uint256)"
      },
      "t_string_storage": {
        "encoding": "bytes",
        "label": "string",
        "numberOfBytes": "32"
      },
      "t_uint256": {
        "encoding": "inplace",
        "label": "uint256",
        "numberOfBytes": "32"
      }
    }
  }
}