{
  "address": "0x5FbDB2315678afecb367f032d93F642f64180aa3",
  "abi": [
    {
      "inputs": [],
      "stateMutability": "nonpayable",
      "type": "constructor"
    },
    {
      "anonymous": false,
      "inputs": [
        {
          "indexed": true,
          "internalType": "address",
          "name": "account",
          "type": "address"
        },
        {
          "indexed": true,
          "internalType": "address",
          "name": "operator",
          "type": "address"
        },
        {
          "indexed": false,
          "internalType": "bool",
          "name": "approved",
          "type": "bool"
        }
      ],
      "name": "ApprovalForAll",
      "type": "event"
    },
    {
      "anonymous": false,
      "inputs": [
        {
          "indexed": true,
          "internalType": "address",
          "name": "operator",
          "type": "address"
        },
        {
          "indexed": true,
          "internalType": "address",
          "name": "from",
          "type": "address"
        },
        {
          "indexed": true,
          "internalType": "address",
          "name": "to",
          "type": "address"
        },
        {
          "indexed": false,
          "internalType": "uint256[]",
          "name": "ids",
          "type": "uint256[]"
        },
        {
          "indexed": false,
          "internalType": "uint256[]",
          "name": "values",
          "type": "uint256[]"
        }
      ],
      "name": "TransferBatch",
      "type": "event"
    },
    {
      "anonymous": false,
      "inputs": [
        {
          "indexed": true,
          "internalType": "address",
          "name": "operator",
          "type": "address"
        },
        {
          "indexed": true,
          "internalType": "address",
          "name": "from",
          "type": "address"
        },
        {
          "indexed": true,
          "internalType": "address",
          "name": "to",
          "type": "address"
        },
        {
          "indexed": false,
          "internalType": "uint256",
          "name": "id",
          "type": "uint256"
        },
        {
          "indexed": false,
          "internalType": "uint256",
          "name": "value",
          "type": "uint256"
        }
      ],
      "name": "TransferSingle",
      "type": "event"
    },
    {
      "anonymous": false,
      "inputs": [
        {
          "indexed": false,
          "internalType": "string",
          "name": "value",
          "type": "string"
        },
        {
          "indexed": true,
          "internalType": "uint256",
          "name": "id",
          "type": "uint256"
        }
      ],
      "name": "URI",
      "type": "event"
    },
    {
      "inputs": [
        {
          "internalType": "address",
          "name": "account",
          "type": "address"
        },
        {
          "internalType": "uint256",
          "name": "id",
          "type": "uint256"
        }
      ],
      "name": "balanceOf",
      "outputs": [
        {
          "internalType": "uint256",
          "name": "",
          "type": "uint256"
        }
      ],
      "stateMutability": "view",
      "type": "function"
    },
    {
      "inputs": [
        {
          "internalType": "address[]",
          "name": "accounts",
          "type": "address[]"
        },
        {
          "internalType": "uint256[]",
          "name": "ids",
          "type": "uint256[]"
        }
      ],
      "name": "balanceOfBatch",
      "outputs": [
        {
          "internalType": "uint256[]",
          "name": "",
          "type": "uint256[]"
        }
      ],
      "stateMutability": "view",
      "type": "function"
    },
    {
      "inputs": [],
      "name": "cat",
      "outputs": [
        {
          "internalType": "uint256",
          "name": "",
          "type": "uint256"
        }
      ],
      "stateMutability": "view",
      "type": "function"
    },
    {
      "inputs": [
        {
          "internalType": "address",
          "name": "_address",
          "type": "address"
        }
      ],
      "name": "getAuth",
      "outputs": [
        {
          "internalType": "bool",
          "name": "",
          "type": "bool"
        }
      ],
      "stateMutability": "view",
      "type": "function"
    },
    {
      "inputs": [
        {
          "internalType": "address",
          "name": "_address",
          "type": "address"
        }
      ],
      "name": "getUser",
      "outputs": [
        {
          "internalType": "bool",
          "name": "",
          "type": "bool"
        }
      ],
      "stateMutability": "view",
      "type": "function"
    },
    {
      "inputs": [
        {
          "internalType": "address",
          "name": "account",
          "type": "address"
        },
        {
          "internalType": "address",
          "name": "operator",
          "type": "address"
        }
      ],
      "name": "isApprovedForAll",
      "outputs": [
        {
          "internalType": "bool",
          "name": "",
          "type": "bool"
        }
      ],
      "stateMutability": "view",
      "type": "function"
    },
    {
      "inputs": [
        {
          "internalType": "uint256",
          "name": "_itemId",
          "type": "uint256"
        },
        {
          "internalType": "address",
          "name": "_to",
          "type": "address"
        }
      ],
      "name": "mintItem",
      "outputs": [],
      "stateMutability": "nonpayable",
      "type": "function"
    },
    {
      "inputs": [
        {
          "internalType": "address",
          "name": "from",
          "type": "address"
        },
        {
          "internalType": "address",
          "name": "to",
          "type": "address"
        },
        {
          "internalType": "uint256[]",
          "name": "ids",
          "type": "uint256[]"
        },
        {
          "internalType": "uint256[]",
          "name": "amounts",
          "type": "uint256[]"
        },
        {
          "internalType": "bytes",
          "name": "data",
          "type": "bytes"
        }
      ],
      "name": "safeBatchTransferFrom",
      "outputs": [],
      "stateMutability": "nonpayable",
      "type": "function"
    },
    {
      "inputs": [
        {
          "internalType": "address",
          "name": "from",
          "type": "address"
        },
        {
          "internalType": "address",
          "name": "to",
          "type": "address"
        },
        {
          "internalType": "uint256",
          "name": "id",
          "type": "uint256"
        },
        {
          "internalType": "uint256",
          "name": "amount",
          "type": "uint256"
        },
        {
          "internalType": "bytes",
          "name": "data",
          "type": "bytes"
        }
      ],
      "name": "safeTransferFrom",
      "outputs": [],
      "stateMutability": "nonpayable",
      "type": "function"
    },
    {
      "inputs": [
        {
          "internalType": "address",
          "name": "operator",
          "type": "address"
        },
        {
          "internalType": "bool",
          "name": "approved",
          "type": "bool"
        }
      ],
      "name": "setApprovalForAll",
      "outputs": [],
      "stateMutability": "nonpayable",
      "type": "function"
    },
    {
      "inputs": [],
      "name": "soup",
      "outputs": [
        {
          "internalType": "uint256",
          "name": "",
          "type": "uint256"
        }
      ],
      "stateMutability": "view",
      "type": "function"
    },
    {
      "inputs": [
        {
          "internalType": "bytes4",
          "name": "interfaceId",
          "type": "bytes4"
        }
      ],
      "name": "supportsInterface",
      "outputs": [
        {
          "internalType": "bool",
          "name": "",
          "type": "bool"
        }
      ],
      "stateMutability": "view",
      "type": "function"
    },
    {
      "inputs": [
        {
          "internalType": "uint256",
          "name": "",
          "type": "uint256"
        }
      ],
      "name": "uri",
      "outputs": [
        {
          "internalType": "string",
          "name": "",
          "type": "string"
        }
      ],
      "stateMutability": "view",
      "type": "function"
    }
  ],
  "transactionHash": "0xb115af4044ca7d3b235dc7f34eb6ebd7f5d7f368ac6243ded910af60616408e5",
  "args": [],
  "numDeployments": 1,
  "solcInputHash": "c98d1e33b78c56f5b0a57ee83d9f9ba5",
  "bytecode": "0x60806040523480156200001157600080fd5b506040518060200160405280600081525062000033816200009260201b60201c565b506001600360003373ffffffffffffffffffffffffffffffffffffffff1673ffffffffffffffffffffffffffffffffffffffff16815260200190815260200160002060006101000a81548160ff021916908315150217905550620001c2565b8060029080519060200190620000aa929190620000ae565b5050565b828054620000bc906200018d565b90600052602060002090601f016020900481019282620000e057600085556200012c565b82601f10620000fb57805160ff19168380011785556200012c565b828001600101855582156200012c579182015b828111156200012b5782518255916020019190600101906200010e565b5b5090506200013b91906200013f565b5090565b5b808211156200015a57600081600090555060010162000140565b5090565b7f4e487b7100000000000000000000000000000000000000000000000000000000600052602260045260246000fd5b60006002820490506001821680620001a657607f821691505b602082108103620001bc57620001bb6200015e565b5b50919050565b612b5b80620001d26000396000f3fe608060405234801561001057600080fd5b50600436106100ce5760003560e01c80636e4e3e2d1161008c578063b4852e7a11610066578063b4852e7a14610247578063e488181314610265578063e985e9c514610283578063f242432a146102b3576100ce565b80636e4e3e2d146101cb5780636f77926b146101fb578063a22cb4651461022b576100ce565b8062fdd58e146100d357806301ffc9a7146101035780630e89341c146101335780632eb2c2d6146101635780634dc936c01461017f5780634e1273f41461019b575b600080fd5b6100ed60048036038101906100e89190611812565b6102cf565b6040516100fa9190611861565b60405180910390f35b61011d600480360381019061011891906118d4565b610397565b60405161012a919061191c565b60405180910390f35b61014d60048036038101906101489190611937565b610479565b60405161015a91906119fd565b60405180910390f35b61017d60048036038101906101789190611c1c565b61050d565b005b61019960048036038101906101949190611ceb565b6105ae565b005b6101b560048036038101906101b09190611dee565b6106ab565b6040516101c29190611f24565b60405180910390f35b6101e560048036038101906101e09190611f46565b6107c4565b6040516101f2919061191c565b60405180910390f35b61021560048036038101906102109190611f46565b61081a565b604051610222919061191c565b60405180910390f35b61024560048036038101906102409190611f9f565b610870565b005b61024f610886565b60405161025c9190611861565b60405180910390f35b61026d61088b565b60405161027a9190611861565b60405180910390f35b61029d60048036038101906102989190611fdf565b610890565b6040516102aa919061191c565b60405180910390f35b6102cd60048036038101906102c8919061201f565b610924565b005b60008073ffffffffffffffffffffffffffffffffffffffff168373ffffffffffffffffffffffffffffffffffffffff160361033f576040517f08c379a000000000000000000000000000000000000000000000000000000000815260040161033690612128565b60405180910390fd5b60008083815260200190815260200160002060008473ffffffffffffffffffffffffffffffffffffffff1673ffffffffffffffffffffffffffffffffffffffff16815260200190815260200160002054905092915050565b60007fd9b67a26000000000000000000000000000000000000000000000000000000007bffffffffffffffffffffffffffffffffffffffffffffffffffffffff1916827bffffffffffffffffffffffffffffffffffffffffffffffffffffffff1916148061046257507f0e89341c000000000000000000000000000000000000000000000000000000007bffffffffffffffffffffffffffffffffffffffffffffffffffffffff1916827bffffffffffffffffffffffffffffffffffffffffffffffffffffffff1916145b806104725750610471826109c5565b5b9050919050565b60606002805461048890612177565b80601f01602080910402602001604051908101604052809291908181526020018280546104b490612177565b80156105015780601f106104d657610100808354040283529160200191610501565b820191906000526020600020905b8154815290600101906020018083116104e457829003601f168201915b50505050509050919050565b610515610a2f565b73ffffffffffffffffffffffffffffffffffffffff168573ffffffffffffffffffffffffffffffffffffffff16148061055b575061055a85610555610a2f565b610890565b5b61059a576040517f08c379a00000000000000000000000000000000000000000000000000000000081526004016105919061221a565b60405180910390fd5b6105a78585858585610a37565b5050505050565b600360003373ffffffffffffffffffffffffffffffffffffffff1673ffffffffffffffffffffffffffffffffffffffff16815260200190815260200160002060009054906101000a900460ff1661063a576040517f08c379a000000000000000000000000000000000000000000000000000000000815260040161063190612286565b60405180910390fd5b6000821015801561064c575060018211155b61068b576040517f08c379a0000000000000000000000000000000000000000000000000000000008152600401610682906122f2565b60405180910390fd5b6106a78183600160405180602001604052806000815250610d58565b5050565b606081518351146106f1576040517f08c379a00000000000000000000000000000000000000000000000000000000081526004016106e890612384565b60405180910390fd5b6000835167ffffffffffffffff81111561070e5761070d611a24565b5b60405190808252806020026020018201604052801561073c5781602001602082028036833780820191505090505b50905060005b84518110156107b957610789858281518110610761576107606123a4565b5b602002602001015185838151811061077c5761077b6123a4565b5b60200260200101516102cf565b82828151811061079c5761079b6123a4565b5b602002602001018181525050806107b290612402565b9050610742565b508091505092915050565b6000600360008373ffffffffffffffffffffffffffffffffffffffff1673ffffffffffffffffffffffffffffffffffffffff16815260200190815260200160002060009054906101000a900460ff169050919050565b6000600460008373ffffffffffffffffffffffffffffffffffffffff1673ffffffffffffffffffffffffffffffffffffffff16815260200190815260200160002060009054906101000a900460ff169050919050565b61088261087b610a2f565b8383610f08565b5050565b600181565b600081565b6000600160008473ffffffffffffffffffffffffffffffffffffffff1673ffffffffffffffffffffffffffffffffffffffff16815260200190815260200160002060008373ffffffffffffffffffffffffffffffffffffffff1673ffffffffffffffffffffffffffffffffffffffff16815260200190815260200160002060009054906101000a900460ff16905092915050565b61092c610a2f565b73ffffffffffffffffffffffffffffffffffffffff168573ffffffffffffffffffffffffffffffffffffffff16148061097257506109718561096c610a2f565b610890565b5b6109b1576040517f08c379a00000000000000000000000000000000000000000000000000000000081526004016109a89061221a565b60405180910390fd5b6109be8585858585611074565b5050505050565b60007f01ffc9a7000000000000000000000000000000000000000000000000000000007bffffffffffffffffffffffffffffffffffffffffffffffffffffffff1916827bffffffffffffffffffffffffffffffffffffffffffffffffffffffff1916149050919050565b600033905090565b8151835114610a7b576040517f08c379a0000000000000000000000000000000000000000000000000000000008152600401610a72906124bc565b60405180910390fd5b600073ffffffffffffffffffffffffffffffffffffffff168473ffffffffffffffffffffffffffffffffffffffff1603610aea576040517f08c379a0000000000000000000000000000000000000000000000000000000008152600401610ae19061254e565b60405180910390fd5b6000610af4610a2f565b9050610b0481878787878761130f565b60005b8451811015610cb5576000858281518110610b2557610b246123a4565b5b602002602001015190506000858381518110610b4457610b436123a4565b5b60200260200101519050600080600084815260200190815260200160002060008b73ffffffffffffffffffffffffffffffffffffffff1673ffffffffffffffffffffffffffffffffffffffff16815260200190815260200160002054905081811015610be5576040517f08c379a0000000000000000000000000000000000000000000000000000000008152600401610bdc906125e0565b60405180910390fd5b81810360008085815260200190815260200160002060008c73ffffffffffffffffffffffffffffffffffffffff1673ffffffffffffffffffffffffffffffffffffffff168152602001908152602001600020819055508160008085815260200190815260200160002060008b73ffffffffffffffffffffffffffffffffffffffff1673ffffffffffffffffffffffffffffffffffffffff1681526020019081526020016000206000828254610c9a9190612600565b9250508190555050505080610cae90612402565b9050610b07565b508473ffffffffffffffffffffffffffffffffffffffff168673ffffffffffffffffffffffffffffffffffffffff168273ffffffffffffffffffffffffffffffffffffffff167f4a39dc06d4c0dbc64b70af90fd698a233a518aa5d07e595d983b8c0526c8f7fb8787604051610d2c929190612656565b60405180910390a4610d42818787878787611317565b610d5081878787878761131f565b505050505050565b600073ffffffffffffffffffffffffffffffffffffffff168473ffffffffffffffffffffffffffffffffffffffff1603610dc7576040517f08c379a0000000000000000000000000000000000000000000000000000000008152600401610dbe906126ff565b60405180910390fd5b6000610dd1610a2f565b90506000610dde856114f6565b90506000610deb856114f6565b9050610dfc8360008985858961130f565b8460008088815260200190815260200160002060008973ffffffffffffffffffffffffffffffffffffffff1673ffffffffffffffffffffffffffffffffffffffff1681526020019081526020016000206000828254610e5b9190612600565b925050819055508673ffffffffffffffffffffffffffffffffffffffff16600073ffffffffffffffffffffffffffffffffffffffff168473ffffffffffffffffffffffffffffffffffffffff167fc3d58168c5ae7397731d063d5bbf3d657854427343f4c083240f7aacaa2d0f628989604051610ed992919061271f565b60405180910390a4610ef083600089858589611317565b610eff83600089898989611570565b50505050505050565b8173ffffffffffffffffffffffffffffffffffffffff168373ffffffffffffffffffffffffffffffffffffffff1603610f76576040517f08c379a0000000000000000000000000000000000000000000000000000000008152600401610f6d906127ba565b60405180910390fd5b80600160008573ffffffffffffffffffffffffffffffffffffffff1673ffffffffffffffffffffffffffffffffffffffff16815260200190815260200160002060008473ffffffffffffffffffffffffffffffffffffffff1673ffffffffffffffffffffffffffffffffffffffff16815260200190815260200160002060006101000a81548160ff0219169083151502179055508173ffffffffffffffffffffffffffffffffffffffff168373ffffffffffffffffffffffffffffffffffffffff167f17307eab39ab6107e8899845ad3d59bd9653f200f220920489ca2b5937696c3183604051611067919061191c565b60405180910390a3505050565b600073ffffffffffffffffffffffffffffffffffffffff168473ffffffffffffffffffffffffffffffffffffffff16036110e3576040517f08c379a00000000000000000000000000000000000000000000000000000000081526004016110da9061254e565b60405180910390fd5b60006110ed610a2f565b905060006110fa856114f6565b90506000611107856114f6565b905061111783898985858961130f565b600080600088815260200190815260200160002060008a73ffffffffffffffffffffffffffffffffffffffff1673ffffffffffffffffffffffffffffffffffffffff168152602001908152602001600020549050858110156111ae576040517f08c379a00000000000000000000000000000000000000000000000000000000081526004016111a5906125e0565b60405180910390fd5b85810360008089815260200190815260200160002060008b73ffffffffffffffffffffffffffffffffffffffff1673ffffffffffffffffffffffffffffffffffffffff168152602001908152602001600020819055508560008089815260200190815260200160002060008a73ffffffffffffffffffffffffffffffffffffffff1673ffffffffffffffffffffffffffffffffffffffff16815260200190815260200160002060008282546112639190612600565b925050819055508773ffffffffffffffffffffffffffffffffffffffff168973ffffffffffffffffffffffffffffffffffffffff168573ffffffffffffffffffffffffffffffffffffffff167fc3d58168c5ae7397731d063d5bbf3d657854427343f4c083240f7aacaa2d0f628a8a6040516112e092919061271f565b60405180910390a46112f6848a8a86868a611317565b611304848a8a8a8a8a611570565b505050505050505050565b505050505050565b505050505050565b61133e8473ffffffffffffffffffffffffffffffffffffffff16611747565b156114ee578373ffffffffffffffffffffffffffffffffffffffff1663bc197c8187878686866040518663ffffffff1660e01b815260040161138495949392919061283e565b6020604051808303816000875af19250505080156113c057506040513d601f19601f820116820180604052508101906113bd91906128bb565b60015b611465576113cc6128f5565b806308c379a00361142857506113e0612917565b806113eb575061142a565b806040517f08c379a000000000000000000000000000000000000000000000000000000000815260040161141f91906119fd565b60405180910390fd5b505b6040517f08c379a000000000000000000000000000000000000000000000000000000000815260040161145c90612a19565b60405180910390fd5b63bc197c8160e01b7bffffffffffffffffffffffffffffffffffffffffffffffffffffffff1916817bffffffffffffffffffffffffffffffffffffffffffffffffffffffff1916146114ec576040517f08c379a00000000000000000000000000000000000000000000000000000000081526004016114e390612aab565b60405180910390fd5b505b505050505050565b60606000600167ffffffffffffffff81111561151557611514611a24565b5b6040519080825280602002602001820160405280156115435781602001602082028036833780820191505090505b509050828160008151811061155b5761155a6123a4565b5b60200260200101818152505080915050919050565b61158f8473ffffffffffffffffffffffffffffffffffffffff16611747565b1561173f578373ffffffffffffffffffffffffffffffffffffffff1663f23a6e6187878686866040518663ffffffff1660e01b81526004016115d5959493929190612acb565b6020604051808303816000875af192505050801561161157506040513d601f19601f8201168201806040525081019061160e91906128bb565b60015b6116b65761161d6128f5565b806308c379a0036116795750611631612917565b8061163c575061167b565b806040517f08c379a000000000000000000000000000000000000000000000000000000000815260040161167091906119fd565b60405180910390fd5b505b6040517f08c379a00000000000000000000000000000000000000000000000000000000081526004016116ad90612a19565b60405180910390fd5b63f23a6e6160e01b7bffffffffffffffffffffffffffffffffffffffffffffffffffffffff1916817bffffffffffffffffffffffffffffffffffffffffffffffffffffffff19161461173d576040517f08c379a000000000000000000000000000000000000000000000000000000000815260040161173490612aab565b60405180910390fd5b505b505050505050565b6000808273ffffffffffffffffffffffffffffffffffffffff163b119050919050565b6000604051905090565b600080fd5b600080fd5b600073ffffffffffffffffffffffffffffffffffffffff82169050919050565b60006117a98261177e565b9050919050565b6117b98161179e565b81146117c457600080fd5b50565b6000813590506117d6816117b0565b92915050565b6000819050919050565b6117ef816117dc565b81146117fa57600080fd5b50565b60008135905061180c816117e6565b92915050565b6000806040838503121561182957611828611774565b5b6000611837858286016117c7565b9250506020611848858286016117fd565b9150509250929050565b61185b816117dc565b82525050565b60006020820190506118766000830184611852565b92915050565b60007fffffffff0000000000000000000000000000000000000000000000000000000082169050919050565b6118b18161187c565b81146118bc57600080fd5b50565b6000813590506118ce816118a8565b92915050565b6000602082840312156118ea576118e9611774565b5b60006118f8848285016118bf565b91505092915050565b60008115159050919050565b61191681611901565b82525050565b6000602082019050611931600083018461190d565b92915050565b60006020828403121561194d5761194c611774565b5b600061195b848285016117fd565b91505092915050565b600081519050919050565b600082825260208201905092915050565b60005b8381101561199e578082015181840152602081019050611983565b838111156119ad576000848401525b50505050565b6000601f19601f8301169050919050565b60006119cf82611964565b6119d9818561196f565b93506119e9818560208601611980565b6119f2816119b3565b840191505092915050565b60006020820190508181036000830152611a1781846119c4565b905092915050565b600080fd5b7f4e487b7100000000000000000000000000000000000000000000000000000000600052604160045260246000fd5b611a5c826119b3565b810181811067ffffffffffffffff82111715611a7b57611a7a611a24565b5b80604052505050565b6000611a8e61176a565b9050611a9a8282611a53565b919050565b600067ffffffffffffffff821115611aba57611ab9611a24565b5b602082029050602081019050919050565b600080fd5b6000611ae3611ade84611a9f565b611a84565b90508083825260208201905060208402830185811115611b0657611b05611acb565b5b835b81811015611b2f5780611b1b88826117fd565b845260208401935050602081019050611b08565b5050509392505050565b600082601f830112611b4e57611b4d611a1f565b5b8135611b5e848260208601611ad0565b91505092915050565b600080fd5b600067ffffffffffffffff821115611b8757611b86611a24565b5b611b90826119b3565b9050602081019050919050565b82818337600083830152505050565b6000611bbf611bba84611b6c565b611a84565b905082815260208101848484011115611bdb57611bda611b67565b5b611be6848285611b9d565b509392505050565b600082601f830112611c0357611c02611a1f565b5b8135611c13848260208601611bac565b91505092915050565b600080600080600060a08688031215611c3857611c37611774565b5b6000611c46888289016117c7565b9550506020611c57888289016117c7565b945050604086013567ffffffffffffffff811115611c7857611c77611779565b5b611c8488828901611b39565b935050606086013567ffffffffffffffff811115611ca557611ca4611779565b5b611cb188828901611b39565b925050608086013567ffffffffffffffff811115611cd257611cd1611779565b5b611cde88828901611bee565b9150509295509295909350565b60008060408385031215611d0257611d01611774565b5b6000611d10858286016117fd565b9250506020611d21858286016117c7565b9150509250929050565b600067ffffffffffffffff821115611d4657611d45611a24565b5b602082029050602081019050919050565b6000611d6a611d6584611d2b565b611a84565b90508083825260208201905060208402830185811115611d8d57611d8c611acb565b5b835b81811015611db65780611da288826117c7565b845260208401935050602081019050611d8f565b5050509392505050565b600082601f830112611dd557611dd4611a1f565b5b8135611de5848260208601611d57565b91505092915050565b60008060408385031215611e0557611e04611774565b5b600083013567ffffffffffffffff811115611e2357611e22611779565b5b611e2f85828601611dc0565b925050602083013567ffffffffffffffff811115611e5057611e4f611779565b5b611e5c85828601611b39565b9150509250929050565b600081519050919050565b600082825260208201905092915050565b6000819050602082019050919050565b611e9b816117dc565b82525050565b6000611ead8383611e92565b60208301905092915050565b6000602082019050919050565b6000611ed182611e66565b611edb8185611e71565b9350611ee683611e82565b8060005b83811015611f17578151611efe8882611ea1565b9750611f0983611eb9565b925050600181019050611eea565b5085935050505092915050565b60006020820190508181036000830152611f3e8184611ec6565b905092915050565b600060208284031215611f5c57611f5b611774565b5b6000611f6a848285016117c7565b91505092915050565b611f7c81611901565b8114611f8757600080fd5b50565b600081359050611f9981611f73565b92915050565b60008060408385031215611fb657611fb5611774565b5b6000611fc4858286016117c7565b9250506020611fd585828601611f8a565b9150509250929050565b60008060408385031215611ff657611ff5611774565b5b6000612004858286016117c7565b9250506020612015858286016117c7565b9150509250929050565b600080600080600060a0868803121561203b5761203a611774565b5b6000612049888289016117c7565b955050602061205a888289016117c7565b945050604061206b888289016117fd565b935050606061207c888289016117fd565b925050608086013567ffffffffffffffff81111561209d5761209c611779565b5b6120a988828901611bee565b9150509295509295909350565b7f455243313135353a2061646472657373207a65726f206973206e6f742061207660008201527f616c6964206f776e657200000000000000000000000000000000000000000000602082015250565b6000612112602a8361196f565b915061211d826120b6565b604082019050919050565b6000602082019050818103600083015261214181612105565b9050919050565b7f4e487b7100000000000000000000000000000000000000000000000000000000600052602260045260246000fd5b6000600282049050600182168061218f57607f821691505b6020821081036121a2576121a1612148565b5b50919050565b7f455243313135353a2063616c6c6572206973206e6f7420746f6b656e206f776e60008201527f6572206e6f7220617070726f7665640000000000000000000000000000000000602082015250565b6000612204602f8361196f565b915061220f826121a8565b604082019050919050565b60006020820190508181036000830152612233816121f7565b9050919050565b7f556e617574686f72697a65640000000000000000000000000000000000000000600082015250565b6000612270600c8361196f565b915061227b8261223a565b602082019050919050565b6000602082019050818103600083015261229f81612263565b9050919050565b7f496e76616c6964206974656d2049440000000000000000000000000000000000600082015250565b60006122dc600f8361196f565b91506122e7826122a6565b602082019050919050565b6000602082019050818103600083015261230b816122cf565b9050919050565b7f455243313135353a206163636f756e747320616e6420696473206c656e67746860008201527f206d69736d617463680000000000000000000000000000000000000000000000602082015250565b600061236e60298361196f565b915061237982612312565b604082019050919050565b6000602082019050818103600083015261239d81612361565b9050919050565b7f4e487b7100000000000000000000000000000000000000000000000000000000600052603260045260246000fd5b7f4e487b7100000000000000000000000000000000000000000000000000000000600052601160045260246000fd5b600061240d826117dc565b91507fffffffffffffffffffffffffffffffffffffffffffffffffffffffffffffffff820361243f5761243e6123d3565b5b600182019050919050565b7f455243313135353a2069647320616e6420616d6f756e7473206c656e6774682060008201527f6d69736d61746368000000000000000000000000000000000000000000000000602082015250565b60006124a660288361196f565b91506124b18261244a565b604082019050919050565b600060208201905081810360008301526124d581612499565b9050919050565b7f455243313135353a207472616e7366657220746f20746865207a65726f20616460008201527f6472657373000000000000000000000000000000000000000000000000000000602082015250565b600061253860258361196f565b9150612543826124dc565b604082019050919050565b600060208201905081810360008301526125678161252b565b9050919050565b7f455243313135353a20696e73756666696369656e742062616c616e636520666f60008201527f72207472616e7366657200000000000000000000000000000000000000000000602082015250565b60006125ca602a8361196f565b91506125d58261256e565b604082019050919050565b600060208201905081810360008301526125f9816125bd565b9050919050565b600061260b826117dc565b9150612616836117dc565b9250827fffffffffffffffffffffffffffffffffffffffffffffffffffffffffffffffff0382111561264b5761264a6123d3565b5b828201905092915050565b600060408201905081810360008301526126708185611ec6565b905081810360208301526126848184611ec6565b90509392505050565b7f455243313135353a206d696e7420746f20746865207a65726f2061646472657360008201527f7300000000000000000000000000000000000000000000000000000000000000602082015250565b60006126e960218361196f565b91506126f48261268d565b604082019050919050565b60006020820190508181036000830152612718816126dc565b9050919050565b60006040820190506127346000830185611852565b6127416020830184611852565b9392505050565b7f455243313135353a2073657474696e6720617070726f76616c2073746174757360008201527f20666f722073656c660000000000000000000000000000000000000000000000602082015250565b60006127a460298361196f565b91506127af82612748565b604082019050919050565b600060208201905081810360008301526127d381612797565b9050919050565b6127e38161179e565b82525050565b600081519050919050565b600082825260208201905092915050565b6000612810826127e9565b61281a81856127f4565b935061282a818560208601611980565b612833816119b3565b840191505092915050565b600060a08201905061285360008301886127da565b61286060208301876127da565b81810360408301526128728186611ec6565b905081810360608301526128868185611ec6565b9050818103608083015261289a8184612805565b90509695505050505050565b6000815190506128b5816118a8565b92915050565b6000602082840312156128d1576128d0611774565b5b60006128df848285016128a6565b91505092915050565b60008160e01c9050919050565b600060033d11156129145760046000803e6129116000516128e8565b90505b90565b600060443d106129a45761292961176a565b60043d036004823e80513d602482011167ffffffffffffffff821117156129515750506129a4565b808201805167ffffffffffffffff81111561296f57505050506129a4565b80602083010160043d03850181111561298c5750505050506129a4565b61299b82602001850186611a53565b82955050505050505b90565b7f455243313135353a207472616e7366657220746f206e6f6e204552433131353560008201527f526563656976657220696d706c656d656e746572000000000000000000000000602082015250565b6000612a0360348361196f565b9150612a0e826129a7565b604082019050919050565b60006020820190508181036000830152612a32816129f6565b9050919050565b7f455243313135353a204552433131353552656365697665722072656a6563746560008201527f6420746f6b656e73000000000000000000000000000000000000000000000000602082015250565b6000612a9560288361196f565b9150612aa082612a39565b604082019050919050565b60006020820190508181036000830152612ac481612a88565b9050919050565b600060a082019050612ae060008301886127da565b612aed60208301876127da565b612afa6040830186611852565b612b076060830185611852565b8181036080830152612b198184612805565b9050969550505050505056fea2646970667358221220eea79ebde1ac934c95068478e41c3bcbfbaecd8baa979d3f3b4e24f7e4c777fc64736f6c634300080d0033",
  "devdoc": {
    "kind": "dev",
    "methods": {
      "balanceOf(address,uint256)": {
        "details": "See {IERC1155-balanceOf}. Requirements: - `account` cannot be the zero address."
      },
      "balanceOfBatch(address[],uint256[])": {
        "details": "See {IERC1155-balanceOfBatch}. Requirements: - `accounts` and `ids` must have the same length."
      },
      "isApprovedForAll(address,address)": {
        "details": "See {IERC1155-isApprovedForAll}."
      },
      "safeBatchTransferFrom(address,address,uint256[],uint256[],bytes)": {
        "details": "See {IERC1155-safeBatchTransferFrom}."
      },
      "safeTransferFrom(address,address,uint256,uint256,bytes)": {
        "details": "See {IERC1155-safeTransferFrom}."
      },
      "setApprovalForAll(address,bool)": {
        "details": "See {IERC1155-setApprovalForAll}."
      },
      "supportsInterface(bytes4)": {
        "details": "See {IERC165-supportsInterface}."
      },
      "uri(uint256)": {
        "details": "See {IERC1155MetadataURI-uri}. This implementation returns the same URI for *all* token types. It relies on the token type ID substitution mechanism https://eips.ethereum.org/EIPS/eip-1155#metadata[defined in the EIP]. Clients calling this function must replace the `\\{id\\}` substring with the actual token type ID."
      }
    },
    "version": 1
  },
  "userdoc": {
    "kind": "user",
    "methods": {},
    "version": 1
  },
  "storageLayout": {
    "storage": [
      {
        "astId": 418,
        "contract": "contracts/CatsAndSoup.sol:CatsAndSoup",
        "label": "_balances",
        "offset": 0,
        "slot": "0",
        "type": "t_mapping(t_uint256,t_mapping(t_address,t_uint256))"
      },
      {
        "astId": 424,
        "contract": "contracts/CatsAndSoup.sol:CatsAndSoup",
        "label": "_operatorApprovals",
        "offset": 0,
        "slot": "1",
        "type": "t_mapping(t_address,t_mapping(t_address,t_bool))"
      },
      {
        "astId": 426,
        "contract": "contracts/CatsAndSoup.sol:CatsAndSoup",
        "label": "_uri",
        "offset": 0,
        "slot": "2",
        "type": "t_string_storage"
      },
      {
        "astId": 4169,
        "contract": "contracts/CatsAndSoup.sol:CatsAndSoup",
        "label": "isAuthorized",
        "offset": 0,
        "slot": "3",
        "type": "t_mapping(t_address,t_bool)"
      },
      {
        "astId": 4173,
        "contract": "contracts/CatsAndSoup.sol:CatsAndSoup",
        "label": "isUser",
        "offset": 0,
        "slot": "4",
        "type": "t_mapping(t_address,t_bool)"
      }
    ],
    "types": {
      "t_address": {
        "encoding": "inplace",
        "label": "address",
        "numberOfBytes": "20"
      },
      "t_bool": {
        "encoding": "inplace",
        "label": "bool",
        "numberOfBytes": "1"
      },
      "t_mapping(t_address,t_bool)": {
        "encoding": "mapping",
        "key": "t_address",
        "label": "mapping(address => bool)",
        "numberOfBytes": "32",
        "value": "t_bool"
      },
      "t_mapping(t_address,t_mapping(t_address,t_bool))": {
        "encoding": "mapping",
        "key": "t_address",
        "label": "mapping(address => mapping(address => bool))",
        "numberOfBytes": "32",
        "value": "t_mapping(t_address,t_bool)"
      },
      "t_mapping(t_address,t_uint256)": {
        "encoding": "mapping",
        "key": "t_address",
        "label": "mapping(address => uint256)",
        "numberOfBytes": "32",
        "value": "t_uint256"
      },
      "t_mapping(t_uint256,t_mapping(t_address,t_uint256))": {
        "encoding": "mapping",
        "key": "t_uint256",
        "label": "mapping(uint256 => mapping(address => uint256))",
        "numberOfBytes": "32",
        "value": "t_mapping(t_address,t_uint256)"
      },
      "t_string_storage": {
        "encoding": "bytes",
        "label": "string",
        "numberOfBytes": "32"
      },
      "t_uint256": {
        "encoding": "inplace",
        "label": "uint256",
        "numberOfBytes": "32"
      }
    }
  }
}