{
  "address": "0x5FbDB2315678afecb367f032d93F642f64180aa3",
  "abi": [
    {
      "inputs": [],
      "stateMutability": "nonpayable",
      "type": "constructor"
    },
    {
      "anonymous": false,
      "inputs": [
        {
          "indexed": true,
          "internalType": "address",
          "name": "account",
          "type": "address"
        },
        {
          "indexed": true,
          "internalType": "address",
          "name": "operator",
          "type": "address"
        },
        {
          "indexed": false,
          "internalType": "bool",
          "name": "approved",
          "type": "bool"
        }
      ],
      "name": "ApprovalForAll",
      "type": "event"
    },
    {
      "anonymous": false,
      "inputs": [
        {
          "indexed": true,
          "internalType": "bytes32",
          "name": "role",
          "type": "bytes32"
        },
        {
          "indexed": true,
          "internalType": "bytes32",
          "name": "previousAdminRole",
          "type": "bytes32"
        },
        {
          "indexed": true,
          "internalType": "bytes32",
          "name": "newAdminRole",
          "type": "bytes32"
        }
      ],
      "name": "RoleAdminChanged",
      "type": "event"
    },
    {
      "anonymous": false,
      "inputs": [
        {
          "indexed": true,
          "internalType": "bytes32",
          "name": "role",
          "type": "bytes32"
        },
        {
          "indexed": true,
          "internalType": "address",
          "name": "account",
          "type": "address"
        },
        {
          "indexed": true,
          "internalType": "address",
          "name": "sender",
          "type": "address"
        }
      ],
      "name": "RoleGranted",
      "type": "event"
    },
    {
      "anonymous": false,
      "inputs": [
        {
          "indexed": true,
          "internalType": "bytes32",
          "name": "role",
          "type": "bytes32"
        },
        {
          "indexed": true,
          "internalType": "address",
          "name": "account",
          "type": "address"
        },
        {
          "indexed": true,
          "internalType": "address",
          "name": "sender",
          "type": "address"
        }
      ],
      "name": "RoleRevoked",
      "type": "event"
    },
    {
      "anonymous": false,
      "inputs": [
        {
          "indexed": true,
          "internalType": "address",
          "name": "operator",
          "type": "address"
        },
        {
          "indexed": true,
          "internalType": "address",
          "name": "from",
          "type": "address"
        },
        {
          "indexed": true,
          "internalType": "address",
          "name": "to",
          "type": "address"
        },
        {
          "indexed": false,
          "internalType": "uint256[]",
          "name": "ids",
          "type": "uint256[]"
        },
        {
          "indexed": false,
          "internalType": "uint256[]",
          "name": "values",
          "type": "uint256[]"
        }
      ],
      "name": "TransferBatch",
      "type": "event"
    },
    {
      "anonymous": false,
      "inputs": [
        {
          "indexed": true,
          "internalType": "address",
          "name": "operator",
          "type": "address"
        },
        {
          "indexed": true,
          "internalType": "address",
          "name": "from",
          "type": "address"
        },
        {
          "indexed": true,
          "internalType": "address",
          "name": "to",
          "type": "address"
        },
        {
          "indexed": false,
          "internalType": "uint256",
          "name": "id",
          "type": "uint256"
        },
        {
          "indexed": false,
          "internalType": "uint256",
          "name": "value",
          "type": "uint256"
        }
      ],
      "name": "TransferSingle",
      "type": "event"
    },
    {
      "anonymous": false,
      "inputs": [
        {
          "indexed": false,
          "internalType": "string",
          "name": "value",
          "type": "string"
        },
        {
          "indexed": true,
          "internalType": "uint256",
          "name": "id",
          "type": "uint256"
        }
      ],
      "name": "URI",
      "type": "event"
    },
    {
      "inputs": [],
      "name": "ADMIN_ROLE",
      "outputs": [
        {
          "internalType": "bytes32",
          "name": "",
          "type": "bytes32"
        }
      ],
      "stateMutability": "view",
      "type": "function"
    },
    {
      "inputs": [],
      "name": "DEFAULT_ADMIN_ROLE",
      "outputs": [
        {
          "internalType": "bytes32",
          "name": "",
          "type": "bytes32"
        }
      ],
      "stateMutability": "view",
      "type": "function"
    },
    {
      "inputs": [
        {
          "internalType": "address",
          "name": "account",
          "type": "address"
        },
        {
          "internalType": "uint256",
          "name": "id",
          "type": "uint256"
        }
      ],
      "name": "balanceOf",
      "outputs": [
        {
          "internalType": "uint256",
          "name": "",
          "type": "uint256"
        }
      ],
      "stateMutability": "view",
      "type": "function"
    },
    {
      "inputs": [
        {
          "internalType": "address[]",
          "name": "accounts",
          "type": "address[]"
        },
        {
          "internalType": "uint256[]",
          "name": "ids",
          "type": "uint256[]"
        }
      ],
      "name": "balanceOfBatch",
      "outputs": [
        {
          "internalType": "uint256[]",
          "name": "",
          "type": "uint256[]"
        }
      ],
      "stateMutability": "view",
      "type": "function"
    },
    {
      "inputs": [],
      "name": "cat",
      "outputs": [
        {
          "internalType": "uint256",
          "name": "",
          "type": "uint256"
        }
      ],
      "stateMutability": "view",
      "type": "function"
    },
    {
      "inputs": [
        {
          "internalType": "bytes32",
          "name": "role",
          "type": "bytes32"
        }
      ],
      "name": "getRoleAdmin",
      "outputs": [
        {
          "internalType": "bytes32",
          "name": "",
          "type": "bytes32"
        }
      ],
      "stateMutability": "view",
      "type": "function"
    },
    {
      "inputs": [
        {
          "internalType": "bytes32",
          "name": "role",
          "type": "bytes32"
        },
        {
          "internalType": "address",
          "name": "account",
          "type": "address"
        }
      ],
      "name": "grantRole",
      "outputs": [],
      "stateMutability": "nonpayable",
      "type": "function"
    },
    {
      "inputs": [
        {
          "internalType": "bytes32",
          "name": "role",
          "type": "bytes32"
        },
        {
          "internalType": "address",
          "name": "account",
          "type": "address"
        }
      ],
      "name": "hasRole",
      "outputs": [
        {
          "internalType": "bool",
          "name": "",
          "type": "bool"
        }
      ],
      "stateMutability": "view",
      "type": "function"
    },
    {
      "inputs": [
        {
          "internalType": "address",
          "name": "account",
          "type": "address"
        },
        {
          "internalType": "address",
          "name": "operator",
          "type": "address"
        }
      ],
      "name": "isApprovedForAll",
      "outputs": [
        {
          "internalType": "bool",
          "name": "",
          "type": "bool"
        }
      ],
      "stateMutability": "view",
      "type": "function"
    },
    {
      "inputs": [
        {
          "internalType": "uint256",
          "name": "_itemId",
          "type": "uint256"
        },
        {
          "internalType": "address",
          "name": "_to",
          "type": "address"
        }
      ],
      "name": "mintItem",
      "outputs": [],
      "stateMutability": "nonpayable",
      "type": "function"
    },
    {
      "inputs": [
        {
          "internalType": "bytes32",
          "name": "role",
          "type": "bytes32"
        },
        {
          "internalType": "address",
          "name": "account",
          "type": "address"
        }
      ],
      "name": "renounceRole",
      "outputs": [],
      "stateMutability": "nonpayable",
      "type": "function"
    },
    {
      "inputs": [
        {
          "internalType": "bytes32",
          "name": "role",
          "type": "bytes32"
        },
        {
          "internalType": "address",
          "name": "account",
          "type": "address"
        }
      ],
      "name": "revokeRole",
      "outputs": [],
      "stateMutability": "nonpayable",
      "type": "function"
    },
    {
      "inputs": [
        {
          "internalType": "address",
          "name": "from",
          "type": "address"
        },
        {
          "internalType": "address",
          "name": "to",
          "type": "address"
        },
        {
          "internalType": "uint256[]",
          "name": "ids",
          "type": "uint256[]"
        },
        {
          "internalType": "uint256[]",
          "name": "amounts",
          "type": "uint256[]"
        },
        {
          "internalType": "bytes",
          "name": "data",
          "type": "bytes"
        }
      ],
      "name": "safeBatchTransferFrom",
      "outputs": [],
      "stateMutability": "nonpayable",
      "type": "function"
    },
    {
      "inputs": [
        {
          "internalType": "address",
          "name": "from",
          "type": "address"
        },
        {
          "internalType": "address",
          "name": "to",
          "type": "address"
        },
        {
          "internalType": "uint256",
          "name": "id",
          "type": "uint256"
        },
        {
          "internalType": "uint256",
          "name": "amount",
          "type": "uint256"
        },
        {
          "internalType": "bytes",
          "name": "data",
          "type": "bytes"
        }
      ],
      "name": "safeTransferFrom",
      "outputs": [],
      "stateMutability": "nonpayable",
      "type": "function"
    },
    {
      "inputs": [
        {
          "internalType": "address",
          "name": "operator",
          "type": "address"
        },
        {
          "internalType": "bool",
          "name": "approved",
          "type": "bool"
        }
      ],
      "name": "setApprovalForAll",
      "outputs": [],
      "stateMutability": "nonpayable",
      "type": "function"
    },
    {
      "inputs": [],
      "name": "soup",
      "outputs": [
        {
          "internalType": "uint256",
          "name": "",
          "type": "uint256"
        }
      ],
      "stateMutability": "view",
      "type": "function"
    },
    {
      "inputs": [
        {
          "internalType": "bytes4",
          "name": "interfaceId",
          "type": "bytes4"
        }
      ],
      "name": "supportsInterface",
      "outputs": [
        {
          "internalType": "bool",
          "name": "",
          "type": "bool"
        }
      ],
      "stateMutability": "view",
      "type": "function"
    },
    {
      "inputs": [
        {
          "internalType": "uint256",
          "name": "",
          "type": "uint256"
        }
      ],
      "name": "uri",
      "outputs": [
        {
          "internalType": "string",
          "name": "",
          "type": "string"
        }
      ],
      "stateMutability": "view",
      "type": "function"
    }
  ],
  "transactionHash": "0x7271d614abb3b62b681c76c4d471d0b7f1225a15c1b60feaad408d048f3ca755",
  "args": [],
  "numDeployments": 1,
  "solcInputHash": "19ba2fab89e956d7878c8a982c2702dd",
  "bytecode": "0x60806040523480156200001157600080fd5b506040518060200160405280600081525062000033816200009e60201b60201c565b50620000667fdf8b4c520ffe197c5343c6f5aec59570151ef9a492f2c624fd45ddde6135ec4233620000ba60201b60201c565b620000987fdf8b4c520ffe197c5343c6f5aec59570151ef9a492f2c624fd45ddde6135ec4230620000ba60201b60201c565b62000333565b8060029080519060200190620000b69291906200021f565b5050565b620000cc8282620001ac60201b60201c565b620001a85760016003600084815260200190815260200160002060000160008373ffffffffffffffffffffffffffffffffffffffff1673ffffffffffffffffffffffffffffffffffffffff16815260200190815260200160002060006101000a81548160ff0219169083151502179055506200014d6200021760201b60201c565b73ffffffffffffffffffffffffffffffffffffffff168173ffffffffffffffffffffffffffffffffffffffff16837f2f8788117e7eff1d82e926ec794901d17c78024a50270940304540a733656f0d60405160405180910390a45b5050565b60006003600084815260200190815260200160002060000160008373ffffffffffffffffffffffffffffffffffffffff1673ffffffffffffffffffffffffffffffffffffffff16815260200190815260200160002060009054906101000a900460ff16905092915050565b600033905090565b8280546200022d90620002fe565b90600052602060002090601f0160209004810192826200025157600085556200029d565b82601f106200026c57805160ff19168380011785556200029d565b828001600101855582156200029d579182015b828111156200029c5782518255916020019190600101906200027f565b5b509050620002ac9190620002b0565b5090565b5b80821115620002cb576000816000905550600101620002b1565b5090565b7f4e487b7100000000000000000000000000000000000000000000000000000000600052602260045260246000fd5b600060028204905060018216806200031757607f821691505b6020821081036200032d576200032c620002cf565b5b50919050565b61347480620003436000396000f3fe608060405234801561001057600080fd5b50600436106101155760003560e01c806375b238fc116100a2578063b4852e7a11610071578063b4852e7a14610302578063d547741f14610320578063e48818131461033c578063e985e9c51461035a578063f242432a1461038a57610115565b806375b238fc1461027a57806391d1485414610298578063a217fddf146102c8578063a22cb465146102e657610115565b80632eb2c2d6116100e95780632eb2c2d6146101da5780632f2ff15d146101f657806336568abe146102125780634dc936c01461022e5780634e1273f41461024a57610115565b8062fdd58e1461011a57806301ffc9a71461014a5780630e89341c1461017a578063248a9ca3146101aa575b600080fd5b610134600480360381019061012f9190611e68565b6103a6565b6040516101419190611eb7565b60405180910390f35b610164600480360381019061015f9190611f2a565b61046e565b6040516101719190611f72565b60405180910390f35b610194600480360381019061018f9190611f8d565b610480565b6040516101a19190612053565b60405180910390f35b6101c460048036038101906101bf91906120ab565b610514565b6040516101d191906120e7565b60405180910390f35b6101f460048036038101906101ef91906122ff565b610534565b005b610210600480360381019061020b91906123ce565b6105d5565b005b61022c600480360381019061022791906123ce565b6105f6565b005b6102486004803603810190610243919061240e565b610679565b005b610264600480360381019061025f9190612511565b6106ea565b6040516102719190612647565b60405180910390f35b610282610803565b60405161028f91906120e7565b60405180910390f35b6102b260048036038101906102ad91906123ce565b610827565b6040516102bf9190611f72565b60405180910390f35b6102d0610892565b6040516102dd91906120e7565b60405180910390f35b61030060048036038101906102fb9190612695565b610899565b005b61030a6108af565b6040516103179190611eb7565b60405180910390f35b61033a600480360381019061033591906123ce565b6108b4565b005b6103446108d5565b6040516103519190611eb7565b60405180910390f35b610374600480360381019061036f91906126d5565b6108da565b6040516103819190611f72565b60405180910390f35b6103a4600480360381019061039f9190612715565b61096e565b005b60008073ffffffffffffffffffffffffffffffffffffffff168373ffffffffffffffffffffffffffffffffffffffff1603610416576040517f08c379a000000000000000000000000000000000000000000000000000000000815260040161040d9061281e565b60405180910390fd5b60008083815260200190815260200160002060008473ffffffffffffffffffffffffffffffffffffffff1673ffffffffffffffffffffffffffffffffffffffff16815260200190815260200160002054905092915050565b600061047982610a0f565b9050919050565b60606002805461048f9061286d565b80601f01602080910402602001604051908101604052809291908181526020018280546104bb9061286d565b80156105085780601f106104dd57610100808354040283529160200191610508565b820191906000526020600020905b8154815290600101906020018083116104eb57829003601f168201915b50505050509050919050565b600060036000838152602001908152602001600020600101549050919050565b61053c610a89565b73ffffffffffffffffffffffffffffffffffffffff168573ffffffffffffffffffffffffffffffffffffffff16148061058257506105818561057c610a89565b6108da565b5b6105c1576040517f08c379a00000000000000000000000000000000000000000000000000000000081526004016105b890612910565b60405180910390fd5b6105ce8585858585610a91565b5050505050565b6105de82610514565b6105e781610db2565b6105f18383610dc6565b505050565b6105fe610a89565b73ffffffffffffffffffffffffffffffffffffffff168173ffffffffffffffffffffffffffffffffffffffff161461066b576040517f08c379a0000000000000000000000000000000000000000000000000000000008152600401610662906129a2565b60405180910390fd5b6106758282610ea7565b5050565b6000821015801561068b575060018211155b6106ca576040517f08c379a00000000000000000000000000000000000000000000000000000000081526004016106c190612a0e565b60405180910390fd5b6106e68183600160405180602001604052806000815250610f89565b5050565b60608151835114610730576040517f08c379a000000000000000000000000000000000000000000000000000000000815260040161072790612aa0565b60405180910390fd5b6000835167ffffffffffffffff81111561074d5761074c612107565b5b60405190808252806020026020018201604052801561077b5781602001602082028036833780820191505090505b50905060005b84518110156107f8576107c88582815181106107a05761079f612ac0565b5b60200260200101518583815181106107bb576107ba612ac0565b5b60200260200101516103a6565b8282815181106107db576107da612ac0565b5b602002602001018181525050806107f190612b1e565b9050610781565b508091505092915050565b7fdf8b4c520ffe197c5343c6f5aec59570151ef9a492f2c624fd45ddde6135ec4281565b60006003600084815260200190815260200160002060000160008373ffffffffffffffffffffffffffffffffffffffff1673ffffffffffffffffffffffffffffffffffffffff16815260200190815260200160002060009054906101000a900460ff16905092915050565b6000801b81565b6108ab6108a4610a89565b8383611139565b5050565b600181565b6108bd82610514565b6108c681610db2565b6108d08383610ea7565b505050565b600081565b6000600160008473ffffffffffffffffffffffffffffffffffffffff1673ffffffffffffffffffffffffffffffffffffffff16815260200190815260200160002060008373ffffffffffffffffffffffffffffffffffffffff1673ffffffffffffffffffffffffffffffffffffffff16815260200190815260200160002060009054906101000a900460ff16905092915050565b610976610a89565b73ffffffffffffffffffffffffffffffffffffffff168573ffffffffffffffffffffffffffffffffffffffff1614806109bc57506109bb856109b6610a89565b6108da565b5b6109fb576040517f08c379a00000000000000000000000000000000000000000000000000000000081526004016109f290612910565b60405180910390fd5b610a0885858585856112a5565b5050505050565b60007f7965db0b000000000000000000000000000000000000000000000000000000007bffffffffffffffffffffffffffffffffffffffffffffffffffffffff1916827bffffffffffffffffffffffffffffffffffffffffffffffffffffffff19161480610a825750610a8182611540565b5b9050919050565b600033905090565b8151835114610ad5576040517f08c379a0000000000000000000000000000000000000000000000000000000008152600401610acc90612bd8565b60405180910390fd5b600073ffffffffffffffffffffffffffffffffffffffff168473ffffffffffffffffffffffffffffffffffffffff1603610b44576040517f08c379a0000000000000000000000000000000000000000000000000000000008152600401610b3b90612c6a565b60405180910390fd5b6000610b4e610a89565b9050610b5e818787878787611622565b60005b8451811015610d0f576000858281518110610b7f57610b7e612ac0565b5b602002602001015190506000858381518110610b9e57610b9d612ac0565b5b60200260200101519050600080600084815260200190815260200160002060008b73ffffffffffffffffffffffffffffffffffffffff1673ffffffffffffffffffffffffffffffffffffffff16815260200190815260200160002054905081811015610c3f576040517f08c379a0000000000000000000000000000000000000000000000000000000008152600401610c3690612cfc565b60405180910390fd5b81810360008085815260200190815260200160002060008c73ffffffffffffffffffffffffffffffffffffffff1673ffffffffffffffffffffffffffffffffffffffff168152602001908152602001600020819055508160008085815260200190815260200160002060008b73ffffffffffffffffffffffffffffffffffffffff1673ffffffffffffffffffffffffffffffffffffffff1681526020019081526020016000206000828254610cf49190612d1c565b9250508190555050505080610d0890612b1e565b9050610b61565b508473ffffffffffffffffffffffffffffffffffffffff168673ffffffffffffffffffffffffffffffffffffffff168273ffffffffffffffffffffffffffffffffffffffff167f4a39dc06d4c0dbc64b70af90fd698a233a518aa5d07e595d983b8c0526c8f7fb8787604051610d86929190612d72565b60405180910390a4610d9c81878787878761162a565b610daa818787878787611632565b505050505050565b610dc381610dbe610a89565b611809565b50565b610dd08282610827565b610ea35760016003600084815260200190815260200160002060000160008373ffffffffffffffffffffffffffffffffffffffff1673ffffffffffffffffffffffffffffffffffffffff16815260200190815260200160002060006101000a81548160ff021916908315150217905550610e48610a89565b73ffffffffffffffffffffffffffffffffffffffff168173ffffffffffffffffffffffffffffffffffffffff16837f2f8788117e7eff1d82e926ec794901d17c78024a50270940304540a733656f0d60405160405180910390a45b5050565b610eb18282610827565b15610f855760006003600084815260200190815260200160002060000160008373ffffffffffffffffffffffffffffffffffffffff1673ffffffffffffffffffffffffffffffffffffffff16815260200190815260200160002060006101000a81548160ff021916908315150217905550610f2a610a89565b73ffffffffffffffffffffffffffffffffffffffff168173ffffffffffffffffffffffffffffffffffffffff16837ff6391f5c32d9c69d2a47ea670b442974b53935d1edc7fd64eb21e047a839171b60405160405180910390a45b5050565b600073ffffffffffffffffffffffffffffffffffffffff168473ffffffffffffffffffffffffffffffffffffffff1603610ff8576040517f08c379a0000000000000000000000000000000000000000000000000000000008152600401610fef90612e1b565b60405180910390fd5b6000611002610a89565b9050600061100f856118a6565b9050600061101c856118a6565b905061102d83600089858589611622565b8460008088815260200190815260200160002060008973ffffffffffffffffffffffffffffffffffffffff1673ffffffffffffffffffffffffffffffffffffffff168152602001908152602001600020600082825461108c9190612d1c565b925050819055508673ffffffffffffffffffffffffffffffffffffffff16600073ffffffffffffffffffffffffffffffffffffffff168473ffffffffffffffffffffffffffffffffffffffff167fc3d58168c5ae7397731d063d5bbf3d657854427343f4c083240f7aacaa2d0f62898960405161110a929190612e3b565b60405180910390a46111218360008985858961162a565b61113083600089898989611920565b50505050505050565b8173ffffffffffffffffffffffffffffffffffffffff168373ffffffffffffffffffffffffffffffffffffffff16036111a7576040517f08c379a000000000000000000000000000000000000000000000000000000000815260040161119e90612ed6565b60405180910390fd5b80600160008573ffffffffffffffffffffffffffffffffffffffff1673ffffffffffffffffffffffffffffffffffffffff16815260200190815260200160002060008473ffffffffffffffffffffffffffffffffffffffff1673ffffffffffffffffffffffffffffffffffffffff16815260200190815260200160002060006101000a81548160ff0219169083151502179055508173ffffffffffffffffffffffffffffffffffffffff168373ffffffffffffffffffffffffffffffffffffffff167f17307eab39ab6107e8899845ad3d59bd9653f200f220920489ca2b5937696c31836040516112989190611f72565b60405180910390a3505050565b600073ffffffffffffffffffffffffffffffffffffffff168473ffffffffffffffffffffffffffffffffffffffff1603611314576040517f08c379a000000000000000000000000000000000000000000000000000000000815260040161130b90612c6a565b60405180910390fd5b600061131e610a89565b9050600061132b856118a6565b90506000611338856118a6565b9050611348838989858589611622565b600080600088815260200190815260200160002060008a73ffffffffffffffffffffffffffffffffffffffff1673ffffffffffffffffffffffffffffffffffffffff168152602001908152602001600020549050858110156113df576040517f08c379a00000000000000000000000000000000000000000000000000000000081526004016113d690612cfc565b60405180910390fd5b85810360008089815260200190815260200160002060008b73ffffffffffffffffffffffffffffffffffffffff1673ffffffffffffffffffffffffffffffffffffffff168152602001908152602001600020819055508560008089815260200190815260200160002060008a73ffffffffffffffffffffffffffffffffffffffff1673ffffffffffffffffffffffffffffffffffffffff16815260200190815260200160002060008282546114949190612d1c565b925050819055508773ffffffffffffffffffffffffffffffffffffffff168973ffffffffffffffffffffffffffffffffffffffff168573ffffffffffffffffffffffffffffffffffffffff167fc3d58168c5ae7397731d063d5bbf3d657854427343f4c083240f7aacaa2d0f628a8a604051611511929190612e3b565b60405180910390a4611527848a8a86868a61162a565b611535848a8a8a8a8a611920565b505050505050505050565b60007fd9b67a26000000000000000000000000000000000000000000000000000000007bffffffffffffffffffffffffffffffffffffffffffffffffffffffff1916827bffffffffffffffffffffffffffffffffffffffffffffffffffffffff1916148061160b57507f0e89341c000000000000000000000000000000000000000000000000000000007bffffffffffffffffffffffffffffffffffffffffffffffffffffffff1916827bffffffffffffffffffffffffffffffffffffffffffffffffffffffff1916145b8061161b575061161a82611af7565b5b9050919050565b505050505050565b505050505050565b6116518473ffffffffffffffffffffffffffffffffffffffff16611b61565b15611801578373ffffffffffffffffffffffffffffffffffffffff1663bc197c8187878686866040518663ffffffff1660e01b8152600401611697959493929190612f5a565b6020604051808303816000875af19250505080156116d357506040513d601f19601f820116820180604052508101906116d09190612fd7565b60015b611778576116df613011565b806308c379a00361173b57506116f3613033565b806116fe575061173d565b806040517f08c379a00000000000000000000000000000000000000000000000000000000081526004016117329190612053565b60405180910390fd5b505b6040517f08c379a000000000000000000000000000000000000000000000000000000000815260040161176f90613135565b60405180910390fd5b63bc197c8160e01b7bffffffffffffffffffffffffffffffffffffffffffffffffffffffff1916817bffffffffffffffffffffffffffffffffffffffffffffffffffffffff1916146117ff576040517f08c379a00000000000000000000000000000000000000000000000000000000081526004016117f6906131c7565b60405180910390fd5b505b505050505050565b6118138282610827565b6118a2576118388173ffffffffffffffffffffffffffffffffffffffff166014611b84565b6118468360001c6020611b84565b6040516020016118579291906132bb565b6040516020818303038152906040526040517f08c379a00000000000000000000000000000000000000000000000000000000081526004016118999190612053565b60405180910390fd5b5050565b60606000600167ffffffffffffffff8111156118c5576118c4612107565b5b6040519080825280602002602001820160405280156118f35781602001602082028036833780820191505090505b509050828160008151811061190b5761190a612ac0565b5b60200260200101818152505080915050919050565b61193f8473ffffffffffffffffffffffffffffffffffffffff16611b61565b15611aef578373ffffffffffffffffffffffffffffffffffffffff1663f23a6e6187878686866040518663ffffffff1660e01b81526004016119859594939291906132f5565b6020604051808303816000875af19250505080156119c157506040513d601f19601f820116820180604052508101906119be9190612fd7565b60015b611a66576119cd613011565b806308c379a003611a2957506119e1613033565b806119ec5750611a2b565b806040517f08c379a0000000000000000000000000000000000000000000000000000000008152600401611a209190612053565b60405180910390fd5b505b6040517f08c379a0000000000000000000000000000000000000000000000000000000008152600401611a5d90613135565b60405180910390fd5b63f23a6e6160e01b7bffffffffffffffffffffffffffffffffffffffffffffffffffffffff1916817bffffffffffffffffffffffffffffffffffffffffffffffffffffffff191614611aed576040517f08c379a0000000000000000000000000000000000000000000000000000000008152600401611ae4906131c7565b60405180910390fd5b505b505050505050565b60007f01ffc9a7000000000000000000000000000000000000000000000000000000007bffffffffffffffffffffffffffffffffffffffffffffffffffffffff1916827bffffffffffffffffffffffffffffffffffffffffffffffffffffffff1916149050919050565b6000808273ffffffffffffffffffffffffffffffffffffffff163b119050919050565b606060006002836002611b97919061334f565b611ba19190612d1c565b67ffffffffffffffff811115611bba57611bb9612107565b5b6040519080825280601f01601f191660200182016040528015611bec5781602001600182028036833780820191505090505b5090507f300000000000000000000000000000000000000000000000000000000000000081600081518110611c2457611c23612ac0565b5b60200101907effffffffffffffffffffffffffffffffffffffffffffffffffffffffffffff1916908160001a9053507f780000000000000000000000000000000000000000000000000000000000000081600181518110611c8857611c87612ac0565b5b60200101907effffffffffffffffffffffffffffffffffffffffffffffffffffffffffffff1916908160001a90535060006001846002611cc8919061334f565b611cd29190612d1c565b90505b6001811115611d72577f3031323334353637383961626364656600000000000000000000000000000000600f861660108110611d1457611d13612ac0565b5b1a60f81b828281518110611d2b57611d2a612ac0565b5b60200101907effffffffffffffffffffffffffffffffffffffffffffffffffffffffffffff1916908160001a905350600485901c945080611d6b906133a9565b9050611cd5565b5060008414611db6576040517f08c379a0000000000000000000000000000000000000000000000000000000008152600401611dad9061341e565b60405180910390fd5b8091505092915050565b6000604051905090565b600080fd5b600080fd5b600073ffffffffffffffffffffffffffffffffffffffff82169050919050565b6000611dff82611dd4565b9050919050565b611e0f81611df4565b8114611e1a57600080fd5b50565b600081359050611e2c81611e06565b92915050565b6000819050919050565b611e4581611e32565b8114611e5057600080fd5b50565b600081359050611e6281611e3c565b92915050565b60008060408385031215611e7f57611e7e611dca565b5b6000611e8d85828601611e1d565b9250506020611e9e85828601611e53565b9150509250929050565b611eb181611e32565b82525050565b6000602082019050611ecc6000830184611ea8565b92915050565b60007fffffffff0000000000000000000000000000000000000000000000000000000082169050919050565b611f0781611ed2565b8114611f1257600080fd5b50565b600081359050611f2481611efe565b92915050565b600060208284031215611f4057611f3f611dca565b5b6000611f4e84828501611f15565b91505092915050565b60008115159050919050565b611f6c81611f57565b82525050565b6000602082019050611f876000830184611f63565b92915050565b600060208284031215611fa357611fa2611dca565b5b6000611fb184828501611e53565b91505092915050565b600081519050919050565b600082825260208201905092915050565b60005b83811015611ff4578082015181840152602081019050611fd9565b83811115612003576000848401525b50505050565b6000601f19601f8301169050919050565b600061202582611fba565b61202f8185611fc5565b935061203f818560208601611fd6565b61204881612009565b840191505092915050565b6000602082019050818103600083015261206d818461201a565b905092915050565b6000819050919050565b61208881612075565b811461209357600080fd5b50565b6000813590506120a58161207f565b92915050565b6000602082840312156120c1576120c0611dca565b5b60006120cf84828501612096565b91505092915050565b6120e181612075565b82525050565b60006020820190506120fc60008301846120d8565b92915050565b600080fd5b7f4e487b7100000000000000000000000000000000000000000000000000000000600052604160045260246000fd5b61213f82612009565b810181811067ffffffffffffffff8211171561215e5761215d612107565b5b80604052505050565b6000612171611dc0565b905061217d8282612136565b919050565b600067ffffffffffffffff82111561219d5761219c612107565b5b602082029050602081019050919050565b600080fd5b60006121c66121c184612182565b612167565b905080838252602082019050602084028301858111156121e9576121e86121ae565b5b835b8181101561221257806121fe8882611e53565b8452602084019350506020810190506121eb565b5050509392505050565b600082601f83011261223157612230612102565b5b81356122418482602086016121b3565b91505092915050565b600080fd5b600067ffffffffffffffff82111561226a57612269612107565b5b61227382612009565b9050602081019050919050565b82818337600083830152505050565b60006122a261229d8461224f565b612167565b9050828152602081018484840111156122be576122bd61224a565b5b6122c9848285612280565b509392505050565b600082601f8301126122e6576122e5612102565b5b81356122f684826020860161228f565b91505092915050565b600080600080600060a0868803121561231b5761231a611dca565b5b600061232988828901611e1d565b955050602061233a88828901611e1d565b945050604086013567ffffffffffffffff81111561235b5761235a611dcf565b5b6123678882890161221c565b935050606086013567ffffffffffffffff81111561238857612387611dcf565b5b6123948882890161221c565b925050608086013567ffffffffffffffff8111156123b5576123b4611dcf565b5b6123c1888289016122d1565b9150509295509295909350565b600080604083850312156123e5576123e4611dca565b5b60006123f385828601612096565b925050602061240485828601611e1d565b9150509250929050565b6000806040838503121561242557612424611dca565b5b600061243385828601611e53565b925050602061244485828601611e1d565b9150509250929050565b600067ffffffffffffffff82111561246957612468612107565b5b602082029050602081019050919050565b600061248d6124888461244e565b612167565b905080838252602082019050602084028301858111156124b0576124af6121ae565b5b835b818110156124d957806124c58882611e1d565b8452602084019350506020810190506124b2565b5050509392505050565b600082601f8301126124f8576124f7612102565b5b813561250884826020860161247a565b91505092915050565b6000806040838503121561252857612527611dca565b5b600083013567ffffffffffffffff81111561254657612545611dcf565b5b612552858286016124e3565b925050602083013567ffffffffffffffff81111561257357612572611dcf565b5b61257f8582860161221c565b9150509250929050565b600081519050919050565b600082825260208201905092915050565b6000819050602082019050919050565b6125be81611e32565b82525050565b60006125d083836125b5565b60208301905092915050565b6000602082019050919050565b60006125f482612589565b6125fe8185612594565b9350612609836125a5565b8060005b8381101561263a57815161262188826125c4565b975061262c836125dc565b92505060018101905061260d565b5085935050505092915050565b6000602082019050818103600083015261266181846125e9565b905092915050565b61267281611f57565b811461267d57600080fd5b50565b60008135905061268f81612669565b92915050565b600080604083850312156126ac576126ab611dca565b5b60006126ba85828601611e1d565b92505060206126cb85828601612680565b9150509250929050565b600080604083850312156126ec576126eb611dca565b5b60006126fa85828601611e1d565b925050602061270b85828601611e1d565b9150509250929050565b600080600080600060a0868803121561273157612730611dca565b5b600061273f88828901611e1d565b955050602061275088828901611e1d565b945050604061276188828901611e53565b935050606061277288828901611e53565b925050608086013567ffffffffffffffff81111561279357612792611dcf565b5b61279f888289016122d1565b9150509295509295909350565b7f455243313135353a2061646472657373207a65726f206973206e6f742061207660008201527f616c6964206f776e657200000000000000000000000000000000000000000000602082015250565b6000612808602a83611fc5565b9150612813826127ac565b604082019050919050565b60006020820190508181036000830152612837816127fb565b9050919050565b7f4e487b7100000000000000000000000000000000000000000000000000000000600052602260045260246000fd5b6000600282049050600182168061288557607f821691505b6020821081036128985761289761283e565b5b50919050565b7f455243313135353a2063616c6c6572206973206e6f7420746f6b656e206f776e60008201527f6572206e6f7220617070726f7665640000000000000000000000000000000000602082015250565b60006128fa602f83611fc5565b91506129058261289e565b604082019050919050565b60006020820190508181036000830152612929816128ed565b9050919050565b7f416363657373436f6e74726f6c3a2063616e206f6e6c792072656e6f756e636560008201527f20726f6c657320666f722073656c660000000000000000000000000000000000602082015250565b600061298c602f83611fc5565b915061299782612930565b604082019050919050565b600060208201905081810360008301526129bb8161297f565b9050919050565b7f496e76616c6964206974656d2049440000000000000000000000000000000000600082015250565b60006129f8600f83611fc5565b9150612a03826129c2565b602082019050919050565b60006020820190508181036000830152612a27816129eb565b9050919050565b7f455243313135353a206163636f756e747320616e6420696473206c656e67746860008201527f206d69736d617463680000000000000000000000000000000000000000000000602082015250565b6000612a8a602983611fc5565b9150612a9582612a2e565b604082019050919050565b60006020820190508181036000830152612ab981612a7d565b9050919050565b7f4e487b7100000000000000000000000000000000000000000000000000000000600052603260045260246000fd5b7f4e487b7100000000000000000000000000000000000000000000000000000000600052601160045260246000fd5b6000612b2982611e32565b91507fffffffffffffffffffffffffffffffffffffffffffffffffffffffffffffffff8203612b5b57612b5a612aef565b5b600182019050919050565b7f455243313135353a2069647320616e6420616d6f756e7473206c656e6774682060008201527f6d69736d61746368000000000000000000000000000000000000000000000000602082015250565b6000612bc2602883611fc5565b9150612bcd82612b66565b604082019050919050565b60006020820190508181036000830152612bf181612bb5565b9050919050565b7f455243313135353a207472616e7366657220746f20746865207a65726f20616460008201527f6472657373000000000000000000000000000000000000000000000000000000602082015250565b6000612c54602583611fc5565b9150612c5f82612bf8565b604082019050919050565b60006020820190508181036000830152612c8381612c47565b9050919050565b7f455243313135353a20696e73756666696369656e742062616c616e636520666f60008201527f72207472616e7366657200000000000000000000000000000000000000000000602082015250565b6000612ce6602a83611fc5565b9150612cf182612c8a565b604082019050919050565b60006020820190508181036000830152612d1581612cd9565b9050919050565b6000612d2782611e32565b9150612d3283611e32565b9250827fffffffffffffffffffffffffffffffffffffffffffffffffffffffffffffffff03821115612d6757612d66612aef565b5b828201905092915050565b60006040820190508181036000830152612d8c81856125e9565b90508181036020830152612da081846125e9565b90509392505050565b7f455243313135353a206d696e7420746f20746865207a65726f2061646472657360008201527f7300000000000000000000000000000000000000000000000000000000000000602082015250565b6000612e05602183611fc5565b9150612e1082612da9565b604082019050919050565b60006020820190508181036000830152612e3481612df8565b9050919050565b6000604082019050612e506000830185611ea8565b612e5d6020830184611ea8565b9392505050565b7f455243313135353a2073657474696e6720617070726f76616c2073746174757360008201527f20666f722073656c660000000000000000000000000000000000000000000000602082015250565b6000612ec0602983611fc5565b9150612ecb82612e64565b604082019050919050565b60006020820190508181036000830152612eef81612eb3565b9050919050565b612eff81611df4565b82525050565b600081519050919050565b600082825260208201905092915050565b6000612f2c82612f05565b612f368185612f10565b9350612f46818560208601611fd6565b612f4f81612009565b840191505092915050565b600060a082019050612f6f6000830188612ef6565b612f7c6020830187612ef6565b8181036040830152612f8e81866125e9565b90508181036060830152612fa281856125e9565b90508181036080830152612fb68184612f21565b90509695505050505050565b600081519050612fd181611efe565b92915050565b600060208284031215612fed57612fec611dca565b5b6000612ffb84828501612fc2565b91505092915050565b60008160e01c9050919050565b600060033d11156130305760046000803e61302d600051613004565b90505b90565b600060443d106130c057613045611dc0565b60043d036004823e80513d602482011167ffffffffffffffff8211171561306d5750506130c0565b808201805167ffffffffffffffff81111561308b57505050506130c0565b80602083010160043d0385018111156130a85750505050506130c0565b6130b782602001850186612136565b82955050505050505b90565b7f455243313135353a207472616e7366657220746f206e6f6e204552433131353560008201527f526563656976657220696d706c656d656e746572000000000000000000000000602082015250565b600061311f603483611fc5565b915061312a826130c3565b604082019050919050565b6000602082019050818103600083015261314e81613112565b9050919050565b7f455243313135353a204552433131353552656365697665722072656a6563746560008201527f6420746f6b656e73000000000000000000000000000000000000000000000000602082015250565b60006131b1602883611fc5565b91506131bc82613155565b604082019050919050565b600060208201905081810360008301526131e0816131a4565b9050919050565b600081905092915050565b7f416363657373436f6e74726f6c3a206163636f756e7420000000000000000000600082015250565b60006132286017836131e7565b9150613233826131f2565b601782019050919050565b600061324982611fba565b61325381856131e7565b9350613263818560208601611fd6565b80840191505092915050565b7f206973206d697373696e6720726f6c6520000000000000000000000000000000600082015250565b60006132a56011836131e7565b91506132b08261326f565b601182019050919050565b60006132c68261321b565b91506132d2828561323e565b91506132dd82613298565b91506132e9828461323e565b91508190509392505050565b600060a08201905061330a6000830188612ef6565b6133176020830187612ef6565b6133246040830186611ea8565b6133316060830185611ea8565b81810360808301526133438184612f21565b90509695505050505050565b600061335a82611e32565b915061336583611e32565b9250817fffffffffffffffffffffffffffffffffffffffffffffffffffffffffffffffff048311821515161561339e5761339d612aef565b5b828202905092915050565b60006133b482611e32565b9150600082036133c7576133c6612aef565b5b600182039050919050565b7f537472696e67733a20686578206c656e67746820696e73756666696369656e74600082015250565b6000613408602083611fc5565b9150613413826133d2565b602082019050919050565b60006020820190508181036000830152613437816133fb565b905091905056fea2646970667358221220a9d7fba6fc3ba4e3e99cc5b83e886b09da39ea14dca45cdef7c9031a3af07e9664736f6c634300080d0033",
  "devdoc": {
    "kind": "dev",
    "methods": {
      "balanceOf(address,uint256)": {
        "details": "See {IERC1155-balanceOf}. Requirements: - `account` cannot be the zero address."
      },
      "balanceOfBatch(address[],uint256[])": {
        "details": "See {IERC1155-balanceOfBatch}. Requirements: - `accounts` and `ids` must have the same length."
      },
      "getRoleAdmin(bytes32)": {
        "details": "Returns the admin role that controls `role`. See {grantRole} and {revokeRole}. To change a role's admin, use {_setRoleAdmin}."
      },
      "grantRole(bytes32,address)": {
        "details": "Grants `role` to `account`. If `account` had not been already granted `role`, emits a {RoleGranted} event. Requirements: - the caller must have ``role``'s admin role. May emit a {RoleGranted} event."
      },
      "hasRole(bytes32,address)": {
        "details": "Returns `true` if `account` has been granted `role`."
      },
      "isApprovedForAll(address,address)": {
        "details": "See {IERC1155-isApprovedForAll}."
      },
      "renounceRole(bytes32,address)": {
        "details": "Revokes `role` from the calling account. Roles are often managed via {grantRole} and {revokeRole}: this function's purpose is to provide a mechanism for accounts to lose their privileges if they are compromised (such as when a trusted device is misplaced). If the calling account had been revoked `role`, emits a {RoleRevoked} event. Requirements: - the caller must be `account`. May emit a {RoleRevoked} event."
      },
      "revokeRole(bytes32,address)": {
        "details": "Revokes `role` from `account`. If `account` had been granted `role`, emits a {RoleRevoked} event. Requirements: - the caller must have ``role``'s admin role. May emit a {RoleRevoked} event."
      },
      "safeBatchTransferFrom(address,address,uint256[],uint256[],bytes)": {
        "details": "See {IERC1155-safeBatchTransferFrom}."
      },
      "safeTransferFrom(address,address,uint256,uint256,bytes)": {
        "details": "See {IERC1155-safeTransferFrom}."
      },
      "setApprovalForAll(address,bool)": {
        "details": "See {IERC1155-setApprovalForAll}."
      },
      "uri(uint256)": {
        "details": "See {IERC1155MetadataURI-uri}. This implementation returns the same URI for *all* token types. It relies on the token type ID substitution mechanism https://eips.ethereum.org/EIPS/eip-1155#metadata[defined in the EIP]. Clients calling this function must replace the `\\{id\\}` substring with the actual token type ID."
      }
    },
    "version": 1
  },
  "userdoc": {
    "kind": "user",
    "methods": {},
    "version": 1
  },
  "storageLayout": {
    "storage": [
      {
        "astId": 418,
        "contract": "contracts/CatsAndSoup.sol:CatsAndSoup",
        "label": "_balances",
        "offset": 0,
        "slot": "0",
        "type": "t_mapping(t_uint256,t_mapping(t_address,t_uint256))"
      },
      {
        "astId": 424,
        "contract": "contracts/CatsAndSoup.sol:CatsAndSoup",
        "label": "_operatorApprovals",
        "offset": 0,
        "slot": "1",
        "type": "t_mapping(t_address,t_mapping(t_address,t_bool))"
      },
      {
        "astId": 426,
        "contract": "contracts/CatsAndSoup.sol:CatsAndSoup",
        "label": "_uri",
        "offset": 0,
        "slot": "2",
        "type": "t_string_storage"
      },
      {
        "astId": 24,
        "contract": "contracts/CatsAndSoup.sol:CatsAndSoup",
        "label": "_roles",
        "offset": 0,
        "slot": "3",
        "type": "t_mapping(t_bytes32,t_struct(RoleData)19_storage)"
      }
    ],
    "types": {
      "t_address": {
        "encoding": "inplace",
        "label": "address",
        "numberOfBytes": "20"
      },
      "t_bool": {
        "encoding": "inplace",
        "label": "bool",
        "numberOfBytes": "1"
      },
      "t_bytes32": {
        "encoding": "inplace",
        "label": "bytes32",
        "numberOfBytes": "32"
      },
      "t_mapping(t_address,t_bool)": {
        "encoding": "mapping",
        "key": "t_address",
        "label": "mapping(address => bool)",
        "numberOfBytes": "32",
        "value": "t_bool"
      },
      "t_mapping(t_address,t_mapping(t_address,t_bool))": {
        "encoding": "mapping",
        "key": "t_address",
        "label": "mapping(address => mapping(address => bool))",
        "numberOfBytes": "32",
        "value": "t_mapping(t_address,t_bool)"
      },
      "t_mapping(t_address,t_uint256)": {
        "encoding": "mapping",
        "key": "t_address",
        "label": "mapping(address => uint256)",
        "numberOfBytes": "32",
        "value": "t_uint256"
      },
      "t_mapping(t_bytes32,t_struct(RoleData)19_storage)": {
        "encoding": "mapping",
        "key": "t_bytes32",
        "label": "mapping(bytes32 => struct AccessControl.RoleData)",
        "numberOfBytes": "32",
        "value": "t_struct(RoleData)19_storage"
      },
      "t_mapping(t_uint256,t_mapping(t_address,t_uint256))": {
        "encoding": "mapping",
        "key": "t_uint256",
        "label": "mapping(uint256 => mapping(address => uint256))",
        "numberOfBytes": "32",
        "value": "t_mapping(t_address,t_uint256)"
      },
      "t_string_storage": {
        "encoding": "bytes",
        "label": "string",
        "numberOfBytes": "32"
      },
      "t_struct(RoleData)19_storage": {
        "encoding": "inplace",
        "label": "struct AccessControl.RoleData",
        "members": [
          {
            "astId": 16,
            "contract": "contracts/CatsAndSoup.sol:CatsAndSoup",
            "label": "members",
            "offset": 0,
            "slot": "0",
            "type": "t_mapping(t_address,t_bool)"
          },
          {
            "astId": 18,
            "contract": "contracts/CatsAndSoup.sol:CatsAndSoup",
            "label": "adminRole",
            "offset": 0,
            "slot": "1",
            "type": "t_bytes32"
          }
        ],
        "numberOfBytes": "64"
      },
      "t_uint256": {
        "encoding": "inplace",
        "label": "uint256",
        "numberOfBytes": "32"
      }
    }
  }
}