{
  "address": "0xe7f1725E7734CE288F8367e1Bb143E90bb3F0512",
  "abi": [
    {
      "inputs": [
        {
          "internalType": "string",
          "name": "name",
          "type": "string"
        },
        {
          "internalType": "string",
          "name": "symbol",
          "type": "string"
        },
        {
          "internalType": "uint256",
          "name": "_maxSupply",
          "type": "uint256"
        }
      ],
      "stateMutability": "nonpayable",
      "type": "constructor"
    },
    {
      "inputs": [],
      "name": "ApprovalCallerNotOwnerNorApproved",
      "type": "error"
    },
    {
      "inputs": [],
      "name": "ApprovalQueryForNonexistentToken",
      "type": "error"
    },
    {
      "inputs": [],
      "name": "BalanceQueryForZeroAddress",
      "type": "error"
    },
    {
      "inputs": [],
      "name": "MintERC2309QuantityExceedsLimit",
      "type": "error"
    },
    {
      "inputs": [],
      "name": "MintToZeroAddress",
      "type": "error"
    },
    {
      "inputs": [],
      "name": "MintZeroQuantity",
      "type": "error"
    },
    {
      "inputs": [],
      "name": "OwnerQueryForNonexistentToken",
      "type": "error"
    },
    {
      "inputs": [],
      "name": "OwnershipNotInitializedForExtraData",
      "type": "error"
    },
    {
      "inputs": [],
      "name": "TransferCallerNotOwnerNorApproved",
      "type": "error"
    },
    {
      "inputs": [],
      "name": "TransferFromIncorrectOwner",
      "type": "error"
    },
    {
      "inputs": [],
      "name": "TransferToNonERC721ReceiverImplementer",
      "type": "error"
    },
    {
      "inputs": [],
      "name": "TransferToZeroAddress",
      "type": "error"
    },
    {
      "inputs": [],
      "name": "URIQueryForNonexistentToken",
      "type": "error"
    },
    {
      "anonymous": false,
      "inputs": [
        {
          "indexed": true,
          "internalType": "address",
          "name": "owner",
          "type": "address"
        },
        {
          "indexed": true,
          "internalType": "address",
          "name": "approved",
          "type": "address"
        },
        {
          "indexed": true,
          "internalType": "uint256",
          "name": "tokenId",
          "type": "uint256"
        }
      ],
      "name": "Approval",
      "type": "event"
    },
    {
      "anonymous": false,
      "inputs": [
        {
          "indexed": true,
          "internalType": "address",
          "name": "owner",
          "type": "address"
        },
        {
          "indexed": true,
          "internalType": "address",
          "name": "operator",
          "type": "address"
        },
        {
          "indexed": false,
          "internalType": "bool",
          "name": "approved",
          "type": "bool"
        }
      ],
      "name": "ApprovalForAll",
      "type": "event"
    },
    {
      "anonymous": false,
      "inputs": [
        {
          "indexed": true,
          "internalType": "uint256",
          "name": "fromTokenId",
          "type": "uint256"
        },
        {
          "indexed": false,
          "internalType": "uint256",
          "name": "toTokenId",
          "type": "uint256"
        },
        {
          "indexed": true,
          "internalType": "address",
          "name": "from",
          "type": "address"
        },
        {
          "indexed": true,
          "internalType": "address",
          "name": "to",
          "type": "address"
        }
      ],
      "name": "ConsecutiveTransfer",
      "type": "event"
    },
    {
      "anonymous": false,
      "inputs": [
        {
          "indexed": false,
          "internalType": "uint256",
          "name": "quantity",
          "type": "uint256"
        },
        {
          "indexed": false,
          "internalType": "address",
          "name": "initialOwner",
          "type": "address"
        }
      ],
      "name": "InitialMint",
      "type": "event"
    },
    {
      "anonymous": false,
      "inputs": [
        {
          "indexed": true,
          "internalType": "address",
          "name": "from",
          "type": "address"
        },
        {
          "indexed": true,
          "internalType": "address",
          "name": "to",
          "type": "address"
        },
        {
          "indexed": true,
          "internalType": "uint256",
          "name": "tokenId",
          "type": "uint256"
        }
      ],
      "name": "Transfer",
      "type": "event"
    },
    {
      "inputs": [],
      "name": "_marketplace",
      "outputs": [
        {
          "internalType": "address",
          "name": "",
          "type": "address"
        }
      ],
      "stateMutability": "view",
      "type": "function"
    },
    {
      "inputs": [
        {
          "internalType": "address",
          "name": "to",
          "type": "address"
        },
        {
          "internalType": "uint256",
          "name": "tokenId",
          "type": "uint256"
        }
      ],
      "name": "approve",
      "outputs": [],
      "stateMutability": "payable",
      "type": "function"
    },
    {
      "inputs": [
        {
          "internalType": "uint256",
          "name": "_landId",
          "type": "uint256"
        },
        {
          "internalType": "uint256",
          "name": "_itemId",
          "type": "uint256"
        }
      ],
      "name": "assignItem",
      "outputs": [],
      "stateMutability": "nonpayable",
      "type": "function"
    },
    {
      "inputs": [
        {
          "internalType": "uint256",
          "name": "_landId",
          "type": "uint256"
        }
      ],
      "name": "assignPot",
      "outputs": [],
      "stateMutability": "nonpayable",
      "type": "function"
    },
    {
      "inputs": [
        {
          "internalType": "address",
          "name": "owner",
          "type": "address"
        }
      ],
      "name": "balanceOf",
      "outputs": [
        {
          "internalType": "uint256",
          "name": "",
          "type": "uint256"
        }
      ],
      "stateMutability": "view",
      "type": "function"
    },
    {
      "inputs": [
        {
          "internalType": "uint256",
          "name": "_landId",
          "type": "uint256"
        },
        {
          "internalType": "address",
          "name": "_userAddress",
          "type": "address"
        }
      ],
      "name": "buyLand",
      "outputs": [],
      "stateMutability": "nonpayable",
      "type": "function"
    },
    {
      "inputs": [
        {
          "internalType": "uint256",
          "name": "tokenId",
          "type": "uint256"
        }
      ],
      "name": "getApproved",
      "outputs": [
        {
          "internalType": "address",
          "name": "",
          "type": "address"
        }
      ],
      "stateMutability": "view",
      "type": "function"
    },
    {
      "inputs": [
        {
          "internalType": "address",
          "name": "_address",
          "type": "address"
        }
      ],
      "name": "getAuth",
      "outputs": [
        {
          "internalType": "bool",
          "name": "",
          "type": "bool"
        }
      ],
      "stateMutability": "view",
      "type": "function"
    },
    {
      "inputs": [
        {
          "internalType": "address",
          "name": "_address",
          "type": "address"
        }
      ],
      "name": "getUser",
      "outputs": [
        {
          "internalType": "bool",
          "name": "",
          "type": "bool"
        }
      ],
      "stateMutability": "view",
      "type": "function"
    },
    {
      "inputs": [],
      "name": "initialBatchMint",
      "outputs": [],
      "stateMutability": "nonpayable",
      "type": "function"
    },
    {
      "inputs": [
        {
          "internalType": "address",
          "name": "owner",
          "type": "address"
        },
        {
          "internalType": "address",
          "name": "operator",
          "type": "address"
        }
      ],
      "name": "isApprovedForAll",
      "outputs": [
        {
          "internalType": "bool",
          "name": "",
          "type": "bool"
        }
      ],
      "stateMutability": "view",
      "type": "function"
    },
    {
      "inputs": [
        {
          "internalType": "uint256",
          "name": "",
          "type": "uint256"
        }
      ],
      "name": "landData",
      "outputs": [
        {
          "internalType": "string",
          "name": "landType",
          "type": "string"
        },
        {
          "internalType": "address",
          "name": "owner",
          "type": "address"
        },
        {
          "internalType": "uint256",
          "name": "positionX",
          "type": "uint256"
        },
        {
          "internalType": "uint256",
          "name": "positionY",
          "type": "uint256"
        },
        {
          "internalType": "uint256",
          "name": "sizeX",
          "type": "uint256"
        },
        {
          "internalType": "uint256",
          "name": "sizeY",
          "type": "uint256"
        }
      ],
      "stateMutability": "view",
      "type": "function"
    },
    {
      "inputs": [
        {
          "internalType": "uint256",
          "name": "",
          "type": "uint256"
        }
      ],
      "name": "landsArray",
      "outputs": [
        {
          "internalType": "string",
          "name": "landType",
          "type": "string"
        },
        {
          "internalType": "address",
          "name": "owner",
          "type": "address"
        },
        {
          "internalType": "uint256",
          "name": "positionX",
          "type": "uint256"
        },
        {
          "internalType": "uint256",
          "name": "positionY",
          "type": "uint256"
        },
        {
          "internalType": "uint256",
          "name": "sizeX",
          "type": "uint256"
        },
        {
          "internalType": "uint256",
          "name": "sizeY",
          "type": "uint256"
        }
      ],
      "stateMutability": "view",
      "type": "function"
    },
    {
      "inputs": [],
      "name": "maxSupply",
      "outputs": [
        {
          "internalType": "uint256",
          "name": "",
          "type": "uint256"
        }
      ],
      "stateMutability": "view",
      "type": "function"
    },
    {
      "inputs": [],
      "name": "name",
      "outputs": [
        {
          "internalType": "string",
          "name": "",
          "type": "string"
        }
      ],
      "stateMutability": "view",
      "type": "function"
    },
    {
      "inputs": [
        {
          "internalType": "uint256",
          "name": "tokenId",
          "type": "uint256"
        }
      ],
      "name": "ownerOf",
      "outputs": [
        {
          "internalType": "address",
          "name": "",
          "type": "address"
        }
      ],
      "stateMutability": "view",
      "type": "function"
    },
    {
      "inputs": [
        {
          "internalType": "address",
          "name": "from",
          "type": "address"
        },
        {
          "internalType": "address",
          "name": "to",
          "type": "address"
        },
        {
          "internalType": "uint256",
          "name": "tokenId",
          "type": "uint256"
        }
      ],
      "name": "safeTransferFrom",
      "outputs": [],
      "stateMutability": "payable",
      "type": "function"
    },
    {
      "inputs": [
        {
          "internalType": "address",
          "name": "from",
          "type": "address"
        },
        {
          "internalType": "address",
          "name": "to",
          "type": "address"
        },
        {
          "internalType": "uint256",
          "name": "tokenId",
          "type": "uint256"
        },
        {
          "internalType": "bytes",
          "name": "_data",
          "type": "bytes"
        }
      ],
      "name": "safeTransferFrom",
      "outputs": [],
      "stateMutability": "payable",
      "type": "function"
    },
    {
      "inputs": [
        {
          "internalType": "address",
          "name": "operator",
          "type": "address"
        },
        {
          "internalType": "bool",
          "name": "approved",
          "type": "bool"
        }
      ],
      "name": "setApprovalForAll",
      "outputs": [],
      "stateMutability": "nonpayable",
      "type": "function"
    },
    {
      "inputs": [
        {
          "internalType": "bytes4",
          "name": "interfaceId",
          "type": "bytes4"
        }
      ],
      "name": "supportsInterface",
      "outputs": [
        {
          "internalType": "bool",
          "name": "",
          "type": "bool"
        }
      ],
      "stateMutability": "view",
      "type": "function"
    },
    {
      "inputs": [],
      "name": "symbol",
      "outputs": [
        {
          "internalType": "string",
          "name": "",
          "type": "string"
        }
      ],
      "stateMutability": "view",
      "type": "function"
    },
    {
      "inputs": [
        {
          "internalType": "uint256",
          "name": "tokenId",
          "type": "uint256"
        }
      ],
      "name": "tokenURI",
      "outputs": [
        {
          "internalType": "string",
          "name": "",
          "type": "string"
        }
      ],
      "stateMutability": "view",
      "type": "function"
    },
    {
      "inputs": [],
      "name": "totalSupply",
      "outputs": [
        {
          "internalType": "uint256",
          "name": "",
          "type": "uint256"
        }
      ],
      "stateMutability": "view",
      "type": "function"
    },
    {
      "inputs": [
        {
          "internalType": "address",
          "name": "from",
          "type": "address"
        },
        {
          "internalType": "address",
          "name": "to",
          "type": "address"
        },
        {
          "internalType": "uint256",
          "name": "tokenId",
          "type": "uint256"
        }
      ],
      "name": "transferFrom",
      "outputs": [],
      "stateMutability": "payable",
      "type": "function"
    }
  ],
  "transactionHash": "0xa6c1a889b0cd7bfd63bd81675e72cbce9753d70d64c04896889771168cb84244",
  "args": [
    "Land",
    "LND",
    10
  ],
  "numDeployments": 1,
  "solcInputHash": "c98d1e33b78c56f5b0a57ee83d9f9ba5",
  "bytecode": "0x60806040523480156200001157600080fd5b5060405162003a6638038062003a66833981810160405281019062000037919062000378565b8282816002908051906020019062000051929190620000f0565b5080600390805190602001906200006a929190620000f0565b506200007b620000eb60201b60201c565b60008190555050506001600860003373ffffffffffffffffffffffffffffffffffffffff1673ffffffffffffffffffffffffffffffffffffffff16815260200190815260200160002060006101000a81548160ff02191690831515021790555080600a8190555050505062000476565b600090565b828054620000fe9062000441565b90600052602060002090601f0160209004810192826200012257600085556200016e565b82601f106200013d57805160ff19168380011785556200016e565b828001600101855582156200016e579182015b828111156200016d57825182559160200191906001019062000150565b5b5090506200017d919062000181565b5090565b5b808211156200019c57600081600090555060010162000182565b5090565b6000604051905090565b600080fd5b600080fd5b600080fd5b600080fd5b6000601f19601f8301169050919050565b7f4e487b7100000000000000000000000000000000000000000000000000000000600052604160045260246000fd5b6200020982620001be565b810181811067ffffffffffffffff821117156200022b576200022a620001cf565b5b80604052505050565b600062000240620001a0565b90506200024e8282620001fe565b919050565b600067ffffffffffffffff821115620002715762000270620001cf565b5b6200027c82620001be565b9050602081019050919050565b60005b83811015620002a95780820151818401526020810190506200028c565b83811115620002b9576000848401525b50505050565b6000620002d6620002d08462000253565b62000234565b905082815260208101848484011115620002f557620002f4620001b9565b5b6200030284828562000289565b509392505050565b600082601f830112620003225762000321620001b4565b5b815162000334848260208601620002bf565b91505092915050565b6000819050919050565b62000352816200033d565b81146200035e57600080fd5b50565b600081519050620003728162000347565b92915050565b600080600060608486031215620003945762000393620001aa565b5b600084015167ffffffffffffffff811115620003b557620003b4620001af565b5b620003c3868287016200030a565b935050602084015167ffffffffffffffff811115620003e757620003e6620001af565b5b620003f5868287016200030a565b9250506040620004088682870162000361565b9150509250925092565b7f4e487b7100000000000000000000000000000000000000000000000000000000600052602260045260246000fd5b600060028204905060018216806200045a57607f821691505b60208210810362000470576200046f62000412565b5b50919050565b6135e080620004866000396000f3fe60806040526004361061014b5760003560e01c80637ed11e62116100b6578063be5462211161006f578063be54622114610483578063c1ab822e146104ae578063c87b56dd146104d7578063d5abeb0114610514578063e985e9c51461053f578063ef6583641461057c5761014b565b80637ed11e621461039157806395d89b41146103ba578063a22cb465146103e5578063b16f10011461040e578063b88d4fde14610425578063b95aa42f146104415761014b565b8063395c455b11610108578063395c455b1461025857806342842e0e146102815780636352211e1461029d5780636e4e3e2d146102da5780636f77926b1461031757806370a08231146103545761014b565b806301ffc9a71461015057806306fdde031461018d578063081812fc146101b8578063095ea7b3146101f557806318160ddd1461021157806323b872dd1461023c575b600080fd5b34801561015c57600080fd5b5061017760048036038101906101729190612722565b6105be565b604051610184919061276a565b60405180910390f35b34801561019957600080fd5b506101a2610650565b6040516101af919061281e565b60405180910390f35b3480156101c457600080fd5b506101df60048036038101906101da9190612876565b6106e2565b6040516101ec91906128e4565b60405180910390f35b61020f600480360381019061020a919061292b565b610761565b005b34801561021d57600080fd5b506102266108a5565b604051610233919061297a565b60405180910390f35b61025660048036038101906102519190612995565b6108bc565b005b34801561026457600080fd5b5061027f600480360381019061027a9190612876565b610bde565b005b61029b60048036038101906102969190612995565b610e68565b005b3480156102a957600080fd5b506102c460048036038101906102bf9190612876565b610e88565b6040516102d191906128e4565b60405180910390f35b3480156102e657600080fd5b5061030160048036038101906102fc91906129e8565b610e9a565b60405161030e919061276a565b60405180910390f35b34801561032357600080fd5b5061033e600480360381019061033991906129e8565b610ef0565b60405161034b919061276a565b60405180910390f35b34801561036057600080fd5b5061037b600480360381019061037691906129e8565b610f46565b604051610388919061297a565b60405180910390f35b34801561039d57600080fd5b506103b860048036038101906103b39190612a15565b610ffe565b005b3480156103c657600080fd5b506103cf61121b565b6040516103dc919061281e565b60405180910390f35b3480156103f157600080fd5b5061040c60048036038101906104079190612a81565b6112ad565b005b34801561041a57600080fd5b506104236113b8565b005b61043f600480360381019061043a9190612bf6565b611636565b005b34801561044d57600080fd5b5061046860048036038101906104639190612876565b6116a9565b60405161047a96959493929190612c79565b60405180910390f35b34801561048f57600080fd5b5061049861178d565b6040516104a591906128e4565b60405180910390f35b3480156104ba57600080fd5b506104d560048036038101906104d09190612ce1565b6117b3565b005b3480156104e357600080fd5b506104fe60048036038101906104f99190612876565b611dcd565b60405161050b919061281e565b60405180910390f35b34801561052057600080fd5b50610529611e6b565b604051610536919061297a565b60405180910390f35b34801561054b57600080fd5b5061056660048036038101906105619190612d21565b611e71565b604051610573919061276a565b60405180910390f35b34801561058857600080fd5b506105a3600480360381019061059e9190612876565b611f05565b6040516105b596959493929190612c79565b60405180910390f35b60006301ffc9a760e01b827bffffffffffffffffffffffffffffffffffffffffffffffffffffffff1916148061061957506380ac58cd60e01b827bffffffffffffffffffffffffffffffffffffffffffffffffffffffff1916145b806106495750635b5e139f60e01b827bffffffffffffffffffffffffffffffffffffffffffffffffffffffff1916145b9050919050565b60606002805461065f90612d90565b80601f016020809104026020016040519081016040528092919081815260200182805461068b90612d90565b80156106d85780601f106106ad576101008083540402835291602001916106d8565b820191906000526020600020905b8154815290600101906020018083116106bb57829003601f168201915b5050505050905090565b60006106ed82611ff9565b610723576040517fcf4700e400000000000000000000000000000000000000000000000000000000815260040160405180910390fd5b6006600083815260200190815260200160002060000160009054906101000a900473ffffffffffffffffffffffffffffffffffffffff169050919050565b600061076c82610e88565b90508073ffffffffffffffffffffffffffffffffffffffff1661078d612058565b73ffffffffffffffffffffffffffffffffffffffff16146107f0576107b9816107b4612058565b611e71565b6107ef576040517fcfb3b94200000000000000000000000000000000000000000000000000000000815260040160405180910390fd5b5b826006600084815260200190815260200160002060000160006101000a81548173ffffffffffffffffffffffffffffffffffffffff021916908373ffffffffffffffffffffffffffffffffffffffff160217905550818373ffffffffffffffffffffffffffffffffffffffff168273ffffffffffffffffffffffffffffffffffffffff167f8c5be1e5ebec7d5bd14f71427d1e84f3dd0314c0f7b2291e5b200ac8c7c3b92560405160405180910390a4505050565b60006108af612060565b6001546000540303905090565b60006108c782612065565b90508373ffffffffffffffffffffffffffffffffffffffff168173ffffffffffffffffffffffffffffffffffffffff161461092e576040517fa114810000000000000000000000000000000000000000000000000000000000815260040160405180910390fd5b60008061093a84612131565b91509150610950818761094b612058565b612158565b61099c5761096586610960612058565b611e71565b61099b576040517f59c896be00000000000000000000000000000000000000000000000000000000815260040160405180910390fd5b5b600073ffffffffffffffffffffffffffffffffffffffff168573ffffffffffffffffffffffffffffffffffffffff1603610a02576040517fea553b3400000000000000000000000000000000000000000000000000000000815260040160405180910390fd5b610a0f868686600161219c565b8015610a1a57600082555b600560008773ffffffffffffffffffffffffffffffffffffffff1673ffffffffffffffffffffffffffffffffffffffff168152602001908152602001600020600081546001900391905081905550600560008673ffffffffffffffffffffffffffffffffffffffff1673ffffffffffffffffffffffffffffffffffffffff1681526020019081526020016000206000815460010191905081905550610ae885610ac48888876121a2565b7c0200000000000000000000000000000000000000000000000000000000176121ca565b600460008681526020019081526020016000208190555060007c0200000000000000000000000000000000000000000000000000000000841603610b6e5760006001850190506000600460008381526020019081526020016000205403610b6c576000548114610b6b578360046000838152602001908152602001600020819055505b5b505b838573ffffffffffffffffffffffffffffffffffffffff168773ffffffffffffffffffffffffffffffffffffffff167fddf252ad1be2c89b69c2b068fc378daa952ba7f163c4a11628f55a4df523b3ef60405160405180910390a4610bd686868660016121f5565b505050505050565b3373ffffffffffffffffffffffffffffffffffffffff16600c600083815260200190815260200160002060010160009054906101000a900473ffffffffffffffffffffffffffffffffffffffff1673ffffffffffffffffffffffffffffffffffffffff1614610c82576040517f08c379a0000000000000000000000000000000000000000000000000000000008152600401610c7990612e0d565b60405180910390fd5b600860003373ffffffffffffffffffffffffffffffffffffffff1673ffffffffffffffffffffffffffffffffffffffff16815260200190815260200160002060009054906101000a900460ff1680610d235750600960003373ffffffffffffffffffffffffffffffffffffffff1673ffffffffffffffffffffffffffffffffffffffff16815260200190815260200160002060009054906101000a900460ff165b610d62576040517f08c379a0000000000000000000000000000000000000000000000000000000008152600401610d5990612e79565b60405180910390fd5b6000600c6000838152602001908152602001600020600001604051602001610d8a9190612f38565b6040516020818303038152906040528051906020012090507f456d7074790000000000000000000000000000000000000000000000000000008114610e04576040517f08c379a0000000000000000000000000000000000000000000000000000000008152600401610dfb90612f9b565b60405180910390fd5b6040518060400160405280600681526020017f686173506f740000000000000000000000000000000000000000000000000000815250600c60008481526020019081526020016000206000019080519060200190610e63929190612586565b505050565b610e8383838360405180602001604052806000815250611636565b505050565b6000610e9382612065565b9050919050565b6000600860008373ffffffffffffffffffffffffffffffffffffffff1673ffffffffffffffffffffffffffffffffffffffff16815260200190815260200160002060009054906101000a900460ff169050919050565b6000600960008373ffffffffffffffffffffffffffffffffffffffff1673ffffffffffffffffffffffffffffffffffffffff16815260200190815260200160002060009054906101000a900460ff169050919050565b60008073ffffffffffffffffffffffffffffffffffffffff168273ffffffffffffffffffffffffffffffffffffffff1603610fad576040517f8f4eb60400000000000000000000000000000000000000000000000000000000815260040160405180910390fd5b67ffffffffffffffff600560008473ffffffffffffffffffffffffffffffffffffffff1673ffffffffffffffffffffffffffffffffffffffff16815260200190815260200160002054169050919050565b600a54821115611043576040517f08c379a000000000000000000000000000000000000000000000000000000000815260040161103a90613007565b60405180910390fd5b600e60009054906101000a900473ffffffffffffffffffffffffffffffffffffffff1673ffffffffffffffffffffffffffffffffffffffff16600c600084815260200190815260200160002060010160009054906101000a900473ffffffffffffffffffffffffffffffffffffffff1673ffffffffffffffffffffffffffffffffffffffff1614611109576040517f08c379a000000000000000000000000000000000000000000000000000000000815260040161110090613099565b60405180910390fd5b600860003373ffffffffffffffffffffffffffffffffffffffff1673ffffffffffffffffffffffffffffffffffffffff16815260200190815260200160002060009054906101000a900460ff16611195576040517f08c379a000000000000000000000000000000000000000000000000000000000815260040161118c90612e79565b60405180910390fd5b80600c600084815260200190815260200160002060010160006101000a81548173ffffffffffffffffffffffffffffffffffffffff021916908373ffffffffffffffffffffffffffffffffffffffff160217905550611217600e60009054906101000a900473ffffffffffffffffffffffffffffffffffffffff168284610e68565b5050565b60606003805461122a90612d90565b80601f016020809104026020016040519081016040528092919081815260200182805461125690612d90565b80156112a35780601f10611278576101008083540402835291602001916112a3565b820191906000526020600020905b81548152906001019060200180831161128657829003601f168201915b5050505050905090565b80600760006112ba612058565b73ffffffffffffffffffffffffffffffffffffffff1673ffffffffffffffffffffffffffffffffffffffff16815260200190815260200160002060008473ffffffffffffffffffffffffffffffffffffffff1673ffffffffffffffffffffffffffffffffffffffff16815260200190815260200160002060006101000a81548160ff0219169083151502179055508173ffffffffffffffffffffffffffffffffffffffff16611367612058565b73ffffffffffffffffffffffffffffffffffffffff167f17307eab39ab6107e8899845ad3d59bd9653f200f220920489ca2b5937696c31836040516113ac919061276a565b60405180910390a35050565b60005b600a548110156115a8576000600c600083815260200190815260200160002090506040518060400160405280600581526020017f456d707479000000000000000000000000000000000000000000000000000000815250816000019080519060200190611429929190612586565b50600e60009054906101000a900473ffffffffffffffffffffffffffffffffffffffff168160010160006101000a81548173ffffffffffffffffffffffffffffffffffffffff021916908373ffffffffffffffffffffffffffffffffffffffff1602179055506000816002018190555060008160030181905550600a8160040181905550600a8160050181905550600b81908060018154018082558091505060019003906000526020600020906006020160009091909190915060008201816000019080546114f790612d90565b61150292919061260c565b506001820160009054906101000a900473ffffffffffffffffffffffffffffffffffffffff168160010160006101000a81548173ffffffffffffffffffffffffffffffffffffffff021916908373ffffffffffffffffffffffffffffffffffffffff1602179055506002820154816002015560038201548160030155600482015481600401556005820154816005015550505080806115a0906130e8565b9150506113bb565b507f63b23b66bc824efed77dc9b92432bb50dd8b566121136efb9085fa77cdb84a21600a54600e60009054906101000a900473ffffffffffffffffffffffffffffffffffffffff166040516115fe929190613130565b60405180910390a1611634600e60009054906101000a900473ffffffffffffffffffffffffffffffffffffffff16600a546121fb565b565b6116418484846108bc565b60008373ffffffffffffffffffffffffffffffffffffffff163b146116a35761166c848484846123b6565b6116a2576040517fd1a57ed600000000000000000000000000000000000000000000000000000000815260040160405180910390fd5b5b50505050565b600c6020528060005260406000206000915090508060000180546116cc90612d90565b80601f01602080910402602001604051908101604052809291908181526020018280546116f890612d90565b80156117455780601f1061171a57610100808354040283529160200191611745565b820191906000526020600020905b81548152906001019060200180831161172857829003601f168201915b5050505050908060010160009054906101000a900473ffffffffffffffffffffffffffffffffffffffff16908060020154908060030154908060040154908060050154905086565b600e60009054906101000a900473ffffffffffffffffffffffffffffffffffffffff1681565b3373ffffffffffffffffffffffffffffffffffffffff16600c600084815260200190815260200160002060010160009054906101000a900473ffffffffffffffffffffffffffffffffffffffff1673ffffffffffffffffffffffffffffffffffffffff1614611857576040517f08c379a000000000000000000000000000000000000000000000000000000000815260040161184e90612e0d565b60405180910390fd5b600860003373ffffffffffffffffffffffffffffffffffffffff1673ffffffffffffffffffffffffffffffffffffffff16815260200190815260200160002060009054906101000a900460ff16806118f85750600960003373ffffffffffffffffffffffffffffffffffffffff1673ffffffffffffffffffffffffffffffffffffffff16815260200190815260200160002060009054906101000a900460ff165b611937576040517f08c379a000000000000000000000000000000000000000000000000000000000815260040161192e90612e79565b60405180910390fd5b6001600d60009054906101000a900473ffffffffffffffffffffffffffffffffffffffff1673ffffffffffffffffffffffffffffffffffffffff1662fdd58e33846040518363ffffffff1660e01b8152600401611995929190613159565b602060405180830381865afa1580156119b2573d6000803e3d6000fd5b505050506040513d601f19601f820116820180604052508101906119d69190613197565b1015611a17576040517f08c379a0000000000000000000000000000000000000000000000000000000008152600401611a0e90613236565b60405180910390fd5b6000600c6000848152602001908152602001600020600001604051602001611a3f9190612f38565b6040516020818303038152906040528051906020012090507f456d7074790000000000000000000000000000000000000000000000000000008103611ab9576040517f08c379a0000000000000000000000000000000000000000000000000000000008152600401611ab0906132a2565b60405180910390fd5b7f50726f64756374697665000000000000000000000000000000000000000000008103611b1b576040517f08c379a0000000000000000000000000000000000000000000000000000000008152600401611b129061330e565b60405180910390fd5b60028210611b5e576040517f08c379a0000000000000000000000000000000000000000000000000000000008152600401611b559061337a565b60405180910390fd5b60008203611bc9577f68617343617400000000000000000000000000000000000000000000000000008103611bc8576040517f08c379a0000000000000000000000000000000000000000000000000000000008152600401611bbf906133e6565b60405180910390fd5b5b60018203611c34577f686173536f7570000000000000000000000000000000000000000000000000008103611c33576040517f08c379a0000000000000000000000000000000000000000000000000000000008152600401611c2a90613452565b60405180910390fd5b5b7f686173506f74000000000000000000000000000000000000000000000000000081148015611c635750600082145b15611ccd576040518060400160405280600681526020017f6861734361740000000000000000000000000000000000000000000000000000815250600c60008581526020019081526020016000206000019080519060200190611cc7929190612586565b50611dc8565b7f686173506f74000000000000000000000000000000000000000000000000000081148015611cfc5750600182145b15611d66576040518060400160405280600781526020017f686173536f757000000000000000000000000000000000000000000000000000815250600c60008581526020019081526020016000206000019080519060200190611d60929190612586565b50611dc7565b6040518060400160405280600a81526020017f50726f6475637469766500000000000000000000000000000000000000000000815250600c60008581526020019081526020016000206000019080519060200190611dc5929190612586565b505b5b505050565b6060611dd882611ff9565b611e0e576040517fa14c4b5000000000000000000000000000000000000000000000000000000000815260040160405180910390fd5b6000611e18612506565b90506000815103611e385760405180602001604052806000815250611e63565b80611e428461251d565b604051602001611e539291906134a3565b6040516020818303038152906040525b915050919050565b600a5481565b6000600760008473ffffffffffffffffffffffffffffffffffffffff1673ffffffffffffffffffffffffffffffffffffffff16815260200190815260200160002060008373ffffffffffffffffffffffffffffffffffffffff1673ffffffffffffffffffffffffffffffffffffffff16815260200190815260200160002060009054906101000a900460ff16905092915050565b600b8181548110611f1557600080fd5b9060005260206000209060060201600091509050806000018054611f3890612d90565b80601f0160208091040260200160405190810160405280929190818152602001828054611f6490612d90565b8015611fb15780601f10611f8657610100808354040283529160200191611fb1565b820191906000526020600020905b815481529060010190602001808311611f9457829003601f168201915b5050505050908060010160009054906101000a900473ffffffffffffffffffffffffffffffffffffffff16908060020154908060030154908060040154908060050154905086565b600081612004612060565b11158015612013575060005482105b8015612051575060007c0100000000000000000000000000000000000000000000000000000000600460008581526020019081526020016000205416145b9050919050565b600033905090565b600090565b60008082905080612074612060565b116120fa576000548110156120f95760006004600083815260200190815260200160002054905060007c01000000000000000000000000000000000000000000000000000000008216036120f7575b600081036120ed5760046000836001900393508381526020019081526020016000205490506120c3565b809250505061212c565b505b5b6040517fdf2d9b4200000000000000000000000000000000000000000000000000000000815260040160405180910390fd5b919050565b60008060006006600085815260200190815260200160002090508092508254915050915091565b600073ffffffffffffffffffffffffffffffffffffffff8316925073ffffffffffffffffffffffffffffffffffffffff821691508382148383141790509392505050565b50505050565b60008060e883901c905060e86121b986868461256d565b62ffffff16901b9150509392505050565b600073ffffffffffffffffffffffffffffffffffffffff83169250814260a01b178317905092915050565b50505050565b6000805490506000820361223b576040517fb562e8dd00000000000000000000000000000000000000000000000000000000815260040160405180910390fd5b612248600084838561219c565b600160406001901b178202600560008573ffffffffffffffffffffffffffffffffffffffff1673ffffffffffffffffffffffffffffffffffffffff168152602001908152602001600020600082825401925050819055506122bf836122b060008660006121a2565b6122b985612576565b176121ca565b6004600083815260200190815260200160002081905550600080838301905073ffffffffffffffffffffffffffffffffffffffff85169150828260007fddf252ad1be2c89b69c2b068fc378daa952ba7f163c4a11628f55a4df523b3ef600080a4600183015b81811461236057808360007fddf252ad1be2c89b69c2b068fc378daa952ba7f163c4a11628f55a4df523b3ef600080a4600181019050612325565b506000820361239b576040517f2e07630000000000000000000000000000000000000000000000000000000000815260040160405180910390fd5b8060008190555050506123b160008483856121f5565b505050565b60008373ffffffffffffffffffffffffffffffffffffffff1663150b7a026123dc612058565b8786866040518563ffffffff1660e01b81526004016123fe949392919061351c565b6020604051808303816000875af192505050801561243a57506040513d601f19601f82011682018060405250810190612437919061357d565b60015b6124b3573d806000811461246a576040519150601f19603f3d011682016040523d82523d6000602084013e61246f565b606091505b5060008151036124ab576040517fd1a57ed600000000000000000000000000000000000000000000000000000000815260040160405180910390fd5b805181602001fd5b63150b7a0260e01b7bffffffffffffffffffffffffffffffffffffffffffffffffffffffff1916817bffffffffffffffffffffffffffffffffffffffffffffffffffffffff191614915050949350505050565b606060405180602001604052806000815250905090565b606060a060405101806040526020810391506000825281835b60011561255857600184039350600a81066030018453600a8104905080612536575b50828103602084039350808452505050919050565b60009392505050565b60006001821460e11b9050919050565b82805461259290612d90565b90600052602060002090601f0160209004810192826125b457600085556125fb565b82601f106125cd57805160ff19168380011785556125fb565b828001600101855582156125fb579182015b828111156125fa5782518255916020019190600101906125df565b5b5090506126089190612699565b5090565b82805461261890612d90565b90600052602060002090601f01602090048101928261263a5760008555612688565b82601f1061264b5780548555612688565b8280016001018555821561268857600052602060002091601f016020900482015b8281111561268757825482559160010191906001019061266c565b5b5090506126959190612699565b5090565b5b808211156126b257600081600090555060010161269a565b5090565b6000604051905090565b600080fd5b600080fd5b60007fffffffff0000000000000000000000000000000000000000000000000000000082169050919050565b6126ff816126ca565b811461270a57600080fd5b50565b60008135905061271c816126f6565b92915050565b600060208284031215612738576127376126c0565b5b60006127468482850161270d565b91505092915050565b60008115159050919050565b6127648161274f565b82525050565b600060208201905061277f600083018461275b565b92915050565b600081519050919050565b600082825260208201905092915050565b60005b838110156127bf5780820151818401526020810190506127a4565b838111156127ce576000848401525b50505050565b6000601f19601f8301169050919050565b60006127f082612785565b6127fa8185612790565b935061280a8185602086016127a1565b612813816127d4565b840191505092915050565b6000602082019050818103600083015261283881846127e5565b905092915050565b6000819050919050565b61285381612840565b811461285e57600080fd5b50565b6000813590506128708161284a565b92915050565b60006020828403121561288c5761288b6126c0565b5b600061289a84828501612861565b91505092915050565b600073ffffffffffffffffffffffffffffffffffffffff82169050919050565b60006128ce826128a3565b9050919050565b6128de816128c3565b82525050565b60006020820190506128f960008301846128d5565b92915050565b612908816128c3565b811461291357600080fd5b50565b600081359050612925816128ff565b92915050565b60008060408385031215612942576129416126c0565b5b600061295085828601612916565b925050602061296185828601612861565b9150509250929050565b61297481612840565b82525050565b600060208201905061298f600083018461296b565b92915050565b6000806000606084860312156129ae576129ad6126c0565b5b60006129bc86828701612916565b93505060206129cd86828701612916565b92505060406129de86828701612861565b9150509250925092565b6000602082840312156129fe576129fd6126c0565b5b6000612a0c84828501612916565b91505092915050565b60008060408385031215612a2c57612a2b6126c0565b5b6000612a3a85828601612861565b9250506020612a4b85828601612916565b9150509250929050565b612a5e8161274f565b8114612a6957600080fd5b50565b600081359050612a7b81612a55565b92915050565b60008060408385031215612a9857612a976126c0565b5b6000612aa685828601612916565b9250506020612ab785828601612a6c565b9150509250929050565b600080fd5b600080fd5b7f4e487b7100000000000000000000000000000000000000000000000000000000600052604160045260246000fd5b612b03826127d4565b810181811067ffffffffffffffff82111715612b2257612b21612acb565b5b80604052505050565b6000612b356126b6565b9050612b418282612afa565b919050565b600067ffffffffffffffff821115612b6157612b60612acb565b5b612b6a826127d4565b9050602081019050919050565b82818337600083830152505050565b6000612b99612b9484612b46565b612b2b565b905082815260208101848484011115612bb557612bb4612ac6565b5b612bc0848285612b77565b509392505050565b600082601f830112612bdd57612bdc612ac1565b5b8135612bed848260208601612b86565b91505092915050565b60008060008060808587031215612c1057612c0f6126c0565b5b6000612c1e87828801612916565b9450506020612c2f87828801612916565b9350506040612c4087828801612861565b925050606085013567ffffffffffffffff811115612c6157612c606126c5565b5b612c6d87828801612bc8565b91505092959194509250565b600060c0820190508181036000830152612c9381896127e5565b9050612ca260208301886128d5565b612caf604083018761296b565b612cbc606083018661296b565b612cc9608083018561296b565b612cd660a083018461296b565b979650505050505050565b60008060408385031215612cf857612cf76126c0565b5b6000612d0685828601612861565b9250506020612d1785828601612861565b9150509250929050565b60008060408385031215612d3857612d376126c0565b5b6000612d4685828601612916565b9250506020612d5785828601612916565b9150509250929050565b7f4e487b7100000000000000000000000000000000000000000000000000000000600052602260045260246000fd5b60006002820490506001821680612da857607f821691505b602082108103612dbb57612dba612d61565b5b50919050565b7f596f7520646f206e6f74206f776e2074686973206c616e640000000000000000600082015250565b6000612df7601883612790565b9150612e0282612dc1565b602082019050919050565b60006020820190508181036000830152612e2681612dea565b9050919050565b7f556e617574686f72697a65640000000000000000000000000000000000000000600082015250565b6000612e63600c83612790565b9150612e6e82612e2d565b602082019050919050565b60006020820190508181036000830152612e9281612e56565b9050919050565b600081905092915050565b60008190508160005260206000209050919050565b60008154612ec681612d90565b612ed08186612e99565b94506001821660008114612eeb5760018114612efc57612f2f565b60ff19831686528186019350612f2f565b612f0585612ea4565b60005b83811015612f2757815481890152600182019150602081019050612f08565b838801955050505b50505092915050565b6000612f448284612eb9565b915081905092915050565b7f54686973206c616e6420616c726561647920686173206120706f740000000000600082015250565b6000612f85601b83612790565b9150612f9082612f4f565b602082019050919050565b60006020820190508181036000830152612fb481612f78565b9050919050565b7f54686973206c616e6420646f6573206e6f742065786973740000000000000000600082015250565b6000612ff1601883612790565b9150612ffc82612fbb565b602082019050919050565b6000602082019050818103600083015261302081612fe4565b9050919050565b7f54686973206c616e642068617320616c7265616479206265656e20626f75676860008201527f7400000000000000000000000000000000000000000000000000000000000000602082015250565b6000613083602183612790565b915061308e82613027565b604082019050919050565b600060208201905081810360008301526130b281613076565b9050919050565b7f4e487b7100000000000000000000000000000000000000000000000000000000600052601160045260246000fd5b60006130f382612840565b91507fffffffffffffffffffffffffffffffffffffffffffffffffffffffffffffffff8203613125576131246130b9565b5b600182019050919050565b6000604082019050613145600083018561296b565b61315260208301846128d5565b9392505050565b600060408201905061316e60008301856128d5565b61317b602083018461296b565b9392505050565b6000815190506131918161284a565b92915050565b6000602082840312156131ad576131ac6126c0565b5b60006131bb84828501613182565b91505092915050565b7f596f7520646f206e6f74206861766520616e79206f662074686973206974656d60008201527f2074797065000000000000000000000000000000000000000000000000000000602082015250565b6000613220602583612790565b915061322b826131c4565b604082019050919050565b6000602082019050818103600083015261324f81613213565b9050919050565b7f506c6561736520706c616365206120706f742066697273740000000000000000600082015250565b600061328c601883612790565b915061329782613256565b602082019050919050565b600060208201905081810360008301526132bb8161327f565b9050919050565b7f54686973206c616e642069732066756c6c000000000000000000000000000000600082015250565b60006132f8601183612790565b9150613303826132c2565b602082019050919050565b60006020820190508181036000830152613327816132eb565b9050919050565b7f54686973206974656d20646f6573206e6f742065786973740000000000000000600082015250565b6000613364601883612790565b915061336f8261332e565b602082019050919050565b6000602082019050818103600083015261339381613357565b9050919050565b7f54686973206c616e6420616c7265616479206861732061206361740000000000600082015250565b60006133d0601b83612790565b91506133db8261339a565b602082019050919050565b600060208201905081810360008301526133ff816133c3565b9050919050565b7f54686973206c616e6420616c72656164792068617320736f7570000000000000600082015250565b600061343c601a83612790565b915061344782613406565b602082019050919050565b6000602082019050818103600083015261346b8161342f565b9050919050565b600061347d82612785565b6134878185612e99565b93506134978185602086016127a1565b80840191505092915050565b60006134af8285613472565b91506134bb8284613472565b91508190509392505050565b600081519050919050565b600082825260208201905092915050565b60006134ee826134c7565b6134f881856134d2565b93506135088185602086016127a1565b613511816127d4565b840191505092915050565b600060808201905061353160008301876128d5565b61353e60208301866128d5565b61354b604083018561296b565b818103606083015261355d81846134e3565b905095945050505050565b600081519050613577816126f6565b92915050565b600060208284031215613593576135926126c0565b5b60006135a184828501613568565b9150509291505056fea26469706673582212208854435b7d342aebd8f245dbc413a022135af4ef7d46208c7cd77937c22f08bb64736f6c634300080d0033",
  "devdoc": {
    "kind": "dev",
    "methods": {
      "approve(address,uint256)": {
        "details": "Gives permission to `to` to transfer `tokenId` token to another account. The approval is cleared when the token is transferred. Only a single account can be approved at a time, so approving the zero address clears previous approvals. Requirements: - The caller must own the token or be an approved operator. - `tokenId` must exist. Emits an {Approval} event."
      },
      "balanceOf(address)": {
        "details": "Returns the number of tokens in `owner`'s account."
      },
      "getApproved(uint256)": {
        "details": "Returns the account approved for `tokenId` token. Requirements: - `tokenId` must exist."
      },
      "isApprovedForAll(address,address)": {
        "details": "Returns if the `operator` is allowed to manage all of the assets of `owner`. See {setApprovalForAll}."
      },
      "name()": {
        "details": "Returns the token collection name."
      },
      "ownerOf(uint256)": {
        "details": "Returns the owner of the `tokenId` token. Requirements: - `tokenId` must exist."
      },
      "safeTransferFrom(address,address,uint256)": {
        "details": "Equivalent to `safeTransferFrom(from, to, tokenId, '')`."
      },
      "safeTransferFrom(address,address,uint256,bytes)": {
        "details": "Safely transfers `tokenId` token from `from` to `to`. Requirements: - `from` cannot be the zero address. - `to` cannot be the zero address. - `tokenId` token must exist and be owned by `from`. - If the caller is not `from`, it must be approved to move this token by either {approve} or {setApprovalForAll}. - If `to` refers to a smart contract, it must implement {IERC721Receiver-onERC721Received}, which is called upon a safe transfer. Emits a {Transfer} event."
      },
      "setApprovalForAll(address,bool)": {
        "details": "Approve or remove `operator` as an operator for the caller. Operators can call {transferFrom} or {safeTransferFrom} for any token owned by the caller. Requirements: - The `operator` cannot be the caller. Emits an {ApprovalForAll} event."
      },
      "supportsInterface(bytes4)": {
        "details": "Returns true if this contract implements the interface defined by `interfaceId`. See the corresponding [EIP section](https://eips.ethereum.org/EIPS/eip-165#how-interfaces-are-identified) to learn more about how these ids are created. This function call must use less than 30000 gas."
      },
      "symbol()": {
        "details": "Returns the token collection symbol."
      },
      "tokenURI(uint256)": {
        "details": "Returns the Uniform Resource Identifier (URI) for `tokenId` token."
      },
      "totalSupply()": {
        "details": "Returns the total number of tokens in existence. Burned tokens will reduce the count. To get the total number of tokens minted, please see {_totalMinted}."
      },
      "transferFrom(address,address,uint256)": {
        "details": "Transfers `tokenId` from `from` to `to`. Requirements: - `from` cannot be the zero address. - `to` cannot be the zero address. - `tokenId` token must be owned by `from`. - If the caller is not `from`, it must be approved to move this token by either {approve} or {setApprovalForAll}. Emits a {Transfer} event."
      }
    },
    "version": 1
  },
  "userdoc": {
    "errors": {
      "ApprovalCallerNotOwnerNorApproved()": [
        {
          "notice": "The caller must own the token or be an approved operator."
        }
      ],
      "ApprovalQueryForNonexistentToken()": [
        {
          "notice": "The token does not exist."
        }
      ],
      "BalanceQueryForZeroAddress()": [
        {
          "notice": "Cannot query the balance for the zero address."
        }
      ],
      "MintERC2309QuantityExceedsLimit()": [
        {
          "notice": "The `quantity` minted with ERC2309 exceeds the safety limit."
        }
      ],
      "MintToZeroAddress()": [
        {
          "notice": "Cannot mint to the zero address."
        }
      ],
      "MintZeroQuantity()": [
        {
          "notice": "The quantity of tokens minted must be more than zero."
        }
      ],
      "OwnerQueryForNonexistentToken()": [
        {
          "notice": "The token does not exist."
        }
      ],
      "OwnershipNotInitializedForExtraData()": [
        {
          "notice": "The `extraData` cannot be set on an unintialized ownership slot."
        }
      ],
      "TransferCallerNotOwnerNorApproved()": [
        {
          "notice": "The caller must own the token or be an approved operator."
        }
      ],
      "TransferFromIncorrectOwner()": [
        {
          "notice": "The token must be owned by `from`."
        }
      ],
      "TransferToNonERC721ReceiverImplementer()": [
        {
          "notice": "Cannot safely transfer to a contract that does not implement the ERC721Receiver interface."
        }
      ],
      "TransferToZeroAddress()": [
        {
          "notice": "Cannot transfer to the zero address."
        }
      ],
      "URIQueryForNonexistentToken()": [
        {
          "notice": "The token does not exist."
        }
      ]
    },
    "kind": "user",
    "methods": {},
    "version": 1
  },
  "storageLayout": {
    "storage": [
      {
        "astId": 5296,
        "contract": "contracts/Land.sol:Land",
        "label": "_currentIndex",
        "offset": 0,
        "slot": "0",
        "type": "t_uint256"
      },
      {
        "astId": 5298,
        "contract": "contracts/Land.sol:Land",
        "label": "_burnCounter",
        "offset": 0,
        "slot": "1",
        "type": "t_uint256"
      },
      {
        "astId": 5300,
        "contract": "contracts/Land.sol:Land",
        "label": "_name",
        "offset": 0,
        "slot": "2",
        "type": "t_string_storage"
      },
      {
        "astId": 5302,
        "contract": "contracts/Land.sol:Land",
        "label": "_symbol",
        "offset": 0,
        "slot": "3",
        "type": "t_string_storage"
      },
      {
        "astId": 5306,
        "contract": "contracts/Land.sol:Land",
        "label": "_packedOwnerships",
        "offset": 0,
        "slot": "4",
        "type": "t_mapping(t_uint256,t_uint256)"
      },
      {
        "astId": 5310,
        "contract": "contracts/Land.sol:Land",
        "label": "_packedAddressData",
        "offset": 0,
        "slot": "5",
        "type": "t_mapping(t_address,t_uint256)"
      },
      {
        "astId": 5315,
        "contract": "contracts/Land.sol:Land",
        "label": "_tokenApprovals",
        "offset": 0,
        "slot": "6",
        "type": "t_mapping(t_uint256,t_struct(TokenApprovalRef)5228_storage)"
      },
      {
        "astId": 5321,
        "contract": "contracts/Land.sol:Land",
        "label": "_operatorApprovals",
        "offset": 0,
        "slot": "7",
        "type": "t_mapping(t_address,t_mapping(t_address,t_bool))"
      },
      {
        "astId": 4169,
        "contract": "contracts/Land.sol:Land",
        "label": "isAuthorized",
        "offset": 0,
        "slot": "8",
        "type": "t_mapping(t_address,t_bool)"
      },
      {
        "astId": 4173,
        "contract": "contracts/Land.sol:Land",
        "label": "isUser",
        "offset": 0,
        "slot": "9",
        "type": "t_mapping(t_address,t_bool)"
      },
      {
        "astId": 4402,
        "contract": "contracts/Land.sol:Land",
        "label": "maxSupply",
        "offset": 0,
        "slot": "10",
        "type": "t_uint256"
      },
      {
        "astId": 4419,
        "contract": "contracts/Land.sol:Land",
        "label": "landsArray",
        "offset": 0,
        "slot": "11",
        "type": "t_array(t_struct(LandStruct)4415_storage)dyn_storage"
      },
      {
        "astId": 4424,
        "contract": "contracts/Land.sol:Land",
        "label": "landData",
        "offset": 0,
        "slot": "12",
        "type": "t_mapping(t_uint256,t_struct(LandStruct)4415_storage)"
      },
      {
        "astId": 4427,
        "contract": "contracts/Land.sol:Land",
        "label": "catsAndSoup",
        "offset": 0,
        "slot": "13",
        "type": "t_contract(CatsAndSoup)4309"
      },
      {
        "astId": 4429,
        "contract": "contracts/Land.sol:Land",
        "label": "_marketplace",
        "offset": 0,
        "slot": "14",
        "type": "t_address"
      }
    ],
    "types": {
      "t_address": {
        "encoding": "inplace",
        "label": "address",
        "numberOfBytes": "20"
      },
      "t_array(t_struct(LandStruct)4415_storage)dyn_storage": {
        "base": "t_struct(LandStruct)4415_storage",
        "encoding": "dynamic_array",
        "label": "struct Land.LandStruct[]",
        "numberOfBytes": "32"
      },
      "t_bool": {
        "encoding": "inplace",
        "label": "bool",
        "numberOfBytes": "1"
      },
      "t_contract(CatsAndSoup)4309": {
        "encoding": "inplace",
        "label": "contract CatsAndSoup",
        "numberOfBytes": "20"
      },
      "t_mapping(t_address,t_bool)": {
        "encoding": "mapping",
        "key": "t_address",
        "label": "mapping(address => bool)",
        "numberOfBytes": "32",
        "value": "t_bool"
      },
      "t_mapping(t_address,t_mapping(t_address,t_bool))": {
        "encoding": "mapping",
        "key": "t_address",
        "label": "mapping(address => mapping(address => bool))",
        "numberOfBytes": "32",
        "value": "t_mapping(t_address,t_bool)"
      },
      "t_mapping(t_address,t_uint256)": {
        "encoding": "mapping",
        "key": "t_address",
        "label": "mapping(address => uint256)",
        "numberOfBytes": "32",
        "value": "t_uint256"
      },
      "t_mapping(t_uint256,t_struct(LandStruct)4415_storage)": {
        "encoding": "mapping",
        "key": "t_uint256",
        "label": "mapping(uint256 => struct Land.LandStruct)",
        "numberOfBytes": "32",
        "value": "t_struct(LandStruct)4415_storage"
      },
      "t_mapping(t_uint256,t_struct(TokenApprovalRef)5228_storage)": {
        "encoding": "mapping",
        "key": "t_uint256",
        "label": "mapping(uint256 => struct ERC721A.TokenApprovalRef)",
        "numberOfBytes": "32",
        "value": "t_struct(TokenApprovalRef)5228_storage"
      },
      "t_mapping(t_uint256,t_uint256)": {
        "encoding": "mapping",
        "key": "t_uint256",
        "label": "mapping(uint256 => uint256)",
        "numberOfBytes": "32",
        "value": "t_uint256"
      },
      "t_string_storage": {
        "encoding": "bytes",
        "label": "string",
        "numberOfBytes": "32"
      },
      "t_struct(LandStruct)4415_storage": {
        "encoding": "inplace",
        "label": "struct Land.LandStruct",
        "members": [
          {
            "astId": 4404,
            "contract": "contracts/Land.sol:Land",
            "label": "landType",
            "offset": 0,
            "slot": "0",
            "type": "t_string_storage"
          },
          {
            "astId": 4406,
            "contract": "contracts/Land.sol:Land",
            "label": "owner",
            "offset": 0,
            "slot": "1",
            "type": "t_address"
          },
          {
            "astId": 4408,
            "contract": "contracts/Land.sol:Land",
            "label": "positionX",
            "offset": 0,
            "slot": "2",
            "type": "t_uint256"
          },
          {
            "astId": 4410,
            "contract": "contracts/Land.sol:Land",
            "label": "positionY",
            "offset": 0,
            "slot": "3",
            "type": "t_uint256"
          },
          {
            "astId": 4412,
            "contract": "contracts/Land.sol:Land",
            "label": "sizeX",
            "offset": 0,
            "slot": "4",
            "type": "t_uint256"
          },
          {
            "astId": 4414,
            "contract": "contracts/Land.sol:Land",
            "label": "sizeY",
            "offset": 0,
            "slot": "5",
            "type": "t_uint256"
          }
        ],
        "numberOfBytes": "192"
      },
      "t_struct(TokenApprovalRef)5228_storage": {
        "encoding": "inplace",
        "label": "struct ERC721A.TokenApprovalRef",
        "members": [
          {
            "astId": 5227,
            "contract": "contracts/Land.sol:Land",
            "label": "value",
            "offset": 0,
            "slot": "0",
            "type": "t_address"
          }
        ],
        "numberOfBytes": "32"
      },
      "t_uint256": {
        "encoding": "inplace",
        "label": "uint256",
        "numberOfBytes": "32"
      }
    }
  }
}