{
  "address": "0xe7f1725E7734CE288F8367e1Bb143E90bb3F0512",
  "abi": [
    {
      "inputs": [
        {
          "internalType": "string",
          "name": "name",
          "type": "string"
        },
        {
          "internalType": "string",
          "name": "symbol",
          "type": "string"
        },
        {
          "internalType": "uint256",
          "name": "_maxSupply",
          "type": "uint256"
        }
      ],
      "stateMutability": "nonpayable",
      "type": "constructor"
    },
    {
      "inputs": [],
      "name": "ApprovalCallerNotOwnerNorApproved",
      "type": "error"
    },
    {
      "inputs": [],
      "name": "ApprovalQueryForNonexistentToken",
      "type": "error"
    },
    {
      "inputs": [],
      "name": "BalanceQueryForZeroAddress",
      "type": "error"
    },
    {
      "inputs": [],
      "name": "MintERC2309QuantityExceedsLimit",
      "type": "error"
    },
    {
      "inputs": [],
      "name": "MintToZeroAddress",
      "type": "error"
    },
    {
      "inputs": [],
      "name": "MintZeroQuantity",
      "type": "error"
    },
    {
      "inputs": [],
      "name": "OwnerQueryForNonexistentToken",
      "type": "error"
    },
    {
      "inputs": [],
      "name": "OwnershipNotInitializedForExtraData",
      "type": "error"
    },
    {
      "inputs": [],
      "name": "TransferCallerNotOwnerNorApproved",
      "type": "error"
    },
    {
      "inputs": [],
      "name": "TransferFromIncorrectOwner",
      "type": "error"
    },
    {
      "inputs": [],
      "name": "TransferToNonERC721ReceiverImplementer",
      "type": "error"
    },
    {
      "inputs": [],
      "name": "TransferToZeroAddress",
      "type": "error"
    },
    {
      "inputs": [],
      "name": "URIQueryForNonexistentToken",
      "type": "error"
    },
    {
      "anonymous": false,
      "inputs": [
        {
          "indexed": true,
          "internalType": "address",
          "name": "owner",
          "type": "address"
        },
        {
          "indexed": true,
          "internalType": "address",
          "name": "approved",
          "type": "address"
        },
        {
          "indexed": true,
          "internalType": "uint256",
          "name": "tokenId",
          "type": "uint256"
        }
      ],
      "name": "Approval",
      "type": "event"
    },
    {
      "anonymous": false,
      "inputs": [
        {
          "indexed": true,
          "internalType": "address",
          "name": "owner",
          "type": "address"
        },
        {
          "indexed": true,
          "internalType": "address",
          "name": "operator",
          "type": "address"
        },
        {
          "indexed": false,
          "internalType": "bool",
          "name": "approved",
          "type": "bool"
        }
      ],
      "name": "ApprovalForAll",
      "type": "event"
    },
    {
      "anonymous": false,
      "inputs": [
        {
          "indexed": true,
          "internalType": "uint256",
          "name": "fromTokenId",
          "type": "uint256"
        },
        {
          "indexed": false,
          "internalType": "uint256",
          "name": "toTokenId",
          "type": "uint256"
        },
        {
          "indexed": true,
          "internalType": "address",
          "name": "from",
          "type": "address"
        },
        {
          "indexed": true,
          "internalType": "address",
          "name": "to",
          "type": "address"
        }
      ],
      "name": "ConsecutiveTransfer",
      "type": "event"
    },
    {
      "anonymous": false,
      "inputs": [
        {
          "indexed": false,
          "internalType": "uint256",
          "name": "quantity",
          "type": "uint256"
        },
        {
          "indexed": false,
          "internalType": "address",
          "name": "initialOwner",
          "type": "address"
        }
      ],
      "name": "InitialMint",
      "type": "event"
    },
    {
      "anonymous": false,
      "inputs": [
        {
          "indexed": false,
          "internalType": "address",
          "name": "marketplace",
          "type": "address"
        }
      ],
      "name": "MarketplaceSet",
      "type": "event"
    },
    {
      "anonymous": false,
      "inputs": [
        {
          "indexed": true,
          "internalType": "address",
          "name": "previousOwner",
          "type": "address"
        },
        {
          "indexed": true,
          "internalType": "address",
          "name": "newOwner",
          "type": "address"
        }
      ],
      "name": "OwnershipTransferred",
      "type": "event"
    },
    {
      "anonymous": false,
      "inputs": [
        {
          "indexed": true,
          "internalType": "address",
          "name": "from",
          "type": "address"
        },
        {
          "indexed": true,
          "internalType": "address",
          "name": "to",
          "type": "address"
        },
        {
          "indexed": true,
          "internalType": "uint256",
          "name": "tokenId",
          "type": "uint256"
        }
      ],
      "name": "Transfer",
      "type": "event"
    },
    {
      "inputs": [],
      "name": "_marketplace",
      "outputs": [
        {
          "internalType": "address",
          "name": "",
          "type": "address"
        }
      ],
      "stateMutability": "view",
      "type": "function"
    },
    {
      "inputs": [
        {
          "internalType": "address",
          "name": "to",
          "type": "address"
        },
        {
          "internalType": "uint256",
          "name": "tokenId",
          "type": "uint256"
        }
      ],
      "name": "approve",
      "outputs": [],
      "stateMutability": "payable",
      "type": "function"
    },
    {
      "inputs": [
        {
          "internalType": "uint256",
          "name": "_landId",
          "type": "uint256"
        },
        {
          "internalType": "uint256",
          "name": "_itemId",
          "type": "uint256"
        }
      ],
      "name": "assignItem",
      "outputs": [],
      "stateMutability": "nonpayable",
      "type": "function"
    },
    {
      "inputs": [
        {
          "internalType": "uint256",
          "name": "_landId",
          "type": "uint256"
        }
      ],
      "name": "assignPot",
      "outputs": [],
      "stateMutability": "nonpayable",
      "type": "function"
    },
    {
      "inputs": [
        {
          "internalType": "address",
          "name": "owner",
          "type": "address"
        }
      ],
      "name": "balanceOf",
      "outputs": [
        {
          "internalType": "uint256",
          "name": "",
          "type": "uint256"
        }
      ],
      "stateMutability": "view",
      "type": "function"
    },
    {
      "inputs": [
        {
          "internalType": "uint256",
          "name": "_landId",
          "type": "uint256"
        },
        {
          "internalType": "address",
          "name": "_userAddress",
          "type": "address"
        }
      ],
      "name": "buyLand",
      "outputs": [],
      "stateMutability": "nonpayable",
      "type": "function"
    },
    {
      "inputs": [
        {
          "internalType": "uint256",
          "name": "tokenId",
          "type": "uint256"
        }
      ],
      "name": "getApproved",
      "outputs": [
        {
          "internalType": "address",
          "name": "",
          "type": "address"
        }
      ],
      "stateMutability": "view",
      "type": "function"
    },
    {
      "inputs": [],
      "name": "initialBatchMint",
      "outputs": [],
      "stateMutability": "nonpayable",
      "type": "function"
    },
    {
      "inputs": [
        {
          "internalType": "address",
          "name": "owner",
          "type": "address"
        },
        {
          "internalType": "address",
          "name": "operator",
          "type": "address"
        }
      ],
      "name": "isApprovedForAll",
      "outputs": [
        {
          "internalType": "bool",
          "name": "",
          "type": "bool"
        }
      ],
      "stateMutability": "view",
      "type": "function"
    },
    {
      "inputs": [
        {
          "internalType": "uint256",
          "name": "",
          "type": "uint256"
        }
      ],
      "name": "landData",
      "outputs": [
        {
          "internalType": "string",
          "name": "landType",
          "type": "string"
        },
        {
          "internalType": "address",
          "name": "owner",
          "type": "address"
        },
        {
          "internalType": "uint256",
          "name": "positionX",
          "type": "uint256"
        },
        {
          "internalType": "uint256",
          "name": "positionY",
          "type": "uint256"
        },
        {
          "internalType": "uint256",
          "name": "sizeX",
          "type": "uint256"
        },
        {
          "internalType": "uint256",
          "name": "sizeY",
          "type": "uint256"
        }
      ],
      "stateMutability": "view",
      "type": "function"
    },
    {
      "inputs": [
        {
          "internalType": "uint256",
          "name": "",
          "type": "uint256"
        }
      ],
      "name": "landsArray",
      "outputs": [
        {
          "internalType": "string",
          "name": "landType",
          "type": "string"
        },
        {
          "internalType": "address",
          "name": "owner",
          "type": "address"
        },
        {
          "internalType": "uint256",
          "name": "positionX",
          "type": "uint256"
        },
        {
          "internalType": "uint256",
          "name": "positionY",
          "type": "uint256"
        },
        {
          "internalType": "uint256",
          "name": "sizeX",
          "type": "uint256"
        },
        {
          "internalType": "uint256",
          "name": "sizeY",
          "type": "uint256"
        }
      ],
      "stateMutability": "view",
      "type": "function"
    },
    {
      "inputs": [],
      "name": "maxSupply",
      "outputs": [
        {
          "internalType": "uint256",
          "name": "",
          "type": "uint256"
        }
      ],
      "stateMutability": "view",
      "type": "function"
    },
    {
      "inputs": [],
      "name": "name",
      "outputs": [
        {
          "internalType": "string",
          "name": "",
          "type": "string"
        }
      ],
      "stateMutability": "view",
      "type": "function"
    },
    {
      "inputs": [],
      "name": "owner",
      "outputs": [
        {
          "internalType": "address",
          "name": "",
          "type": "address"
        }
      ],
      "stateMutability": "view",
      "type": "function"
    },
    {
      "inputs": [
        {
          "internalType": "uint256",
          "name": "tokenId",
          "type": "uint256"
        }
      ],
      "name": "ownerOf",
      "outputs": [
        {
          "internalType": "address",
          "name": "",
          "type": "address"
        }
      ],
      "stateMutability": "view",
      "type": "function"
    },
    {
      "inputs": [],
      "name": "renounceOwnership",
      "outputs": [],
      "stateMutability": "nonpayable",
      "type": "function"
    },
    {
      "inputs": [
        {
          "internalType": "address",
          "name": "from",
          "type": "address"
        },
        {
          "internalType": "address",
          "name": "to",
          "type": "address"
        },
        {
          "internalType": "uint256",
          "name": "tokenId",
          "type": "uint256"
        }
      ],
      "name": "safeTransferFrom",
      "outputs": [],
      "stateMutability": "payable",
      "type": "function"
    },
    {
      "inputs": [
        {
          "internalType": "address",
          "name": "from",
          "type": "address"
        },
        {
          "internalType": "address",
          "name": "to",
          "type": "address"
        },
        {
          "internalType": "uint256",
          "name": "tokenId",
          "type": "uint256"
        },
        {
          "internalType": "bytes",
          "name": "_data",
          "type": "bytes"
        }
      ],
      "name": "safeTransferFrom",
      "outputs": [],
      "stateMutability": "payable",
      "type": "function"
    },
    {
      "inputs": [
        {
          "internalType": "address",
          "name": "operator",
          "type": "address"
        },
        {
          "internalType": "bool",
          "name": "approved",
          "type": "bool"
        }
      ],
      "name": "setApprovalForAll",
      "outputs": [],
      "stateMutability": "nonpayable",
      "type": "function"
    },
    {
      "inputs": [
        {
          "internalType": "address",
          "name": "marketplace",
          "type": "address"
        }
      ],
      "name": "setMarketplace",
      "outputs": [],
      "stateMutability": "nonpayable",
      "type": "function"
    },
    {
      "inputs": [
        {
          "internalType": "bytes4",
          "name": "interfaceId",
          "type": "bytes4"
        }
      ],
      "name": "supportsInterface",
      "outputs": [
        {
          "internalType": "bool",
          "name": "",
          "type": "bool"
        }
      ],
      "stateMutability": "view",
      "type": "function"
    },
    {
      "inputs": [],
      "name": "symbol",
      "outputs": [
        {
          "internalType": "string",
          "name": "",
          "type": "string"
        }
      ],
      "stateMutability": "view",
      "type": "function"
    },
    {
      "inputs": [
        {
          "internalType": "uint256",
          "name": "tokenId",
          "type": "uint256"
        }
      ],
      "name": "tokenURI",
      "outputs": [
        {
          "internalType": "string",
          "name": "",
          "type": "string"
        }
      ],
      "stateMutability": "view",
      "type": "function"
    },
    {
      "inputs": [],
      "name": "totalSupply",
      "outputs": [
        {
          "internalType": "uint256",
          "name": "",
          "type": "uint256"
        }
      ],
      "stateMutability": "view",
      "type": "function"
    },
    {
      "inputs": [
        {
          "internalType": "address",
          "name": "from",
          "type": "address"
        },
        {
          "internalType": "address",
          "name": "to",
          "type": "address"
        },
        {
          "internalType": "uint256",
          "name": "tokenId",
          "type": "uint256"
        }
      ],
      "name": "transferFrom",
      "outputs": [],
      "stateMutability": "payable",
      "type": "function"
    },
    {
      "inputs": [
        {
          "internalType": "address",
          "name": "newOwner",
          "type": "address"
        }
      ],
      "name": "transferOwnership",
      "outputs": [],
      "stateMutability": "nonpayable",
      "type": "function"
    }
  ],
  "transactionHash": "0x3a5556cac9e8fcd27471c5a7b7eaf7b0136d10e61b1c4a1ecbc204e0c5c4a18a",
  "args": [
    "Land",
    "LND",
    10
  ],
  "numDeployments": 1,
  "solcInputHash": "7313c90bf0cbf57e15d5490162dc4411",
  "bytecode": "0x60806040523480156200001157600080fd5b5060405162003ebf38038062003ebf83398181016040528101906200003791906200040e565b828281600290805190602001906200005192919062000186565b5080600390805190602001906200006a92919062000186565b506200007b620000b360201b60201c565b6000819055505050620000a362000097620000b860201b60201c565b620000c060201b60201c565b806009819055505050506200050c565b600090565b600033905090565b6000600860009054906101000a900473ffffffffffffffffffffffffffffffffffffffff16905081600860006101000a81548173ffffffffffffffffffffffffffffffffffffffff021916908373ffffffffffffffffffffffffffffffffffffffff1602179055508173ffffffffffffffffffffffffffffffffffffffff168173ffffffffffffffffffffffffffffffffffffffff167f8be0079c531659141344cd1fd0a4f28419497f9722a3daafe3b4186f6b6457e060405160405180910390a35050565b8280546200019490620004d7565b90600052602060002090601f016020900481019282620001b8576000855562000204565b82601f10620001d357805160ff191683800117855562000204565b8280016001018555821562000204579182015b8281111562000203578251825591602001919060010190620001e6565b5b50905062000213919062000217565b5090565b5b808211156200023257600081600090555060010162000218565b5090565b6000604051905090565b600080fd5b600080fd5b600080fd5b600080fd5b6000601f19601f8301169050919050565b7f4e487b7100000000000000000000000000000000000000000000000000000000600052604160045260246000fd5b6200029f8262000254565b810181811067ffffffffffffffff82111715620002c157620002c062000265565b5b80604052505050565b6000620002d662000236565b9050620002e4828262000294565b919050565b600067ffffffffffffffff82111562000307576200030662000265565b5b620003128262000254565b9050602081019050919050565b60005b838110156200033f57808201518184015260208101905062000322565b838111156200034f576000848401525b50505050565b60006200036c6200036684620002e9565b620002ca565b9050828152602081018484840111156200038b576200038a6200024f565b5b620003988482856200031f565b509392505050565b600082601f830112620003b857620003b76200024a565b5b8151620003ca84826020860162000355565b91505092915050565b6000819050919050565b620003e881620003d3565b8114620003f457600080fd5b50565b6000815190506200040881620003dd565b92915050565b6000806000606084860312156200042a576200042962000240565b5b600084015167ffffffffffffffff8111156200044b576200044a62000245565b5b6200045986828701620003a0565b935050602084015167ffffffffffffffff8111156200047d576200047c62000245565b5b6200048b86828701620003a0565b92505060406200049e86828701620003f7565b9150509250925092565b7f4e487b7100000000000000000000000000000000000000000000000000000000600052602260045260246000fd5b60006002820490506001821680620004f057607f821691505b602082108103620005065762000505620004a8565b5b50919050565b6139a3806200051c6000396000f3fe6080604052600436106101815760003560e01c80638da5cb5b116100d1578063be5462211161008a578063d5abeb0111610064578063d5abeb011461053b578063e985e9c514610566578063ef658364146105a3578063f2fde38b146105e557610181565b8063be546221146104aa578063c1ab822e146104d5578063c87b56dd146104fe57610181565b80638da5cb5b146103b657806395d89b41146103e1578063a22cb4651461040c578063b16f100114610435578063b88d4fde1461044c578063b95aa42f1461046857610181565b8063395c455b1161013e57806370a082311161011857806370a0823114610310578063715018a61461034d57806373ad6c2d146103645780637ed11e621461038d57610181565b8063395c455b1461028e57806342842e0e146102b75780636352211e146102d357610181565b806301ffc9a71461018657806306fdde03146101c3578063081812fc146101ee578063095ea7b31461022b57806318160ddd1461024757806323b872dd14610272575b600080fd5b34801561019257600080fd5b506101ad60048036038101906101a891906128c3565b61060e565b6040516101ba919061290b565b60405180910390f35b3480156101cf57600080fd5b506101d86106a0565b6040516101e591906129bf565b60405180910390f35b3480156101fa57600080fd5b5061021560048036038101906102109190612a17565b610732565b6040516102229190612a85565b60405180910390f35b61024560048036038101906102409190612acc565b6107b1565b005b34801561025357600080fd5b5061025c6108f5565b6040516102699190612b1b565b60405180910390f35b61028c60048036038101906102879190612b36565b61090c565b005b34801561029a57600080fd5b506102b560048036038101906102b09190612a17565b610c2e565b005b6102d160048036038101906102cc9190612b36565b610dd8565b005b3480156102df57600080fd5b506102fa60048036038101906102f59190612a17565b610df8565b6040516103079190612a85565b60405180910390f35b34801561031c57600080fd5b5061033760048036038101906103329190612b89565b610e0a565b6040516103449190612b1b565b60405180910390f35b34801561035957600080fd5b50610362610ec2565b005b34801561037057600080fd5b5061038b60048036038101906103869190612b89565b610ed6565b005b34801561039957600080fd5b506103b460048036038101906103af9190612bb6565b610fea565b005b3480156103c257600080fd5b506103cb61120b565b6040516103d89190612a85565b60405180910390f35b3480156103ed57600080fd5b506103f6611235565b60405161040391906129bf565b60405180910390f35b34801561041857600080fd5b50610433600480360381019061042e9190612c22565b6112c7565b005b34801561044157600080fd5b5061044a6113d2565b005b61046660048036038101906104619190612d97565b6116e8565b005b34801561047457600080fd5b5061048f600480360381019061048a9190612a17565b61175b565b6040516104a196959493929190612e1a565b60405180910390f35b3480156104b657600080fd5b506104bf61183f565b6040516104cc9190612a85565b60405180910390f35b3480156104e157600080fd5b506104fc60048036038101906104f79190612e82565b611865565b005b34801561050a57600080fd5b5061052560048036038101906105209190612a17565b611d9f565b60405161053291906129bf565b60405180910390f35b34801561054757600080fd5b50610550611e3d565b60405161055d9190612b1b565b60405180910390f35b34801561057257600080fd5b5061058d60048036038101906105889190612ec2565b611e43565b60405161059a919061290b565b60405180910390f35b3480156105af57600080fd5b506105ca60048036038101906105c59190612a17565b611ed7565b6040516105dc96959493929190612e1a565b60405180910390f35b3480156105f157600080fd5b5061060c60048036038101906106079190612b89565b611fcb565b005b60006301ffc9a760e01b827bffffffffffffffffffffffffffffffffffffffffffffffffffffffff1916148061066957506380ac58cd60e01b827bffffffffffffffffffffffffffffffffffffffffffffffffffffffff1916145b806106995750635b5e139f60e01b827bffffffffffffffffffffffffffffffffffffffffffffffffffffffff1916145b9050919050565b6060600280546106af90612f31565b80601f01602080910402602001604051908101604052809291908181526020018280546106db90612f31565b80156107285780601f106106fd57610100808354040283529160200191610728565b820191906000526020600020905b81548152906001019060200180831161070b57829003601f168201915b5050505050905090565b600061073d8261204e565b610773576040517fcf4700e400000000000000000000000000000000000000000000000000000000815260040160405180910390fd5b6006600083815260200190815260200160002060000160009054906101000a900473ffffffffffffffffffffffffffffffffffffffff169050919050565b60006107bc82610df8565b90508073ffffffffffffffffffffffffffffffffffffffff166107dd6120ad565b73ffffffffffffffffffffffffffffffffffffffff161461084057610809816108046120ad565b611e43565b61083f576040517fcfb3b94200000000000000000000000000000000000000000000000000000000815260040160405180910390fd5b5b826006600084815260200190815260200160002060000160006101000a81548173ffffffffffffffffffffffffffffffffffffffff021916908373ffffffffffffffffffffffffffffffffffffffff160217905550818373ffffffffffffffffffffffffffffffffffffffff168273ffffffffffffffffffffffffffffffffffffffff167f8c5be1e5ebec7d5bd14f71427d1e84f3dd0314c0f7b2291e5b200ac8c7c3b92560405160405180910390a4505050565b60006108ff6120b5565b6001546000540303905090565b6000610917826120ba565b90508373ffffffffffffffffffffffffffffffffffffffff168173ffffffffffffffffffffffffffffffffffffffff161461097e576040517fa114810000000000000000000000000000000000000000000000000000000000815260040160405180910390fd5b60008061098a84612186565b915091506109a0818761099b6120ad565b6121ad565b6109ec576109b5866109b06120ad565b611e43565b6109eb576040517f59c896be00000000000000000000000000000000000000000000000000000000815260040160405180910390fd5b5b600073ffffffffffffffffffffffffffffffffffffffff168573ffffffffffffffffffffffffffffffffffffffff1603610a52576040517fea553b3400000000000000000000000000000000000000000000000000000000815260040160405180910390fd5b610a5f86868660016121f1565b8015610a6a57600082555b600560008773ffffffffffffffffffffffffffffffffffffffff1673ffffffffffffffffffffffffffffffffffffffff168152602001908152602001600020600081546001900391905081905550600560008673ffffffffffffffffffffffffffffffffffffffff1673ffffffffffffffffffffffffffffffffffffffff1681526020019081526020016000206000815460010191905081905550610b3885610b148888876121f7565b7c02000000000000000000000000000000000000000000000000000000001761221f565b600460008681526020019081526020016000208190555060007c0200000000000000000000000000000000000000000000000000000000841603610bbe5760006001850190506000600460008381526020019081526020016000205403610bbc576000548114610bbb578360046000838152602001908152602001600020819055505b5b505b838573ffffffffffffffffffffffffffffffffffffffff168773ffffffffffffffffffffffffffffffffffffffff167fddf252ad1be2c89b69c2b068fc378daa952ba7f163c4a11628f55a4df523b3ef60405160405180910390a4610c26868686600161224a565b505050505050565b3373ffffffffffffffffffffffffffffffffffffffff16600b600083815260200190815260200160002060010160009054906101000a900473ffffffffffffffffffffffffffffffffffffffff1673ffffffffffffffffffffffffffffffffffffffff1614610cd2576040517f08c379a0000000000000000000000000000000000000000000000000000000008152600401610cc990612fae565b60405180910390fd5b6000600b6000838152602001908152602001600020600001604051602001610cfa919061306d565b6040516020818303038152906040528051906020012090507f456d7074790000000000000000000000000000000000000000000000000000008114610d74576040517f08c379a0000000000000000000000000000000000000000000000000000000008152600401610d6b906130d0565b60405180910390fd5b6040518060400160405280600681526020017f686173506f740000000000000000000000000000000000000000000000000000815250600b60008481526020019081526020016000206000019080519060200190610dd3929190612727565b505050565b610df3838383604051806020016040528060008152506116e8565b505050565b6000610e03826120ba565b9050919050565b60008073ffffffffffffffffffffffffffffffffffffffff168273ffffffffffffffffffffffffffffffffffffffff1603610e71576040517f8f4eb60400000000000000000000000000000000000000000000000000000000815260040160405180910390fd5b67ffffffffffffffff600560008473ffffffffffffffffffffffffffffffffffffffff1673ffffffffffffffffffffffffffffffffffffffff16815260200190815260200160002054169050919050565b610eca612250565b610ed460006122ce565b565b610ede612250565b600073ffffffffffffffffffffffffffffffffffffffff168173ffffffffffffffffffffffffffffffffffffffff1603610f4d576040517f08c379a0000000000000000000000000000000000000000000000000000000008152600401610f4490613162565b60405180910390fd5b80600d60006101000a81548173ffffffffffffffffffffffffffffffffffffffff021916908373ffffffffffffffffffffffffffffffffffffffff1602179055507f78fd71746fd8724dd16b5a93e765a076614159ebdc73d996a6a8884f358898e5600d60009054906101000a900473ffffffffffffffffffffffffffffffffffffffff16604051610fdf9190612a85565b60405180910390a150565b600d60009054906101000a900473ffffffffffffffffffffffffffffffffffffffff1673ffffffffffffffffffffffffffffffffffffffff163373ffffffffffffffffffffffffffffffffffffffff161461107a576040517f08c379a0000000000000000000000000000000000000000000000000000000008152600401611071906131ce565b60405180910390fd5b6009548211156110bf576040517f08c379a00000000000000000000000000000000000000000000000000000000081526004016110b69061323a565b60405180910390fd5b600d60009054906101000a900473ffffffffffffffffffffffffffffffffffffffff1673ffffffffffffffffffffffffffffffffffffffff16600b600084815260200190815260200160002060010160009054906101000a900473ffffffffffffffffffffffffffffffffffffffff1673ffffffffffffffffffffffffffffffffffffffff1614611185576040517f08c379a000000000000000000000000000000000000000000000000000000000815260040161117c906132cc565b60405180910390fd5b80600b600084815260200190815260200160002060010160006101000a81548173ffffffffffffffffffffffffffffffffffffffff021916908373ffffffffffffffffffffffffffffffffffffffff160217905550611207600d60009054906101000a900473ffffffffffffffffffffffffffffffffffffffff168284610dd8565b5050565b6000600860009054906101000a900473ffffffffffffffffffffffffffffffffffffffff16905090565b60606003805461124490612f31565b80601f016020809104026020016040519081016040528092919081815260200182805461127090612f31565b80156112bd5780601f10611292576101008083540402835291602001916112bd565b820191906000526020600020905b8154815290600101906020018083116112a057829003601f168201915b5050505050905090565b80600760006112d46120ad565b73ffffffffffffffffffffffffffffffffffffffff1673ffffffffffffffffffffffffffffffffffffffff16815260200190815260200160002060008473ffffffffffffffffffffffffffffffffffffffff1673ffffffffffffffffffffffffffffffffffffffff16815260200190815260200160002060006101000a81548160ff0219169083151502179055508173ffffffffffffffffffffffffffffffffffffffff166113816120ad565b73ffffffffffffffffffffffffffffffffffffffff167f17307eab39ab6107e8899845ad3d59bd9653f200f220920489ca2b5937696c31836040516113c6919061290b565b60405180910390a35050565b6113da612250565b600073ffffffffffffffffffffffffffffffffffffffff16600d60009054906101000a900473ffffffffffffffffffffffffffffffffffffffff1673ffffffffffffffffffffffffffffffffffffffff160361146b576040517f08c379a00000000000000000000000000000000000000000000000000000000081526004016114629061335e565b60405180910390fd5b60005b600954811161165a576000600b600083815260200190815260200160002090506040518060400160405280600581526020017f456d7074790000000000000000000000000000000000000000000000000000008152508160000190805190602001906114db929190612727565b50600d60009054906101000a900473ffffffffffffffffffffffffffffffffffffffff168160010160006101000a81548173ffffffffffffffffffffffffffffffffffffffff021916908373ffffffffffffffffffffffffffffffffffffffff1602179055506000816002018190555060008160030181905550600a8160040181905550600a8160050181905550600a81908060018154018082558091505060019003906000526020600020906006020160009091909190915060008201816000019080546115a990612f31565b6115b49291906127ad565b506001820160009054906101000a900473ffffffffffffffffffffffffffffffffffffffff168160010160006101000a81548173ffffffffffffffffffffffffffffffffffffffff021916908373ffffffffffffffffffffffffffffffffffffffff160217905550600282015481600201556003820154816003015560048201548160040155600582015481600501555050508080611652906133ad565b91505061146e565b507f63b23b66bc824efed77dc9b92432bb50dd8b566121136efb9085fa77cdb84a21600954600d60009054906101000a900473ffffffffffffffffffffffffffffffffffffffff166040516116b09291906133f5565b60405180910390a16116e6600d60009054906101000a900473ffffffffffffffffffffffffffffffffffffffff16600954612394565b565b6116f384848461090c565b60008373ffffffffffffffffffffffffffffffffffffffff163b146117555761171e8484848461254f565b611754576040517fd1a57ed600000000000000000000000000000000000000000000000000000000815260040160405180910390fd5b5b50505050565b600b60205280600052604060002060009150905080600001805461177e90612f31565b80601f01602080910402602001604051908101604052809291908181526020018280546117aa90612f31565b80156117f75780601f106117cc576101008083540402835291602001916117f7565b820191906000526020600020905b8154815290600101906020018083116117da57829003601f168201915b5050505050908060010160009054906101000a900473ffffffffffffffffffffffffffffffffffffffff16908060020154908060030154908060040154908060050154905086565b600d60009054906101000a900473ffffffffffffffffffffffffffffffffffffffff1681565b3373ffffffffffffffffffffffffffffffffffffffff16600b600084815260200190815260200160002060010160009054906101000a900473ffffffffffffffffffffffffffffffffffffffff1673ffffffffffffffffffffffffffffffffffffffff1614611909576040517f08c379a000000000000000000000000000000000000000000000000000000000815260040161190090612fae565b60405180910390fd5b6001600c60009054906101000a900473ffffffffffffffffffffffffffffffffffffffff1673ffffffffffffffffffffffffffffffffffffffff1662fdd58e33846040518363ffffffff1660e01b815260040161196792919061341e565b602060405180830381865afa158015611984573d6000803e3d6000fd5b505050506040513d601f19601f820116820180604052508101906119a8919061345c565b10156119e9576040517f08c379a00000000000000000000000000000000000000000000000000000000081526004016119e0906134fb565b60405180910390fd5b6000600b6000848152602001908152602001600020600001604051602001611a11919061306d565b6040516020818303038152906040528051906020012090507f456d7074790000000000000000000000000000000000000000000000000000008103611a8b576040517f08c379a0000000000000000000000000000000000000000000000000000000008152600401611a8290613567565b60405180910390fd5b7f50726f64756374697665000000000000000000000000000000000000000000008103611aed576040517f08c379a0000000000000000000000000000000000000000000000000000000008152600401611ae4906135d3565b60405180910390fd5b60028210611b30576040517f08c379a0000000000000000000000000000000000000000000000000000000008152600401611b279061363f565b60405180910390fd5b60008203611b9b577f68617343617400000000000000000000000000000000000000000000000000008103611b9a576040517f08c379a0000000000000000000000000000000000000000000000000000000008152600401611b91906136ab565b60405180910390fd5b5b60018203611c06577f686173536f7570000000000000000000000000000000000000000000000000008103611c05576040517f08c379a0000000000000000000000000000000000000000000000000000000008152600401611bfc90613717565b60405180910390fd5b5b7f686173506f74000000000000000000000000000000000000000000000000000081148015611c355750600082145b15611c9f576040518060400160405280600681526020017f6861734361740000000000000000000000000000000000000000000000000000815250600b60008581526020019081526020016000206000019080519060200190611c99929190612727565b50611d9a565b7f686173506f74000000000000000000000000000000000000000000000000000081148015611cce5750600182145b15611d38576040518060400160405280600781526020017f686173536f757000000000000000000000000000000000000000000000000000815250600b60008581526020019081526020016000206000019080519060200190611d32929190612727565b50611d99565b6040518060400160405280600a81526020017f50726f6475637469766500000000000000000000000000000000000000000000815250600b60008581526020019081526020016000206000019080519060200190611d97929190612727565b505b5b505050565b6060611daa8261204e565b611de0576040517fa14c4b5000000000000000000000000000000000000000000000000000000000815260040160405180910390fd5b6000611dea61269f565b90506000815103611e0a5760405180602001604052806000815250611e35565b80611e14846126b6565b604051602001611e25929190613768565b6040516020818303038152906040525b915050919050565b60095481565b6000600760008473ffffffffffffffffffffffffffffffffffffffff1673ffffffffffffffffffffffffffffffffffffffff16815260200190815260200160002060008373ffffffffffffffffffffffffffffffffffffffff1673ffffffffffffffffffffffffffffffffffffffff16815260200190815260200160002060009054906101000a900460ff16905092915050565b600a8181548110611ee757600080fd5b9060005260206000209060060201600091509050806000018054611f0a90612f31565b80601f0160208091040260200160405190810160405280929190818152602001828054611f3690612f31565b8015611f835780601f10611f5857610100808354040283529160200191611f83565b820191906000526020600020905b815481529060010190602001808311611f6657829003601f168201915b5050505050908060010160009054906101000a900473ffffffffffffffffffffffffffffffffffffffff16908060020154908060030154908060040154908060050154905086565b611fd3612250565b600073ffffffffffffffffffffffffffffffffffffffff168173ffffffffffffffffffffffffffffffffffffffff1603612042576040517f08c379a0000000000000000000000000000000000000000000000000000000008152600401612039906137fe565b60405180910390fd5b61204b816122ce565b50565b6000816120596120b5565b11158015612068575060005482105b80156120a6575060007c0100000000000000000000000000000000000000000000000000000000600460008581526020019081526020016000205416145b9050919050565b600033905090565b600090565b600080829050806120c96120b5565b1161214f5760005481101561214e5760006004600083815260200190815260200160002054905060007c010000000000000000000000000000000000000000000000000000000082160361214c575b60008103612142576004600083600190039350838152602001908152602001600020549050612118565b8092505050612181565b505b5b6040517fdf2d9b4200000000000000000000000000000000000000000000000000000000815260040160405180910390fd5b919050565b60008060006006600085815260200190815260200160002090508092508254915050915091565b600073ffffffffffffffffffffffffffffffffffffffff8316925073ffffffffffffffffffffffffffffffffffffffff821691508382148383141790509392505050565b50505050565b60008060e883901c905060e861220e868684612706565b62ffffff16901b9150509392505050565b600073ffffffffffffffffffffffffffffffffffffffff83169250814260a01b178317905092915050565b50505050565b61225861270f565b73ffffffffffffffffffffffffffffffffffffffff1661227661120b565b73ffffffffffffffffffffffffffffffffffffffff16146122cc576040517f08c379a00000000000000000000000000000000000000000000000000000000081526004016122c39061386a565b60405180910390fd5b565b6000600860009054906101000a900473ffffffffffffffffffffffffffffffffffffffff16905081600860006101000a81548173ffffffffffffffffffffffffffffffffffffffff021916908373ffffffffffffffffffffffffffffffffffffffff1602179055508173ffffffffffffffffffffffffffffffffffffffff168173ffffffffffffffffffffffffffffffffffffffff167f8be0079c531659141344cd1fd0a4f28419497f9722a3daafe3b4186f6b6457e060405160405180910390a35050565b600080549050600082036123d4576040517fb562e8dd00000000000000000000000000000000000000000000000000000000815260040160405180910390fd5b6123e160008483856121f1565b600160406001901b178202600560008573ffffffffffffffffffffffffffffffffffffffff1673ffffffffffffffffffffffffffffffffffffffff168152602001908152602001600020600082825401925050819055506124588361244960008660006121f7565b61245285612717565b1761221f565b6004600083815260200190815260200160002081905550600080838301905073ffffffffffffffffffffffffffffffffffffffff85169150828260007fddf252ad1be2c89b69c2b068fc378daa952ba7f163c4a11628f55a4df523b3ef600080a4600183015b8181146124f957808360007fddf252ad1be2c89b69c2b068fc378daa952ba7f163c4a11628f55a4df523b3ef600080a46001810190506124be565b5060008203612534576040517f2e07630000000000000000000000000000000000000000000000000000000000815260040160405180910390fd5b80600081905550505061254a600084838561224a565b505050565b60008373ffffffffffffffffffffffffffffffffffffffff1663150b7a026125756120ad565b8786866040518563ffffffff1660e01b815260040161259794939291906138df565b6020604051808303816000875af19250505080156125d357506040513d601f19601f820116820180604052508101906125d09190613940565b60015b61264c573d8060008114612603576040519150601f19603f3d011682016040523d82523d6000602084013e612608565b606091505b506000815103612644576040517fd1a57ed600000000000000000000000000000000000000000000000000000000815260040160405180910390fd5b805181602001fd5b63150b7a0260e01b7bffffffffffffffffffffffffffffffffffffffffffffffffffffffff1916817bffffffffffffffffffffffffffffffffffffffffffffffffffffffff191614915050949350505050565b606060405180602001604052806000815250905090565b606060a060405101806040526020810391506000825281835b6001156126f157600184039350600a81066030018453600a81049050806126cf575b50828103602084039350808452505050919050565b60009392505050565b600033905090565b60006001821460e11b9050919050565b82805461273390612f31565b90600052602060002090601f016020900481019282612755576000855561279c565b82601f1061276e57805160ff191683800117855561279c565b8280016001018555821561279c579182015b8281111561279b578251825591602001919060010190612780565b5b5090506127a9919061283a565b5090565b8280546127b990612f31565b90600052602060002090601f0160209004810192826127db5760008555612829565b82601f106127ec5780548555612829565b8280016001018555821561282957600052602060002091601f016020900482015b8281111561282857825482559160010191906001019061280d565b5b509050612836919061283a565b5090565b5b8082111561285357600081600090555060010161283b565b5090565b6000604051905090565b600080fd5b600080fd5b60007fffffffff0000000000000000000000000000000000000000000000000000000082169050919050565b6128a08161286b565b81146128ab57600080fd5b50565b6000813590506128bd81612897565b92915050565b6000602082840312156128d9576128d8612861565b5b60006128e7848285016128ae565b91505092915050565b60008115159050919050565b612905816128f0565b82525050565b600060208201905061292060008301846128fc565b92915050565b600081519050919050565b600082825260208201905092915050565b60005b83811015612960578082015181840152602081019050612945565b8381111561296f576000848401525b50505050565b6000601f19601f8301169050919050565b600061299182612926565b61299b8185612931565b93506129ab818560208601612942565b6129b481612975565b840191505092915050565b600060208201905081810360008301526129d98184612986565b905092915050565b6000819050919050565b6129f4816129e1565b81146129ff57600080fd5b50565b600081359050612a11816129eb565b92915050565b600060208284031215612a2d57612a2c612861565b5b6000612a3b84828501612a02565b91505092915050565b600073ffffffffffffffffffffffffffffffffffffffff82169050919050565b6000612a6f82612a44565b9050919050565b612a7f81612a64565b82525050565b6000602082019050612a9a6000830184612a76565b92915050565b612aa981612a64565b8114612ab457600080fd5b50565b600081359050612ac681612aa0565b92915050565b60008060408385031215612ae357612ae2612861565b5b6000612af185828601612ab7565b9250506020612b0285828601612a02565b9150509250929050565b612b15816129e1565b82525050565b6000602082019050612b306000830184612b0c565b92915050565b600080600060608486031215612b4f57612b4e612861565b5b6000612b5d86828701612ab7565b9350506020612b6e86828701612ab7565b9250506040612b7f86828701612a02565b9150509250925092565b600060208284031215612b9f57612b9e612861565b5b6000612bad84828501612ab7565b91505092915050565b60008060408385031215612bcd57612bcc612861565b5b6000612bdb85828601612a02565b9250506020612bec85828601612ab7565b9150509250929050565b612bff816128f0565b8114612c0a57600080fd5b50565b600081359050612c1c81612bf6565b92915050565b60008060408385031215612c3957612c38612861565b5b6000612c4785828601612ab7565b9250506020612c5885828601612c0d565b9150509250929050565b600080fd5b600080fd5b7f4e487b7100000000000000000000000000000000000000000000000000000000600052604160045260246000fd5b612ca482612975565b810181811067ffffffffffffffff82111715612cc357612cc2612c6c565b5b80604052505050565b6000612cd6612857565b9050612ce28282612c9b565b919050565b600067ffffffffffffffff821115612d0257612d01612c6c565b5b612d0b82612975565b9050602081019050919050565b82818337600083830152505050565b6000612d3a612d3584612ce7565b612ccc565b905082815260208101848484011115612d5657612d55612c67565b5b612d61848285612d18565b509392505050565b600082601f830112612d7e57612d7d612c62565b5b8135612d8e848260208601612d27565b91505092915050565b60008060008060808587031215612db157612db0612861565b5b6000612dbf87828801612ab7565b9450506020612dd087828801612ab7565b9350506040612de187828801612a02565b925050606085013567ffffffffffffffff811115612e0257612e01612866565b5b612e0e87828801612d69565b91505092959194509250565b600060c0820190508181036000830152612e348189612986565b9050612e436020830188612a76565b612e506040830187612b0c565b612e5d6060830186612b0c565b612e6a6080830185612b0c565b612e7760a0830184612b0c565b979650505050505050565b60008060408385031215612e9957612e98612861565b5b6000612ea785828601612a02565b9250506020612eb885828601612a02565b9150509250929050565b60008060408385031215612ed957612ed8612861565b5b6000612ee785828601612ab7565b9250506020612ef885828601612ab7565b9150509250929050565b7f4e487b7100000000000000000000000000000000000000000000000000000000600052602260045260246000fd5b60006002820490506001821680612f4957607f821691505b602082108103612f5c57612f5b612f02565b5b50919050565b7f596f7520646f206e6f74206f776e2074686973206c616e640000000000000000600082015250565b6000612f98601883612931565b9150612fa382612f62565b602082019050919050565b60006020820190508181036000830152612fc781612f8b565b9050919050565b600081905092915050565b60008190508160005260206000209050919050565b60008154612ffb81612f31565b6130058186612fce565b94506001821660008114613020576001811461303157613064565b60ff19831686528186019350613064565b61303a85612fd9565b60005b8381101561305c5781548189015260018201915060208101905061303d565b838801955050505b50505092915050565b60006130798284612fee565b915081905092915050565b7f54686973206c616e6420616c726561647920686173206120706f740000000000600082015250565b60006130ba601b83612931565b91506130c582613084565b602082019050919050565b600060208201905081810360008301526130e9816130ad565b9050919050565b7f43616e6e6f742061737369676e206d61726b6574706c61636520746f207a657260008201527f6f20616464726573730000000000000000000000000000000000000000000000602082015250565b600061314c602983612931565b9150613157826130f0565b604082019050919050565b6000602082019050818103600083015261317b8161313f565b9050919050565b7f556e617574686f72697a65642e204d61726b6574706c616365206f6e6c792e00600082015250565b60006131b8601f83612931565b91506131c382613182565b602082019050919050565b600060208201905081810360008301526131e7816131ab565b9050919050565b7f54686973206c616e6420646f6573206e6f742065786973740000000000000000600082015250565b6000613224601883612931565b915061322f826131ee565b602082019050919050565b6000602082019050818103600083015261325381613217565b9050919050565b7f54686973206c616e642068617320616c7265616479206265656e20626f75676860008201527f7400000000000000000000000000000000000000000000000000000000000000602082015250565b60006132b6602183612931565b91506132c18261325a565b604082019050919050565b600060208201905081810360008301526132e5816132a9565b9050919050565b7f4d61726b6574706c616365206164647265737320686173206e6f74206265656e60008201527f2073657400000000000000000000000000000000000000000000000000000000602082015250565b6000613348602483612931565b9150613353826132ec565b604082019050919050565b600060208201905081810360008301526133778161333b565b9050919050565b7f4e487b7100000000000000000000000000000000000000000000000000000000600052601160045260246000fd5b60006133b8826129e1565b91507fffffffffffffffffffffffffffffffffffffffffffffffffffffffffffffffff82036133ea576133e961337e565b5b600182019050919050565b600060408201905061340a6000830185612b0c565b6134176020830184612a76565b9392505050565b60006040820190506134336000830185612a76565b6134406020830184612b0c565b9392505050565b600081519050613456816129eb565b92915050565b60006020828403121561347257613471612861565b5b600061348084828501613447565b91505092915050565b7f596f7520646f206e6f74206861766520616e79206f662074686973206974656d60008201527f2074797065000000000000000000000000000000000000000000000000000000602082015250565b60006134e5602583612931565b91506134f082613489565b604082019050919050565b60006020820190508181036000830152613514816134d8565b9050919050565b7f506c6561736520706c616365206120706f742066697273740000000000000000600082015250565b6000613551601883612931565b915061355c8261351b565b602082019050919050565b6000602082019050818103600083015261358081613544565b9050919050565b7f54686973206c616e642069732066756c6c000000000000000000000000000000600082015250565b60006135bd601183612931565b91506135c882613587565b602082019050919050565b600060208201905081810360008301526135ec816135b0565b9050919050565b7f54686973206974656d20646f6573206e6f742065786973740000000000000000600082015250565b6000613629601883612931565b9150613634826135f3565b602082019050919050565b600060208201905081810360008301526136588161361c565b9050919050565b7f54686973206c616e6420616c7265616479206861732061206361740000000000600082015250565b6000613695601b83612931565b91506136a08261365f565b602082019050919050565b600060208201905081810360008301526136c481613688565b9050919050565b7f54686973206c616e6420616c72656164792068617320736f7570000000000000600082015250565b6000613701601a83612931565b915061370c826136cb565b602082019050919050565b60006020820190508181036000830152613730816136f4565b9050919050565b600061374282612926565b61374c8185612fce565b935061375c818560208601612942565b80840191505092915050565b60006137748285613737565b91506137808284613737565b91508190509392505050565b7f4f776e61626c653a206e6577206f776e657220697320746865207a65726f206160008201527f6464726573730000000000000000000000000000000000000000000000000000602082015250565b60006137e8602683612931565b91506137f38261378c565b604082019050919050565b60006020820190508181036000830152613817816137db565b9050919050565b7f4f776e61626c653a2063616c6c6572206973206e6f7420746865206f776e6572600082015250565b6000613854602083612931565b915061385f8261381e565b602082019050919050565b6000602082019050818103600083015261388381613847565b9050919050565b600081519050919050565b600082825260208201905092915050565b60006138b18261388a565b6138bb8185613895565b93506138cb818560208601612942565b6138d481612975565b840191505092915050565b60006080820190506138f46000830187612a76565b6139016020830186612a76565b61390e6040830185612b0c565b818103606083015261392081846138a6565b905095945050505050565b60008151905061393a81612897565b92915050565b60006020828403121561395657613955612861565b5b60006139648482850161392b565b9150509291505056fea2646970667358221220b3d528c9d318df0d53a588c15b327be656f6c19803ff0570ba689b6234df0a7c64736f6c634300080d0033",
  "devdoc": {
    "kind": "dev",
    "methods": {
      "approve(address,uint256)": {
        "details": "Gives permission to `to` to transfer `tokenId` token to another account. The approval is cleared when the token is transferred. Only a single account can be approved at a time, so approving the zero address clears previous approvals. Requirements: - The caller must own the token or be an approved operator. - `tokenId` must exist. Emits an {Approval} event."
      },
      "balanceOf(address)": {
        "details": "Returns the number of tokens in `owner`'s account."
      },
      "getApproved(uint256)": {
        "details": "Returns the account approved for `tokenId` token. Requirements: - `tokenId` must exist."
      },
      "isApprovedForAll(address,address)": {
        "details": "Returns if the `operator` is allowed to manage all of the assets of `owner`. See {setApprovalForAll}."
      },
      "name()": {
        "details": "Returns the token collection name."
      },
      "owner()": {
        "details": "Returns the address of the current owner."
      },
      "ownerOf(uint256)": {
        "details": "Returns the owner of the `tokenId` token. Requirements: - `tokenId` must exist."
      },
      "renounceOwnership()": {
        "details": "Leaves the contract without owner. It will not be possible to call `onlyOwner` functions anymore. Can only be called by the current owner. NOTE: Renouncing ownership will leave the contract without an owner, thereby removing any functionality that is only available to the owner."
      },
      "safeTransferFrom(address,address,uint256)": {
        "details": "Equivalent to `safeTransferFrom(from, to, tokenId, '')`."
      },
      "safeTransferFrom(address,address,uint256,bytes)": {
        "details": "Safely transfers `tokenId` token from `from` to `to`. Requirements: - `from` cannot be the zero address. - `to` cannot be the zero address. - `tokenId` token must exist and be owned by `from`. - If the caller is not `from`, it must be approved to move this token by either {approve} or {setApprovalForAll}. - If `to` refers to a smart contract, it must implement {IERC721Receiver-onERC721Received}, which is called upon a safe transfer. Emits a {Transfer} event."
      },
      "setApprovalForAll(address,bool)": {
        "details": "Approve or remove `operator` as an operator for the caller. Operators can call {transferFrom} or {safeTransferFrom} for any token owned by the caller. Requirements: - The `operator` cannot be the caller. Emits an {ApprovalForAll} event."
      },
      "supportsInterface(bytes4)": {
        "details": "Returns true if this contract implements the interface defined by `interfaceId`. See the corresponding [EIP section](https://eips.ethereum.org/EIPS/eip-165#how-interfaces-are-identified) to learn more about how these ids are created. This function call must use less than 30000 gas."
      },
      "symbol()": {
        "details": "Returns the token collection symbol."
      },
      "tokenURI(uint256)": {
        "details": "Returns the Uniform Resource Identifier (URI) for `tokenId` token."
      },
      "totalSupply()": {
        "details": "Returns the total number of tokens in existence. Burned tokens will reduce the count. To get the total number of tokens minted, please see {_totalMinted}."
      },
      "transferFrom(address,address,uint256)": {
        "details": "Transfers `tokenId` from `from` to `to`. Requirements: - `from` cannot be the zero address. - `to` cannot be the zero address. - `tokenId` token must be owned by `from`. - If the caller is not `from`, it must be approved to move this token by either {approve} or {setApprovalForAll}. Emits a {Transfer} event."
      },
      "transferOwnership(address)": {
        "details": "Transfers ownership of the contract to a new account (`newOwner`). Can only be called by the current owner."
      }
    },
    "version": 1
  },
  "userdoc": {
    "errors": {
      "ApprovalCallerNotOwnerNorApproved()": [
        {
          "notice": "The caller must own the token or be an approved operator."
        }
      ],
      "ApprovalQueryForNonexistentToken()": [
        {
          "notice": "The token does not exist."
        }
      ],
      "BalanceQueryForZeroAddress()": [
        {
          "notice": "Cannot query the balance for the zero address."
        }
      ],
      "MintERC2309QuantityExceedsLimit()": [
        {
          "notice": "The `quantity` minted with ERC2309 exceeds the safety limit."
        }
      ],
      "MintToZeroAddress()": [
        {
          "notice": "Cannot mint to the zero address."
        }
      ],
      "MintZeroQuantity()": [
        {
          "notice": "The quantity of tokens minted must be more than zero."
        }
      ],
      "OwnerQueryForNonexistentToken()": [
        {
          "notice": "The token does not exist."
        }
      ],
      "OwnershipNotInitializedForExtraData()": [
        {
          "notice": "The `extraData` cannot be set on an unintialized ownership slot."
        }
      ],
      "TransferCallerNotOwnerNorApproved()": [
        {
          "notice": "The caller must own the token or be an approved operator."
        }
      ],
      "TransferFromIncorrectOwner()": [
        {
          "notice": "The token must be owned by `from`."
        }
      ],
      "TransferToNonERC721ReceiverImplementer()": [
        {
          "notice": "Cannot safely transfer to a contract that does not implement the ERC721Receiver interface."
        }
      ],
      "TransferToZeroAddress()": [
        {
          "notice": "Cannot transfer to the zero address."
        }
      ],
      "URIQueryForNonexistentToken()": [
        {
          "notice": "The token does not exist."
        }
      ]
    },
    "kind": "user",
    "methods": {},
    "version": 1
  },
  "storageLayout": {
    "storage": [
      {
        "astId": 4909,
        "contract": "contracts/Land.sol:Land",
        "label": "_currentIndex",
        "offset": 0,
        "slot": "0",
        "type": "t_uint256"
      },
      {
        "astId": 4911,
        "contract": "contracts/Land.sol:Land",
        "label": "_burnCounter",
        "offset": 0,
        "slot": "1",
        "type": "t_uint256"
      },
      {
        "astId": 4913,
        "contract": "contracts/Land.sol:Land",
        "label": "_name",
        "offset": 0,
        "slot": "2",
        "type": "t_string_storage"
      },
      {
        "astId": 4915,
        "contract": "contracts/Land.sol:Land",
        "label": "_symbol",
        "offset": 0,
        "slot": "3",
        "type": "t_string_storage"
      },
      {
        "astId": 4919,
        "contract": "contracts/Land.sol:Land",
        "label": "_packedOwnerships",
        "offset": 0,
        "slot": "4",
        "type": "t_mapping(t_uint256,t_uint256)"
      },
      {
        "astId": 4923,
        "contract": "contracts/Land.sol:Land",
        "label": "_packedAddressData",
        "offset": 0,
        "slot": "5",
        "type": "t_mapping(t_address,t_uint256)"
      },
      {
        "astId": 4928,
        "contract": "contracts/Land.sol:Land",
        "label": "_tokenApprovals",
        "offset": 0,
        "slot": "6",
        "type": "t_mapping(t_uint256,t_struct(TokenApprovalRef)4841_storage)"
      },
      {
        "astId": 4934,
        "contract": "contracts/Land.sol:Land",
        "label": "_operatorApprovals",
        "offset": 0,
        "slot": "7",
        "type": "t_mapping(t_address,t_mapping(t_address,t_bool))"
      },
      {
        "astId": 7,
        "contract": "contracts/Land.sol:Land",
        "label": "_owner",
        "offset": 0,
        "slot": "8",
        "type": "t_address"
      },
      {
        "astId": 4057,
        "contract": "contracts/Land.sol:Land",
        "label": "maxSupply",
        "offset": 0,
        "slot": "9",
        "type": "t_uint256"
      },
      {
        "astId": 4074,
        "contract": "contracts/Land.sol:Land",
        "label": "landsArray",
        "offset": 0,
        "slot": "10",
        "type": "t_array(t_struct(LandStruct)4070_storage)dyn_storage"
      },
      {
        "astId": 4079,
        "contract": "contracts/Land.sol:Land",
        "label": "landData",
        "offset": 0,
        "slot": "11",
        "type": "t_mapping(t_uint256,t_struct(LandStruct)4070_storage)"
      },
      {
        "astId": 4082,
        "contract": "contracts/Land.sol:Land",
        "label": "catsAndSoup",
        "offset": 0,
        "slot": "12",
        "type": "t_contract(CatsAndSoup)3979"
      },
      {
        "astId": 4084,
        "contract": "contracts/Land.sol:Land",
        "label": "_marketplace",
        "offset": 0,
        "slot": "13",
        "type": "t_address"
      }
    ],
    "types": {
      "t_address": {
        "encoding": "inplace",
        "label": "address",
        "numberOfBytes": "20"
      },
      "t_array(t_struct(LandStruct)4070_storage)dyn_storage": {
        "base": "t_struct(LandStruct)4070_storage",
        "encoding": "dynamic_array",
        "label": "struct Land.LandStruct[]",
        "numberOfBytes": "32"
      },
      "t_bool": {
        "encoding": "inplace",
        "label": "bool",
        "numberOfBytes": "1"
      },
      "t_contract(CatsAndSoup)3979": {
        "encoding": "inplace",
        "label": "contract CatsAndSoup",
        "numberOfBytes": "20"
      },
      "t_mapping(t_address,t_bool)": {
        "encoding": "mapping",
        "key": "t_address",
        "label": "mapping(address => bool)",
        "numberOfBytes": "32",
        "value": "t_bool"
      },
      "t_mapping(t_address,t_mapping(t_address,t_bool))": {
        "encoding": "mapping",
        "key": "t_address",
        "label": "mapping(address => mapping(address => bool))",
        "numberOfBytes": "32",
        "value": "t_mapping(t_address,t_bool)"
      },
      "t_mapping(t_address,t_uint256)": {
        "encoding": "mapping",
        "key": "t_address",
        "label": "mapping(address => uint256)",
        "numberOfBytes": "32",
        "value": "t_uint256"
      },
      "t_mapping(t_uint256,t_struct(LandStruct)4070_storage)": {
        "encoding": "mapping",
        "key": "t_uint256",
        "label": "mapping(uint256 => struct Land.LandStruct)",
        "numberOfBytes": "32",
        "value": "t_struct(LandStruct)4070_storage"
      },
      "t_mapping(t_uint256,t_struct(TokenApprovalRef)4841_storage)": {
        "encoding": "mapping",
        "key": "t_uint256",
        "label": "mapping(uint256 => struct ERC721A.TokenApprovalRef)",
        "numberOfBytes": "32",
        "value": "t_struct(TokenApprovalRef)4841_storage"
      },
      "t_mapping(t_uint256,t_uint256)": {
        "encoding": "mapping",
        "key": "t_uint256",
        "label": "mapping(uint256 => uint256)",
        "numberOfBytes": "32",
        "value": "t_uint256"
      },
      "t_string_storage": {
        "encoding": "bytes",
        "label": "string",
        "numberOfBytes": "32"
      },
      "t_struct(LandStruct)4070_storage": {
        "encoding": "inplace",
        "label": "struct Land.LandStruct",
        "members": [
          {
            "astId": 4059,
            "contract": "contracts/Land.sol:Land",
            "label": "landType",
            "offset": 0,
            "slot": "0",
            "type": "t_string_storage"
          },
          {
            "astId": 4061,
            "contract": "contracts/Land.sol:Land",
            "label": "owner",
            "offset": 0,
            "slot": "1",
            "type": "t_address"
          },
          {
            "astId": 4063,
            "contract": "contracts/Land.sol:Land",
            "label": "positionX",
            "offset": 0,
            "slot": "2",
            "type": "t_uint256"
          },
          {
            "astId": 4065,
            "contract": "contracts/Land.sol:Land",
            "label": "positionY",
            "offset": 0,
            "slot": "3",
            "type": "t_uint256"
          },
          {
            "astId": 4067,
            "contract": "contracts/Land.sol:Land",
            "label": "sizeX",
            "offset": 0,
            "slot": "4",
            "type": "t_uint256"
          },
          {
            "astId": 4069,
            "contract": "contracts/Land.sol:Land",
            "label": "sizeY",
            "offset": 0,
            "slot": "5",
            "type": "t_uint256"
          }
        ],
        "numberOfBytes": "192"
      },
      "t_struct(TokenApprovalRef)4841_storage": {
        "encoding": "inplace",
        "label": "struct ERC721A.TokenApprovalRef",
        "members": [
          {
            "astId": 4840,
            "contract": "contracts/Land.sol:Land",
            "label": "value",
            "offset": 0,
            "slot": "0",
            "type": "t_address"
          }
        ],
        "numberOfBytes": "32"
      },
      "t_uint256": {
        "encoding": "inplace",
        "label": "uint256",
        "numberOfBytes": "32"
      }
    }
  }
}