{
  "address": "0xe7f1725E7734CE288F8367e1Bb143E90bb3F0512",
  "abi": [
    {
      "inputs": [
        {
          "internalType": "string",
          "name": "name",
          "type": "string"
        },
        {
          "internalType": "string",
          "name": "symbol",
          "type": "string"
        },
        {
          "internalType": "uint256",
          "name": "_maxSupply",
          "type": "uint256"
        }
      ],
      "stateMutability": "nonpayable",
      "type": "constructor"
    },
    {
      "inputs": [],
      "name": "ApprovalCallerNotOwnerNorApproved",
      "type": "error"
    },
    {
      "inputs": [],
      "name": "ApprovalQueryForNonexistentToken",
      "type": "error"
    },
    {
      "inputs": [],
      "name": "BalanceQueryForZeroAddress",
      "type": "error"
    },
    {
      "inputs": [],
      "name": "MintERC2309QuantityExceedsLimit",
      "type": "error"
    },
    {
      "inputs": [],
      "name": "MintToZeroAddress",
      "type": "error"
    },
    {
      "inputs": [],
      "name": "MintZeroQuantity",
      "type": "error"
    },
    {
      "inputs": [],
      "name": "OwnerQueryForNonexistentToken",
      "type": "error"
    },
    {
      "inputs": [],
      "name": "OwnershipNotInitializedForExtraData",
      "type": "error"
    },
    {
      "inputs": [],
      "name": "TransferCallerNotOwnerNorApproved",
      "type": "error"
    },
    {
      "inputs": [],
      "name": "TransferFromIncorrectOwner",
      "type": "error"
    },
    {
      "inputs": [],
      "name": "TransferToNonERC721ReceiverImplementer",
      "type": "error"
    },
    {
      "inputs": [],
      "name": "TransferToZeroAddress",
      "type": "error"
    },
    {
      "inputs": [],
      "name": "URIQueryForNonexistentToken",
      "type": "error"
    },
    {
      "anonymous": false,
      "inputs": [
        {
          "indexed": true,
          "internalType": "address",
          "name": "owner",
          "type": "address"
        },
        {
          "indexed": true,
          "internalType": "address",
          "name": "approved",
          "type": "address"
        },
        {
          "indexed": true,
          "internalType": "uint256",
          "name": "tokenId",
          "type": "uint256"
        }
      ],
      "name": "Approval",
      "type": "event"
    },
    {
      "anonymous": false,
      "inputs": [
        {
          "indexed": true,
          "internalType": "address",
          "name": "owner",
          "type": "address"
        },
        {
          "indexed": true,
          "internalType": "address",
          "name": "operator",
          "type": "address"
        },
        {
          "indexed": false,
          "internalType": "bool",
          "name": "approved",
          "type": "bool"
        }
      ],
      "name": "ApprovalForAll",
      "type": "event"
    },
    {
      "anonymous": false,
      "inputs": [
        {
          "indexed": true,
          "internalType": "uint256",
          "name": "fromTokenId",
          "type": "uint256"
        },
        {
          "indexed": false,
          "internalType": "uint256",
          "name": "toTokenId",
          "type": "uint256"
        },
        {
          "indexed": true,
          "internalType": "address",
          "name": "from",
          "type": "address"
        },
        {
          "indexed": true,
          "internalType": "address",
          "name": "to",
          "type": "address"
        }
      ],
      "name": "ConsecutiveTransfer",
      "type": "event"
    },
    {
      "anonymous": false,
      "inputs": [
        {
          "indexed": false,
          "internalType": "uint256",
          "name": "quantity",
          "type": "uint256"
        },
        {
          "indexed": false,
          "internalType": "address",
          "name": "initialOwner",
          "type": "address"
        }
      ],
      "name": "InitialMint",
      "type": "event"
    },
    {
      "anonymous": false,
      "inputs": [
        {
          "indexed": true,
          "internalType": "bytes32",
          "name": "role",
          "type": "bytes32"
        },
        {
          "indexed": true,
          "internalType": "bytes32",
          "name": "previousAdminRole",
          "type": "bytes32"
        },
        {
          "indexed": true,
          "internalType": "bytes32",
          "name": "newAdminRole",
          "type": "bytes32"
        }
      ],
      "name": "RoleAdminChanged",
      "type": "event"
    },
    {
      "anonymous": false,
      "inputs": [
        {
          "indexed": true,
          "internalType": "bytes32",
          "name": "role",
          "type": "bytes32"
        },
        {
          "indexed": true,
          "internalType": "address",
          "name": "account",
          "type": "address"
        },
        {
          "indexed": true,
          "internalType": "address",
          "name": "sender",
          "type": "address"
        }
      ],
      "name": "RoleGranted",
      "type": "event"
    },
    {
      "anonymous": false,
      "inputs": [
        {
          "indexed": true,
          "internalType": "bytes32",
          "name": "role",
          "type": "bytes32"
        },
        {
          "indexed": true,
          "internalType": "address",
          "name": "account",
          "type": "address"
        },
        {
          "indexed": true,
          "internalType": "address",
          "name": "sender",
          "type": "address"
        }
      ],
      "name": "RoleRevoked",
      "type": "event"
    },
    {
      "anonymous": false,
      "inputs": [
        {
          "indexed": true,
          "internalType": "address",
          "name": "from",
          "type": "address"
        },
        {
          "indexed": true,
          "internalType": "address",
          "name": "to",
          "type": "address"
        },
        {
          "indexed": true,
          "internalType": "uint256",
          "name": "tokenId",
          "type": "uint256"
        }
      ],
      "name": "Transfer",
      "type": "event"
    },
    {
      "inputs": [],
      "name": "ADMIN_ROLE",
      "outputs": [
        {
          "internalType": "bytes32",
          "name": "",
          "type": "bytes32"
        }
      ],
      "stateMutability": "view",
      "type": "function"
    },
    {
      "inputs": [],
      "name": "DEFAULT_ADMIN_ROLE",
      "outputs": [
        {
          "internalType": "bytes32",
          "name": "",
          "type": "bytes32"
        }
      ],
      "stateMutability": "view",
      "type": "function"
    },
    {
      "inputs": [],
      "name": "_marketplace",
      "outputs": [
        {
          "internalType": "address",
          "name": "",
          "type": "address"
        }
      ],
      "stateMutability": "view",
      "type": "function"
    },
    {
      "inputs": [
        {
          "internalType": "address",
          "name": "to",
          "type": "address"
        },
        {
          "internalType": "uint256",
          "name": "tokenId",
          "type": "uint256"
        }
      ],
      "name": "approve",
      "outputs": [],
      "stateMutability": "payable",
      "type": "function"
    },
    {
      "inputs": [
        {
          "internalType": "uint256",
          "name": "_landId",
          "type": "uint256"
        },
        {
          "internalType": "uint256",
          "name": "_itemId",
          "type": "uint256"
        }
      ],
      "name": "assignItem",
      "outputs": [],
      "stateMutability": "nonpayable",
      "type": "function"
    },
    {
      "inputs": [
        {
          "internalType": "uint256",
          "name": "_landId",
          "type": "uint256"
        }
      ],
      "name": "assignPot",
      "outputs": [],
      "stateMutability": "nonpayable",
      "type": "function"
    },
    {
      "inputs": [
        {
          "internalType": "address",
          "name": "owner",
          "type": "address"
        }
      ],
      "name": "balanceOf",
      "outputs": [
        {
          "internalType": "uint256",
          "name": "",
          "type": "uint256"
        }
      ],
      "stateMutability": "view",
      "type": "function"
    },
    {
      "inputs": [
        {
          "internalType": "uint256",
          "name": "_landId",
          "type": "uint256"
        },
        {
          "internalType": "address",
          "name": "_userAddress",
          "type": "address"
        }
      ],
      "name": "buyLand",
      "outputs": [],
      "stateMutability": "nonpayable",
      "type": "function"
    },
    {
      "inputs": [
        {
          "internalType": "uint256",
          "name": "tokenId",
          "type": "uint256"
        }
      ],
      "name": "getApproved",
      "outputs": [
        {
          "internalType": "address",
          "name": "",
          "type": "address"
        }
      ],
      "stateMutability": "view",
      "type": "function"
    },
    {
      "inputs": [
        {
          "internalType": "bytes32",
          "name": "role",
          "type": "bytes32"
        }
      ],
      "name": "getRoleAdmin",
      "outputs": [
        {
          "internalType": "bytes32",
          "name": "",
          "type": "bytes32"
        }
      ],
      "stateMutability": "view",
      "type": "function"
    },
    {
      "inputs": [
        {
          "internalType": "bytes32",
          "name": "role",
          "type": "bytes32"
        },
        {
          "internalType": "address",
          "name": "account",
          "type": "address"
        }
      ],
      "name": "grantRole",
      "outputs": [],
      "stateMutability": "nonpayable",
      "type": "function"
    },
    {
      "inputs": [
        {
          "internalType": "bytes32",
          "name": "role",
          "type": "bytes32"
        },
        {
          "internalType": "address",
          "name": "account",
          "type": "address"
        }
      ],
      "name": "hasRole",
      "outputs": [
        {
          "internalType": "bool",
          "name": "",
          "type": "bool"
        }
      ],
      "stateMutability": "view",
      "type": "function"
    },
    {
      "inputs": [],
      "name": "initialBatchMint",
      "outputs": [],
      "stateMutability": "nonpayable",
      "type": "function"
    },
    {
      "inputs": [
        {
          "internalType": "address",
          "name": "owner",
          "type": "address"
        },
        {
          "internalType": "address",
          "name": "operator",
          "type": "address"
        }
      ],
      "name": "isApprovedForAll",
      "outputs": [
        {
          "internalType": "bool",
          "name": "",
          "type": "bool"
        }
      ],
      "stateMutability": "view",
      "type": "function"
    },
    {
      "inputs": [
        {
          "internalType": "uint256",
          "name": "",
          "type": "uint256"
        }
      ],
      "name": "landData",
      "outputs": [
        {
          "internalType": "string",
          "name": "landType",
          "type": "string"
        },
        {
          "internalType": "address",
          "name": "owner",
          "type": "address"
        },
        {
          "internalType": "uint256",
          "name": "positionX",
          "type": "uint256"
        },
        {
          "internalType": "uint256",
          "name": "positionY",
          "type": "uint256"
        },
        {
          "internalType": "uint256",
          "name": "sizeX",
          "type": "uint256"
        },
        {
          "internalType": "uint256",
          "name": "sizeY",
          "type": "uint256"
        }
      ],
      "stateMutability": "view",
      "type": "function"
    },
    {
      "inputs": [
        {
          "internalType": "uint256",
          "name": "",
          "type": "uint256"
        }
      ],
      "name": "landsArray",
      "outputs": [
        {
          "internalType": "string",
          "name": "landType",
          "type": "string"
        },
        {
          "internalType": "address",
          "name": "owner",
          "type": "address"
        },
        {
          "internalType": "uint256",
          "name": "positionX",
          "type": "uint256"
        },
        {
          "internalType": "uint256",
          "name": "positionY",
          "type": "uint256"
        },
        {
          "internalType": "uint256",
          "name": "sizeX",
          "type": "uint256"
        },
        {
          "internalType": "uint256",
          "name": "sizeY",
          "type": "uint256"
        }
      ],
      "stateMutability": "view",
      "type": "function"
    },
    {
      "inputs": [],
      "name": "maxSupply",
      "outputs": [
        {
          "internalType": "uint256",
          "name": "",
          "type": "uint256"
        }
      ],
      "stateMutability": "view",
      "type": "function"
    },
    {
      "inputs": [],
      "name": "name",
      "outputs": [
        {
          "internalType": "string",
          "name": "",
          "type": "string"
        }
      ],
      "stateMutability": "view",
      "type": "function"
    },
    {
      "inputs": [
        {
          "internalType": "uint256",
          "name": "tokenId",
          "type": "uint256"
        }
      ],
      "name": "ownerOf",
      "outputs": [
        {
          "internalType": "address",
          "name": "",
          "type": "address"
        }
      ],
      "stateMutability": "view",
      "type": "function"
    },
    {
      "inputs": [
        {
          "internalType": "bytes32",
          "name": "role",
          "type": "bytes32"
        },
        {
          "internalType": "address",
          "name": "account",
          "type": "address"
        }
      ],
      "name": "renounceRole",
      "outputs": [],
      "stateMutability": "nonpayable",
      "type": "function"
    },
    {
      "inputs": [
        {
          "internalType": "bytes32",
          "name": "role",
          "type": "bytes32"
        },
        {
          "internalType": "address",
          "name": "account",
          "type": "address"
        }
      ],
      "name": "revokeRole",
      "outputs": [],
      "stateMutability": "nonpayable",
      "type": "function"
    },
    {
      "inputs": [
        {
          "internalType": "address",
          "name": "from",
          "type": "address"
        },
        {
          "internalType": "address",
          "name": "to",
          "type": "address"
        },
        {
          "internalType": "uint256",
          "name": "tokenId",
          "type": "uint256"
        }
      ],
      "name": "safeTransferFrom",
      "outputs": [],
      "stateMutability": "payable",
      "type": "function"
    },
    {
      "inputs": [
        {
          "internalType": "address",
          "name": "from",
          "type": "address"
        },
        {
          "internalType": "address",
          "name": "to",
          "type": "address"
        },
        {
          "internalType": "uint256",
          "name": "tokenId",
          "type": "uint256"
        },
        {
          "internalType": "bytes",
          "name": "_data",
          "type": "bytes"
        }
      ],
      "name": "safeTransferFrom",
      "outputs": [],
      "stateMutability": "payable",
      "type": "function"
    },
    {
      "inputs": [
        {
          "internalType": "address",
          "name": "operator",
          "type": "address"
        },
        {
          "internalType": "bool",
          "name": "approved",
          "type": "bool"
        }
      ],
      "name": "setApprovalForAll",
      "outputs": [],
      "stateMutability": "nonpayable",
      "type": "function"
    },
    {
      "inputs": [
        {
          "internalType": "bytes4",
          "name": "interfaceId",
          "type": "bytes4"
        }
      ],
      "name": "supportsInterface",
      "outputs": [
        {
          "internalType": "bool",
          "name": "",
          "type": "bool"
        }
      ],
      "stateMutability": "view",
      "type": "function"
    },
    {
      "inputs": [],
      "name": "symbol",
      "outputs": [
        {
          "internalType": "string",
          "name": "",
          "type": "string"
        }
      ],
      "stateMutability": "view",
      "type": "function"
    },
    {
      "inputs": [
        {
          "internalType": "uint256",
          "name": "tokenId",
          "type": "uint256"
        }
      ],
      "name": "tokenURI",
      "outputs": [
        {
          "internalType": "string",
          "name": "",
          "type": "string"
        }
      ],
      "stateMutability": "view",
      "type": "function"
    },
    {
      "inputs": [],
      "name": "totalSupply",
      "outputs": [
        {
          "internalType": "uint256",
          "name": "",
          "type": "uint256"
        }
      ],
      "stateMutability": "view",
      "type": "function"
    },
    {
      "inputs": [
        {
          "internalType": "address",
          "name": "from",
          "type": "address"
        },
        {
          "internalType": "address",
          "name": "to",
          "type": "address"
        },
        {
          "internalType": "uint256",
          "name": "tokenId",
          "type": "uint256"
        }
      ],
      "name": "transferFrom",
      "outputs": [],
      "stateMutability": "payable",
      "type": "function"
    }
  ],
  "transactionHash": "0x17d87e8e8394508ac1bbc2987e5c9cb5f94b9fd9e5f13b4c6e31240b036972a9",
  "args": [
    "Land",
    "LND",
    10
  ],
  "numDeployments": 1,
  "solcInputHash": "19ba2fab89e956d7878c8a982c2702dd",
  "bytecode": "0x60806040523480156200001157600080fd5b50604051620043f7380380620043f78339818101604052810190620000379190620004e9565b828281600290805190602001906200005192919062000261565b5080600390805190602001906200006a92919062000261565b506200007b620000f760201b60201c565b600081905550505080600981905550620000bc7fdf8b4c520ffe197c5343c6f5aec59570151ef9a492f2c624fd45ddde6135ec4233620000fc60201b60201c565b620000ee7fdf8b4c520ffe197c5343c6f5aec59570151ef9a492f2c624fd45ddde6135ec4230620000fc60201b60201c565b505050620005e7565b600090565b6200010e8282620001ee60201b60201c565b620001ea5760016008600084815260200190815260200160002060000160008373ffffffffffffffffffffffffffffffffffffffff1673ffffffffffffffffffffffffffffffffffffffff16815260200190815260200160002060006101000a81548160ff0219169083151502179055506200018f6200025960201b60201c565b73ffffffffffffffffffffffffffffffffffffffff168173ffffffffffffffffffffffffffffffffffffffff16837f2f8788117e7eff1d82e926ec794901d17c78024a50270940304540a733656f0d60405160405180910390a45b5050565b60006008600084815260200190815260200160002060000160008373ffffffffffffffffffffffffffffffffffffffff1673ffffffffffffffffffffffffffffffffffffffff16815260200190815260200160002060009054906101000a900460ff16905092915050565b600033905090565b8280546200026f90620005b2565b90600052602060002090601f016020900481019282620002935760008555620002df565b82601f10620002ae57805160ff1916838001178555620002df565b82800160010185558215620002df579182015b82811115620002de578251825591602001919060010190620002c1565b5b509050620002ee9190620002f2565b5090565b5b808211156200030d576000816000905550600101620002f3565b5090565b6000604051905090565b600080fd5b600080fd5b600080fd5b600080fd5b6000601f19601f8301169050919050565b7f4e487b7100000000000000000000000000000000000000000000000000000000600052604160045260246000fd5b6200037a826200032f565b810181811067ffffffffffffffff821117156200039c576200039b62000340565b5b80604052505050565b6000620003b162000311565b9050620003bf82826200036f565b919050565b600067ffffffffffffffff821115620003e257620003e162000340565b5b620003ed826200032f565b9050602081019050919050565b60005b838110156200041a578082015181840152602081019050620003fd565b838111156200042a576000848401525b50505050565b6000620004476200044184620003c4565b620003a5565b9050828152602081018484840111156200046657620004656200032a565b5b62000473848285620003fa565b509392505050565b600082601f83011262000493576200049262000325565b5b8151620004a584826020860162000430565b91505092915050565b6000819050919050565b620004c381620004ae565b8114620004cf57600080fd5b50565b600081519050620004e381620004b8565b92915050565b6000806000606084860312156200050557620005046200031b565b5b600084015167ffffffffffffffff81111562000526576200052562000320565b5b62000534868287016200047b565b935050602084015167ffffffffffffffff81111562000558576200055762000320565b5b62000566868287016200047b565b92505060406200057986828701620004d2565b9150509250925092565b7f4e487b7100000000000000000000000000000000000000000000000000000000600052602260045260246000fd5b60006002820490506001821680620005cb57607f821691505b602082108103620005e157620005e062000583565b5b50919050565b613e0080620005f76000396000f3fe6080604052600436106101c25760003560e01c80637ed11e62116100f7578063b95aa42f11610095578063d547741f11610064578063d547741f14610633578063d5abeb011461065c578063e985e9c514610687578063ef658364146106c4576101c2565b8063b95aa42f14610560578063be546221146105a2578063c1ab822e146105cd578063c87b56dd146105f6576101c2565b8063a217fddf116100d1578063a217fddf146104d9578063a22cb46514610504578063b16f10011461052d578063b88d4fde14610544576101c2565b80637ed11e621461044857806391d148541461047157806395d89b41146104ae576101c2565b80632f2ff15d1161016457806342842e0e1161013e57806342842e0e146103875780636352211e146103a357806370a08231146103e057806375b238fc1461041d576101c2565b80632f2ff15d1461030c57806336568abe14610335578063395c455b1461035e576101c2565b8063095ea7b3116101a0578063095ea7b31461026c57806318160ddd1461028857806323b872dd146102b3578063248a9ca3146102cf576101c2565b806301ffc9a7146101c757806306fdde0314610204578063081812fc1461022f575b600080fd5b3480156101d357600080fd5b506101ee60048036038101906101e99190612c09565b610706565b6040516101fb9190612c51565b60405180910390f35b34801561021057600080fd5b50610219610718565b6040516102269190612d05565b60405180910390f35b34801561023b57600080fd5b5061025660048036038101906102519190612d5d565b6107aa565b6040516102639190612dcb565b60405180910390f35b61028660048036038101906102819190612e12565b610829565b005b34801561029457600080fd5b5061029d61096d565b6040516102aa9190612e61565b60405180910390f35b6102cd60048036038101906102c89190612e7c565b610984565b005b3480156102db57600080fd5b506102f660048036038101906102f19190612f05565b610ca6565b6040516103039190612f41565b60405180910390f35b34801561031857600080fd5b50610333600480360381019061032e9190612f5c565b610cc6565b005b34801561034157600080fd5b5061035c60048036038101906103579190612f5c565b610ce7565b005b34801561036a57600080fd5b5061038560048036038101906103809190612d5d565b610d6a565b005b6103a1600480360381019061039c9190612e7c565b610f14565b005b3480156103af57600080fd5b506103ca60048036038101906103c59190612d5d565b610f34565b6040516103d79190612dcb565b60405180910390f35b3480156103ec57600080fd5b5061040760048036038101906104029190612f9c565b610f46565b6040516104149190612e61565b60405180910390f35b34801561042957600080fd5b50610432610ffe565b60405161043f9190612f41565b60405180910390f35b34801561045457600080fd5b5061046f600480360381019061046a9190612fc9565b611022565b005b34801561047d57600080fd5b5061049860048036038101906104939190612f5c565b6111b3565b6040516104a59190612c51565b60405180910390f35b3480156104ba57600080fd5b506104c361121e565b6040516104d09190612d05565b60405180910390f35b3480156104e557600080fd5b506104ee6112b0565b6040516104fb9190612f41565b60405180910390f35b34801561051057600080fd5b5061052b60048036038101906105269190613035565b6112b7565b005b34801561053957600080fd5b506105426113c2565b005b61055e600480360381019061055991906131aa565b611640565b005b34801561056c57600080fd5b5061058760048036038101906105829190612d5d565b6116b3565b6040516105999695949392919061322d565b60405180910390f35b3480156105ae57600080fd5b506105b7611797565b6040516105c49190612dcb565b60405180910390f35b3480156105d957600080fd5b506105f460048036038101906105ef9190613295565b6117bd565b005b34801561060257600080fd5b5061061d60048036038101906106189190612d5d565b611cf7565b60405161062a9190612d05565b60405180910390f35b34801561063f57600080fd5b5061065a60048036038101906106559190612f5c565b611d95565b005b34801561066857600080fd5b50610671611db6565b60405161067e9190612e61565b60405180910390f35b34801561069357600080fd5b506106ae60048036038101906106a991906132d5565b611dbc565b6040516106bb9190612c51565b60405180910390f35b3480156106d057600080fd5b506106eb60048036038101906106e69190612d5d565b611e50565b6040516106fd9695949392919061322d565b60405180910390f35b600061071182611f44565b9050919050565b60606002805461072790613344565b80601f016020809104026020016040519081016040528092919081815260200182805461075390613344565b80156107a05780601f10610775576101008083540402835291602001916107a0565b820191906000526020600020905b81548152906001019060200180831161078357829003601f168201915b5050505050905090565b60006107b582611fbe565b6107eb576040517fcf4700e400000000000000000000000000000000000000000000000000000000815260040160405180910390fd5b6006600083815260200190815260200160002060000160009054906101000a900473ffffffffffffffffffffffffffffffffffffffff169050919050565b600061083482610f34565b90508073ffffffffffffffffffffffffffffffffffffffff1661085561201d565b73ffffffffffffffffffffffffffffffffffffffff16146108b8576108818161087c61201d565b611dbc565b6108b7576040517fcfb3b94200000000000000000000000000000000000000000000000000000000815260040160405180910390fd5b5b826006600084815260200190815260200160002060000160006101000a81548173ffffffffffffffffffffffffffffffffffffffff021916908373ffffffffffffffffffffffffffffffffffffffff160217905550818373ffffffffffffffffffffffffffffffffffffffff168273ffffffffffffffffffffffffffffffffffffffff167f8c5be1e5ebec7d5bd14f71427d1e84f3dd0314c0f7b2291e5b200ac8c7c3b92560405160405180910390a4505050565b6000610977612025565b6001546000540303905090565b600061098f8261202a565b90508373ffffffffffffffffffffffffffffffffffffffff168173ffffffffffffffffffffffffffffffffffffffff16146109f6576040517fa114810000000000000000000000000000000000000000000000000000000000815260040160405180910390fd5b600080610a02846120f6565b91509150610a188187610a1361201d565b61211d565b610a6457610a2d86610a2861201d565b611dbc565b610a63576040517f59c896be00000000000000000000000000000000000000000000000000000000815260040160405180910390fd5b5b600073ffffffffffffffffffffffffffffffffffffffff168573ffffffffffffffffffffffffffffffffffffffff1603610aca576040517fea553b3400000000000000000000000000000000000000000000000000000000815260040160405180910390fd5b610ad78686866001612161565b8015610ae257600082555b600560008773ffffffffffffffffffffffffffffffffffffffff1673ffffffffffffffffffffffffffffffffffffffff168152602001908152602001600020600081546001900391905081905550600560008673ffffffffffffffffffffffffffffffffffffffff1673ffffffffffffffffffffffffffffffffffffffff1681526020019081526020016000206000815460010191905081905550610bb085610b8c888887612167565b7c02000000000000000000000000000000000000000000000000000000001761218f565b600460008681526020019081526020016000208190555060007c0200000000000000000000000000000000000000000000000000000000841603610c365760006001850190506000600460008381526020019081526020016000205403610c34576000548114610c33578360046000838152602001908152602001600020819055505b5b505b838573ffffffffffffffffffffffffffffffffffffffff168773ffffffffffffffffffffffffffffffffffffffff167fddf252ad1be2c89b69c2b068fc378daa952ba7f163c4a11628f55a4df523b3ef60405160405180910390a4610c9e86868660016121ba565b505050505050565b600060086000838152602001908152602001600020600101549050919050565b610ccf82610ca6565b610cd8816121c0565b610ce283836121d4565b505050565b610cef6122b5565b73ffffffffffffffffffffffffffffffffffffffff168173ffffffffffffffffffffffffffffffffffffffff1614610d5c576040517f08c379a0000000000000000000000000000000000000000000000000000000008152600401610d53906133e7565b60405180910390fd5b610d6682826122bd565b5050565b3373ffffffffffffffffffffffffffffffffffffffff16600b600083815260200190815260200160002060010160009054906101000a900473ffffffffffffffffffffffffffffffffffffffff1673ffffffffffffffffffffffffffffffffffffffff1614610e0e576040517f08c379a0000000000000000000000000000000000000000000000000000000008152600401610e0590613453565b60405180910390fd5b6000600b6000838152602001908152602001600020600001604051602001610e369190613512565b6040516020818303038152906040528051906020012090507f456d7074790000000000000000000000000000000000000000000000000000008114610eb0576040517f08c379a0000000000000000000000000000000000000000000000000000000008152600401610ea790613575565b60405180910390fd5b6040518060400160405280600681526020017f686173506f740000000000000000000000000000000000000000000000000000815250600b60008481526020019081526020016000206000019080519060200190610f0f929190612a6d565b505050565b610f2f83838360405180602001604052806000815250611640565b505050565b6000610f3f8261202a565b9050919050565b60008073ffffffffffffffffffffffffffffffffffffffff168273ffffffffffffffffffffffffffffffffffffffff1603610fad576040517f8f4eb60400000000000000000000000000000000000000000000000000000000815260040160405180910390fd5b67ffffffffffffffff600560008473ffffffffffffffffffffffffffffffffffffffff1673ffffffffffffffffffffffffffffffffffffffff16815260200190815260200160002054169050919050565b7fdf8b4c520ffe197c5343c6f5aec59570151ef9a492f2c624fd45ddde6135ec4281565b600954821115611067576040517f08c379a000000000000000000000000000000000000000000000000000000000815260040161105e906135e1565b60405180910390fd5b600d60009054906101000a900473ffffffffffffffffffffffffffffffffffffffff1673ffffffffffffffffffffffffffffffffffffffff16600b600084815260200190815260200160002060010160009054906101000a900473ffffffffffffffffffffffffffffffffffffffff1673ffffffffffffffffffffffffffffffffffffffff161461112d576040517f08c379a000000000000000000000000000000000000000000000000000000000815260040161112490613673565b60405180910390fd5b80600b600084815260200190815260200160002060010160006101000a81548173ffffffffffffffffffffffffffffffffffffffff021916908373ffffffffffffffffffffffffffffffffffffffff1602179055506111af600d60009054906101000a900473ffffffffffffffffffffffffffffffffffffffff168284610f14565b5050565b60006008600084815260200190815260200160002060000160008373ffffffffffffffffffffffffffffffffffffffff1673ffffffffffffffffffffffffffffffffffffffff16815260200190815260200160002060009054906101000a900460ff16905092915050565b60606003805461122d90613344565b80601f016020809104026020016040519081016040528092919081815260200182805461125990613344565b80156112a65780601f1061127b576101008083540402835291602001916112a6565b820191906000526020600020905b81548152906001019060200180831161128957829003601f168201915b5050505050905090565b6000801b81565b80600760006112c461201d565b73ffffffffffffffffffffffffffffffffffffffff1673ffffffffffffffffffffffffffffffffffffffff16815260200190815260200160002060008473ffffffffffffffffffffffffffffffffffffffff1673ffffffffffffffffffffffffffffffffffffffff16815260200190815260200160002060006101000a81548160ff0219169083151502179055508173ffffffffffffffffffffffffffffffffffffffff1661137161201d565b73ffffffffffffffffffffffffffffffffffffffff167f17307eab39ab6107e8899845ad3d59bd9653f200f220920489ca2b5937696c31836040516113b69190612c51565b60405180910390a35050565b60005b6009548110156115b2576000600b600083815260200190815260200160002090506040518060400160405280600581526020017f456d707479000000000000000000000000000000000000000000000000000000815250816000019080519060200190611433929190612a6d565b50600d60009054906101000a900473ffffffffffffffffffffffffffffffffffffffff168160010160006101000a81548173ffffffffffffffffffffffffffffffffffffffff021916908373ffffffffffffffffffffffffffffffffffffffff1602179055506000816002018190555060008160030181905550600a8160040181905550600a8160050181905550600a819080600181540180825580915050600190039060005260206000209060060201600090919091909150600082018160000190805461150190613344565b61150c929190612af3565b506001820160009054906101000a900473ffffffffffffffffffffffffffffffffffffffff168160010160006101000a81548173ffffffffffffffffffffffffffffffffffffffff021916908373ffffffffffffffffffffffffffffffffffffffff1602179055506002820154816002015560038201548160030155600482015481600401556005820154816005015550505080806115aa906136c2565b9150506113c5565b507f63b23b66bc824efed77dc9b92432bb50dd8b566121136efb9085fa77cdb84a21600954600d60009054906101000a900473ffffffffffffffffffffffffffffffffffffffff1660405161160892919061370a565b60405180910390a161163e600d60009054906101000a900473ffffffffffffffffffffffffffffffffffffffff1660095461239f565b565b61164b848484610984565b60008373ffffffffffffffffffffffffffffffffffffffff163b146116ad576116768484848461255a565b6116ac576040517fd1a57ed600000000000000000000000000000000000000000000000000000000815260040160405180910390fd5b5b50505050565b600b6020528060005260406000206000915090508060000180546116d690613344565b80601f016020809104026020016040519081016040528092919081815260200182805461170290613344565b801561174f5780601f106117245761010080835404028352916020019161174f565b820191906000526020600020905b81548152906001019060200180831161173257829003601f168201915b5050505050908060010160009054906101000a900473ffffffffffffffffffffffffffffffffffffffff16908060020154908060030154908060040154908060050154905086565b600d60009054906101000a900473ffffffffffffffffffffffffffffffffffffffff1681565b3373ffffffffffffffffffffffffffffffffffffffff16600b600084815260200190815260200160002060010160009054906101000a900473ffffffffffffffffffffffffffffffffffffffff1673ffffffffffffffffffffffffffffffffffffffff1614611861576040517f08c379a000000000000000000000000000000000000000000000000000000000815260040161185890613453565b60405180910390fd5b6001600c60009054906101000a900473ffffffffffffffffffffffffffffffffffffffff1673ffffffffffffffffffffffffffffffffffffffff1662fdd58e33846040518363ffffffff1660e01b81526004016118bf929190613733565b602060405180830381865afa1580156118dc573d6000803e3d6000fd5b505050506040513d601f19601f820116820180604052508101906119009190613771565b1015611941576040517f08c379a000000000000000000000000000000000000000000000000000000000815260040161193890613810565b60405180910390fd5b6000600b60008481526020019081526020016000206000016040516020016119699190613512565b6040516020818303038152906040528051906020012090507f456d70747900000000000000000000000000000000000000000000000000000081036119e3576040517f08c379a00000000000000000000000000000000000000000000000000000000081526004016119da9061387c565b60405180910390fd5b7f50726f64756374697665000000000000000000000000000000000000000000008103611a45576040517f08c379a0000000000000000000000000000000000000000000000000000000008152600401611a3c906138e8565b60405180910390fd5b60028210611a88576040517f08c379a0000000000000000000000000000000000000000000000000000000008152600401611a7f90613954565b60405180910390fd5b60008203611af3577f68617343617400000000000000000000000000000000000000000000000000008103611af2576040517f08c379a0000000000000000000000000000000000000000000000000000000008152600401611ae9906139c0565b60405180910390fd5b5b60018203611b5e577f686173536f7570000000000000000000000000000000000000000000000000008103611b5d576040517f08c379a0000000000000000000000000000000000000000000000000000000008152600401611b5490613a2c565b60405180910390fd5b5b7f686173506f74000000000000000000000000000000000000000000000000000081148015611b8d5750600082145b15611bf7576040518060400160405280600681526020017f6861734361740000000000000000000000000000000000000000000000000000815250600b60008581526020019081526020016000206000019080519060200190611bf1929190612a6d565b50611cf2565b7f686173506f74000000000000000000000000000000000000000000000000000081148015611c265750600182145b15611c90576040518060400160405280600781526020017f686173536f757000000000000000000000000000000000000000000000000000815250600b60008581526020019081526020016000206000019080519060200190611c8a929190612a6d565b50611cf1565b6040518060400160405280600a81526020017f50726f6475637469766500000000000000000000000000000000000000000000815250600b60008581526020019081526020016000206000019080519060200190611cef929190612a6d565b505b5b505050565b6060611d0282611fbe565b611d38576040517fa14c4b5000000000000000000000000000000000000000000000000000000000815260040160405180910390fd5b6000611d426126aa565b90506000815103611d625760405180602001604052806000815250611d8d565b80611d6c846126c1565b604051602001611d7d929190613a7d565b6040516020818303038152906040525b915050919050565b611d9e82610ca6565b611da7816121c0565b611db183836122bd565b505050565b60095481565b6000600760008473ffffffffffffffffffffffffffffffffffffffff1673ffffffffffffffffffffffffffffffffffffffff16815260200190815260200160002060008373ffffffffffffffffffffffffffffffffffffffff1673ffffffffffffffffffffffffffffffffffffffff16815260200190815260200160002060009054906101000a900460ff16905092915050565b600a8181548110611e6057600080fd5b9060005260206000209060060201600091509050806000018054611e8390613344565b80601f0160208091040260200160405190810160405280929190818152602001828054611eaf90613344565b8015611efc5780601f10611ed157610100808354040283529160200191611efc565b820191906000526020600020905b815481529060010190602001808311611edf57829003601f168201915b5050505050908060010160009054906101000a900473ffffffffffffffffffffffffffffffffffffffff16908060020154908060030154908060040154908060050154905086565b60007f7965db0b000000000000000000000000000000000000000000000000000000007bffffffffffffffffffffffffffffffffffffffffffffffffffffffff1916827bffffffffffffffffffffffffffffffffffffffffffffffffffffffff19161480611fb75750611fb682612711565b5b9050919050565b600081611fc9612025565b11158015611fd8575060005482105b8015612016575060007c0100000000000000000000000000000000000000000000000000000000600460008581526020019081526020016000205416145b9050919050565b600033905090565b600090565b60008082905080612039612025565b116120bf576000548110156120be5760006004600083815260200190815260200160002054905060007c01000000000000000000000000000000000000000000000000000000008216036120bc575b600081036120b2576004600083600190039350838152602001908152602001600020549050612088565b80925050506120f1565b505b5b6040517fdf2d9b4200000000000000000000000000000000000000000000000000000000815260040160405180910390fd5b919050565b60008060006006600085815260200190815260200160002090508092508254915050915091565b600073ffffffffffffffffffffffffffffffffffffffff8316925073ffffffffffffffffffffffffffffffffffffffff821691508382148383141790509392505050565b50505050565b60008060e883901c905060e861217e86868461277b565b62ffffff16901b9150509392505050565b600073ffffffffffffffffffffffffffffffffffffffff83169250814260a01b178317905092915050565b50505050565b6121d1816121cc6122b5565b612784565b50565b6121de82826111b3565b6122b15760016008600084815260200190815260200160002060000160008373ffffffffffffffffffffffffffffffffffffffff1673ffffffffffffffffffffffffffffffffffffffff16815260200190815260200160002060006101000a81548160ff0219169083151502179055506122566122b5565b73ffffffffffffffffffffffffffffffffffffffff168173ffffffffffffffffffffffffffffffffffffffff16837f2f8788117e7eff1d82e926ec794901d17c78024a50270940304540a733656f0d60405160405180910390a45b5050565b600033905090565b6122c782826111b3565b1561239b5760006008600084815260200190815260200160002060000160008373ffffffffffffffffffffffffffffffffffffffff1673ffffffffffffffffffffffffffffffffffffffff16815260200190815260200160002060006101000a81548160ff0219169083151502179055506123406122b5565b73ffffffffffffffffffffffffffffffffffffffff168173ffffffffffffffffffffffffffffffffffffffff16837ff6391f5c32d9c69d2a47ea670b442974b53935d1edc7fd64eb21e047a839171b60405160405180910390a45b5050565b600080549050600082036123df576040517fb562e8dd00000000000000000000000000000000000000000000000000000000815260040160405180910390fd5b6123ec6000848385612161565b600160406001901b178202600560008573ffffffffffffffffffffffffffffffffffffffff1673ffffffffffffffffffffffffffffffffffffffff16815260200190815260200160002060008282540192505081905550612463836124546000866000612167565b61245d85612821565b1761218f565b6004600083815260200190815260200160002081905550600080838301905073ffffffffffffffffffffffffffffffffffffffff85169150828260007fddf252ad1be2c89b69c2b068fc378daa952ba7f163c4a11628f55a4df523b3ef600080a4600183015b81811461250457808360007fddf252ad1be2c89b69c2b068fc378daa952ba7f163c4a11628f55a4df523b3ef600080a46001810190506124c9565b506000820361253f576040517f2e07630000000000000000000000000000000000000000000000000000000000815260040160405180910390fd5b80600081905550505061255560008483856121ba565b505050565b60008373ffffffffffffffffffffffffffffffffffffffff1663150b7a0261258061201d565b8786866040518563ffffffff1660e01b81526004016125a29493929190613af6565b6020604051808303816000875af19250505080156125de57506040513d601f19601f820116820180604052508101906125db9190613b57565b60015b612657573d806000811461260e576040519150601f19603f3d011682016040523d82523d6000602084013e612613565b606091505b50600081510361264f576040517fd1a57ed600000000000000000000000000000000000000000000000000000000815260040160405180910390fd5b805181602001fd5b63150b7a0260e01b7bffffffffffffffffffffffffffffffffffffffffffffffffffffffff1916817bffffffffffffffffffffffffffffffffffffffffffffffffffffffff191614915050949350505050565b606060405180602001604052806000815250905090565b606060a060405101806040526020810391506000825281835b6001156126fc57600184039350600a81066030018453600a81049050806126da575b50828103602084039350808452505050919050565b60007f01ffc9a7000000000000000000000000000000000000000000000000000000007bffffffffffffffffffffffffffffffffffffffffffffffffffffffff1916827bffffffffffffffffffffffffffffffffffffffffffffffffffffffff1916149050919050565b60009392505050565b61278e82826111b3565b61281d576127b38173ffffffffffffffffffffffffffffffffffffffff166014612831565b6127c18360001c6020612831565b6040516020016127d2929190613c1c565b6040516020818303038152906040526040517f08c379a00000000000000000000000000000000000000000000000000000000081526004016128149190612d05565b60405180910390fd5b5050565b60006001821460e11b9050919050565b6060600060028360026128449190613c56565b61284e9190613cb0565b67ffffffffffffffff8111156128675761286661307f565b5b6040519080825280601f01601f1916602001820160405280156128995781602001600182028036833780820191505090505b5090507f3000000000000000000000000000000000000000000000000000000000000000816000815181106128d1576128d0613d06565b5b60200101907effffffffffffffffffffffffffffffffffffffffffffffffffffffffffffff1916908160001a9053507f78000000000000000000000000000000000000000000000000000000000000008160018151811061293557612934613d06565b5b60200101907effffffffffffffffffffffffffffffffffffffffffffffffffffffffffffff1916908160001a905350600060018460026129759190613c56565b61297f9190613cb0565b90505b6001811115612a1f577f3031323334353637383961626364656600000000000000000000000000000000600f8616601081106129c1576129c0613d06565b5b1a60f81b8282815181106129d8576129d7613d06565b5b60200101907effffffffffffffffffffffffffffffffffffffffffffffffffffffffffffff1916908160001a905350600485901c945080612a1890613d35565b9050612982565b5060008414612a63576040517f08c379a0000000000000000000000000000000000000000000000000000000008152600401612a5a90613daa565b60405180910390fd5b8091505092915050565b828054612a7990613344565b90600052602060002090601f016020900481019282612a9b5760008555612ae2565b82601f10612ab457805160ff1916838001178555612ae2565b82800160010185558215612ae2579182015b82811115612ae1578251825591602001919060010190612ac6565b5b509050612aef9190612b80565b5090565b828054612aff90613344565b90600052602060002090601f016020900481019282612b215760008555612b6f565b82601f10612b325780548555612b6f565b82800160010185558215612b6f57600052602060002091601f016020900482015b82811115612b6e578254825591600101919060010190612b53565b5b509050612b7c9190612b80565b5090565b5b80821115612b99576000816000905550600101612b81565b5090565b6000604051905090565b600080fd5b600080fd5b60007fffffffff0000000000000000000000000000000000000000000000000000000082169050919050565b612be681612bb1565b8114612bf157600080fd5b50565b600081359050612c0381612bdd565b92915050565b600060208284031215612c1f57612c1e612ba7565b5b6000612c2d84828501612bf4565b91505092915050565b60008115159050919050565b612c4b81612c36565b82525050565b6000602082019050612c666000830184612c42565b92915050565b600081519050919050565b600082825260208201905092915050565b60005b83811015612ca6578082015181840152602081019050612c8b565b83811115612cb5576000848401525b50505050565b6000601f19601f8301169050919050565b6000612cd782612c6c565b612ce18185612c77565b9350612cf1818560208601612c88565b612cfa81612cbb565b840191505092915050565b60006020820190508181036000830152612d1f8184612ccc565b905092915050565b6000819050919050565b612d3a81612d27565b8114612d4557600080fd5b50565b600081359050612d5781612d31565b92915050565b600060208284031215612d7357612d72612ba7565b5b6000612d8184828501612d48565b91505092915050565b600073ffffffffffffffffffffffffffffffffffffffff82169050919050565b6000612db582612d8a565b9050919050565b612dc581612daa565b82525050565b6000602082019050612de06000830184612dbc565b92915050565b612def81612daa565b8114612dfa57600080fd5b50565b600081359050612e0c81612de6565b92915050565b60008060408385031215612e2957612e28612ba7565b5b6000612e3785828601612dfd565b9250506020612e4885828601612d48565b9150509250929050565b612e5b81612d27565b82525050565b6000602082019050612e766000830184612e52565b92915050565b600080600060608486031215612e9557612e94612ba7565b5b6000612ea386828701612dfd565b9350506020612eb486828701612dfd565b9250506040612ec586828701612d48565b9150509250925092565b6000819050919050565b612ee281612ecf565b8114612eed57600080fd5b50565b600081359050612eff81612ed9565b92915050565b600060208284031215612f1b57612f1a612ba7565b5b6000612f2984828501612ef0565b91505092915050565b612f3b81612ecf565b82525050565b6000602082019050612f566000830184612f32565b92915050565b60008060408385031215612f7357612f72612ba7565b5b6000612f8185828601612ef0565b9250506020612f9285828601612dfd565b9150509250929050565b600060208284031215612fb257612fb1612ba7565b5b6000612fc084828501612dfd565b91505092915050565b60008060408385031215612fe057612fdf612ba7565b5b6000612fee85828601612d48565b9250506020612fff85828601612dfd565b9150509250929050565b61301281612c36565b811461301d57600080fd5b50565b60008135905061302f81613009565b92915050565b6000806040838503121561304c5761304b612ba7565b5b600061305a85828601612dfd565b925050602061306b85828601613020565b9150509250929050565b600080fd5b600080fd5b7f4e487b7100000000000000000000000000000000000000000000000000000000600052604160045260246000fd5b6130b782612cbb565b810181811067ffffffffffffffff821117156130d6576130d561307f565b5b80604052505050565b60006130e9612b9d565b90506130f582826130ae565b919050565b600067ffffffffffffffff8211156131155761311461307f565b5b61311e82612cbb565b9050602081019050919050565b82818337600083830152505050565b600061314d613148846130fa565b6130df565b9050828152602081018484840111156131695761316861307a565b5b61317484828561312b565b509392505050565b600082601f83011261319157613190613075565b5b81356131a184826020860161313a565b91505092915050565b600080600080608085870312156131c4576131c3612ba7565b5b60006131d287828801612dfd565b94505060206131e387828801612dfd565b93505060406131f487828801612d48565b925050606085013567ffffffffffffffff81111561321557613214612bac565b5b6132218782880161317c565b91505092959194509250565b600060c08201905081810360008301526132478189612ccc565b90506132566020830188612dbc565b6132636040830187612e52565b6132706060830186612e52565b61327d6080830185612e52565b61328a60a0830184612e52565b979650505050505050565b600080604083850312156132ac576132ab612ba7565b5b60006132ba85828601612d48565b92505060206132cb85828601612d48565b9150509250929050565b600080604083850312156132ec576132eb612ba7565b5b60006132fa85828601612dfd565b925050602061330b85828601612dfd565b9150509250929050565b7f4e487b7100000000000000000000000000000000000000000000000000000000600052602260045260246000fd5b6000600282049050600182168061335c57607f821691505b60208210810361336f5761336e613315565b5b50919050565b7f416363657373436f6e74726f6c3a2063616e206f6e6c792072656e6f756e636560008201527f20726f6c657320666f722073656c660000000000000000000000000000000000602082015250565b60006133d1602f83612c77565b91506133dc82613375565b604082019050919050565b60006020820190508181036000830152613400816133c4565b9050919050565b7f596f7520646f206e6f74206f776e2074686973206c616e640000000000000000600082015250565b600061343d601883612c77565b915061344882613407565b602082019050919050565b6000602082019050818103600083015261346c81613430565b9050919050565b600081905092915050565b60008190508160005260206000209050919050565b600081546134a081613344565b6134aa8186613473565b945060018216600081146134c557600181146134d657613509565b60ff19831686528186019350613509565b6134df8561347e565b60005b83811015613501578154818901526001820191506020810190506134e2565b838801955050505b50505092915050565b600061351e8284613493565b915081905092915050565b7f54686973206c616e6420616c726561647920686173206120706f740000000000600082015250565b600061355f601b83612c77565b915061356a82613529565b602082019050919050565b6000602082019050818103600083015261358e81613552565b9050919050565b7f54686973206c616e6420646f6573206e6f742065786973740000000000000000600082015250565b60006135cb601883612c77565b91506135d682613595565b602082019050919050565b600060208201905081810360008301526135fa816135be565b9050919050565b7f54686973206c616e642068617320616c7265616479206265656e20626f75676860008201527f7400000000000000000000000000000000000000000000000000000000000000602082015250565b600061365d602183612c77565b915061366882613601565b604082019050919050565b6000602082019050818103600083015261368c81613650565b9050919050565b7f4e487b7100000000000000000000000000000000000000000000000000000000600052601160045260246000fd5b60006136cd82612d27565b91507fffffffffffffffffffffffffffffffffffffffffffffffffffffffffffffffff82036136ff576136fe613693565b5b600182019050919050565b600060408201905061371f6000830185612e52565b61372c6020830184612dbc565b9392505050565b60006040820190506137486000830185612dbc565b6137556020830184612e52565b9392505050565b60008151905061376b81612d31565b92915050565b60006020828403121561378757613786612ba7565b5b60006137958482850161375c565b91505092915050565b7f596f7520646f206e6f74206861766520616e79206f662074686973206974656d60008201527f2074797065000000000000000000000000000000000000000000000000000000602082015250565b60006137fa602583612c77565b91506138058261379e565b604082019050919050565b60006020820190508181036000830152613829816137ed565b9050919050565b7f506c6561736520706c616365206120706f742066697273740000000000000000600082015250565b6000613866601883612c77565b915061387182613830565b602082019050919050565b6000602082019050818103600083015261389581613859565b9050919050565b7f54686973206c616e642069732066756c6c000000000000000000000000000000600082015250565b60006138d2601183612c77565b91506138dd8261389c565b602082019050919050565b60006020820190508181036000830152613901816138c5565b9050919050565b7f54686973206974656d20646f6573206e6f742065786973740000000000000000600082015250565b600061393e601883612c77565b915061394982613908565b602082019050919050565b6000602082019050818103600083015261396d81613931565b9050919050565b7f54686973206c616e6420616c7265616479206861732061206361740000000000600082015250565b60006139aa601b83612c77565b91506139b582613974565b602082019050919050565b600060208201905081810360008301526139d98161399d565b9050919050565b7f54686973206c616e6420616c72656164792068617320736f7570000000000000600082015250565b6000613a16601a83612c77565b9150613a21826139e0565b602082019050919050565b60006020820190508181036000830152613a4581613a09565b9050919050565b6000613a5782612c6c565b613a618185613473565b9350613a71818560208601612c88565b80840191505092915050565b6000613a898285613a4c565b9150613a958284613a4c565b91508190509392505050565b600081519050919050565b600082825260208201905092915050565b6000613ac882613aa1565b613ad28185613aac565b9350613ae2818560208601612c88565b613aeb81612cbb565b840191505092915050565b6000608082019050613b0b6000830187612dbc565b613b186020830186612dbc565b613b256040830185612e52565b8181036060830152613b378184613abd565b905095945050505050565b600081519050613b5181612bdd565b92915050565b600060208284031215613b6d57613b6c612ba7565b5b6000613b7b84828501613b42565b91505092915050565b7f416363657373436f6e74726f6c3a206163636f756e7420000000000000000000600082015250565b6000613bba601783613473565b9150613bc582613b84565b601782019050919050565b7f206973206d697373696e6720726f6c6520000000000000000000000000000000600082015250565b6000613c06601183613473565b9150613c1182613bd0565b601182019050919050565b6000613c2782613bad565b9150613c338285613a4c565b9150613c3e82613bf9565b9150613c4a8284613a4c565b91508190509392505050565b6000613c6182612d27565b9150613c6c83612d27565b9250817fffffffffffffffffffffffffffffffffffffffffffffffffffffffffffffffff0483118215151615613ca557613ca4613693565b5b828202905092915050565b6000613cbb82612d27565b9150613cc683612d27565b9250827fffffffffffffffffffffffffffffffffffffffffffffffffffffffffffffffff03821115613cfb57613cfa613693565b5b828201905092915050565b7f4e487b7100000000000000000000000000000000000000000000000000000000600052603260045260246000fd5b6000613d4082612d27565b915060008203613d5357613d52613693565b5b600182039050919050565b7f537472696e67733a20686578206c656e67746820696e73756666696369656e74600082015250565b6000613d94602083612c77565b9150613d9f82613d5e565b602082019050919050565b60006020820190508181036000830152613dc381613d87565b905091905056fea26469706673582212205c0c26dc8c6090e209ae9880a6efd45cfb8f093fa595ab6396f2d20f5edaeef264736f6c634300080d0033",
  "devdoc": {
    "kind": "dev",
    "methods": {
      "approve(address,uint256)": {
        "details": "Gives permission to `to` to transfer `tokenId` token to another account. The approval is cleared when the token is transferred. Only a single account can be approved at a time, so approving the zero address clears previous approvals. Requirements: - The caller must own the token or be an approved operator. - `tokenId` must exist. Emits an {Approval} event."
      },
      "balanceOf(address)": {
        "details": "Returns the number of tokens in `owner`'s account."
      },
      "getApproved(uint256)": {
        "details": "Returns the account approved for `tokenId` token. Requirements: - `tokenId` must exist."
      },
      "getRoleAdmin(bytes32)": {
        "details": "Returns the admin role that controls `role`. See {grantRole} and {revokeRole}. To change a role's admin, use {_setRoleAdmin}."
      },
      "grantRole(bytes32,address)": {
        "details": "Grants `role` to `account`. If `account` had not been already granted `role`, emits a {RoleGranted} event. Requirements: - the caller must have ``role``'s admin role. May emit a {RoleGranted} event."
      },
      "hasRole(bytes32,address)": {
        "details": "Returns `true` if `account` has been granted `role`."
      },
      "isApprovedForAll(address,address)": {
        "details": "Returns if the `operator` is allowed to manage all of the assets of `owner`. See {setApprovalForAll}."
      },
      "name()": {
        "details": "Returns the token collection name."
      },
      "ownerOf(uint256)": {
        "details": "Returns the owner of the `tokenId` token. Requirements: - `tokenId` must exist."
      },
      "renounceRole(bytes32,address)": {
        "details": "Revokes `role` from the calling account. Roles are often managed via {grantRole} and {revokeRole}: this function's purpose is to provide a mechanism for accounts to lose their privileges if they are compromised (such as when a trusted device is misplaced). If the calling account had been revoked `role`, emits a {RoleRevoked} event. Requirements: - the caller must be `account`. May emit a {RoleRevoked} event."
      },
      "revokeRole(bytes32,address)": {
        "details": "Revokes `role` from `account`. If `account` had been granted `role`, emits a {RoleRevoked} event. Requirements: - the caller must have ``role``'s admin role. May emit a {RoleRevoked} event."
      },
      "safeTransferFrom(address,address,uint256)": {
        "details": "Equivalent to `safeTransferFrom(from, to, tokenId, '')`."
      },
      "safeTransferFrom(address,address,uint256,bytes)": {
        "details": "Safely transfers `tokenId` token from `from` to `to`. Requirements: - `from` cannot be the zero address. - `to` cannot be the zero address. - `tokenId` token must exist and be owned by `from`. - If the caller is not `from`, it must be approved to move this token by either {approve} or {setApprovalForAll}. - If `to` refers to a smart contract, it must implement {IERC721Receiver-onERC721Received}, which is called upon a safe transfer. Emits a {Transfer} event."
      },
      "setApprovalForAll(address,bool)": {
        "details": "Approve or remove `operator` as an operator for the caller. Operators can call {transferFrom} or {safeTransferFrom} for any token owned by the caller. Requirements: - The `operator` cannot be the caller. Emits an {ApprovalForAll} event."
      },
      "symbol()": {
        "details": "Returns the token collection symbol."
      },
      "tokenURI(uint256)": {
        "details": "Returns the Uniform Resource Identifier (URI) for `tokenId` token."
      },
      "totalSupply()": {
        "details": "Returns the total number of tokens in existence. Burned tokens will reduce the count. To get the total number of tokens minted, please see {_totalMinted}."
      },
      "transferFrom(address,address,uint256)": {
        "details": "Transfers `tokenId` from `from` to `to`. Requirements: - `from` cannot be the zero address. - `to` cannot be the zero address. - `tokenId` token must be owned by `from`. - If the caller is not `from`, it must be approved to move this token by either {approve} or {setApprovalForAll}. Emits a {Transfer} event."
      }
    },
    "version": 1
  },
  "userdoc": {
    "errors": {
      "ApprovalCallerNotOwnerNorApproved()": [
        {
          "notice": "The caller must own the token or be an approved operator."
        }
      ],
      "ApprovalQueryForNonexistentToken()": [
        {
          "notice": "The token does not exist."
        }
      ],
      "BalanceQueryForZeroAddress()": [
        {
          "notice": "Cannot query the balance for the zero address."
        }
      ],
      "MintERC2309QuantityExceedsLimit()": [
        {
          "notice": "The `quantity` minted with ERC2309 exceeds the safety limit."
        }
      ],
      "MintToZeroAddress()": [
        {
          "notice": "Cannot mint to the zero address."
        }
      ],
      "MintZeroQuantity()": [
        {
          "notice": "The quantity of tokens minted must be more than zero."
        }
      ],
      "OwnerQueryForNonexistentToken()": [
        {
          "notice": "The token does not exist."
        }
      ],
      "OwnershipNotInitializedForExtraData()": [
        {
          "notice": "The `extraData` cannot be set on an unintialized ownership slot."
        }
      ],
      "TransferCallerNotOwnerNorApproved()": [
        {
          "notice": "The caller must own the token or be an approved operator."
        }
      ],
      "TransferFromIncorrectOwner()": [
        {
          "notice": "The token must be owned by `from`."
        }
      ],
      "TransferToNonERC721ReceiverImplementer()": [
        {
          "notice": "Cannot safely transfer to a contract that does not implement the ERC721Receiver interface."
        }
      ],
      "TransferToZeroAddress()": [
        {
          "notice": "Cannot transfer to the zero address."
        }
      ],
      "URIQueryForNonexistentToken()": [
        {
          "notice": "The token does not exist."
        }
      ]
    },
    "kind": "user",
    "methods": {},
    "version": 1
  },
  "storageLayout": {
    "storage": [
      {
        "astId": 5169,
        "contract": "contracts/Land.sol:Land",
        "label": "_currentIndex",
        "offset": 0,
        "slot": "0",
        "type": "t_uint256"
      },
      {
        "astId": 5171,
        "contract": "contracts/Land.sol:Land",
        "label": "_burnCounter",
        "offset": 0,
        "slot": "1",
        "type": "t_uint256"
      },
      {
        "astId": 5173,
        "contract": "contracts/Land.sol:Land",
        "label": "_name",
        "offset": 0,
        "slot": "2",
        "type": "t_string_storage"
      },
      {
        "astId": 5175,
        "contract": "contracts/Land.sol:Land",
        "label": "_symbol",
        "offset": 0,
        "slot": "3",
        "type": "t_string_storage"
      },
      {
        "astId": 5179,
        "contract": "contracts/Land.sol:Land",
        "label": "_packedOwnerships",
        "offset": 0,
        "slot": "4",
        "type": "t_mapping(t_uint256,t_uint256)"
      },
      {
        "astId": 5183,
        "contract": "contracts/Land.sol:Land",
        "label": "_packedAddressData",
        "offset": 0,
        "slot": "5",
        "type": "t_mapping(t_address,t_uint256)"
      },
      {
        "astId": 5188,
        "contract": "contracts/Land.sol:Land",
        "label": "_tokenApprovals",
        "offset": 0,
        "slot": "6",
        "type": "t_mapping(t_uint256,t_struct(TokenApprovalRef)5101_storage)"
      },
      {
        "astId": 5194,
        "contract": "contracts/Land.sol:Land",
        "label": "_operatorApprovals",
        "offset": 0,
        "slot": "7",
        "type": "t_mapping(t_address,t_mapping(t_address,t_bool))"
      },
      {
        "astId": 24,
        "contract": "contracts/Land.sol:Land",
        "label": "_roles",
        "offset": 0,
        "slot": "8",
        "type": "t_mapping(t_bytes32,t_struct(RoleData)19_storage)"
      },
      {
        "astId": 4343,
        "contract": "contracts/Land.sol:Land",
        "label": "maxSupply",
        "offset": 0,
        "slot": "9",
        "type": "t_uint256"
      },
      {
        "astId": 4365,
        "contract": "contracts/Land.sol:Land",
        "label": "landsArray",
        "offset": 0,
        "slot": "10",
        "type": "t_array(t_struct(LandStruct)4361_storage)dyn_storage"
      },
      {
        "astId": 4370,
        "contract": "contracts/Land.sol:Land",
        "label": "landData",
        "offset": 0,
        "slot": "11",
        "type": "t_mapping(t_uint256,t_struct(LandStruct)4361_storage)"
      },
      {
        "astId": 4373,
        "contract": "contracts/Land.sol:Land",
        "label": "catsAndSoup",
        "offset": 0,
        "slot": "12",
        "type": "t_contract(CatsAndSoup)4246"
      },
      {
        "astId": 4375,
        "contract": "contracts/Land.sol:Land",
        "label": "_marketplace",
        "offset": 0,
        "slot": "13",
        "type": "t_address"
      }
    ],
    "types": {
      "t_address": {
        "encoding": "inplace",
        "label": "address",
        "numberOfBytes": "20"
      },
      "t_array(t_struct(LandStruct)4361_storage)dyn_storage": {
        "base": "t_struct(LandStruct)4361_storage",
        "encoding": "dynamic_array",
        "label": "struct Land.LandStruct[]",
        "numberOfBytes": "32"
      },
      "t_bool": {
        "encoding": "inplace",
        "label": "bool",
        "numberOfBytes": "1"
      },
      "t_bytes32": {
        "encoding": "inplace",
        "label": "bytes32",
        "numberOfBytes": "32"
      },
      "t_contract(CatsAndSoup)4246": {
        "encoding": "inplace",
        "label": "contract CatsAndSoup",
        "numberOfBytes": "20"
      },
      "t_mapping(t_address,t_bool)": {
        "encoding": "mapping",
        "key": "t_address",
        "label": "mapping(address => bool)",
        "numberOfBytes": "32",
        "value": "t_bool"
      },
      "t_mapping(t_address,t_mapping(t_address,t_bool))": {
        "encoding": "mapping",
        "key": "t_address",
        "label": "mapping(address => mapping(address => bool))",
        "numberOfBytes": "32",
        "value": "t_mapping(t_address,t_bool)"
      },
      "t_mapping(t_address,t_uint256)": {
        "encoding": "mapping",
        "key": "t_address",
        "label": "mapping(address => uint256)",
        "numberOfBytes": "32",
        "value": "t_uint256"
      },
      "t_mapping(t_bytes32,t_struct(RoleData)19_storage)": {
        "encoding": "mapping",
        "key": "t_bytes32",
        "label": "mapping(bytes32 => struct AccessControl.RoleData)",
        "numberOfBytes": "32",
        "value": "t_struct(RoleData)19_storage"
      },
      "t_mapping(t_uint256,t_struct(LandStruct)4361_storage)": {
        "encoding": "mapping",
        "key": "t_uint256",
        "label": "mapping(uint256 => struct Land.LandStruct)",
        "numberOfBytes": "32",
        "value": "t_struct(LandStruct)4361_storage"
      },
      "t_mapping(t_uint256,t_struct(TokenApprovalRef)5101_storage)": {
        "encoding": "mapping",
        "key": "t_uint256",
        "label": "mapping(uint256 => struct ERC721A.TokenApprovalRef)",
        "numberOfBytes": "32",
        "value": "t_struct(TokenApprovalRef)5101_storage"
      },
      "t_mapping(t_uint256,t_uint256)": {
        "encoding": "mapping",
        "key": "t_uint256",
        "label": "mapping(uint256 => uint256)",
        "numberOfBytes": "32",
        "value": "t_uint256"
      },
      "t_string_storage": {
        "encoding": "bytes",
        "label": "string",
        "numberOfBytes": "32"
      },
      "t_struct(LandStruct)4361_storage": {
        "encoding": "inplace",
        "label": "struct Land.LandStruct",
        "members": [
          {
            "astId": 4350,
            "contract": "contracts/Land.sol:Land",
            "label": "landType",
            "offset": 0,
            "slot": "0",
            "type": "t_string_storage"
          },
          {
            "astId": 4352,
            "contract": "contracts/Land.sol:Land",
            "label": "owner",
            "offset": 0,
            "slot": "1",
            "type": "t_address"
          },
          {
            "astId": 4354,
            "contract": "contracts/Land.sol:Land",
            "label": "positionX",
            "offset": 0,
            "slot": "2",
            "type": "t_uint256"
          },
          {
            "astId": 4356,
            "contract": "contracts/Land.sol:Land",
            "label": "positionY",
            "offset": 0,
            "slot": "3",
            "type": "t_uint256"
          },
          {
            "astId": 4358,
            "contract": "contracts/Land.sol:Land",
            "label": "sizeX",
            "offset": 0,
            "slot": "4",
            "type": "t_uint256"
          },
          {
            "astId": 4360,
            "contract": "contracts/Land.sol:Land",
            "label": "sizeY",
            "offset": 0,
            "slot": "5",
            "type": "t_uint256"
          }
        ],
        "numberOfBytes": "192"
      },
      "t_struct(RoleData)19_storage": {
        "encoding": "inplace",
        "label": "struct AccessControl.RoleData",
        "members": [
          {
            "astId": 16,
            "contract": "contracts/Land.sol:Land",
            "label": "members",
            "offset": 0,
            "slot": "0",
            "type": "t_mapping(t_address,t_bool)"
          },
          {
            "astId": 18,
            "contract": "contracts/Land.sol:Land",
            "label": "adminRole",
            "offset": 0,
            "slot": "1",
            "type": "t_bytes32"
          }
        ],
        "numberOfBytes": "64"
      },
      "t_struct(TokenApprovalRef)5101_storage": {
        "encoding": "inplace",
        "label": "struct ERC721A.TokenApprovalRef",
        "members": [
          {
            "astId": 5100,
            "contract": "contracts/Land.sol:Land",
            "label": "value",
            "offset": 0,
            "slot": "0",
            "type": "t_address"
          }
        ],
        "numberOfBytes": "32"
      },
      "t_uint256": {
        "encoding": "inplace",
        "label": "uint256",
        "numberOfBytes": "32"
      }
    }
  }
}