{
  "_format": "hh-sol-artifact-1",
  "contractName": "Land",
  "sourceName": "contracts/Land.sol",
  "abi": [
    {
      "inputs": [
        {
          "internalType": "string",
          "name": "name",
          "type": "string"
        },
        {
          "internalType": "string",
          "name": "symbol",
          "type": "string"
        },
        {
          "internalType": "uint256",
          "name": "_maxSupply",
          "type": "uint256"
        },
        {
          "internalType": "contract CatsAndSoup",
          "name": "_catsAndSoup",
          "type": "address"
        }
      ],
      "stateMutability": "nonpayable",
      "type": "constructor"
    },
    {
      "inputs": [],
      "name": "ApprovalCallerNotOwnerNorApproved",
      "type": "error"
    },
    {
      "inputs": [],
      "name": "ApprovalQueryForNonexistentToken",
      "type": "error"
    },
    {
      "inputs": [],
      "name": "BalanceQueryForZeroAddress",
      "type": "error"
    },
    {
      "inputs": [],
      "name": "MintERC2309QuantityExceedsLimit",
      "type": "error"
    },
    {
      "inputs": [],
      "name": "MintToZeroAddress",
      "type": "error"
    },
    {
      "inputs": [],
      "name": "MintZeroQuantity",
      "type": "error"
    },
    {
      "inputs": [],
      "name": "OwnerQueryForNonexistentToken",
      "type": "error"
    },
    {
      "inputs": [],
      "name": "OwnershipNotInitializedForExtraData",
      "type": "error"
    },
    {
      "inputs": [],
      "name": "TransferCallerNotOwnerNorApproved",
      "type": "error"
    },
    {
      "inputs": [],
      "name": "TransferFromIncorrectOwner",
      "type": "error"
    },
    {
      "inputs": [],
      "name": "TransferToNonERC721ReceiverImplementer",
      "type": "error"
    },
    {
      "inputs": [],
      "name": "TransferToZeroAddress",
      "type": "error"
    },
    {
      "inputs": [],
      "name": "URIQueryForNonexistentToken",
      "type": "error"
    },
    {
      "anonymous": false,
      "inputs": [
        {
          "indexed": true,
          "internalType": "address",
          "name": "owner",
          "type": "address"
        },
        {
          "indexed": true,
          "internalType": "address",
          "name": "approved",
          "type": "address"
        },
        {
          "indexed": true,
          "internalType": "uint256",
          "name": "tokenId",
          "type": "uint256"
        }
      ],
      "name": "Approval",
      "type": "event"
    },
    {
      "anonymous": false,
      "inputs": [
        {
          "indexed": true,
          "internalType": "address",
          "name": "owner",
          "type": "address"
        },
        {
          "indexed": true,
          "internalType": "address",
          "name": "operator",
          "type": "address"
        },
        {
          "indexed": false,
          "internalType": "bool",
          "name": "approved",
          "type": "bool"
        }
      ],
      "name": "ApprovalForAll",
      "type": "event"
    },
    {
      "anonymous": false,
      "inputs": [
        {
          "indexed": true,
          "internalType": "uint256",
          "name": "fromTokenId",
          "type": "uint256"
        },
        {
          "indexed": false,
          "internalType": "uint256",
          "name": "toTokenId",
          "type": "uint256"
        },
        {
          "indexed": true,
          "internalType": "address",
          "name": "from",
          "type": "address"
        },
        {
          "indexed": true,
          "internalType": "address",
          "name": "to",
          "type": "address"
        }
      ],
      "name": "ConsecutiveTransfer",
      "type": "event"
    },
    {
      "anonymous": false,
      "inputs": [
        {
          "indexed": false,
          "internalType": "uint256",
          "name": "quantity",
          "type": "uint256"
        },
        {
          "indexed": false,
          "internalType": "address",
          "name": "initialOwner",
          "type": "address"
        }
      ],
      "name": "InitialMint",
      "type": "event"
    },
    {
      "anonymous": false,
      "inputs": [
        {
          "indexed": true,
          "internalType": "address",
          "name": "previousOwner",
          "type": "address"
        },
        {
          "indexed": true,
          "internalType": "address",
          "name": "newOwner",
          "type": "address"
        }
      ],
      "name": "OwnershipTransferred",
      "type": "event"
    },
    {
      "anonymous": false,
      "inputs": [
        {
          "indexed": true,
          "internalType": "address",
          "name": "from",
          "type": "address"
        },
        {
          "indexed": true,
          "internalType": "address",
          "name": "to",
          "type": "address"
        },
        {
          "indexed": true,
          "internalType": "uint256",
          "name": "tokenId",
          "type": "uint256"
        }
      ],
      "name": "Transfer",
      "type": "event"
    },
    {
      "inputs": [
        {
          "internalType": "address",
          "name": "to",
          "type": "address"
        },
        {
          "internalType": "uint256",
          "name": "tokenId",
          "type": "uint256"
        }
      ],
      "name": "approve",
      "outputs": [],
      "stateMutability": "payable",
      "type": "function"
    },
    {
      "inputs": [
        {
          "internalType": "uint256",
          "name": "_landId",
          "type": "uint256"
        },
        {
          "internalType": "uint256",
          "name": "_itemId",
          "type": "uint256"
        }
      ],
      "name": "assignItem",
      "outputs": [],
      "stateMutability": "nonpayable",
      "type": "function"
    },
    {
      "inputs": [
        {
          "internalType": "uint256",
          "name": "_landId",
          "type": "uint256"
        },
        {
          "internalType": "address",
          "name": "_userAddress",
          "type": "address"
        }
      ],
      "name": "assignPot",
      "outputs": [],
      "stateMutability": "nonpayable",
      "type": "function"
    },
    {
      "inputs": [
        {
          "internalType": "address",
          "name": "owner",
          "type": "address"
        }
      ],
      "name": "balanceOf",
      "outputs": [
        {
          "internalType": "uint256",
          "name": "",
          "type": "uint256"
        }
      ],
      "stateMutability": "view",
      "type": "function"
    },
    {
      "inputs": [
        {
          "internalType": "uint256",
          "name": "_landId",
          "type": "uint256"
        },
        {
          "internalType": "address",
          "name": "_userAddress",
          "type": "address"
        }
      ],
      "name": "buyLand",
      "outputs": [],
      "stateMutability": "nonpayable",
      "type": "function"
    },
    {
      "inputs": [],
      "name": "catsAndSoup",
      "outputs": [
        {
          "internalType": "contract CatsAndSoup",
          "name": "",
          "type": "address"
        }
      ],
      "stateMutability": "view",
      "type": "function"
    },
    {
      "inputs": [
        {
          "internalType": "uint256",
          "name": "tokenId",
          "type": "uint256"
        }
      ],
      "name": "getApproved",
      "outputs": [
        {
          "internalType": "address",
          "name": "",
          "type": "address"
        }
      ],
      "stateMutability": "view",
      "type": "function"
    },
    {
      "inputs": [
        {
          "internalType": "address",
          "name": "_address",
          "type": "address"
        }
      ],
      "name": "getAuth",
      "outputs": [
        {
          "internalType": "bool",
          "name": "",
          "type": "bool"
        }
      ],
      "stateMutability": "view",
      "type": "function"
    },
    {
      "inputs": [
        {
          "internalType": "uint256",
          "name": "_landId",
          "type": "uint256"
        }
      ],
      "name": "getLandType",
      "outputs": [
        {
          "internalType": "string",
          "name": "",
          "type": "string"
        }
      ],
      "stateMutability": "view",
      "type": "function"
    },
    {
      "inputs": [
        {
          "internalType": "uint256",
          "name": "_landId",
          "type": "uint256"
        }
      ],
      "name": "getOwner",
      "outputs": [
        {
          "internalType": "address",
          "name": "",
          "type": "address"
        }
      ],
      "stateMutability": "view",
      "type": "function"
    },
    {
      "inputs": [
        {
          "internalType": "address",
          "name": "_address",
          "type": "address"
        }
      ],
      "name": "getUser",
      "outputs": [
        {
          "internalType": "bool",
          "name": "",
          "type": "bool"
        }
      ],
      "stateMutability": "view",
      "type": "function"
    },
    {
      "inputs": [],
      "name": "initialBatchMint",
      "outputs": [],
      "stateMutability": "nonpayable",
      "type": "function"
    },
    {
      "inputs": [
        {
          "internalType": "address",
          "name": "owner",
          "type": "address"
        },
        {
          "internalType": "address",
          "name": "operator",
          "type": "address"
        }
      ],
      "name": "isApprovedForAll",
      "outputs": [
        {
          "internalType": "bool",
          "name": "",
          "type": "bool"
        }
      ],
      "stateMutability": "view",
      "type": "function"
    },
    {
      "inputs": [
        {
          "internalType": "uint256",
          "name": "",
          "type": "uint256"
        }
      ],
      "name": "landData",
      "outputs": [
        {
          "internalType": "string",
          "name": "landType",
          "type": "string"
        },
        {
          "internalType": "address",
          "name": "owner",
          "type": "address"
        },
        {
          "internalType": "uint256",
          "name": "positionX",
          "type": "uint256"
        },
        {
          "internalType": "uint256",
          "name": "positionY",
          "type": "uint256"
        },
        {
          "internalType": "uint256",
          "name": "sizeX",
          "type": "uint256"
        },
        {
          "internalType": "uint256",
          "name": "sizeY",
          "type": "uint256"
        }
      ],
      "stateMutability": "view",
      "type": "function"
    },
    {
      "inputs": [
        {
          "internalType": "uint256",
          "name": "",
          "type": "uint256"
        }
      ],
      "name": "landsArray",
      "outputs": [
        {
          "internalType": "string",
          "name": "landType",
          "type": "string"
        },
        {
          "internalType": "address",
          "name": "owner",
          "type": "address"
        },
        {
          "internalType": "uint256",
          "name": "positionX",
          "type": "uint256"
        },
        {
          "internalType": "uint256",
          "name": "positionY",
          "type": "uint256"
        },
        {
          "internalType": "uint256",
          "name": "sizeX",
          "type": "uint256"
        },
        {
          "internalType": "uint256",
          "name": "sizeY",
          "type": "uint256"
        }
      ],
      "stateMutability": "view",
      "type": "function"
    },
    {
      "inputs": [],
      "name": "marketplace",
      "outputs": [
        {
          "internalType": "address",
          "name": "",
          "type": "address"
        }
      ],
      "stateMutability": "view",
      "type": "function"
    },
    {
      "inputs": [],
      "name": "maxSupply",
      "outputs": [
        {
          "internalType": "uint256",
          "name": "",
          "type": "uint256"
        }
      ],
      "stateMutability": "view",
      "type": "function"
    },
    {
      "inputs": [],
      "name": "name",
      "outputs": [
        {
          "internalType": "string",
          "name": "",
          "type": "string"
        }
      ],
      "stateMutability": "view",
      "type": "function"
    },
    {
      "inputs": [],
      "name": "owner",
      "outputs": [
        {
          "internalType": "address",
          "name": "",
          "type": "address"
        }
      ],
      "stateMutability": "view",
      "type": "function"
    },
    {
      "inputs": [
        {
          "internalType": "uint256",
          "name": "tokenId",
          "type": "uint256"
        }
      ],
      "name": "ownerOf",
      "outputs": [
        {
          "internalType": "address",
          "name": "",
          "type": "address"
        }
      ],
      "stateMutability": "view",
      "type": "function"
    },
    {
      "inputs": [],
      "name": "pot",
      "outputs": [
        {
          "internalType": "contract Pot",
          "name": "",
          "type": "address"
        }
      ],
      "stateMutability": "view",
      "type": "function"
    },
    {
      "inputs": [
        {
          "internalType": "uint256",
          "name": "_landId",
          "type": "uint256"
        },
        {
          "internalType": "uint256",
          "name": "_itemId",
          "type": "uint256"
        }
      ],
      "name": "removeItem",
      "outputs": [],
      "stateMutability": "nonpayable",
      "type": "function"
    },
    {
      "inputs": [
        {
          "internalType": "uint256",
          "name": "_landId",
          "type": "uint256"
        }
      ],
      "name": "removePot",
      "outputs": [],
      "stateMutability": "nonpayable",
      "type": "function"
    },
    {
      "inputs": [],
      "name": "renounceOwnership",
      "outputs": [],
      "stateMutability": "nonpayable",
      "type": "function"
    },
    {
      "inputs": [
        {
          "internalType": "address",
          "name": "from",
          "type": "address"
        },
        {
          "internalType": "address",
          "name": "to",
          "type": "address"
        },
        {
          "internalType": "uint256",
          "name": "tokenId",
          "type": "uint256"
        }
      ],
      "name": "safeTransferFrom",
      "outputs": [],
      "stateMutability": "payable",
      "type": "function"
    },
    {
      "inputs": [
        {
          "internalType": "address",
          "name": "from",
          "type": "address"
        },
        {
          "internalType": "address",
          "name": "to",
          "type": "address"
        },
        {
          "internalType": "uint256",
          "name": "tokenId",
          "type": "uint256"
        },
        {
          "internalType": "bytes",
          "name": "_data",
          "type": "bytes"
        }
      ],
      "name": "safeTransferFrom",
      "outputs": [],
      "stateMutability": "payable",
      "type": "function"
    },
    {
      "inputs": [
        {
          "internalType": "address",
          "name": "operator",
          "type": "address"
        },
        {
          "internalType": "bool",
          "name": "approved",
          "type": "bool"
        }
      ],
      "name": "setApprovalForAll",
      "outputs": [],
      "stateMutability": "nonpayable",
      "type": "function"
    },
    {
      "inputs": [
        {
          "internalType": "address",
          "name": "_marketplace",
          "type": "address"
        }
      ],
      "name": "setMarketplace",
      "outputs": [],
      "stateMutability": "nonpayable",
      "type": "function"
    },
    {
      "inputs": [
        {
          "internalType": "contract Pot",
          "name": "_pot",
          "type": "address"
        }
      ],
      "name": "setPotContract",
      "outputs": [],
      "stateMutability": "nonpayable",
      "type": "function"
    },
    {
      "inputs": [
        {
          "internalType": "contract Vault",
          "name": "_vault",
          "type": "address"
        }
      ],
      "name": "setVaultContract",
      "outputs": [],
      "stateMutability": "nonpayable",
      "type": "function"
    },
    {
      "inputs": [
        {
          "internalType": "bytes4",
          "name": "interfaceId",
          "type": "bytes4"
        }
      ],
      "name": "supportsInterface",
      "outputs": [
        {
          "internalType": "bool",
          "name": "",
          "type": "bool"
        }
      ],
      "stateMutability": "view",
      "type": "function"
    },
    {
      "inputs": [],
      "name": "symbol",
      "outputs": [
        {
          "internalType": "string",
          "name": "",
          "type": "string"
        }
      ],
      "stateMutability": "view",
      "type": "function"
    },
    {
      "inputs": [
        {
          "internalType": "uint256",
          "name": "tokenId",
          "type": "uint256"
        }
      ],
      "name": "tokenURI",
      "outputs": [
        {
          "internalType": "string",
          "name": "",
          "type": "string"
        }
      ],
      "stateMutability": "view",
      "type": "function"
    },
    {
      "inputs": [],
      "name": "totalSupply",
      "outputs": [
        {
          "internalType": "uint256",
          "name": "",
          "type": "uint256"
        }
      ],
      "stateMutability": "view",
      "type": "function"
    },
    {
      "inputs": [
        {
          "internalType": "address",
          "name": "from",
          "type": "address"
        },
        {
          "internalType": "address",
          "name": "to",
          "type": "address"
        },
        {
          "internalType": "uint256",
          "name": "tokenId",
          "type": "uint256"
        }
      ],
      "name": "transferFrom",
      "outputs": [],
      "stateMutability": "payable",
      "type": "function"
    },
    {
      "inputs": [
        {
          "internalType": "address",
          "name": "newOwner",
          "type": "address"
        }
      ],
      "name": "transferOwnership",
      "outputs": [],
      "stateMutability": "nonpayable",
      "type": "function"
    },
    {
      "inputs": [],
      "name": "vault",
      "outputs": [
        {
          "internalType": "contract Vault",
          "name": "",
          "type": "address"
        }
      ],
      "stateMutability": "view",
      "type": "function"
    }
  ],
  "bytecode": "0x608060405260405160200162000015906200053c565b604051602081830303815290604052805190602001206012556040516020016200003f90620005a3565b6040516020818303038152906040528051906020012060135560405160200162000069906200060a565b60405160208183030381529060405280519060200120601455604051602001620000939062000671565b60405160208183030381529060405280519060200120601555604051602001620000bd90620006d8565b60405160208183030381529060405280519060200120601655348015620000e357600080fd5b506040516200553738038062005537833981810160405281019062000109919062000940565b838381600290805190602001906200012392919062000431565b5080600390805190602001906200013c92919062000431565b506200014d6200026d60201b60201c565b60008190555050506001600860003373ffffffffffffffffffffffffffffffffffffffff1673ffffffffffffffffffffffffffffffffffffffff16815260200190815260200160002060006101000a81548160ff021916908315150217905550620001cd620001c16200027260201b60201c565b6200027a60201b60201c565b81600b8190555080600e60006101000a81548173ffffffffffffffffffffffffffffffffffffffff021916908373ffffffffffffffffffffffffffffffffffffffff1602179055506200024d600e60009054906101000a900473ffffffffffffffffffffffffffffffffffffffff166200034060201b62002bf41760201c565b62000263336200034060201b62002bf41760201c565b5050505062000ad7565b600090565b600033905090565b6000600a60009054906101000a900473ffffffffffffffffffffffffffffffffffffffff16905081600a60006101000a81548173ffffffffffffffffffffffffffffffffffffffff021916908373ffffffffffffffffffffffffffffffffffffffff1602179055508173ffffffffffffffffffffffffffffffffffffffff168173ffffffffffffffffffffffffffffffffffffffff167f8be0079c531659141344cd1fd0a4f28419497f9722a3daafe3b4186f6b6457e060405160405180910390a35050565b60011515600860003373ffffffffffffffffffffffffffffffffffffffff1673ffffffffffffffffffffffffffffffffffffffff16815260200190815260200160002060009054906101000a900460ff16151514620003d6576040517f08c379a0000000000000000000000000000000000000000000000000000000008152600401620003cd9062000a51565b60405180910390fd5b6001600860008373ffffffffffffffffffffffffffffffffffffffff1673ffffffffffffffffffffffffffffffffffffffff16815260200190815260200160002060006101000a81548160ff02191690831515021790555050565b8280546200043f9062000aa2565b90600052602060002090601f016020900481019282620004635760008555620004af565b82601f106200047e57805160ff1916838001178555620004af565b82800160010185558215620004af579182015b82811115620004ae57825182559160200191906001019062000491565b5b509050620004be9190620004c2565b5090565b5b80821115620004dd576000816000905550600101620004c3565b5090565b600081905092915050565b7f456d707479000000000000000000000000000000000000000000000000000000600082015250565b600062000524600583620004e1565b91506200053182620004ec565b600582019050919050565b6000620005498262000515565b9150819050919050565b7f686173506f740000000000000000000000000000000000000000000000000000600082015250565b60006200058b600683620004e1565b9150620005988262000553565b600682019050919050565b6000620005b0826200057c565b9150819050919050565b7f686173536f757000000000000000000000000000000000000000000000000000600082015250565b6000620005f2600783620004e1565b9150620005ff82620005ba565b600782019050919050565b60006200061782620005e3565b9150819050919050565b7f6861734361740000000000000000000000000000000000000000000000000000600082015250565b600062000659600683620004e1565b9150620006668262000621565b600682019050919050565b60006200067e826200064a565b9150819050919050565b7f50726f6475637469766500000000000000000000000000000000000000000000600082015250565b6000620006c0600a83620004e1565b9150620006cd8262000688565b600a82019050919050565b6000620006e582620006b1565b9150819050919050565b6000604051905090565b600080fd5b600080fd5b600080fd5b600080fd5b6000601f19601f8301169050919050565b7f4e487b7100000000000000000000000000000000000000000000000000000000600052604160045260246000fd5b62000758826200070d565b810181811067ffffffffffffffff821117156200077a57620007796200071e565b5b80604052505050565b60006200078f620006ef565b90506200079d82826200074d565b919050565b600067ffffffffffffffff821115620007c057620007bf6200071e565b5b620007cb826200070d565b9050602081019050919050565b60005b83811015620007f8578082015181840152602081019050620007db565b8381111562000808576000848401525b50505050565b6000620008256200081f84620007a2565b62000783565b90508281526020810184848401111562000844576200084362000708565b5b62000851848285620007d8565b509392505050565b600082601f83011262000871576200087062000703565b5b8151620008838482602086016200080e565b91505092915050565b6000819050919050565b620008a1816200088c565b8114620008ad57600080fd5b50565b600081519050620008c18162000896565b92915050565b600073ffffffffffffffffffffffffffffffffffffffff82169050919050565b6000620008f482620008c7565b9050919050565b60006200090882620008e7565b9050919050565b6200091a81620008fb565b81146200092657600080fd5b50565b6000815190506200093a816200090f565b92915050565b600080600080608085870312156200095d576200095c620006f9565b5b600085015167ffffffffffffffff8111156200097e576200097d620006fe565b5b6200098c8782880162000859565b945050602085015167ffffffffffffffff811115620009b057620009af620006fe565b5b620009be8782880162000859565b9350506040620009d187828801620008b0565b9250506060620009e48782880162000929565b91505092959194509250565b600082825260208201905092915050565b7f417574683a20556e617574686f72697a65640000000000000000000000000000600082015250565b600062000a39601283620009f0565b915062000a468262000a01565b602082019050919050565b6000602082019050818103600083015262000a6c8162000a2a565b9050919050565b7f4e487b7100000000000000000000000000000000000000000000000000000000600052602260045260246000fd5b6000600282049050600182168062000abb57607f821691505b60208210810362000ad15762000ad062000a73565b5b50919050565b614a508062000ae76000396000f3fe60806040526004361061021a5760003560e01c8063870fc34711610123578063b95aa42f116100ab578063d5abeb011161006f578063d5abeb01146107c2578063e985e9c5146107ed578063ef6583641461082a578063f2fde38b1461086c578063fbfa77cf146108955761021a565b8063b95aa42f146106b4578063c1ab822e146106f6578063c41a360a1461071f578063c87b56dd1461075c578063cc476780146107995761021a565b8063a22cb465116100f2578063a22cb46514610602578063a885a24e1461062b578063abc8c7af14610656578063b16f100114610681578063b88d4fde146106985761021a565b8063870fc3471461055a5780638da5cb5b1461058357806395d89b41146105ae57806396f4ada6146105d95761021a565b80636352211e116101a65780636f77926b116101755780636f77926b1461047757806370a08231146104b4578063715018a6146104f157806373ad6c2d146105085780637ed11e62146105315761021a565b80636352211e146103ab5780636634fcb5146103e8578063696b5c3f146104115780636e4e3e2d1461043a5761021a565b806318160ddd116101ed57806318160ddd146102e057806323b872dd1461030b578063410cb3f81461032757806342842e0e146103645780634ba2363a146103805761021a565b806301ffc9a71461021f57806306fdde031461025c578063081812fc14610287578063095ea7b3146102c4575b600080fd5b34801561022b57600080fd5b50610246600480360381019061024191906135b2565b6108c0565b60405161025391906135fa565b60405180910390f35b34801561026857600080fd5b50610271610952565b60405161027e91906136ae565b60405180910390f35b34801561029357600080fd5b506102ae60048036038101906102a99190613706565b6109e4565b6040516102bb9190613774565b60405180910390f35b6102de60048036038101906102d991906137bb565b610a63565b005b3480156102ec57600080fd5b506102f5610ba7565b604051610302919061380a565b60405180910390f35b61032560048036038101906103209190613825565b610bbe565b005b34801561033357600080fd5b5061034e60048036038101906103499190613706565b610ee0565b60405161035b91906136ae565b60405180910390f35b61037e60048036038101906103799190613825565b610f88565b005b34801561038c57600080fd5b50610395610fa8565b6040516103a291906138d7565b60405180910390f35b3480156103b757600080fd5b506103d260048036038101906103cd9190613706565b610fce565b6040516103df9190613774565b60405180910390f35b3480156103f457600080fd5b5061040f600480360381019061040a9190613930565b610fe0565b005b34801561041d57600080fd5b506104386004803603810190610433919061395d565b6110c6565b005b34801561044657600080fd5b50610461600480360381019061045c919061399d565b611332565b60405161046e91906135fa565b60405180910390f35b34801561048357600080fd5b5061049e6004803603810190610499919061399d565b611388565b6040516104ab91906135fa565b60405180910390f35b3480156104c057600080fd5b506104db60048036038101906104d6919061399d565b6113de565b6040516104e8919061380a565b60405180910390f35b3480156104fd57600080fd5b50610506611496565b005b34801561051457600080fd5b5061052f600480360381019061052a919061399d565b6114aa565b005b34801561053d57600080fd5b506105586004803603810190610553919061395d565b611590565b005b34801561056657600080fd5b50610581600480360381019061057c91906139ca565b6117b5565b005b34801561058f57600080fd5b50610598611ae4565b6040516105a59190613774565b60405180910390f35b3480156105ba57600080fd5b506105c3611b0e565b6040516105d091906136ae565b60405180910390f35b3480156105e557600080fd5b5061060060048036038101906105fb9190613a48565b611ba0565b005b34801561060e57600080fd5b5061062960048036038101906106249190613aa1565b611c86565b005b34801561063757600080fd5b50610640611d91565b60405161064d9190613b02565b60405180910390f35b34801561066257600080fd5b5061066b611db7565b6040516106789190613774565b60405180910390f35b34801561068d57600080fd5b50610696611ddd565b005b6106b260048036038101906106ad9190613c52565b6120e7565b005b3480156106c057600080fd5b506106db60048036038101906106d69190613706565b61215a565b6040516106ed96959493929190613cd5565b60405180910390f35b34801561070257600080fd5b5061071d600480360381019061071891906139ca565b61223e565b005b34801561072b57600080fd5b5061074660048036038101906107419190613706565b612753565b6040516107539190613774565b60405180910390f35b34801561076857600080fd5b50610783600480360381019061077e9190613706565b612793565b60405161079091906136ae565b60405180910390f35b3480156107a557600080fd5b506107c060048036038101906107bb9190613706565b612831565b005b3480156107ce57600080fd5b506107d76129bd565b6040516107e4919061380a565b60405180910390f35b3480156107f957600080fd5b50610814600480360381019061080f9190613d3d565b6129c3565b60405161082191906135fa565b60405180910390f35b34801561083657600080fd5b50610851600480360381019061084c9190613706565b612a57565b60405161086396959493929190613cd5565b60405180910390f35b34801561087857600080fd5b50610893600480360381019061088e919061399d565b612b4b565b005b3480156108a157600080fd5b506108aa612bce565b6040516108b79190613d9e565b60405180910390f35b60006301ffc9a760e01b827bffffffffffffffffffffffffffffffffffffffffffffffffffffffff1916148061091b57506380ac58cd60e01b827bffffffffffffffffffffffffffffffffffffffffffffffffffffffff1916145b8061094b5750635b5e139f60e01b827bffffffffffffffffffffffffffffffffffffffffffffffffffffffff1916145b9050919050565b60606002805461096190613de8565b80601f016020809104026020016040519081016040528092919081815260200182805461098d90613de8565b80156109da5780601f106109af576101008083540402835291602001916109da565b820191906000526020600020905b8154815290600101906020018083116109bd57829003601f168201915b5050505050905090565b60006109ef82612ce2565b610a25576040517fcf4700e400000000000000000000000000000000000000000000000000000000815260040160405180910390fd5b6006600083815260200190815260200160002060000160009054906101000a900473ffffffffffffffffffffffffffffffffffffffff169050919050565b6000610a6e82610fce565b90508073ffffffffffffffffffffffffffffffffffffffff16610a8f612d41565b73ffffffffffffffffffffffffffffffffffffffff1614610af257610abb81610ab6612d41565b6129c3565b610af1576040517fcfb3b94200000000000000000000000000000000000000000000000000000000815260040160405180910390fd5b5b826006600084815260200190815260200160002060000160006101000a81548173ffffffffffffffffffffffffffffffffffffffff021916908373ffffffffffffffffffffffffffffffffffffffff160217905550818373ffffffffffffffffffffffffffffffffffffffff168273ffffffffffffffffffffffffffffffffffffffff167f8c5be1e5ebec7d5bd14f71427d1e84f3dd0314c0f7b2291e5b200ac8c7c3b92560405160405180910390a4505050565b6000610bb1612d49565b6001546000540303905090565b6000610bc982612d4e565b90508373ffffffffffffffffffffffffffffffffffffffff168173ffffffffffffffffffffffffffffffffffffffff1614610c30576040517fa114810000000000000000000000000000000000000000000000000000000000815260040160405180910390fd5b600080610c3c84612e1a565b91509150610c528187610c4d612d41565b612e41565b610c9e57610c6786610c62612d41565b6129c3565b610c9d576040517f59c896be00000000000000000000000000000000000000000000000000000000815260040160405180910390fd5b5b600073ffffffffffffffffffffffffffffffffffffffff168573ffffffffffffffffffffffffffffffffffffffff1603610d04576040517fea553b3400000000000000000000000000000000000000000000000000000000815260040160405180910390fd5b610d118686866001612e85565b8015610d1c57600082555b600560008773ffffffffffffffffffffffffffffffffffffffff1673ffffffffffffffffffffffffffffffffffffffff168152602001908152602001600020600081546001900391905081905550600560008673ffffffffffffffffffffffffffffffffffffffff1673ffffffffffffffffffffffffffffffffffffffff1681526020019081526020016000206000815460010191905081905550610dea85610dc6888887612e8b565b7c020000000000000000000000000000000000000000000000000000000017612eb3565b600460008681526020019081526020016000208190555060007c0200000000000000000000000000000000000000000000000000000000841603610e705760006001850190506000600460008381526020019081526020016000205403610e6e576000548114610e6d578360046000838152602001908152602001600020819055505b5b505b838573ffffffffffffffffffffffffffffffffffffffff168773ffffffffffffffffffffffffffffffffffffffff167fddf252ad1be2c89b69c2b068fc378daa952ba7f163c4a11628f55a4df523b3ef60405160405180910390a4610ed88686866001612ede565b505050505050565b6060600d60008381526020019081526020016000206000018054610f0390613de8565b80601f0160208091040260200160405190810160405280929190818152602001828054610f2f90613de8565b8015610f7c5780601f10610f5157610100808354040283529160200191610f7c565b820191906000526020600020905b815481529060010190602001808311610f5f57829003601f168201915b50505050509050919050565b610fa3838383604051806020016040528060008152506120e7565b505050565b600f60009054906101000a900473ffffffffffffffffffffffffffffffffffffffff1681565b6000610fd982612d4e565b9050919050565b610fe8612ee4565b600073ffffffffffffffffffffffffffffffffffffffff168173ffffffffffffffffffffffffffffffffffffffff1603611057576040517f08c379a000000000000000000000000000000000000000000000000000000000815260040161104e90613e65565b60405180910390fd5b80600f60006101000a81548173ffffffffffffffffffffffffffffffffffffffff021916908373ffffffffffffffffffffffffffffffffffffffff1602179055506110c3600f60009054906101000a900473ffffffffffffffffffffffffffffffffffffffff16612bf4565b50565b8073ffffffffffffffffffffffffffffffffffffffff16600d600084815260200190815260200160002060010160009054906101000a900473ffffffffffffffffffffffffffffffffffffffff1673ffffffffffffffffffffffffffffffffffffffff161461116a576040517f08c379a000000000000000000000000000000000000000000000000000000000815260040161116190613ed1565b60405180910390fd5b6001600f60009054906101000a900473ffffffffffffffffffffffffffffffffffffffff1673ffffffffffffffffffffffffffffffffffffffff166370a08231836040518263ffffffff1660e01b81526004016111c79190613774565b602060405180830381865afa1580156111e4573d6000803e3d6000fd5b505050506040513d601f19601f820116820180604052508101906112089190613f06565b1015611249576040517f08c379a000000000000000000000000000000000000000000000000000000000815260040161124090613f7f565b60405180910390fd5b6000600d6000848152602001908152602001600020600001604051602001611271919061403e565b60405160208183030381529060405280519060200120905060125481146112cd576040517f08c379a00000000000000000000000000000000000000000000000000000000081526004016112c4906140a1565b60405180910390fd5b6040518060400160405280600681526020017f686173506f740000000000000000000000000000000000000000000000000000815250600d6000858152602001908152602001600020600001908051906020019061132c929190613416565b50505050565b6000600860008373ffffffffffffffffffffffffffffffffffffffff1673ffffffffffffffffffffffffffffffffffffffff16815260200190815260200160002060009054906101000a900460ff169050919050565b6000600960008373ffffffffffffffffffffffffffffffffffffffff1673ffffffffffffffffffffffffffffffffffffffff16815260200190815260200160002060009054906101000a900460ff169050919050565b60008073ffffffffffffffffffffffffffffffffffffffff168273ffffffffffffffffffffffffffffffffffffffff1603611445576040517f8f4eb60400000000000000000000000000000000000000000000000000000000815260040160405180910390fd5b67ffffffffffffffff600560008473ffffffffffffffffffffffffffffffffffffffff1673ffffffffffffffffffffffffffffffffffffffff16815260200190815260200160002054169050919050565b61149e612ee4565b6114a86000612f62565b565b6114b2612ee4565b600073ffffffffffffffffffffffffffffffffffffffff168173ffffffffffffffffffffffffffffffffffffffff1603611521576040517f08c379a000000000000000000000000000000000000000000000000000000000815260040161151890614133565b60405180910390fd5b80601160006101000a81548173ffffffffffffffffffffffffffffffffffffffff021916908373ffffffffffffffffffffffffffffffffffffffff16021790555061158d601160009054906101000a900473ffffffffffffffffffffffffffffffffffffffff16612bf4565b50565b600b5482106115d4576040517f08c379a00000000000000000000000000000000000000000000000000000000081526004016115cb9061419f565b60405180910390fd5b601160009054906101000a900473ffffffffffffffffffffffffffffffffffffffff1673ffffffffffffffffffffffffffffffffffffffff16600d600084815260200190815260200160002060010160009054906101000a900473ffffffffffffffffffffffffffffffffffffffff1673ffffffffffffffffffffffffffffffffffffffff161461169a576040517f08c379a000000000000000000000000000000000000000000000000000000000815260040161169190614231565b60405180910390fd5b600860003373ffffffffffffffffffffffffffffffffffffffff1673ffffffffffffffffffffffffffffffffffffffff16815260200190815260200160002060009054906101000a900460ff16611726576040517f08c379a000000000000000000000000000000000000000000000000000000000815260040161171d9061429d565b60405180910390fd5b80600d600084815260200190815260200160002060010160006101000a81548173ffffffffffffffffffffffffffffffffffffffff021916908373ffffffffffffffffffffffffffffffffffffffff16021790555061178481613028565b6117b1601160009054906101000a900473ffffffffffffffffffffffffffffffffffffffff168284610f88565b5050565b600d600083815260200190815260200160002060010160009054906101000a900473ffffffffffffffffffffffffffffffffffffffff1673ffffffffffffffffffffffffffffffffffffffff163373ffffffffffffffffffffffffffffffffffffffff1614611859576040517f08c379a000000000000000000000000000000000000000000000000000000000815260040161185090614309565b60405180910390fd5b6002811061189c576040517f08c379a000000000000000000000000000000000000000000000000000000000815260040161189390614375565b60405180910390fd5b6000600d60008481526020019081526020016000206000016040516020016118c4919061403e565b60405160208183030381529060405280519060200120905060135481141580156118f057506012548114155b61192f576040517f08c379a0000000000000000000000000000000000000000000000000000000008152600401611926906143e1565b60405180910390fd5b60008203611a075760155481036119a5576040518060400160405280600681526020017f686173506f740000000000000000000000000000000000000000000000000000815250600d6000858152602001908152602001600020600001908051906020019061199f929190613416565b50611a06565b6040518060400160405280600781526020017f686173536f757000000000000000000000000000000000000000000000000000815250600d60008581526020019081526020016000206000019080519060200190611a04929190613416565b505b5b60018203611adf576014548103611a7d576040518060400160405280600681526020017f686173506f740000000000000000000000000000000000000000000000000000815250600d60008581526020019081526020016000206000019080519060200190611a77929190613416565b50611ade565b6040518060400160405280600681526020017f6861734361740000000000000000000000000000000000000000000000000000815250600d60008581526020019081526020016000206000019080519060200190611adc929190613416565b505b5b505050565b6000600a60009054906101000a900473ffffffffffffffffffffffffffffffffffffffff16905090565b606060038054611b1d90613de8565b80601f0160208091040260200160405190810160405280929190818152602001828054611b4990613de8565b8015611b965780601f10611b6b57610100808354040283529160200191611b96565b820191906000526020600020905b815481529060010190602001808311611b7957829003601f168201915b5050505050905090565b611ba8612ee4565b600073ffffffffffffffffffffffffffffffffffffffff168173ffffffffffffffffffffffffffffffffffffffff1603611c17576040517f08c379a0000000000000000000000000000000000000000000000000000000008152600401611c0e90613e65565b60405180910390fd5b80601060006101000a81548173ffffffffffffffffffffffffffffffffffffffff021916908373ffffffffffffffffffffffffffffffffffffffff160217905550611c83601060009054906101000a900473ffffffffffffffffffffffffffffffffffffffff16612bf4565b50565b8060076000611c93612d41565b73ffffffffffffffffffffffffffffffffffffffff1673ffffffffffffffffffffffffffffffffffffffff16815260200190815260200160002060008473ffffffffffffffffffffffffffffffffffffffff1673ffffffffffffffffffffffffffffffffffffffff16815260200190815260200160002060006101000a81548160ff0219169083151502179055508173ffffffffffffffffffffffffffffffffffffffff16611d40612d41565b73ffffffffffffffffffffffffffffffffffffffff167f17307eab39ab6107e8899845ad3d59bd9653f200f220920489ca2b5937696c3183604051611d8591906135fa565b60405180910390a35050565b600e60009054906101000a900473ffffffffffffffffffffffffffffffffffffffff1681565b601160009054906101000a900473ffffffffffffffffffffffffffffffffffffffff1681565b600860003373ffffffffffffffffffffffffffffffffffffffff1673ffffffffffffffffffffffffffffffffffffffff16815260200190815260200160002060009054906101000a900460ff16611e69576040517f08c379a0000000000000000000000000000000000000000000000000000000008152600401611e609061429d565b60405180910390fd5b60005b600b54811015612059576000600d600083815260200190815260200160002090506040518060400160405280600581526020017f456d707479000000000000000000000000000000000000000000000000000000815250816000019080519060200190611eda929190613416565b50601160009054906101000a900473ffffffffffffffffffffffffffffffffffffffff168160010160006101000a81548173ffffffffffffffffffffffffffffffffffffffff021916908373ffffffffffffffffffffffffffffffffffffffff1602179055506000816002018190555060008160030181905550600a8160040181905550600a8160050181905550600c8190806001815401808255809150506001900390600052602060002090600602016000909190919091506000820181600001908054611fa890613de8565b611fb392919061349c565b506001820160009054906101000a900473ffffffffffffffffffffffffffffffffffffffff168160010160006101000a81548173ffffffffffffffffffffffffffffffffffffffff021916908373ffffffffffffffffffffffffffffffffffffffff16021790555060028201548160020155600382015481600301556004820154816004015560058201548160050155505050808061205190614430565b915050611e6c565b507f63b23b66bc824efed77dc9b92432bb50dd8b566121136efb9085fa77cdb84a21600b54601160009054906101000a900473ffffffffffffffffffffffffffffffffffffffff166040516120af929190614478565b60405180910390a16120e5601160009054906101000a900473ffffffffffffffffffffffffffffffffffffffff16600b54613083565b565b6120f2848484610bbe565b60008373ffffffffffffffffffffffffffffffffffffffff163b146121545761211d8484848461323e565b612153576040517fd1a57ed600000000000000000000000000000000000000000000000000000000815260040160405180910390fd5b5b50505050565b600d60205280600052604060002060009150905080600001805461217d90613de8565b80601f01602080910402602001604051908101604052809291908181526020018280546121a990613de8565b80156121f65780601f106121cb576101008083540402835291602001916121f6565b820191906000526020600020905b8154815290600101906020018083116121d957829003601f168201915b5050505050908060010160009054906101000a900473ffffffffffffffffffffffffffffffffffffffff16908060020154908060030154908060040154908060050154905086565b3373ffffffffffffffffffffffffffffffffffffffff16600d600084815260200190815260200160002060010160009054906101000a900473ffffffffffffffffffffffffffffffffffffffff1673ffffffffffffffffffffffffffffffffffffffff16146122e2576040517f08c379a00000000000000000000000000000000000000000000000000000000081526004016122d990614309565b60405180910390fd5b60028110612325576040517f08c379a000000000000000000000000000000000000000000000000000000000815260040161231c90614375565b60405180910390fd5b6001600e60009054906101000a900473ffffffffffffffffffffffffffffffffffffffff1673ffffffffffffffffffffffffffffffffffffffff1662fdd58e33846040518363ffffffff1660e01b81526004016123839291906144a1565b602060405180830381865afa1580156123a0573d6000803e3d6000fd5b505050506040513d601f19601f820116820180604052508101906123c49190613f06565b1015612405576040517f08c379a00000000000000000000000000000000000000000000000000000000081526004016123fc9061453c565b60405180910390fd5b6000600d600084815260200190815260200160002060000160405160200161242d919061403e565b6040516020818303038152906040528051906020012090506012548103612489576040517f08c379a0000000000000000000000000000000000000000000000000000000008152600401612480906145a8565b60405180910390fd5b60165481036124cd576040517f08c379a00000000000000000000000000000000000000000000000000000000081526004016124c490614614565b60405180910390fd5b6000820361251a576015548103612519576040517f08c379a000000000000000000000000000000000000000000000000000000000815260040161251090614680565b60405180910390fd5b5b60018203612567576014548103612566576040517f08c379a000000000000000000000000000000000000000000000000000000000815260040161255d906146ec565b60405180910390fd5b5b601354811480156125785750600082145b156125e2576040518060400160405280600681526020017f6861734361740000000000000000000000000000000000000000000000000000815250600d600085815260200190815260200160002060000190805190602001906125dc929190613416565b5061274e565b601354811480156125f35750600182145b1561265d576040518060400160405280600781526020017f686173536f757000000000000000000000000000000000000000000000000000815250600d60008581526020019081526020016000206000019080519060200190612657929190613416565b5061274d565b6040518060400160405280600a81526020017f50726f6475637469766500000000000000000000000000000000000000000000815250600d600085815260200190815260200160002060000190805190602001906126bc929190613416565b50601060009054906101000a900473ffffffffffffffffffffffffffffffffffffffff1673ffffffffffffffffffffffffffffffffffffffff1663154856eb84336040518363ffffffff1660e01b815260040161271a929190614478565b600060405180830381600087803b15801561273457600080fd5b505af1158015612748573d6000803e3d6000fd5b505050505b5b505050565b6000600d600083815260200190815260200160002060010160009054906101000a900473ffffffffffffffffffffffffffffffffffffffff169050919050565b606061279e82612ce2565b6127d4576040517fa14c4b5000000000000000000000000000000000000000000000000000000000815260040160405180910390fd5b60006127de61338e565b905060008151036127fe5760405180602001604052806000815250612829565b80612808846133a5565b60405160200161281992919061473d565b6040516020818303038152906040525b915050919050565b600d600082815260200190815260200160002060010160009054906101000a900473ffffffffffffffffffffffffffffffffffffffff1673ffffffffffffffffffffffffffffffffffffffff163373ffffffffffffffffffffffffffffffffffffffff16146128d5576040517f08c379a00000000000000000000000000000000000000000000000000000000081526004016128cc90614309565b60405180910390fd5b6000600d60008381526020019081526020016000206000016040516020016128fd919061403e565b6040516020818303038152906040528051906020012090506013548114612959576040517f08c379a0000000000000000000000000000000000000000000000000000000008152600401612950906147ad565b60405180910390fd5b6040518060400160405280600581526020017f456d707479000000000000000000000000000000000000000000000000000000815250600d600084815260200190815260200160002060000190805190602001906129b8929190613416565b505050565b600b5481565b6000600760008473ffffffffffffffffffffffffffffffffffffffff1673ffffffffffffffffffffffffffffffffffffffff16815260200190815260200160002060008373ffffffffffffffffffffffffffffffffffffffff1673ffffffffffffffffffffffffffffffffffffffff16815260200190815260200160002060009054906101000a900460ff16905092915050565b600c8181548110612a6757600080fd5b9060005260206000209060060201600091509050806000018054612a8a90613de8565b80601f0160208091040260200160405190810160405280929190818152602001828054612ab690613de8565b8015612b035780601f10612ad857610100808354040283529160200191612b03565b820191906000526020600020905b815481529060010190602001808311612ae657829003601f168201915b5050505050908060010160009054906101000a900473ffffffffffffffffffffffffffffffffffffffff16908060020154908060030154908060040154908060050154905086565b612b53612ee4565b600073ffffffffffffffffffffffffffffffffffffffff168173ffffffffffffffffffffffffffffffffffffffff1603612bc2576040517f08c379a0000000000000000000000000000000000000000000000000000000008152600401612bb99061483f565b60405180910390fd5b612bcb81612f62565b50565b601060009054906101000a900473ffffffffffffffffffffffffffffffffffffffff1681565b60011515600860003373ffffffffffffffffffffffffffffffffffffffff1673ffffffffffffffffffffffffffffffffffffffff16815260200190815260200160002060009054906101000a900460ff16151514612c87576040517f08c379a0000000000000000000000000000000000000000000000000000000008152600401612c7e906148ab565b60405180910390fd5b6001600860008373ffffffffffffffffffffffffffffffffffffffff1673ffffffffffffffffffffffffffffffffffffffff16815260200190815260200160002060006101000a81548160ff02191690831515021790555050565b600081612ced612d49565b11158015612cfc575060005482105b8015612d3a575060007c0100000000000000000000000000000000000000000000000000000000600460008581526020019081526020016000205416145b9050919050565b600033905090565b600090565b60008082905080612d5d612d49565b11612de357600054811015612de25760006004600083815260200190815260200160002054905060007c0100000000000000000000000000000000000000000000000000000000821603612de0575b60008103612dd6576004600083600190039350838152602001908152602001600020549050612dac565b8092505050612e15565b505b5b6040517fdf2d9b4200000000000000000000000000000000000000000000000000000000815260040160405180910390fd5b919050565b60008060006006600085815260200190815260200160002090508092508254915050915091565b600073ffffffffffffffffffffffffffffffffffffffff8316925073ffffffffffffffffffffffffffffffffffffffff821691508382148383141790509392505050565b50505050565b60008060e883901c905060e8612ea28686846133f5565b62ffffff16901b9150509392505050565b600073ffffffffffffffffffffffffffffffffffffffff83169250814260a01b178317905092915050565b50505050565b612eec6133fe565b73ffffffffffffffffffffffffffffffffffffffff16612f0a611ae4565b73ffffffffffffffffffffffffffffffffffffffff1614612f60576040517f08c379a0000000000000000000000000000000000000000000000000000000008152600401612f5790614917565b60405180910390fd5b565b6000600a60009054906101000a900473ffffffffffffffffffffffffffffffffffffffff16905081600a60006101000a81548173ffffffffffffffffffffffffffffffffffffffff021916908373ffffffffffffffffffffffffffffffffffffffff1602179055508173ffffffffffffffffffffffffffffffffffffffff168173ffffffffffffffffffffffffffffffffffffffff167f8be0079c531659141344cd1fd0a4f28419497f9722a3daafe3b4186f6b6457e060405160405180910390a35050565b6001600960008373ffffffffffffffffffffffffffffffffffffffff1673ffffffffffffffffffffffffffffffffffffffff16815260200190815260200160002060006101000a81548160ff02191690831515021790555050565b600080549050600082036130c3576040517fb562e8dd00000000000000000000000000000000000000000000000000000000815260040160405180910390fd5b6130d06000848385612e85565b600160406001901b178202600560008573ffffffffffffffffffffffffffffffffffffffff1673ffffffffffffffffffffffffffffffffffffffff16815260200190815260200160002060008282540192505081905550613147836131386000866000612e8b565b61314185613406565b17612eb3565b6004600083815260200190815260200160002081905550600080838301905073ffffffffffffffffffffffffffffffffffffffff85169150828260007fddf252ad1be2c89b69c2b068fc378daa952ba7f163c4a11628f55a4df523b3ef600080a4600183015b8181146131e857808360007fddf252ad1be2c89b69c2b068fc378daa952ba7f163c4a11628f55a4df523b3ef600080a46001810190506131ad565b5060008203613223576040517f2e07630000000000000000000000000000000000000000000000000000000000815260040160405180910390fd5b8060008190555050506132396000848385612ede565b505050565b60008373ffffffffffffffffffffffffffffffffffffffff1663150b7a02613264612d41565b8786866040518563ffffffff1660e01b8152600401613286949392919061498c565b6020604051808303816000875af19250505080156132c257506040513d601f19601f820116820180604052508101906132bf91906149ed565b60015b61333b573d80600081146132f2576040519150601f19603f3d011682016040523d82523d6000602084013e6132f7565b606091505b506000815103613333576040517fd1a57ed600000000000000000000000000000000000000000000000000000000815260040160405180910390fd5b805181602001fd5b63150b7a0260e01b7bffffffffffffffffffffffffffffffffffffffffffffffffffffffff1916817bffffffffffffffffffffffffffffffffffffffffffffffffffffffff191614915050949350505050565b606060405180602001604052806000815250905090565b606060a060405101806040526020810391506000825281835b6001156133e057600184039350600a81066030018453600a81049050806133be575b50828103602084039350808452505050919050565b60009392505050565b600033905090565b60006001821460e11b9050919050565b82805461342290613de8565b90600052602060002090601f016020900481019282613444576000855561348b565b82601f1061345d57805160ff191683800117855561348b565b8280016001018555821561348b579182015b8281111561348a57825182559160200191906001019061346f565b5b5090506134989190613529565b5090565b8280546134a890613de8565b90600052602060002090601f0160209004810192826134ca5760008555613518565b82601f106134db5780548555613518565b8280016001018555821561351857600052602060002091601f016020900482015b828111156135175782548255916001019190600101906134fc565b5b5090506135259190613529565b5090565b5b8082111561354257600081600090555060010161352a565b5090565b6000604051905090565b600080fd5b600080fd5b60007fffffffff0000000000000000000000000000000000000000000000000000000082169050919050565b61358f8161355a565b811461359a57600080fd5b50565b6000813590506135ac81613586565b92915050565b6000602082840312156135c8576135c7613550565b5b60006135d68482850161359d565b91505092915050565b60008115159050919050565b6135f4816135df565b82525050565b600060208201905061360f60008301846135eb565b92915050565b600081519050919050565b600082825260208201905092915050565b60005b8381101561364f578082015181840152602081019050613634565b8381111561365e576000848401525b50505050565b6000601f19601f8301169050919050565b600061368082613615565b61368a8185613620565b935061369a818560208601613631565b6136a381613664565b840191505092915050565b600060208201905081810360008301526136c88184613675565b905092915050565b6000819050919050565b6136e3816136d0565b81146136ee57600080fd5b50565b600081359050613700816136da565b92915050565b60006020828403121561371c5761371b613550565b5b600061372a848285016136f1565b91505092915050565b600073ffffffffffffffffffffffffffffffffffffffff82169050919050565b600061375e82613733565b9050919050565b61376e81613753565b82525050565b60006020820190506137896000830184613765565b92915050565b61379881613753565b81146137a357600080fd5b50565b6000813590506137b58161378f565b92915050565b600080604083850312156137d2576137d1613550565b5b60006137e0858286016137a6565b92505060206137f1858286016136f1565b9150509250929050565b613804816136d0565b82525050565b600060208201905061381f60008301846137fb565b92915050565b60008060006060848603121561383e5761383d613550565b5b600061384c868287016137a6565b935050602061385d868287016137a6565b925050604061386e868287016136f1565b9150509250925092565b6000819050919050565b600061389d61389861389384613733565b613878565b613733565b9050919050565b60006138af82613882565b9050919050565b60006138c1826138a4565b9050919050565b6138d1816138b6565b82525050565b60006020820190506138ec60008301846138c8565b92915050565b60006138fd82613753565b9050919050565b61390d816138f2565b811461391857600080fd5b50565b60008135905061392a81613904565b92915050565b60006020828403121561394657613945613550565b5b60006139548482850161391b565b91505092915050565b6000806040838503121561397457613973613550565b5b6000613982858286016136f1565b9250506020613993858286016137a6565b9150509250929050565b6000602082840312156139b3576139b2613550565b5b60006139c1848285016137a6565b91505092915050565b600080604083850312156139e1576139e0613550565b5b60006139ef858286016136f1565b9250506020613a00858286016136f1565b9150509250929050565b6000613a1582613753565b9050919050565b613a2581613a0a565b8114613a3057600080fd5b50565b600081359050613a4281613a1c565b92915050565b600060208284031215613a5e57613a5d613550565b5b6000613a6c84828501613a33565b91505092915050565b613a7e816135df565b8114613a8957600080fd5b50565b600081359050613a9b81613a75565b92915050565b60008060408385031215613ab857613ab7613550565b5b6000613ac6858286016137a6565b9250506020613ad785828601613a8c565b9150509250929050565b6000613aec826138a4565b9050919050565b613afc81613ae1565b82525050565b6000602082019050613b176000830184613af3565b92915050565b600080fd5b600080fd5b7f4e487b7100000000000000000000000000000000000000000000000000000000600052604160045260246000fd5b613b5f82613664565b810181811067ffffffffffffffff82111715613b7e57613b7d613b27565b5b80604052505050565b6000613b91613546565b9050613b9d8282613b56565b919050565b600067ffffffffffffffff821115613bbd57613bbc613b27565b5b613bc682613664565b9050602081019050919050565b82818337600083830152505050565b6000613bf5613bf084613ba2565b613b87565b905082815260208101848484011115613c1157613c10613b22565b5b613c1c848285613bd3565b509392505050565b600082601f830112613c3957613c38613b1d565b5b8135613c49848260208601613be2565b91505092915050565b60008060008060808587031215613c6c57613c6b613550565b5b6000613c7a878288016137a6565b9450506020613c8b878288016137a6565b9350506040613c9c878288016136f1565b925050606085013567ffffffffffffffff811115613cbd57613cbc613555565b5b613cc987828801613c24565b91505092959194509250565b600060c0820190508181036000830152613cef8189613675565b9050613cfe6020830188613765565b613d0b60408301876137fb565b613d1860608301866137fb565b613d2560808301856137fb565b613d3260a08301846137fb565b979650505050505050565b60008060408385031215613d5457613d53613550565b5b6000613d62858286016137a6565b9250506020613d73858286016137a6565b9150509250929050565b6000613d88826138a4565b9050919050565b613d9881613d7d565b82525050565b6000602082019050613db36000830184613d8f565b92915050565b7f4e487b7100000000000000000000000000000000000000000000000000000000600052602260045260246000fd5b60006002820490506001821680613e0057607f821691505b602082108103613e1357613e12613db9565b5b50919050565b7f43616e6e6f742073657420706f7420746f207a65726f20616464726573730000600082015250565b6000613e4f601e83613620565b9150613e5a82613e19565b602082019050919050565b60006020820190508181036000830152613e7e81613e42565b9050919050565b7f5573657220646f6573206e6f74206f776e2074686973206c616e640000000000600082015250565b6000613ebb601b83613620565b9150613ec682613e85565b602082019050919050565b60006020820190508181036000830152613eea81613eae565b9050919050565b600081519050613f00816136da565b92915050565b600060208284031215613f1c57613f1b613550565b5b6000613f2a84828501613ef1565b91505092915050565b7f5573657220686173206e6f20706f747320746f2061737369676e000000000000600082015250565b6000613f69601a83613620565b9150613f7482613f33565b602082019050919050565b60006020820190508181036000830152613f9881613f5c565b9050919050565b600081905092915050565b60008190508160005260206000209050919050565b60008154613fcc81613de8565b613fd68186613f9f565b94506001821660008114613ff1576001811461400257614035565b60ff19831686528186019350614035565b61400b85613faa565b60005b8381101561402d5781548189015260018201915060208101905061400e565b838801955050505b50505092915050565b600061404a8284613fbf565b915081905092915050565b7f54686973206c616e6420616c726561647920686173206120706f740000000000600082015250565b600061408b601b83613620565b915061409682614055565b602082019050919050565b600060208201905081810360008301526140ba8161407e565b9050919050565b7f43616e6e6f7420736574206d61726b6574706c61636520746f2030206164647260008201527f6573730000000000000000000000000000000000000000000000000000000000602082015250565b600061411d602383613620565b9150614128826140c1565b604082019050919050565b6000602082019050818103600083015261414c81614110565b9050919050565b7f54686973206c616e6420646f6573206e6f742065786973740000000000000000600082015250565b6000614189601883613620565b915061419482614153565b602082019050919050565b600060208201905081810360008301526141b88161417c565b9050919050565b7f54686973206c616e642068617320616c7265616479206265656e20626f75676860008201527f7400000000000000000000000000000000000000000000000000000000000000602082015250565b600061421b602183613620565b9150614226826141bf565b604082019050919050565b6000602082019050818103600083015261424a8161420e565b9050919050565b7f4c616e6420436f6e74726163743a20556e617574686f72697a65640000000000600082015250565b6000614287601b83613620565b915061429282614251565b602082019050919050565b600060208201905081810360008301526142b68161427a565b9050919050565b7f596f7520646f206e6f74206f776e2074686973206c616e640000000000000000600082015250565b60006142f3601883613620565b91506142fe826142bd565b602082019050919050565b60006020820190508181036000830152614322816142e6565b9050919050565b7f54686973206974656d20646f6573206e6f742065786973740000000000000000600082015250565b600061435f601883613620565b915061436a82614329565b602082019050919050565b6000602082019050818103600083015261438e81614352565b9050919050565b7f54686973206c616e6420686173206e6f206974656d7300000000000000000000600082015250565b60006143cb601683613620565b91506143d682614395565b602082019050919050565b600060208201905081810360008301526143fa816143be565b9050919050565b7f4e487b7100000000000000000000000000000000000000000000000000000000600052601160045260246000fd5b600061443b826136d0565b91507fffffffffffffffffffffffffffffffffffffffffffffffffffffffffffffffff820361446d5761446c614401565b5b600182019050919050565b600060408201905061448d60008301856137fb565b61449a6020830184613765565b9392505050565b60006040820190506144b66000830185613765565b6144c360208301846137fb565b9392505050565b7f596f7520646f206e6f74206861766520616e79206f662074686973206974656d60008201527f2074797065000000000000000000000000000000000000000000000000000000602082015250565b6000614526602583613620565b9150614531826144ca565b604082019050919050565b6000602082019050818103600083015261455581614519565b9050919050565b7f506c6561736520706c616365206120706f742066697273740000000000000000600082015250565b6000614592601883613620565b915061459d8261455c565b602082019050919050565b600060208201905081810360008301526145c181614585565b9050919050565b7f54686973206c616e642069732066756c6c000000000000000000000000000000600082015250565b60006145fe601183613620565b9150614609826145c8565b602082019050919050565b6000602082019050818103600083015261462d816145f1565b9050919050565b7f54686973206c616e6420616c7265616479206861732061206361740000000000600082015250565b600061466a601b83613620565b915061467582614634565b602082019050919050565b600060208201905081810360008301526146998161465d565b9050919050565b7f54686973206c616e6420616c72656164792068617320736f7570000000000000600082015250565b60006146d6601a83613620565b91506146e1826146a0565b602082019050919050565b60006020820190508181036000830152614705816146c9565b9050919050565b600061471782613615565b6147218185613f9f565b9350614731818560208601613631565b80840191505092915050565b6000614749828561470c565b9150614755828461470c565b91508190509392505050565b7f43616e6e6f742072656d6f766520706f74000000000000000000000000000000600082015250565b6000614797601183613620565b91506147a282614761565b602082019050919050565b600060208201905081810360008301526147c68161478a565b9050919050565b7f4f776e61626c653a206e6577206f776e657220697320746865207a65726f206160008201527f6464726573730000000000000000000000000000000000000000000000000000602082015250565b6000614829602683613620565b9150614834826147cd565b604082019050919050565b600060208201905081810360008301526148588161481c565b9050919050565b7f417574683a20556e617574686f72697a65640000000000000000000000000000600082015250565b6000614895601283613620565b91506148a08261485f565b602082019050919050565b600060208201905081810360008301526148c481614888565b9050919050565b7f4f776e61626c653a2063616c6c6572206973206e6f7420746865206f776e6572600082015250565b6000614901602083613620565b915061490c826148cb565b602082019050919050565b60006020820190508181036000830152614930816148f4565b9050919050565b600081519050919050565b600082825260208201905092915050565b600061495e82614937565b6149688185614942565b9350614978818560208601613631565b61498181613664565b840191505092915050565b60006080820190506149a16000830187613765565b6149ae6020830186613765565b6149bb60408301856137fb565b81810360608301526149cd8184614953565b905095945050505050565b6000815190506149e781613586565b92915050565b600060208284031215614a0357614a02613550565b5b6000614a11848285016149d8565b9150509291505056fea2646970667358221220a1a39515e7a68816afff8a42d0dd08a1b64556e38b6c54be65db83cb2a51021864736f6c634300080d0033",
  "linkReferences": {},
  "deployedLinkReferences": {}
}