{
  "address": "0x7D30BCA805dd9850Ef07feC92C187aBb19FEE35e",
  "abi": [
    {
      "inputs": [],
      "stateMutability": "nonpayable",
      "type": "constructor"
    },
    {
      "anonymous": false,
      "inputs": [
        {
          "indexed": true,
          "internalType": "address",
          "name": "account",
          "type": "address"
        },
        {
          "indexed": true,
          "internalType": "address",
          "name": "operator",
          "type": "address"
        },
        {
          "indexed": false,
          "internalType": "bool",
          "name": "approved",
          "type": "bool"
        }
      ],
      "name": "ApprovalForAll",
      "type": "event"
    },
    {
      "anonymous": false,
      "inputs": [
        {
          "indexed": true,
          "internalType": "address",
          "name": "previousOwner",
          "type": "address"
        },
        {
          "indexed": true,
          "internalType": "address",
          "name": "newOwner",
          "type": "address"
        }
      ],
      "name": "OwnershipTransferred",
      "type": "event"
    },
    {
      "anonymous": false,
      "inputs": [
        {
          "indexed": true,
          "internalType": "address",
          "name": "operator",
          "type": "address"
        },
        {
          "indexed": true,
          "internalType": "address",
          "name": "from",
          "type": "address"
        },
        {
          "indexed": true,
          "internalType": "address",
          "name": "to",
          "type": "address"
        },
        {
          "indexed": false,
          "internalType": "uint256[]",
          "name": "ids",
          "type": "uint256[]"
        },
        {
          "indexed": false,
          "internalType": "uint256[]",
          "name": "values",
          "type": "uint256[]"
        }
      ],
      "name": "TransferBatch",
      "type": "event"
    },
    {
      "anonymous": false,
      "inputs": [
        {
          "indexed": true,
          "internalType": "address",
          "name": "operator",
          "type": "address"
        },
        {
          "indexed": true,
          "internalType": "address",
          "name": "from",
          "type": "address"
        },
        {
          "indexed": true,
          "internalType": "address",
          "name": "to",
          "type": "address"
        },
        {
          "indexed": false,
          "internalType": "uint256",
          "name": "id",
          "type": "uint256"
        },
        {
          "indexed": false,
          "internalType": "uint256",
          "name": "value",
          "type": "uint256"
        }
      ],
      "name": "TransferSingle",
      "type": "event"
    },
    {
      "anonymous": false,
      "inputs": [
        {
          "indexed": false,
          "internalType": "string",
          "name": "value",
          "type": "string"
        },
        {
          "indexed": true,
          "internalType": "uint256",
          "name": "id",
          "type": "uint256"
        }
      ],
      "name": "URI",
      "type": "event"
    },
    {
      "inputs": [
        {
          "internalType": "address",
          "name": "account",
          "type": "address"
        },
        {
          "internalType": "uint256",
          "name": "id",
          "type": "uint256"
        }
      ],
      "name": "balanceOf",
      "outputs": [
        {
          "internalType": "uint256",
          "name": "",
          "type": "uint256"
        }
      ],
      "stateMutability": "view",
      "type": "function"
    },
    {
      "inputs": [
        {
          "internalType": "address[]",
          "name": "accounts",
          "type": "address[]"
        },
        {
          "internalType": "uint256[]",
          "name": "ids",
          "type": "uint256[]"
        }
      ],
      "name": "balanceOfBatch",
      "outputs": [
        {
          "internalType": "uint256[]",
          "name": "",
          "type": "uint256[]"
        }
      ],
      "stateMutability": "view",
      "type": "function"
    },
    {
      "inputs": [],
      "name": "cat",
      "outputs": [
        {
          "internalType": "uint256",
          "name": "",
          "type": "uint256"
        }
      ],
      "stateMutability": "view",
      "type": "function"
    },
    {
      "inputs": [
        {
          "internalType": "address",
          "name": "_address",
          "type": "address"
        }
      ],
      "name": "getAuth",
      "outputs": [
        {
          "internalType": "bool",
          "name": "",
          "type": "bool"
        }
      ],
      "stateMutability": "view",
      "type": "function"
    },
    {
      "inputs": [
        {
          "internalType": "address",
          "name": "_address",
          "type": "address"
        }
      ],
      "name": "getUser",
      "outputs": [
        {
          "internalType": "bool",
          "name": "",
          "type": "bool"
        }
      ],
      "stateMutability": "view",
      "type": "function"
    },
    {
      "inputs": [
        {
          "internalType": "address",
          "name": "account",
          "type": "address"
        },
        {
          "internalType": "address",
          "name": "operator",
          "type": "address"
        }
      ],
      "name": "isApprovedForAll",
      "outputs": [
        {
          "internalType": "bool",
          "name": "",
          "type": "bool"
        }
      ],
      "stateMutability": "view",
      "type": "function"
    },
    {
      "inputs": [],
      "name": "marketplace",
      "outputs": [
        {
          "internalType": "address",
          "name": "",
          "type": "address"
        }
      ],
      "stateMutability": "view",
      "type": "function"
    },
    {
      "inputs": [
        {
          "internalType": "uint256",
          "name": "_itemId",
          "type": "uint256"
        },
        {
          "internalType": "address",
          "name": "_to",
          "type": "address"
        }
      ],
      "name": "mintItem",
      "outputs": [],
      "stateMutability": "nonpayable",
      "type": "function"
    },
    {
      "inputs": [],
      "name": "owner",
      "outputs": [
        {
          "internalType": "address",
          "name": "",
          "type": "address"
        }
      ],
      "stateMutability": "view",
      "type": "function"
    },
    {
      "inputs": [],
      "name": "renounceOwnership",
      "outputs": [],
      "stateMutability": "nonpayable",
      "type": "function"
    },
    {
      "inputs": [
        {
          "internalType": "address",
          "name": "from",
          "type": "address"
        },
        {
          "internalType": "address",
          "name": "to",
          "type": "address"
        },
        {
          "internalType": "uint256[]",
          "name": "ids",
          "type": "uint256[]"
        },
        {
          "internalType": "uint256[]",
          "name": "amounts",
          "type": "uint256[]"
        },
        {
          "internalType": "bytes",
          "name": "data",
          "type": "bytes"
        }
      ],
      "name": "safeBatchTransferFrom",
      "outputs": [],
      "stateMutability": "nonpayable",
      "type": "function"
    },
    {
      "inputs": [
        {
          "internalType": "address",
          "name": "from",
          "type": "address"
        },
        {
          "internalType": "address",
          "name": "to",
          "type": "address"
        },
        {
          "internalType": "uint256",
          "name": "id",
          "type": "uint256"
        },
        {
          "internalType": "uint256",
          "name": "amount",
          "type": "uint256"
        },
        {
          "internalType": "bytes",
          "name": "data",
          "type": "bytes"
        }
      ],
      "name": "safeTransferFrom",
      "outputs": [],
      "stateMutability": "nonpayable",
      "type": "function"
    },
    {
      "inputs": [
        {
          "internalType": "address",
          "name": "operator",
          "type": "address"
        },
        {
          "internalType": "bool",
          "name": "approved",
          "type": "bool"
        }
      ],
      "name": "setApprovalForAll",
      "outputs": [],
      "stateMutability": "nonpayable",
      "type": "function"
    },
    {
      "inputs": [
        {
          "internalType": "address",
          "name": "_marketplace",
          "type": "address"
        }
      ],
      "name": "setMarketplace",
      "outputs": [],
      "stateMutability": "nonpayable",
      "type": "function"
    },
    {
      "inputs": [],
      "name": "soup",
      "outputs": [
        {
          "internalType": "uint256",
          "name": "",
          "type": "uint256"
        }
      ],
      "stateMutability": "view",
      "type": "function"
    },
    {
      "inputs": [
        {
          "internalType": "bytes4",
          "name": "interfaceId",
          "type": "bytes4"
        }
      ],
      "name": "supportsInterface",
      "outputs": [
        {
          "internalType": "bool",
          "name": "",
          "type": "bool"
        }
      ],
      "stateMutability": "view",
      "type": "function"
    },
    {
      "inputs": [
        {
          "internalType": "address",
          "name": "newOwner",
          "type": "address"
        }
      ],
      "name": "transferOwnership",
      "outputs": [],
      "stateMutability": "nonpayable",
      "type": "function"
    },
    {
      "inputs": [
        {
          "internalType": "uint256",
          "name": "",
          "type": "uint256"
        }
      ],
      "name": "uri",
      "outputs": [
        {
          "internalType": "string",
          "name": "",
          "type": "string"
        }
      ],
      "stateMutability": "view",
      "type": "function"
    }
  ],
  "transactionHash": "0x210372b4576f47875f12948ce39459d6a6805a302b05b31a28d80ef6228ac74b",
  "args": [],
  "numDeployments": 1,
  "solcInputHash": "14482fabf2bb0a03a57df171748e0cf2",
  "bytecode": "0x60806040523480156200001157600080fd5b50604051806020016040528060008152506200003381620000c360201b60201c565b506001600360003373ffffffffffffffffffffffffffffffffffffffff1673ffffffffffffffffffffffffffffffffffffffff16815260200190815260200160002060006101000a81548160ff021916908315150217905550620000ac620000a0620000df60201b60201c565b620000e760201b60201c565b620000bd33620001ad60201b60201c565b62000435565b8060029080519060200190620000db9291906200029e565b5050565b600033905090565b6000600560009054906101000a900473ffffffffffffffffffffffffffffffffffffffff16905081600560006101000a81548173ffffffffffffffffffffffffffffffffffffffff021916908373ffffffffffffffffffffffffffffffffffffffff1602179055508173ffffffffffffffffffffffffffffffffffffffff168173ffffffffffffffffffffffffffffffffffffffff167f8be0079c531659141344cd1fd0a4f28419497f9722a3daafe3b4186f6b6457e060405160405180910390a35050565b60011515600360003373ffffffffffffffffffffffffffffffffffffffff1673ffffffffffffffffffffffffffffffffffffffff16815260200190815260200160002060009054906101000a900460ff1615151462000243576040517f08c379a00000000000000000000000000000000000000000000000000000000081526004016200023a90620003af565b60405180910390fd5b6001600360008373ffffffffffffffffffffffffffffffffffffffff1673ffffffffffffffffffffffffffffffffffffffff16815260200190815260200160002060006101000a81548160ff02191690831515021790555050565b828054620002ac9062000400565b90600052602060002090601f016020900481019282620002d057600085556200031c565b82601f10620002eb57805160ff19168380011785556200031c565b828001600101855582156200031c579182015b828111156200031b578251825591602001919060010190620002fe565b5b5090506200032b91906200032f565b5090565b5b808211156200034a57600081600090555060010162000330565b5090565b600082825260208201905092915050565b7f417574683a20556e617574686f72697a65640000000000000000000000000000600082015250565b6000620003976012836200034e565b9150620003a4826200035f565b602082019050919050565b60006020820190508181036000830152620003ca8162000388565b9050919050565b7f4e487b7100000000000000000000000000000000000000000000000000000000600052602260045260246000fd5b600060028204905060018216806200041957607f821691505b6020821081036200042f576200042e620003d1565b5b50919050565b61323680620004456000396000f3fe608060405234801561001057600080fd5b50600436106101155760003560e01c806373ad6c2d116100a2578063b4852e7a11610071578063b4852e7a146102f0578063e48818131461030e578063e985e9c51461032c578063f242432a1461035c578063f2fde38b1461037857610115565b806373ad6c2d1461027c5780638da5cb5b14610298578063a22cb465146102b6578063abc8c7af146102d257610115565b80634dc936c0116100e95780634dc936c0146101c65780634e1273f4146101e25780636e4e3e2d146102125780636f77926b14610242578063715018a61461027257610115565b8062fdd58e1461011a57806301ffc9a71461014a5780630e89341c1461017a5780632eb2c2d6146101aa575b600080fd5b610134600480360381019061012f9190611cd6565b610394565b6040516101419190611d25565b60405180910390f35b610164600480360381019061015f9190611d98565b61045c565b6040516101719190611de0565b60405180910390f35b610194600480360381019061018f9190611dfb565b61053e565b6040516101a19190611ec1565b60405180910390f35b6101c460048036038101906101bf91906120e0565b6105d2565b005b6101e060048036038101906101db91906121af565b610673565b005b6101fc60048036038101906101f791906122b2565b610770565b60405161020991906123e8565b60405180910390f35b61022c6004803603810190610227919061240a565b610889565b6040516102399190611de0565b60405180910390f35b61025c6004803603810190610257919061240a565b6108df565b6040516102699190611de0565b60405180910390f35b61027a610935565b005b6102966004803603810190610291919061240a565b610949565b005b6102a0610a2f565b6040516102ad9190612446565b60405180910390f35b6102d060048036038101906102cb919061248d565b610a59565b005b6102da610a6f565b6040516102e79190612446565b60405180910390f35b6102f8610a95565b6040516103059190611d25565b60405180910390f35b610316610a9a565b6040516103239190611d25565b60405180910390f35b610346600480360381019061034191906124cd565b610a9f565b6040516103539190611de0565b60405180910390f35b6103766004803603810190610371919061250d565b610b33565b005b610392600480360381019061038d919061240a565b610bd4565b005b60008073ffffffffffffffffffffffffffffffffffffffff168373ffffffffffffffffffffffffffffffffffffffff1603610404576040517f08c379a00000000000000000000000000000000000000000000000000000000081526004016103fb90612616565b60405180910390fd5b60008083815260200190815260200160002060008473ffffffffffffffffffffffffffffffffffffffff1673ffffffffffffffffffffffffffffffffffffffff16815260200190815260200160002054905092915050565b60007fd9b67a26000000000000000000000000000000000000000000000000000000007bffffffffffffffffffffffffffffffffffffffffffffffffffffffff1916827bffffffffffffffffffffffffffffffffffffffffffffffffffffffff1916148061052757507f0e89341c000000000000000000000000000000000000000000000000000000007bffffffffffffffffffffffffffffffffffffffffffffffffffffffff1916827bffffffffffffffffffffffffffffffffffffffffffffffffffffffff1916145b80610537575061053682610c57565b5b9050919050565b60606002805461054d90612665565b80601f016020809104026020016040519081016040528092919081815260200182805461057990612665565b80156105c65780601f1061059b576101008083540402835291602001916105c6565b820191906000526020600020905b8154815290600101906020018083116105a957829003601f168201915b50505050509050919050565b6105da610cc1565b73ffffffffffffffffffffffffffffffffffffffff168573ffffffffffffffffffffffffffffffffffffffff161480610620575061061f8561061a610cc1565b610a9f565b5b61065f576040517f08c379a000000000000000000000000000000000000000000000000000000000815260040161065690612708565b60405180910390fd5b61066c8585858585610cc9565b5050505050565b600360003373ffffffffffffffffffffffffffffffffffffffff1673ffffffffffffffffffffffffffffffffffffffff16815260200190815260200160002060009054906101000a900460ff166106ff576040517f08c379a00000000000000000000000000000000000000000000000000000000081526004016106f690612774565b60405180910390fd5b60008210158015610711575060018211155b610750576040517f08c379a0000000000000000000000000000000000000000000000000000000008152600401610747906127e0565b60405180910390fd5b61076c8183600160405180602001604052806000815250610fea565b5050565b606081518351146107b6576040517f08c379a00000000000000000000000000000000000000000000000000000000081526004016107ad90612872565b60405180910390fd5b6000835167ffffffffffffffff8111156107d3576107d2611ee8565b5b6040519080825280602002602001820160405280156108015781602001602082028036833780820191505090505b50905060005b845181101561087e5761084e85828151811061082657610825612892565b5b602002602001015185838151811061084157610840612892565b5b6020026020010151610394565b82828151811061086157610860612892565b5b60200260200101818152505080610877906128f0565b9050610807565b508091505092915050565b6000600360008373ffffffffffffffffffffffffffffffffffffffff1673ffffffffffffffffffffffffffffffffffffffff16815260200190815260200160002060009054906101000a900460ff169050919050565b6000600460008373ffffffffffffffffffffffffffffffffffffffff1673ffffffffffffffffffffffffffffffffffffffff16815260200190815260200160002060009054906101000a900460ff169050919050565b61093d61119a565b6109476000611218565b565b61095161119a565b600073ffffffffffffffffffffffffffffffffffffffff168173ffffffffffffffffffffffffffffffffffffffff16036109c0576040517f08c379a00000000000000000000000000000000000000000000000000000000081526004016109b7906129aa565b60405180910390fd5b80600660006101000a81548173ffffffffffffffffffffffffffffffffffffffff021916908373ffffffffffffffffffffffffffffffffffffffff160217905550610a2c600660009054906101000a900473ffffffffffffffffffffffffffffffffffffffff166112de565b50565b6000600560009054906101000a900473ffffffffffffffffffffffffffffffffffffffff16905090565b610a6b610a64610cc1565b83836113cc565b5050565b600660009054906101000a900473ffffffffffffffffffffffffffffffffffffffff1681565b600181565b600081565b6000600160008473ffffffffffffffffffffffffffffffffffffffff1673ffffffffffffffffffffffffffffffffffffffff16815260200190815260200160002060008373ffffffffffffffffffffffffffffffffffffffff1673ffffffffffffffffffffffffffffffffffffffff16815260200190815260200160002060009054906101000a900460ff16905092915050565b610b3b610cc1565b73ffffffffffffffffffffffffffffffffffffffff168573ffffffffffffffffffffffffffffffffffffffff161480610b815750610b8085610b7b610cc1565b610a9f565b5b610bc0576040517f08c379a0000000000000000000000000000000000000000000000000000000008152600401610bb790612708565b60405180910390fd5b610bcd8585858585611538565b5050505050565b610bdc61119a565b600073ffffffffffffffffffffffffffffffffffffffff168173ffffffffffffffffffffffffffffffffffffffff1603610c4b576040517f08c379a0000000000000000000000000000000000000000000000000000000008152600401610c4290612a3c565b60405180910390fd5b610c5481611218565b50565b60007f01ffc9a7000000000000000000000000000000000000000000000000000000007bffffffffffffffffffffffffffffffffffffffffffffffffffffffff1916827bffffffffffffffffffffffffffffffffffffffffffffffffffffffff1916149050919050565b600033905090565b8151835114610d0d576040517f08c379a0000000000000000000000000000000000000000000000000000000008152600401610d0490612ace565b60405180910390fd5b600073ffffffffffffffffffffffffffffffffffffffff168473ffffffffffffffffffffffffffffffffffffffff1603610d7c576040517f08c379a0000000000000000000000000000000000000000000000000000000008152600401610d7390612b60565b60405180910390fd5b6000610d86610cc1565b9050610d968187878787876117d3565b60005b8451811015610f47576000858281518110610db757610db6612892565b5b602002602001015190506000858381518110610dd657610dd5612892565b5b60200260200101519050600080600084815260200190815260200160002060008b73ffffffffffffffffffffffffffffffffffffffff1673ffffffffffffffffffffffffffffffffffffffff16815260200190815260200160002054905081811015610e77576040517f08c379a0000000000000000000000000000000000000000000000000000000008152600401610e6e90612bf2565b60405180910390fd5b81810360008085815260200190815260200160002060008c73ffffffffffffffffffffffffffffffffffffffff1673ffffffffffffffffffffffffffffffffffffffff168152602001908152602001600020819055508160008085815260200190815260200160002060008b73ffffffffffffffffffffffffffffffffffffffff1673ffffffffffffffffffffffffffffffffffffffff1681526020019081526020016000206000828254610f2c9190612c12565b9250508190555050505080610f40906128f0565b9050610d99565b508473ffffffffffffffffffffffffffffffffffffffff168673ffffffffffffffffffffffffffffffffffffffff168273ffffffffffffffffffffffffffffffffffffffff167f4a39dc06d4c0dbc64b70af90fd698a233a518aa5d07e595d983b8c0526c8f7fb8787604051610fbe929190612c68565b60405180910390a4610fd48187878787876117db565b610fe28187878787876117e3565b505050505050565b600073ffffffffffffffffffffffffffffffffffffffff168473ffffffffffffffffffffffffffffffffffffffff1603611059576040517f08c379a000000000000000000000000000000000000000000000000000000000815260040161105090612d11565b60405180910390fd5b6000611063610cc1565b90506000611070856119ba565b9050600061107d856119ba565b905061108e836000898585896117d3565b8460008088815260200190815260200160002060008973ffffffffffffffffffffffffffffffffffffffff1673ffffffffffffffffffffffffffffffffffffffff16815260200190815260200160002060008282546110ed9190612c12565b925050819055508673ffffffffffffffffffffffffffffffffffffffff16600073ffffffffffffffffffffffffffffffffffffffff168473ffffffffffffffffffffffffffffffffffffffff167fc3d58168c5ae7397731d063d5bbf3d657854427343f4c083240f7aacaa2d0f62898960405161116b929190612d31565b60405180910390a4611182836000898585896117db565b61119183600089898989611a34565b50505050505050565b6111a2610cc1565b73ffffffffffffffffffffffffffffffffffffffff166111c0610a2f565b73ffffffffffffffffffffffffffffffffffffffff1614611216576040517f08c379a000000000000000000000000000000000000000000000000000000000815260040161120d90612da6565b60405180910390fd5b565b6000600560009054906101000a900473ffffffffffffffffffffffffffffffffffffffff16905081600560006101000a81548173ffffffffffffffffffffffffffffffffffffffff021916908373ffffffffffffffffffffffffffffffffffffffff1602179055508173ffffffffffffffffffffffffffffffffffffffff168173ffffffffffffffffffffffffffffffffffffffff167f8be0079c531659141344cd1fd0a4f28419497f9722a3daafe3b4186f6b6457e060405160405180910390a35050565b60011515600360003373ffffffffffffffffffffffffffffffffffffffff1673ffffffffffffffffffffffffffffffffffffffff16815260200190815260200160002060009054906101000a900460ff16151514611371576040517f08c379a000000000000000000000000000000000000000000000000000000000815260040161136890612e12565b60405180910390fd5b6001600360008373ffffffffffffffffffffffffffffffffffffffff1673ffffffffffffffffffffffffffffffffffffffff16815260200190815260200160002060006101000a81548160ff02191690831515021790555050565b8173ffffffffffffffffffffffffffffffffffffffff168373ffffffffffffffffffffffffffffffffffffffff160361143a576040517f08c379a000000000000000000000000000000000000000000000000000000000815260040161143190612ea4565b60405180910390fd5b80600160008573ffffffffffffffffffffffffffffffffffffffff1673ffffffffffffffffffffffffffffffffffffffff16815260200190815260200160002060008473ffffffffffffffffffffffffffffffffffffffff1673ffffffffffffffffffffffffffffffffffffffff16815260200190815260200160002060006101000a81548160ff0219169083151502179055508173ffffffffffffffffffffffffffffffffffffffff168373ffffffffffffffffffffffffffffffffffffffff167f17307eab39ab6107e8899845ad3d59bd9653f200f220920489ca2b5937696c318360405161152b9190611de0565b60405180910390a3505050565b600073ffffffffffffffffffffffffffffffffffffffff168473ffffffffffffffffffffffffffffffffffffffff16036115a7576040517f08c379a000000000000000000000000000000000000000000000000000000000815260040161159e90612b60565b60405180910390fd5b60006115b1610cc1565b905060006115be856119ba565b905060006115cb856119ba565b90506115db8389898585896117d3565b600080600088815260200190815260200160002060008a73ffffffffffffffffffffffffffffffffffffffff1673ffffffffffffffffffffffffffffffffffffffff16815260200190815260200160002054905085811015611672576040517f08c379a000000000000000000000000000000000000000000000000000000000815260040161166990612bf2565b60405180910390fd5b85810360008089815260200190815260200160002060008b73ffffffffffffffffffffffffffffffffffffffff1673ffffffffffffffffffffffffffffffffffffffff168152602001908152602001600020819055508560008089815260200190815260200160002060008a73ffffffffffffffffffffffffffffffffffffffff1673ffffffffffffffffffffffffffffffffffffffff16815260200190815260200160002060008282546117279190612c12565b925050819055508773ffffffffffffffffffffffffffffffffffffffff168973ffffffffffffffffffffffffffffffffffffffff168573ffffffffffffffffffffffffffffffffffffffff167fc3d58168c5ae7397731d063d5bbf3d657854427343f4c083240f7aacaa2d0f628a8a6040516117a4929190612d31565b60405180910390a46117ba848a8a86868a6117db565b6117c8848a8a8a8a8a611a34565b505050505050505050565b505050505050565b505050505050565b6118028473ffffffffffffffffffffffffffffffffffffffff16611c0b565b156119b2578373ffffffffffffffffffffffffffffffffffffffff1663bc197c8187878686866040518663ffffffff1660e01b8152600401611848959493929190612f19565b6020604051808303816000875af192505050801561188457506040513d601f19601f820116820180604052508101906118819190612f96565b60015b61192957611890612fd0565b806308c379a0036118ec57506118a4612ff2565b806118af57506118ee565b806040517f08c379a00000000000000000000000000000000000000000000000000000000081526004016118e39190611ec1565b60405180910390fd5b505b6040517f08c379a0000000000000000000000000000000000000000000000000000000008152600401611920906130f4565b60405180910390fd5b63bc197c8160e01b7bffffffffffffffffffffffffffffffffffffffffffffffffffffffff1916817bffffffffffffffffffffffffffffffffffffffffffffffffffffffff1916146119b0576040517f08c379a00000000000000000000000000000000000000000000000000000000081526004016119a790613186565b60405180910390fd5b505b505050505050565b60606000600167ffffffffffffffff8111156119d9576119d8611ee8565b5b604051908082528060200260200182016040528015611a075781602001602082028036833780820191505090505b5090508281600081518110611a1f57611a1e612892565b5b60200260200101818152505080915050919050565b611a538473ffffffffffffffffffffffffffffffffffffffff16611c0b565b15611c03578373ffffffffffffffffffffffffffffffffffffffff1663f23a6e6187878686866040518663ffffffff1660e01b8152600401611a999594939291906131a6565b6020604051808303816000875af1925050508015611ad557506040513d601f19601f82011682018060405250810190611ad29190612f96565b60015b611b7a57611ae1612fd0565b806308c379a003611b3d5750611af5612ff2565b80611b005750611b3f565b806040517f08c379a0000000000000000000000000000000000000000000000000000000008152600401611b349190611ec1565b60405180910390fd5b505b6040517f08c379a0000000000000000000000000000000000000000000000000000000008152600401611b71906130f4565b60405180910390fd5b63f23a6e6160e01b7bffffffffffffffffffffffffffffffffffffffffffffffffffffffff1916817bffffffffffffffffffffffffffffffffffffffffffffffffffffffff191614611c01576040517f08c379a0000000000000000000000000000000000000000000000000000000008152600401611bf890613186565b60405180910390fd5b505b505050505050565b6000808273ffffffffffffffffffffffffffffffffffffffff163b119050919050565b6000604051905090565b600080fd5b600080fd5b600073ffffffffffffffffffffffffffffffffffffffff82169050919050565b6000611c6d82611c42565b9050919050565b611c7d81611c62565b8114611c8857600080fd5b50565b600081359050611c9a81611c74565b92915050565b6000819050919050565b611cb381611ca0565b8114611cbe57600080fd5b50565b600081359050611cd081611caa565b92915050565b60008060408385031215611ced57611cec611c38565b5b6000611cfb85828601611c8b565b9250506020611d0c85828601611cc1565b9150509250929050565b611d1f81611ca0565b82525050565b6000602082019050611d3a6000830184611d16565b92915050565b60007fffffffff0000000000000000000000000000000000000000000000000000000082169050919050565b611d7581611d40565b8114611d8057600080fd5b50565b600081359050611d9281611d6c565b92915050565b600060208284031215611dae57611dad611c38565b5b6000611dbc84828501611d83565b91505092915050565b60008115159050919050565b611dda81611dc5565b82525050565b6000602082019050611df56000830184611dd1565b92915050565b600060208284031215611e1157611e10611c38565b5b6000611e1f84828501611cc1565b91505092915050565b600081519050919050565b600082825260208201905092915050565b60005b83811015611e62578082015181840152602081019050611e47565b83811115611e71576000848401525b50505050565b6000601f19601f8301169050919050565b6000611e9382611e28565b611e9d8185611e33565b9350611ead818560208601611e44565b611eb681611e77565b840191505092915050565b60006020820190508181036000830152611edb8184611e88565b905092915050565b600080fd5b7f4e487b7100000000000000000000000000000000000000000000000000000000600052604160045260246000fd5b611f2082611e77565b810181811067ffffffffffffffff82111715611f3f57611f3e611ee8565b5b80604052505050565b6000611f52611c2e565b9050611f5e8282611f17565b919050565b600067ffffffffffffffff821115611f7e57611f7d611ee8565b5b602082029050602081019050919050565b600080fd5b6000611fa7611fa284611f63565b611f48565b90508083825260208201905060208402830185811115611fca57611fc9611f8f565b5b835b81811015611ff35780611fdf8882611cc1565b845260208401935050602081019050611fcc565b5050509392505050565b600082601f83011261201257612011611ee3565b5b8135612022848260208601611f94565b91505092915050565b600080fd5b600067ffffffffffffffff82111561204b5761204a611ee8565b5b61205482611e77565b9050602081019050919050565b82818337600083830152505050565b600061208361207e84612030565b611f48565b90508281526020810184848401111561209f5761209e61202b565b5b6120aa848285612061565b509392505050565b600082601f8301126120c7576120c6611ee3565b5b81356120d7848260208601612070565b91505092915050565b600080600080600060a086880312156120fc576120fb611c38565b5b600061210a88828901611c8b565b955050602061211b88828901611c8b565b945050604086013567ffffffffffffffff81111561213c5761213b611c3d565b5b61214888828901611ffd565b935050606086013567ffffffffffffffff81111561216957612168611c3d565b5b61217588828901611ffd565b925050608086013567ffffffffffffffff81111561219657612195611c3d565b5b6121a2888289016120b2565b9150509295509295909350565b600080604083850312156121c6576121c5611c38565b5b60006121d485828601611cc1565b92505060206121e585828601611c8b565b9150509250929050565b600067ffffffffffffffff82111561220a57612209611ee8565b5b602082029050602081019050919050565b600061222e612229846121ef565b611f48565b9050808382526020820190506020840283018581111561225157612250611f8f565b5b835b8181101561227a57806122668882611c8b565b845260208401935050602081019050612253565b5050509392505050565b600082601f83011261229957612298611ee3565b5b81356122a984826020860161221b565b91505092915050565b600080604083850312156122c9576122c8611c38565b5b600083013567ffffffffffffffff8111156122e7576122e6611c3d565b5b6122f385828601612284565b925050602083013567ffffffffffffffff81111561231457612313611c3d565b5b61232085828601611ffd565b9150509250929050565b600081519050919050565b600082825260208201905092915050565b6000819050602082019050919050565b61235f81611ca0565b82525050565b60006123718383612356565b60208301905092915050565b6000602082019050919050565b60006123958261232a565b61239f8185612335565b93506123aa83612346565b8060005b838110156123db5781516123c28882612365565b97506123cd8361237d565b9250506001810190506123ae565b5085935050505092915050565b60006020820190508181036000830152612402818461238a565b905092915050565b6000602082840312156124205761241f611c38565b5b600061242e84828501611c8b565b91505092915050565b61244081611c62565b82525050565b600060208201905061245b6000830184612437565b92915050565b61246a81611dc5565b811461247557600080fd5b50565b60008135905061248781612461565b92915050565b600080604083850312156124a4576124a3611c38565b5b60006124b285828601611c8b565b92505060206124c385828601612478565b9150509250929050565b600080604083850312156124e4576124e3611c38565b5b60006124f285828601611c8b565b925050602061250385828601611c8b565b9150509250929050565b600080600080600060a0868803121561252957612528611c38565b5b600061253788828901611c8b565b955050602061254888828901611c8b565b945050604061255988828901611cc1565b935050606061256a88828901611cc1565b925050608086013567ffffffffffffffff81111561258b5761258a611c3d565b5b612597888289016120b2565b9150509295509295909350565b7f455243313135353a2061646472657373207a65726f206973206e6f742061207660008201527f616c6964206f776e657200000000000000000000000000000000000000000000602082015250565b6000612600602a83611e33565b915061260b826125a4565b604082019050919050565b6000602082019050818103600083015261262f816125f3565b9050919050565b7f4e487b7100000000000000000000000000000000000000000000000000000000600052602260045260246000fd5b6000600282049050600182168061267d57607f821691505b6020821081036126905761268f612636565b5b50919050565b7f455243313135353a2063616c6c6572206973206e6f7420746f6b656e206f776e60008201527f6572206e6f7220617070726f7665640000000000000000000000000000000000602082015250565b60006126f2602f83611e33565b91506126fd82612696565b604082019050919050565b60006020820190508181036000830152612721816126e5565b9050919050565b7f4361747320616e6420536f75703a20556e617574686f72697a65640000000000600082015250565b600061275e601b83611e33565b915061276982612728565b602082019050919050565b6000602082019050818103600083015261278d81612751565b9050919050565b7f496e76616c6964206974656d2049440000000000000000000000000000000000600082015250565b60006127ca600f83611e33565b91506127d582612794565b602082019050919050565b600060208201905081810360008301526127f9816127bd565b9050919050565b7f455243313135353a206163636f756e747320616e6420696473206c656e67746860008201527f206d69736d617463680000000000000000000000000000000000000000000000602082015250565b600061285c602983611e33565b915061286782612800565b604082019050919050565b6000602082019050818103600083015261288b8161284f565b9050919050565b7f4e487b7100000000000000000000000000000000000000000000000000000000600052603260045260246000fd5b7f4e487b7100000000000000000000000000000000000000000000000000000000600052601160045260246000fd5b60006128fb82611ca0565b91507fffffffffffffffffffffffffffffffffffffffffffffffffffffffffffffffff820361292d5761292c6128c1565b5b600182019050919050565b7f43616e6e6f7420736574206d61726b6574706c61636520746f2030206164647260008201527f6573730000000000000000000000000000000000000000000000000000000000602082015250565b6000612994602383611e33565b915061299f82612938565b604082019050919050565b600060208201905081810360008301526129c381612987565b9050919050565b7f4f776e61626c653a206e6577206f776e657220697320746865207a65726f206160008201527f6464726573730000000000000000000000000000000000000000000000000000602082015250565b6000612a26602683611e33565b9150612a31826129ca565b604082019050919050565b60006020820190508181036000830152612a5581612a19565b9050919050565b7f455243313135353a2069647320616e6420616d6f756e7473206c656e6774682060008201527f6d69736d61746368000000000000000000000000000000000000000000000000602082015250565b6000612ab8602883611e33565b9150612ac382612a5c565b604082019050919050565b60006020820190508181036000830152612ae781612aab565b9050919050565b7f455243313135353a207472616e7366657220746f20746865207a65726f20616460008201527f6472657373000000000000000000000000000000000000000000000000000000602082015250565b6000612b4a602583611e33565b9150612b5582612aee565b604082019050919050565b60006020820190508181036000830152612b7981612b3d565b9050919050565b7f455243313135353a20696e73756666696369656e742062616c616e636520666f60008201527f72207472616e7366657200000000000000000000000000000000000000000000602082015250565b6000612bdc602a83611e33565b9150612be782612b80565b604082019050919050565b60006020820190508181036000830152612c0b81612bcf565b9050919050565b6000612c1d82611ca0565b9150612c2883611ca0565b9250827fffffffffffffffffffffffffffffffffffffffffffffffffffffffffffffffff03821115612c5d57612c5c6128c1565b5b828201905092915050565b60006040820190508181036000830152612c82818561238a565b90508181036020830152612c96818461238a565b90509392505050565b7f455243313135353a206d696e7420746f20746865207a65726f2061646472657360008201527f7300000000000000000000000000000000000000000000000000000000000000602082015250565b6000612cfb602183611e33565b9150612d0682612c9f565b604082019050919050565b60006020820190508181036000830152612d2a81612cee565b9050919050565b6000604082019050612d466000830185611d16565b612d536020830184611d16565b9392505050565b7f4f776e61626c653a2063616c6c6572206973206e6f7420746865206f776e6572600082015250565b6000612d90602083611e33565b9150612d9b82612d5a565b602082019050919050565b60006020820190508181036000830152612dbf81612d83565b9050919050565b7f417574683a20556e617574686f72697a65640000000000000000000000000000600082015250565b6000612dfc601283611e33565b9150612e0782612dc6565b602082019050919050565b60006020820190508181036000830152612e2b81612def565b9050919050565b7f455243313135353a2073657474696e6720617070726f76616c2073746174757360008201527f20666f722073656c660000000000000000000000000000000000000000000000602082015250565b6000612e8e602983611e33565b9150612e9982612e32565b604082019050919050565b60006020820190508181036000830152612ebd81612e81565b9050919050565b600081519050919050565b600082825260208201905092915050565b6000612eeb82612ec4565b612ef58185612ecf565b9350612f05818560208601611e44565b612f0e81611e77565b840191505092915050565b600060a082019050612f2e6000830188612437565b612f3b6020830187612437565b8181036040830152612f4d818661238a565b90508181036060830152612f61818561238a565b90508181036080830152612f758184612ee0565b90509695505050505050565b600081519050612f9081611d6c565b92915050565b600060208284031215612fac57612fab611c38565b5b6000612fba84828501612f81565b91505092915050565b60008160e01c9050919050565b600060033d1115612fef5760046000803e612fec600051612fc3565b90505b90565b600060443d1061307f57613004611c2e565b60043d036004823e80513d602482011167ffffffffffffffff8211171561302c57505061307f565b808201805167ffffffffffffffff81111561304a575050505061307f565b80602083010160043d03850181111561306757505050505061307f565b61307682602001850186611f17565b82955050505050505b90565b7f455243313135353a207472616e7366657220746f206e6f6e204552433131353560008201527f526563656976657220696d706c656d656e746572000000000000000000000000602082015250565b60006130de603483611e33565b91506130e982613082565b604082019050919050565b6000602082019050818103600083015261310d816130d1565b9050919050565b7f455243313135353a204552433131353552656365697665722072656a6563746560008201527f6420746f6b656e73000000000000000000000000000000000000000000000000602082015250565b6000613170602883611e33565b915061317b82613114565b604082019050919050565b6000602082019050818103600083015261319f81613163565b9050919050565b600060a0820190506131bb6000830188612437565b6131c86020830187612437565b6131d56040830186611d16565b6131e26060830185611d16565b81810360808301526131f48184612ee0565b9050969550505050505056fea2646970667358221220d246ebbbc177ed085ad5236956c04eb84c9fa1c3f9cac7c262dc9ca8e165b79364736f6c634300080d0033",
  "devdoc": {
    "kind": "dev",
    "methods": {
      "balanceOf(address,uint256)": {
        "details": "See {IERC1155-balanceOf}. Requirements: - `account` cannot be the zero address."
      },
      "balanceOfBatch(address[],uint256[])": {
        "details": "See {IERC1155-balanceOfBatch}. Requirements: - `accounts` and `ids` must have the same length."
      },
      "isApprovedForAll(address,address)": {
        "details": "See {IERC1155-isApprovedForAll}."
      },
      "owner()": {
        "details": "Returns the address of the current owner."
      },
      "renounceOwnership()": {
        "details": "Leaves the contract without owner. It will not be possible to call `onlyOwner` functions anymore. Can only be called by the current owner. NOTE: Renouncing ownership will leave the contract without an owner, thereby removing any functionality that is only available to the owner."
      },
      "safeBatchTransferFrom(address,address,uint256[],uint256[],bytes)": {
        "details": "See {IERC1155-safeBatchTransferFrom}."
      },
      "safeTransferFrom(address,address,uint256,uint256,bytes)": {
        "details": "See {IERC1155-safeTransferFrom}."
      },
      "setApprovalForAll(address,bool)": {
        "details": "See {IERC1155-setApprovalForAll}."
      },
      "supportsInterface(bytes4)": {
        "details": "See {IERC165-supportsInterface}."
      },
      "transferOwnership(address)": {
        "details": "Transfers ownership of the contract to a new account (`newOwner`). Can only be called by the current owner."
      },
      "uri(uint256)": {
        "details": "See {IERC1155MetadataURI-uri}. This implementation returns the same URI for *all* token types. It relies on the token type ID substitution mechanism https://eips.ethereum.org/EIPS/eip-1155#metadata[defined in the EIP]. Clients calling this function must replace the `\\{id\\}` substring with the actual token type ID."
      }
    },
    "version": 1
  },
  "userdoc": {
    "kind": "user",
    "methods": {},
    "version": 1
  },
  "storageLayout": {
    "storage": [
      {
        "astId": 138,
        "contract": "contracts/CatsAndSoup.sol:CatsAndSoup",
        "label": "_balances",
        "offset": 0,
        "slot": "0",
        "type": "t_mapping(t_uint256,t_mapping(t_address,t_uint256))"
      },
      {
        "astId": 144,
        "contract": "contracts/CatsAndSoup.sol:CatsAndSoup",
        "label": "_operatorApprovals",
        "offset": 0,
        "slot": "1",
        "type": "t_mapping(t_address,t_mapping(t_address,t_bool))"
      },
      {
        "astId": 146,
        "contract": "contracts/CatsAndSoup.sol:CatsAndSoup",
        "label": "_uri",
        "offset": 0,
        "slot": "2",
        "type": "t_string_storage"
      },
      {
        "astId": 4518,
        "contract": "contracts/CatsAndSoup.sol:CatsAndSoup",
        "label": "isAuthorized",
        "offset": 0,
        "slot": "3",
        "type": "t_mapping(t_address,t_bool)"
      },
      {
        "astId": 4522,
        "contract": "contracts/CatsAndSoup.sol:CatsAndSoup",
        "label": "isUser",
        "offset": 0,
        "slot": "4",
        "type": "t_mapping(t_address,t_bool)"
      },
      {
        "astId": 7,
        "contract": "contracts/CatsAndSoup.sol:CatsAndSoup",
        "label": "_owner",
        "offset": 0,
        "slot": "5",
        "type": "t_address"
      },
      {
        "astId": 4611,
        "contract": "contracts/CatsAndSoup.sol:CatsAndSoup",
        "label": "marketplace",
        "offset": 0,
        "slot": "6",
        "type": "t_address"
      }
    ],
    "types": {
      "t_address": {
        "encoding": "inplace",
        "label": "address",
        "numberOfBytes": "20"
      },
      "t_bool": {
        "encoding": "inplace",
        "label": "bool",
        "numberOfBytes": "1"
      },
      "t_mapping(t_address,t_bool)": {
        "encoding": "mapping",
        "key": "t_address",
        "label": "mapping(address => bool)",
        "numberOfBytes": "32",
        "value": "t_bool"
      },
      "t_mapping(t_address,t_mapping(t_address,t_bool))": {
        "encoding": "mapping",
        "key": "t_address",
        "label": "mapping(address => mapping(address => bool))",
        "numberOfBytes": "32",
        "value": "t_mapping(t_address,t_bool)"
      },
      "t_mapping(t_address,t_uint256)": {
        "encoding": "mapping",
        "key": "t_address",
        "label": "mapping(address => uint256)",
        "numberOfBytes": "32",
        "value": "t_uint256"
      },
      "t_mapping(t_uint256,t_mapping(t_address,t_uint256))": {
        "encoding": "mapping",
        "key": "t_uint256",
        "label": "mapping(uint256 => mapping(address => uint256))",
        "numberOfBytes": "32",
        "value": "t_mapping(t_address,t_uint256)"
      },
      "t_string_storage": {
        "encoding": "bytes",
        "label": "string",
        "numberOfBytes": "32"
      },
      "t_uint256": {
        "encoding": "inplace",
        "label": "uint256",
        "numberOfBytes": "32"
      }
    }
  }
}